:020000040800F2
:1000000030460020C1010008D92300080123000860
:10001000D5230008B91200083B4200080000000088
:10002000000000000000000000000000D3010008F4
:10003000651E000800000000D7010008D901000873
:10004000DB010008DB010008DB010008DB01000820
:10005000DB010008DB010008DB010008DB01000810
:10006000DB010008DB010008DB010008DB01000800
:10007000DB010008DB010008DB010008DB010008F0
:10008000DB010008DB010008DB010008DB010008E0
:10009000BD130008DB010008DB010008DB010008DC
:1000A000DB010008DB010008DB010008DB010008C0
:1000B000DB010008ED330008DB010008DB0100086C
:1000C000DB010008DB010008DB010008DB010008A0
:1000D000DB010008453D0008DB010008ED3D00089C
:1000E000DB010008DB010008DB010008DB01000880
:1000F000DB010008DB010008DB010008DB01000870
:10010000DB010008DB010008DB010008DB0100085F
:10011000DB010008A9390008DB010008DB01000849
:10012000DB010008DB010008DB010008DB0100083F
:10013000DB010008DB010008DB010008DB0100082F
:10014000DB010008DB010008DB010008DB0100081F
:10015000DB010008DB010008DB010008F93E0008B4
:10016000DB010008DB010008DB010008DB010008FF
:10017000DB010008DB010008DB010008DB010008EF
:10018000DB010008DB010008FD390008D93C00084C
:10019000DB010008DB010008DB010008DB010008CF
:1001A0000000000000000000DB010008DFF80CD0B8
:1001B00000F0CCFC00480047D58D000830460020F8
:1001C0000648804706480047FEE7FEE7FEE7FEE7F1
:1001D000FEE7FEE7FEE7FEE7FEE7FEE77D3200080A
:1001E000AD01000830B50B46014600202022012455
:1001F00009E021FA02F59D4205D303FA02F5491BF5
:1002000004FA02F52844151EA2F10102F1DC30BD0A
:100210002DE9FE43994615468846074601AC02295A
:1002200042D3002D40D000200290A8F101004FF0F1
:10023000FF36009022E000FB057201FB05701146BD
:100240004A469047002805DC54F82600304444F81C
:10025000260013E060682A4600FB057154F8040C80
:1002600000FB057007E00B7890F800C001F801CBA7
:1002700000F8013B521E002AF5D1764254F8040CD6
:1002800061688842D7DC4B462A463846FFF7C0FFF4
:1002900054F8040C4B46A8EB0001401C00FB057011
:1002A0002A46491EFFF7B4FFBDE8FE8310B5431A86
:1002B000934209D28318881803E010F8011D03F84F
:1002C000011D521EF9D210BD40EA01039B0703D065
:1002D00009E008C9121F08C0042AFAD203E011F885
:1002E000013B00F8013B521EF9D210BDD2B201E031
:1002F00000F8012B491EFBD270470022F6E710B52B
:1003000013460A4604461946FFF7F0FF204610BD83
:10031000CAB2401E10F8011F8A4202D00029F9D14A
:1003200000207047421C10F8011B0029FBD1801AE5
:10033000704710B5002200E0521C835C8C5CA34225
:1003400001D1002BF8D1D8B2E1B2401A10BDCBB226
:1003500003E00178994203D0401C521EF9D20020DC
:100360007047034611F8012B00F8012B002AF9D140
:100370001846704700F0DEBA2DE9FE4F804681EA4C
:100380000300C00F0C46009021F0004123F000450F
:10039000B8EB0200A94105D24046214690461C46D2
:1003A0000B46024623F00040104347D0270DC7F309
:1003B0000A00C3F30A510290401A019040286BDAF8
:1003C000C3F3130040F4801B0098924620B1002331
:1003D000D2EB030A63EB0B0B01985946C0F14002C4
:1003E000504600F028FA06460D4650465946019AF6
:1003F00000F040FA10EB08006141002487EA115236
:1004000084EAE7731A4340D0009A62B3019A012A42
:100410004FEA075215DC001B61EB02014FF000426E
:1004200002EA0752CDE90042001C41F58011324634
:100430002B4600F00DFB03B0BDE8F08F404621468F
:10044000F9E7001B61EB0201001C41F58013001865
:100450005B412018A2F5001747EB030140EAD57075
:10046000B6196D4111E06D084FEA360645EAC075D0
:100470004FEA0752001B61EB0201001C41F580119D
:1004800049084FEA30000019514132462B4603B06B
:10049000BDE8F04F00F0CDBA0098012240000023E3
:1004A000D0EB020263EBE073009821464FEAE07460
:1004B000B8EB000061EB0401E9E783F000435BE780
:1004C00081F0004158E72DE9FE4F81EA030404F072
:1004D000004421F0004100944FF0000B23F0004352
:1004E00050EA01045ED052EA03045BD0C3F30A541D
:1004F000C1F30A552C44A4F2F3340194A0FB025436
:10050000C1F3130141F48011C3F3130343F48013C7
:1005100001FB024400FB034E840A970A44EA81541B
:1005200047EA8357A4FB076802958D0A05FB0785F8
:100530004FEA932C04FB0C542705029D4FEA065802
:1005400047EA1637B5EB08056EEB070C870E920EDF
:1005500047EA811742EA8312A7FB0201B6EB0B01BF
:1005600064EB00042B0D43EA0C335E1844EB1C5083
:10057000DA465146E7FB0201C5F313044FEA0B3399
:1005800043EA14534FEA0432019C43EA0603A4F100
:100590000C040294009CCDE900B400F059FA03B0B9
:1005A000BDE8F08F00200146F9E72DE9F04D81EA22
:1005B000030404F0004B21F0004514464FF0000AFC
:1005C00023F0004150EA050220D054EA01021DD078
:1005D000C5F30A570246C5F31303C1F31300C1F371
:1005E0000A5640F4801543F48013A7EB0608101B4D
:1005F000D64608F2FD3873EB050002D308F1010876
:1006000001E092185B41B8F1000F03DA00200146C7
:10061000BDE8F08D00204FF48011064684460EE0C0
:10062000171B73EB050705D3121B63EB050306438A
:100630004CEA010C49084FEA300092185B4150EA3D
:100640000107EDD152EA030012D082EA040083EAE6
:100650000501084305D0101BAB4106D2012200233F
:1006600006E000224FF0004302E06FF00102531059
:100670001AEB06004CEB085110EB0A0041EB0B01A2
:10068000BDE8F04D00F0D5B9F0B4CA17CB0F50401B
:100690005140C61841F100054FEAC37231462800A7
:1006A0004FF0960303D0B623F0BC00F094B9304667
:1006B0000021F9E70EB5C10F80EAE0700844CA07CF
:1006C000002140F233438DE80E000A460B4600F04D
:1006D000BFF903B000BD70B5C1F30A5201F0004587
:1006E0000024C1F3130140F2FF3341F480119A4218
:1006F00001DA002070BD40F233439A42A2F2334245
:1007000003DC524200F0A6F800E090402C43F1D008
:10071000404270BD00F0004230F000400AD0C10DF0
:1007200001F56071C0F3160042EA0151C2084007AA
:1007300011437047002001467047000030B5041E89
:1007400071F1000404DB4FF00044404264EB01010E
:10075000141E73F1000405DB1C464FF000435242A7
:1007600063EB04038B4208BF824230BD30B5041EE8
:1007700071F1000404DB4FF00044404264EB0101DE
:10078000141E73F1000405DB1C464FF00043524277
:1007900063EB0403994208BF904230BD01F000436F
:1007A00030B421F0004150EA010206D00A0DA2F552
:1007B0006072C1F31301002A02DC30BC00207047D4
:1007C000440F44EAC104C100E01830BC00EBC25041
:1007D00000F0F8B82DE9F05F0546002092469B46F0
:1007E00088460646814640241BE028464146474647
:1007F000224600F02FF853465A46C01A914110D3B2
:1008000011461846224600F016F82D1A67EB01082B
:100810004F4622460120002100F00DF817EB000999
:100820004E41201EA4F10104DFDC484631462A4631
:100830004346BDE8F09F202A04DB203A00FA02F18B
:10084000002070479140C2F1200320FA03F31943BE
:1008500090407047202A04DB203A21FA02F0002160
:10086000704721FA02F3D040C2F1200291400843C0
:1008700019467047202A06DBCB17203A41FA02F0CE
:1008800043EAE07306E041FA02F3D040C2F12002ED
:1008900091400843194670470FB4002300B589B052
:1008A0000CA900910B996FF00042CB601E4B069390
:1008B0001E4B07930423CDE901321D4A08920246DC
:1008C0006B46002000F0E2F909B05DF814FB70B54A
:1008D00086B006464FF0FF300091CDE901010020BF
:1008E00015460C4604903246694604A8FFF7D4FF2B
:1008F00003460498211825B108B10A4600E02246B3
:100900002A6000280DD0002B02DD0098884208D014
:10091000081B0094CDE901043246694604A8FFF79C
:10092000BBFF06B070BD0000C50E0008E30E000856
:10093000790B00082DE9F04791460E4680460446A3
:10094000002514F8017B2FB100F012F90068C05D9A
:10095000C007F6D12B2F02D02D2F1ED0641E4A4681
:100960003146204600F0CEFA26B13268A24201D1CB
:10097000C6F800806A054FF0020418D50023D0EBBA
:10098000030563EB01025D1B934109DB0023D0EB00
:10099000030063EB0101BDE8F08745F48065DEE705
:1009A00003F010FD046000204FF00041F3E7021E49
:1009B00071F10002EFDA03F005FD04604FF0FF3043
:1009C0004108E8E70029A8BF7047401C490008BF5C
:1009D00020F00100704710B4B0FA80FC00FA0CF06F
:1009E00050EA010404BF10BC704749B1CCF12004A7
:1009F00021FA04F411FA0CF118BF01212143084334
:100A0000A3EB0C01CB1D4FEA00614FEA102042BF5F
:100A1000002010BC704700EBC35010440029A4BF55
:100A200010BC7047401C490008BF20F0010010BCFA
:100A3000704710B5141E73F1000408DA401C41F130
:100A4000000192185B411A4301D120F0010010BD52
:100A50002DE9F04D92469B4611B1B1FA81F202E0C8
:100A6000B0FA80F220329046FFF7E5FE04460F46CA
:100A700040EA0A0041EA0B0153465A46084313D0A4
:100A8000114653EA010019D0C8F140025046FFF761
:100A9000E1FE05460E46504659464246FFF7CBFE5C
:100AA000084305D0012004E020463946BDE8F08D1A
:100AB0000020054346EAE0762C4337430A98630555
:100AC000E40AA0EB08000022FD0A44EA47540A3079
:100AD00002D500200146E9E7010510196941DDE969
:100AE000084500196941BDE8F04DA2E770B521F055
:100AF000004303430CD0C1F30A550024D5EB040591
:100B000064EB0403D617AD1AB34102DB00200146A3
:100B100070BD201841EB025170BDC1F30A52C1F300
:100B2000130140F2FF3341F480119A4202DA0020AF
:100B30000146704740F233439A42A2F2334202DC4C
:100B40005242FFF787BEFFF776BE0000064C074D06
:100B500006E0E06840F0010394E80700984710348D
:100B6000AC42F6D3FFF726FB00B2000820B2000823
:100B700000487047FCB1000810B50446FFF7F8FFC5
:100B80000068005D00F0010010BD00002DE9FF4F7E
:100B9000087881B09946FF2805D0491C2D2804D03B
:100BA0000024002308E000230BE00124F9E703EB15
:100BB000830300EB4303491C0878FF28F7D104B1F5
:100BC0005B4200200090147801462D2C01D02B2C84
:100BD00004D1521C2D2C12D000240094002516782C
:100BE000FF2E0ED00A24A0FB04C801FB04810027BD
:100BF00000FB0711521C16EB0C006941EFE70124C2
:100C0000EBE7994450EA01020ED00024AA4D264693
:100C1000DFF8A88200F043FA82468B46B9F1000063
:100C200009DAC9F100071BE001980021C0E90011B1
:100C300005B0BDE8F08F074612E0F80707D022465E
:100C40002B4630464146FFF73EFC06468846224684
:100C50002B4610461946FFF736FC04460D467F101A
:100C6000002FEAD1B9F1000F3246434650465946AB
:100C700002DAFFF79AFC01E0FFF725FC009A0AB1BF
:100C800081F00041019AC2E90001D1E72DE9FF4F4F
:100C90001F468DB0D7E901464FF0FF382E2045465C
:100CA0004FF000090B90B9696D1C0E988847396A9E
:100CB000824688470028F6D1BAF1FF3F0AD024F4D3
:100CC000D064002E11DDBAF12B0F08D0BAF12D0F30
:100CD0000BD102E0404611B0ABE744F48064B9693F
:100CE0006D1C0E9888478246761E6946600501D5C0
:100CF0002D2000E02B208DF8000001F1010B0DF1FB
:100D0000200809E0B9696D1C0E98884782460F9843
:100D100044F40074761E0560002E02DDBAF1300F37
:100D2000F0D00B998A453ED144F0800406E00F993B
:100D3000681CA9F1010944F400740860B9696D1CCC
:100D4000761E0E98884782463028F0D02BE00B990B
:100D50008A4505D1200603D444F08004761E18E0AD
:100D6000504604F031FF08B30DF11301761E44F430
:100D700000748B4508D2AAF130000BF8010B200655
:100D800007D5A9F1010003E0200602D409F1010012
:100D90008146A00502D50F99681C0860B9696D1CD1
:100DA0000E9888478246002ED1DC53E0002E51DD9C
:100DB000BAF1650F02D0BAF1450F4BD1A00549D564
:100DC000B9696D1C24F44074761E0E9888478246DB
:100DD000002E0CDD2B2804D0BAF12D0F07D144F4DE
:100DE0008074B9696D1C0E9888478246761EE005AE
:100DF00001D52D2100E02B2108F8011BCDF82C8016
:100E000021E00DF12901761E44F4007488450CD2CE
:100E1000AAF1300010F0FF0088F8000002D10B9911
:100E2000884509D908F1010806E0E00501D5244804
:100E300001E042F20F708146B9696D1C0E98884737
:100E400082460F980560002E04DD504604F0BCFE7B
:100E50000028D6D1F9690E988847FF208BF800004A
:100E600088F800000020069007904B466A4608A9C3
:100E700006A8FFF78BFEA00502D46FF001002AE759
:100E800014F0240F0AD0E00714D1DDE90612386807
:100E9000031D3B600068C0E900120BE0DDE90601BC
:100EA000FFF77CFC0146E00704D13868021D3A6078
:100EB0000068016028460EE7000024400000F03F73
:100EC000F1D8FFFF426842B1016811F8013B23B13C
:100ED000521EC0E90012184670470121C160881EE9
:100EE000704742685AB1C368016843B983688B424E
:100EF00005D0491E521CC0E90012002070474FF077
:100F0000FF3070472DE9F74F4FF00009009C154660
:100F1000CA4614F8010B302801D0ADB115E014F821
:100F2000010B4FF00109782803D0582801D04DB1AA
:100F30000BE00DB1102D08D14FF00009102514F869
:100F4000010B02E0082500E00A2500273E46B846CE
:100F50004FEAE57B16E0A5FB07230BFB073105FBFA
:100F6000080005FB0616030CD71846F100061FFA09
:100F700080F8381E4FF0010976F5803000D3CA465C
:100F800014F8010B294600F07CF80028E3DA0198F8
:100F900038B1B9F1000F01D0641E00E0009C019847
:100FA0000460BAF1000F08D003F00CFA02210160CE
:100FB000C81E014603B0BDE8F08F310441EA174175
:100FC00048EA0740F6E72DE9F04D00231A461B1AC0
:100FD0008A4103DB00200146BDE8F08DC1F30A52CF
:100FE000C1F3130141F480154FF0000BD10702D17A
:100FF00000186D41521E0027044640F2FF1138468A
:1010000001EB620A3E468046024600204FF4801102
:10101000FFF720FCC2197141BB1846EB0100B4EB8D
:10102000030C75EB000C04D3E41A65EB00051746BE
:101030000E46241908F101006D4180463428E3DD95
:10104000F91946EB0600091BA84103D24FF0FF3205
:10105000134601E0002213461BEB070046EB0A5142
:10106000BDE8F04DFFF7E5BC0EB540F2334102910B
:101070000021CDE900110A460B46FFF7E9FC03B059
:1010800000BD3A2800D2303820F02002412A01D396
:10109000A2F13700884201D34FF0FF3070470EB500
:1010A00040F2334202920022CDE900221346FFF7BC
:1010B000CFFC03B000BD70B58C1810F8015B15F0C3
:1010C000070301D110F8013B2A1106D110F8012BBA
:1010D00003E010F8016B01F8016B5B1EF9D12B07DF
:1010E00005D40023521E0DD401F8013BFAE710F895
:1010F000013BCB1A921C03E013F8015B01F8015B82
:10110000521EF9D5A142D8D3002070BD0021C16084
:1011100001610160416081609FED080A80ED050A70
:101120009FED060A80ED060A9FED040A80ED070A8E
:101130009FED020A80ED080A7047000000000000E1
:1011400000B50B48FFF7E2FF0A48FFF7DFFF0A4848
:10115000FFF7DCFF0948FFF7D9FF0948FFF7D6FF83
:101160000848FFF7D3FF0848FFF7D0FF00BD000095
:101170009C2000204C210020FC210020AC220020DB
:101180005C230020BC2400206C25002008B5082327
:1011900002220C214FF4B47001F0B6FF4FF4A060AE
:1011A00001F058F9B42006F02BF808F015FB08F010
:1011B0006DFB00F0D9FE07F0E5FA07F0A9FA002070
:1011C000052303221146009000F078F80020052343
:1011D00003221146009000F05DFA00F065FE01F078
:1011E00091F805F059FA01F0DDFA02F017FD07F069
:1011F000BBFE06F003FC41F2883006F01DF802F059
:1012000071F842F22731092002F0CAF903F02EF8F2
:10121000FFF796FF09F03CF99FED070A074880EDBC
:10122000040A9FED070A074880ED040A08F010FB46
:10123000054801F069F908BD00C0A8453024002028
:1012400000805445E0240020A8040020164880EDCA
:10125000000A80ED040AD0ED001A9FED142A61EE19
:10126000821AC0ED011AD0ED041A9FED102A61EE2A
:10127000821AC0ED051AD0ED011AB3EE032A61EE11
:10128000821AFDEEE11A0A48C0ED091A0648D0EDAF
:10129000051AB3EE032A61EE821AFDEEE11A054843
:1012A000C0ED091A70470000B80400204276F43FF0
:1012B00010200020C020002000BFFEE72DE9F041F3
:1012C0008AB004460D4616461F46DDF840800121CF
:1012D000082001F0C9F80121480601F0D5F80320E3
:1012E000089002208DF8240000208DF826000320AD
:1012F0008DF8250000208DF8270008A92D4800F062
:10130000D1FE092200212B4800F014FF09220121FF
:10131000284800F00FFF00208DF81A0001208DF8FA
:101320001B0000208DF81C008DF81D008DF81E009C
:101330008DF81F008DF816808DF817408DF8186015
:101340008DF81950ADF8147005A91B4800F09BFAF0
:1013500000208DF80E008DF80F0001208DF8100090
:101360000020ADF80400ADF80600ADF80800ADF8B7
:101370000A00ADF80C0001208DF8110001A800F062
:10138000F5F9012202210C4800F074FA14208DF8BE
:10139000000001208DF8010000208DF802000120DE
:1013A0008DF80300684601F019F800200AB0BDE886
:1013B000F0810000000C02400064004070B586B06F
:1013C00001AA0021554800F0E8FA9DF810005449A0
:1013D00008709DF80F004870084604889DF81200B8
:1013E00008709DF8110048700846B0F900509DF84B
:1013F00014109DF8130041EA002006B20198A0F5F0
:1014000000700B287ED2DFE800F037060D141B2297
:1014100085858530290033462A462146414808F013
:10142000F5FA78E033462A4621463F4808F0EEFABE
:1014300071E033462A4621463C4808F0E7FA6AE064
:1014400033462A4621463A4808F0E0FA63E033463C
:101450002A462146374808F0D9FA5CE033462A4646
:101460002146354808F0D2FA55E033462A4621464F
:10147000324808F0CBFA4EE09DF810009DF80F10AE
:1014800040EA01202E4908609DF812109DF81100D5
:1014900041EA00202A4948609DF814109DF8130085
:1014A00041EA0020264988609DF816109DF8150035
:1014B00041EA00202249C86008460068B0F5804F24
:1014C00004DD08460068A0F5803008601C484068CC
:1014D000B0F5804F05DD1A484068A0F58030184906
:1014E000486017488068B0F5804F05DD1448806873
:1014F000A0F58030124988601148C068B0F5804F6F
:1015000007DD00E006E00E48C068A0F580300C4919
:10151000C86000E000BF00BF06B070BD00640040BE
:101520002000002010200020C0200020702100207A
:1015300020220020D022002030240020E02400209F
:101540009025002070B586B0064600244FF4007048
:101550000190002002908DF80C008DF80D000820FD
:101560008DF80E0000BF05E0315D0DF10F00015553
:10157000601C84B2082CF7DB01A90D4800F085FA45
:101580000546002401E0601C84B22946084800F0AA
:101590000FFB18B940F6FF708442F4DB40F6FF7091
:1015A000844202DB012006B070BD0020FBE7000092
:1015B0000064004070B586B00646002440F2FF206B
:1015C0000190002002908DF80C008DF80D0008208D
:1015D0008DF80E0000BF05E0315D0DF10F000155E3
:1015E000601C84B2082CF7DB01A90D4800F04DFA0D
:1015F0000546002401E0601C84B22946084800F03A
:10160000D7FA18B940F6FF708442F4DB40F6FF7059
:10161000844202DB012006B070BD0020FBE7000021
:101620000064004070B586B00646002440F2FF100A
:101630000190002002908DF80C008DF80D0008201C
:101640008DF80E0000BF05E0315D0DF10F00015572
:10165000601C84B2082CF7DB01A90D4800F015FAD4
:101660000546002401E0601C84B22946084800F0C9
:101670009FFA18B940F6FF708442F4DB40F6FF7021
:10168000844202DB012006B070BD0020FBE70000B1
:10169000006400402DE9F0418AB004460D4616462C
:1016A0001F46DDF840800121022000F0DDFE01210F
:1016B000880600F0E9FE4FF44050089002208DF8B3
:1016C000240000208DF8260003208DF8250000203E
:1016D0008DF8270008A9234800F0E4FC09220C211A
:1016E000204800F027FD09220D211E4800F022FDB0
:1016F00000208DF81A0001208DF81B0000208DF8C5
:101700001C008DF81D008DF81E008DF81F008DF84F
:1017100016808DF817408DF818608DF81950ADF8C7
:10172000147005A9104800F0AEF800208DF80E00E6
:101730008DF80F0001208DF810000020ADF8040096
:10174000ADF80600ADF80800ADF80A00ADF80C00E1
:1017500001208DF8110001A800F008F800200AB05F
:10176000BDE8F081000402400068004010B500218F
:10177000837A012202FA03F13D4A126842F0010223
:101780003B4B1A603A4A1C3212688A43384B1C336E
:101790001A60027BCAB9364A0C3212688A43344B4B
:1017A0000C331A604288C38842EA0343304A40320D
:1017B000847A42F834300288838842EA03432C4A10
:1017C0004032847A02EBC4025360027B012A19D1B1
:1017D000274A0C3212680A43254B0C331A604288A0
:1017E000038842EA0343224A4032847A42F8343082
:1017F000C288838842EA03431D4A4032847A02EB5E
:10180000C4025360C27A3AB9194A121D12688A4357
:10181000174B1B1D1A6006E0154A121D12680A4379
:10182000134B1B1D1A60028932B9114A1432126817
:101830008A430F4B14331A600289012A06D10C4ADD
:10184000143212680A430A4B14331A60427B012A8D
:1018500006D1074A1C3212680A43054B1C331A6032
:10186000034A126822F00102014B1A6010BD000009
:10187000006600401AB143690B43436102E04369CB
:101880008B434361704730B5024600200023146843
:1018900024F002041460146844F00104146000E0B1
:1018A0005B1C546804F001041CB94FF6FF74A3429A
:1018B000F6D1546804F001040CB900206CE08C7976
:1018C000012C04D1146844F08004146003E014680F
:1018D00024F080041460CC79012C04D1146844F005
:1018E0004004146003E0146824F0400414600C7A8F
:1018F000012C04D1146844F02004146003E014683F
:1019000024F0200414604C7A012C04D1146844F0B3
:101910001004146003E0146824F0100414608C7A3E
:10192000012C04D1146844F00804146003E0146826
:1019300024F008041460CC7A012C04D1146844F01B
:101940000404146003E0146824F0040414608C7828
:10195000A407CD7844EA05640D7944EA05444D793D
:1019600044EA05540D886D1E2C43D461146824F09C
:1019700001041460002300E05B1C546804F00104BF
:101980001CB14FF6FF74A342F6D1546804F0010471
:101990000CB1002000E0012030BD10B500F5D87377
:1019A00003EB01131B6803F004031372137A53B99A
:1019B00000F5D87303EB01131B6840F2FF7404EACF
:1019C0005353136009E000F5D87303EB01131B6850
:1019D0006FF0604404EAD303536000F5D87303EB5F
:1019E00001131B6803F00203537200F5D87303EB75
:1019F00001135B6803F00F03937200F5D87303EBD8
:101A000001135B681B0AD37400F5D87303EB011351
:101A10009B68D37200F5D87303EB01139B681C0A13
:101A2000147300F5D87303EB01139B681C0C5473FB
:101A300000F5D87303EB01139B681B0E937300F53D
:101A4000D87303EB0113DB68D37300F5D87303EB92
:101A50000113DB681C0A147400F5D87303EB01133F
:101A6000DB681C0C547400F5D87303EB0113DB68BE
:101A70001B0E937421B9C36843F02003C36003E0D5
:101A8000036943F02003036110BD10B50246002036
:101A9000936803F08063B3F1806F00D110E0936826
:101AA00003F00063B3F1006F01D1012008E09368F7
:101AB00003F08053B3F1805F01D1022000E00420E5
:101AC000042874D002F5C07303EB00131B6803F005
:101AD000010402F5C07303EB00131C600B7A7BB9A1
:101AE0004B7A0C8843EA445302F5C07404EB0014AB
:101AF0002468234302F5C07404EB0014236010E053
:101B00000B7A4C6843EAC4034C7A234302F5C07451
:101B100004EB00142468234302F5C07404EB0014A2
:101B200023608B7A03F00F038B7202F5C07303EB13
:101B300000135B6823F00F0402F5C07303EB00137E
:101B40005C6002F5C07303EB00135B688C7A23437F
:101B500002F5C07404EB001463608B7B1C064B7BA6
:101B600044EA03440B7B44EA0323CC7A234302F583
:101B7000C07404EB0014A3608B7C1C064B7C44EA0D
:101B800003440B7C44EA0323CC7B234302F5C0745B
:101B900004EB0014E36002F5C07303EB00131B6851
:101BA00043F0010402F5C07303EB00131C6010BD89
:101BB00010B50246002321B1012907D002290FD117
:101BC00009E090681D4C00EA04030BE090681C4C8F
:101BD00000EA040306E090681A4C00EA040301E0FE
:101BE000002300BF00BF184C181BA34216D007DC0F
:101BF00083B16FF08060184470B1022818D111E0F1
:101C0000B0F5007F10D0114C204448B1B0F5003F32
:101C10000ED10BE002230DE000230BE0002309E0CE
:101C2000002307E0012305E0012303E0012301E095
:101C3000002300BF00BFD8B210BD000003000004A5
:101C40000003000800000310000100080001FFF776
:101C500021B1026842F00102026003E0026822F052
:101C60000102026070470000016821F0010101607B
:101C70000021016041608160C160016121214161F9
:101C80004A49884204D13D21484A103A91608CE08B
:101C900046491831884205D14FF47461434A103ADD
:101CA000916082E041493031884205D14FF474118E
:101CB0003E4A103A916078E03C494831884205D16B
:101CC0004FF07461394A103A91606EE037496031E3
:101CD000884204D13649354A103AD16065E033492B
:101CE0007831884204D13349304A103AD1605CE0FF
:101CF0002E499031884204D12F492C4A103AD160A4
:101D000053E02A49A831884205D14FF03D51274A76
:101D1000103AD16049E02949884204D13D21274A3F
:101D2000083A116041E025491831884205D14FF445
:101D30007461224A083A116037E020493031884204
:101D400005D14FF474111D4A083A11602DE01B496A
:101D50004831884205D14FF07461184A083A116041
:101D600023E016496031884204D11149134A121FF9
:101D700011601AE011497831884204D10D490F4AA7
:101D8000121F116011E00D499031884204D10A49B7
:101D90000A4A121F116008E00849A831884204D19C
:101DA0004FF03D51054A121F11607047106002400C
:101DB0003D000020400F002000003D201064024044
:101DC00021B1026842F48022026003E0026822F43A
:101DD00080220260704722B1036843F4002303604D
:101DE00003E0036823F400230360016170470146A8
:101DF000486880B27047014600200A6802F4002259
:101E00000AB1012000E000207047000010B5002258
:101E10000268134B1A40CC680B6823434C69234378
:101E20008C692343CC6923430C6A23434C6A2343C4
:101E30008C6A23434C6B23438C6B23431A4302600D
:101E4000426922F00702D1E90B3423431A4342616D
:101E50000B6943604B6883608B68C36010BD0000F2
:101E60003F801CF07047000010B506F069FC78B1A7
:101E70000B48006801280BD10A48006808B9012006
:101E800000E000200749086000200549086005E0DF
:101E900006F056FC10B901200149086010BD000091
:101EA000340100209402434200B587B0012108208C
:101EB00000F0DAFA0121480400F0E6FA00208DF87B
:101EC0001A0001208DF81B0002208DF819008DF8F2
:101ED00018002020059005A9214800F0E3F8022011
:101EE0008DF818004020059005A91D4800F0DAF88B
:101EF000072206211A4800F01DF90722052118487B
:101F000000F018F94FF4E13001900020ADF808001E
:101F1000ADF80A00ADF80C00ADF810000C20ADF8DB
:101F20000E0001A90F4802F015F901210D4802F039
:101F300028F8012240F225510A4802F0E6F826204E
:101F40008DF8000000208DF8010001208DF80200BE
:101F50008DF80300684600F041FA07B000BD0000AC
:101F6000000C02400044004000B58FB001214748FA
:101F700000F07AFA0121102000F0A6FA072211469B
:101F8000434800F0D7F880200D9002208DF83800EB
:101F900000208DF83A0003208DF8390001208DF8DB
:101FA0003B000DA93A4800F07DF83A4801F0FEFFE9
:101FB000394809900020ADF82800ADF82A004FF408
:101FC0008060ADF82C000420ADF82E000020ADF8A4
:101FD000300009A92F4802F0BDF801212D4801F079
:101FE000D0FF012240212B4801F0D7FF25208DF89A
:101FF000380001208DF8390000208DF83A000120CA
:102000008DF83B000EA800F0E9F92448FFF72CFEFC
:102010004FF0006000901F48001D01902048029082
:102020000020039012200490002005904FF480605F
:1020300006900020079008904FF4807009904FF4AC
:1020400040300A9000200B900C900D900E900022D2
:1020500013491248FFF7BFFE01211048FFF7B0FEF9
:1020600069460E48FFF7D2FE012240F2244109489A
:1020700002F04BF8012240F22551064802F045F8E3
:1020800001210648FFF7E4FD0FB000BD020040004B
:102090000004024000100140A08601008864024054
:1020A000BA250020F0B50A4600210023002400BF15
:1020B0003DE0012505FA01F3156805EA03049C4299
:1020C00034D105684F000326BE40B543056015793D
:1020D0004E00B5400668354305601579012D02D0E4
:1020E0001579022D16D185684F000326BE40B543F1
:1020F000856055794E00B5408668354385604568F2
:1021000001268E40B5434560456896798E40B6B24B
:1021100035434560C5684F000326BE40B543C560E2
:10212000D5794E00B540C6683543C560491C1029B5
:10213000BFD3F0BDF0B5002300244D07ED0E02FA29
:1021400005F3CE1000F1200555F826504E07F70E86
:102150000F26BE40B543CF1000F1200646F82750A9
:10216000CE1000F1200555F8265045EA0304CE10A4
:1021700000F1200545F82640F0BD418370470183FA
:1021800070470000144890ED080AF3EE030A80EE51
:10219000201A124880ED031A114890ED080AF3EE58
:1021A000030A80EE201A0D4880ED071A90ED030A0D
:1021B000DFED0C0A20EE200A80ED020A90ED070AFE
:1021C000DFED080A20EE200A80ED060A90ED060AEF
:1021D00080ED130A7047000010200020B804002092
:1021E000C0200020960A063F1F4890ED040ADFED4C
:1021F0001F0A30EE600AB1EE400ADFED1D0A20EE44
:10220000200A1C4880ED250A1B4890ED040ADFEDEA
:102210001B0A30EE600AB1EE400ADFED150A20EE2F
:10222000200A144880ED210A90ED250AB5EEC00A77
:10223000F1EE10FA07D290ED250ADFED110A30EE2B
:10224000200A80ED250A0B4890ED210AB5EEC00A60
:10225000F1EE10FA07D290ED210ADFED090A30EE17
:10226000200A80ED210A70473024002000C0A845D4
:10227000A005343DB8040020E0240020008054452F
:102280000000B4431A48408800EE100AB8EE400A35
:10229000184880ED000A1648008900EE100AB8EED2
:1022A000400A144880ED010A134890ED010A1148D4
:1022B00080ED020A1048008900EE100AB8EE400ACC
:1022C0000C4880ED030A0C48408900EE100AB8EE75
:1022D000400A084880ED040A08480078000A00EE29
:1022E000100AB8EEC00A034880ED050A70470000E6
:1022F0001C060020580600202C060020A800002004
:1023000000BFFEE700B587B00121102000F0ACF857
:102310000121880700F0B8F800208DF81A0001208C
:102320008DF81B0002208DF819008DF81800C001EF
:10233000059005A92148FFF7B5FE02208DF8180089
:102340008020059005A91D48FFF7ACFE0822072153
:102350001A48FFF7EFFE082211461848FFF7EAFE79
:102360004FF4E13001900020ADF80800ADF80A000C
:10237000ADF80C00ADF810000C20ADF80E0001A96E
:102380000F4801F0E7FE01210D4801F0FAFD01229E
:1023900040F225510A4801F0B8FE52208DF80000A5
:1023A00000208DF801008DF8020001208DF8030057
:1023B000684600F013F807B000BD000000100240AE
:1023C000007800404A0A52020243014B1A607047EB
:1023D00008ED00E000BFFEE77047000070B5002187
:1023E00000230F22C4781CB3174C246804F4E06463
:1023F000C4F5E064C4F30721C1F10404E3B20A4167
:1024000044789C40E1B28478144021430C07210EAB
:102410000E4C05786155047804F01F050124AC408A
:1024200005786D11AD0005F1E025C5F8004109E022
:10243000047804F01F050124AC40054D06787611A0
:1024400045F8264070BD00000CED00E000E400E01F
:1024500080E100E002490143024A11607047000038
:102460000000FA050CED00E029B1064A12680243AB
:10247000044B1A6004E0034A12688243014B1A605D
:10248000704700003038024029B1064A1268024302
:10249000044B1A6004E0034A12688243014B1A603D
:1024A000704700004038024029B1064A12680243D2
:1024B000044B1A6004E0034A12688243014B1A601D
:1024C000704700002038024029B1064A12680243D2
:1024D000044B1A6004E0034A12688243014B1A60FD
:1024E000704700004438024029B1064A126802438E
:1024F000044B1A6004E0034A12688243014B1A60DD
:102500007047000024380240F0B50021002200246A
:10251000022500260223324F3F6807F00C0121B14B
:10252000042905D0082937D105E02E4F076036E091
:102530002D4F076033E02A4F3F1F3F68C7F3805697
:10254000274F3F1F3F6807F03F036EB1264FB7FB91
:10255000F3F7DFF88CC0ACF1040CDCF800C0CCF36E
:10256000881C07FB0CF40CE01E4FB7FBF3F7DFF8F9
:1025700070C0ACF1040CDCF800C0CCF3881C07FB85
:102580000CF4174F3F1F3F68C7F301477F1C7D00C6
:10259000B4FBF5F7076002E0124F076000BF00BF11
:1025A0000F4F3F6807F0F0010909104F7A5C076888
:1025B000D74047600A4F3F6807F4E051890A0B4F44
:1025C0007A5C4768D7408760054F3F6807F46041F1
:1025D000490B064F7A5C4768D740C760F0BD0000E2
:1025E000083802400024F400001BB700000000205F
:1025F0002DE9F04105460E46B046404606F060FC27
:1026000007462878A5280AD1002403E0285D38551C
:10261000601CC4B2B442F9DB384600F005F8384615
:1026200005F0B0F9BDE8F08138B50446002000900F
:1026300000254B4821680160217901716D1D6019E9
:1026400000880090AD1CBDF8000040F20222811A03
:10265000904253D016DCB0F5817F38D00ADC0128D7
:1026600021D0022824D0032826D0A0F2011000286F
:1026700072D127E0A0F2031070B3012833D0FE28F6
:102680006AD135E004294ED006DC01293CD002296C
:1026900040D0032960D141E0052948D006294DD01A
:1026A000FF2959D14EE061192E480968016054E0B4
:1026B0002D48615D017050E061191C222B48FDF727
:1026C000F5FD4AE061192A480968016045E0611991
:1026D00028480968016040E06019274902880A809B
:1026E0008078887039E0611924480988018034E0D5
:1026F000611910222248FDF7D9FD2EE06119102240
:102700002048FDF7D3FD28E0611910221E48FDF78F
:10271000CDFD22E01D48615D01701EE061191C487D
:102720000988018019E01B48615D017015E060199E
:10273000194902680A60406848600EE01748615D08
:1027400001700AE06019164902680A6042684A602E
:102750008068886001E0FFE700BF00BF38BD00006F
:102760008C0000209200002096000020000600202F
:10277000980000209C000020A0000020A300002062
:102780001C0600202C0600203C060020A50000208E
:10279000A6000020A8000020AC000020B40000200B
:1027A0004C06002000B58FB001214A48FFF75CFEBF
:1027B00001218804FFF768FE072209214648FFF738
:1027C000B9FC4FF400700D9002208DF83800002005
:1027D0008DF83A0003208DF8390000208DF83B0079
:1027E0000DA93D48FFF75EFC3C4801F0DFFB4FF4CC
:1027F000E13009900020ADF82800ADF82A004FF430
:102800008060ADF82C000420ADF82E000020ADF85B
:10281000300009A9314801F09DFC01212F4801F049
:10282000B0FB012240212D4801F0B7FB27208DF895
:10283000380001208DF839008DF83A008DF83B0002
:102840000EA8FFF7CBFD0C208DF8380001208DF885
:10285000390002208DF83A0001208DF83B000EA8C7
:10286000FFF7BCFD1E48FFF7FFF94FF00060009036
:102870001A48001D01901B48029000200390802000
:102880000490002005904FF480600690002007908F
:1028900008904FF4807009904FF440300A90002067
:1028A0000B900C900D900E9069460D48FFF7AEFA14
:1028B000012240F22441094801F027FC012240F2A4
:1028C0002551064801F021FC01210548FFF7C0F918
:1028D0000FB000BD08002000000C0240004800407E
:1028E000286002407407002000B9704701784278E0
:1028F00041EA0221C1F30A01144A11804178C9104A
:10290000827841EA4211C1F30A01104A518081786C
:102910008911C27841EA8201027941EA8221C1F338
:102920000A010A4A918001794910427941EAC211AB
:10293000C1F30A01054AD180417909118908117250
:102940004179C1F30111517200BFCEE7B0250020DB
:1029500010B52DED0C8BFE48007A032826D1FC49DA
:10296000488840F294634FF4B6724FF4806104F0EB
:1029700069F9F84880ED000AF549088840F2946347
:102980004FF4B6724FF4806104F05CF9F24880EDC8
:10299000000AEF49888840F294634FF4B6724FF40E
:1029A000806104F0C9F9ED4880ED000AE848007A3A
:1029B00001283ED1EA480078042802D0052836D103
:1029C0001AE0E349C88840F294634FF4B6724FF4BA
:1029D000806103F01BFFE34880ED000ADC490888B2
:1029E00040F294634FF4B6724FF4806104F020F823
:1029F000DD4880ED000A1BE0D549C88840F29463A9
:102A00004FF4B6724FF4806103F000FFD74880EDB9
:102A1000200ACF49088840F294634FF4B6724FF40D
:102A2000806104F005F8D14880ED240A00E000BF81
:102A300000BFC748007A02287DD1C549488840F2C6
:102A400094634FF4B6724FF4806104F0FBF8C14810
:102A500080ED000ABE49088840F294634FF4B672D4
:102A60004FF4806104F0EEF8BB4880ED000AB849ED
:102A7000888840F294634FF4B6724FF4806104F09A
:102A80005BF9B64880ED000AB848D0ED150AB848A1
:102A900090ED000A9FEDB71A00EE810A80ED000A62
:102AA00008F072FAB24880ED000A0068FDF732FEC5
:102AB00041EC1D0BB0EE4D0AF0EE6D0A02F014FB76
:102AC000B0EE40BAF0EE60BAA3480068FDF722FE0F
:102AD00041EC1C0B53EC1B2BFDF7F5FC41EC190BE7
:102AE000A3480068FDF716FE41EC1D0BB0EE4D0A41
:102AF000F0EE6D0A01F06CFCB0EE40BAF0EE60BA98
:102B000094480068FDF706FE41EC1C0B53EC1B2BB0
:102B1000FDF7D9FC41EC1A0B53EC192BFDF72CFCFB
:102B200041EC180BFDF73AFE9349086090480068A5
:102B3000FDF7F0FD00E058E041EC1D0BB0EE4D0A52
:102B4000F0EE6D0A02F0D0FAB0EE40BAF0EE60BAE4
:102B500080480068FDF7DEFD41EC1C0B53EC1B2B9D
:102B6000FDF7B1FC41EC1A0B81480068FDF7D2FD7E
:102B700041EC1D0BB0EE4D0AF0EE6D0A01F028FCA1
:102B8000B0EE40BAF0EE60BA73480068FDF7C2FDDF
:102B900041EC1C0B53EC1B2BFDF795FC41EC190B86
:102BA00053EC1A2BFDF789FC41EC180BFDF7F6FDF1
:102BB00072490860704890ED000A664880ED000A8E
:102BC000084690ED000A644880ED000A08F0E2F93A
:102BD000B0EE408A654890ED1E0AF0EE400AB0EE75
:102BE000480A04F0D7FF07F0DFFB5948407A012874
:102BF00004D002285DD003287ED1E4E09FED600A76
:102C0000604880ED000A60480068401C5E4908602A
:102C100008460068B0F5967F08DD9FED5C0A5C48C9
:102C200080ED000A012008605A4908605A4890ED7A
:102C3000080AF3EE040AB4EEE00AF1EE10FA37D215
:102C400090ED080AFBEE040AB4EEE00AF1EE10FA89
:102C50002EDD5048006858B350480068401C4F496A
:102C6000086008460068FDF725FD41EC1A0BB0EE40
:102C70004A1AF0EE6A1A9FED4A0B01F00DFCB0EE15
:102C8000409AF0EE609A9FED480B53EC102B51ECFC
:102C9000190BFDF718FC41EC180BFDF77FFD3C49C3
:102CA00008603E480068642802DD01203B49086056
:102CB0009EE00120344908600020364908609FEDFD
:102CC0003C0A334880ED000A9FED3A0A2D4880ED1A
:102CD000000A314890ED080AF3EE040AB4EEE00A67
:102CE000F1EE10FA6ED290ED080AFBEE040AB4EE93
:102CF000E00AF1EE10FA00E076E063DD2E480068AD
:102D0000401C2D49086008460068FDF7D3FC41ECE3
:102D10001A0BB0EE4A1AF0EE6A1A9FED210B01F081
:102D2000BBFBB0EE409AF0EE609A9FED1F0B53ECA8
:102D3000102B51EC190BFDF7C6FB41EC180BFDF7FE
:102D40002DFD134908601C48006864283ADD36E010
:102D5000B025002004010020080100200C01002003
:102D600081000020380100203C010020B804002030
:102D7000140100206F12833B180100201C01002069
:102D80000080BB4420010020280100200000C84230
:102D90001001002024010020D02200202C0100205E
:102DA000000000000000F0BF0000000000004940EB
:102DB000000048C200007A443001002002E00120F7
:102DC0002549086014E001202449086000202449B6
:102DD00008609FED240A244880ED000A1FED0B0ACD
:102DE000224880ED000A03E001201C49086000BF72
:102DF00000BF1F48007801280BD11E4890ED000A43
:102E000080ED000A1C4890ED000AB1EE400A80ED0A
:102E1000000A00BF194890ED000A194880ED100A19
:102E2000144890ED000A164880ED110A124890ED02
:102E3000000A134880ED120A0B4890ED000A104872
:102E400080ED160A094890ED000A0D4880ED1A0A37
:102E500000BFBDEC0C8B10BD30010020280100200C
:102E600024010020000000001001002020010020AB
:102E700083000020080100200C0100200401002034
:102E8000B804002010B55448D0ED121AB0EE611A03
:102E9000D0ED111AF0EE610AD0ED101AB0EE610A11
:102EA00003F0C4FF4C48D0ED160AB0EE600A07F0FC
:102EB0007BFC4A48007805281AD149480078012847
:102EC0000BD1454890ED201AF0EE410A90ED241AFE
:102ED000B0EE410A04F02CFE0AE03F4890ED1E1AC5
:102EE000F0EE410A90ED221AB0EE410A04F052FED3
:102EF0003C48D0ED051AB0EE611AD0ED041AF0EEA0
:102F0000610AD0ED031AB0EE610A07F067FD35489B
:102F1000D0ED0B1AB0EE611AD0ED0A1AF0EE610A8C
:102F2000D0ED091AB0EE610A08F006F82C480078D6
:102F300001281AD12B4890ED143AF0EE432A90ED77
:102F4000133AB0EE432A90ED123AF0EE431A90EDA8
:102F50000E3AB0EE431A90ED0D3AF0EE430A90EDC2
:102F60000C3AB0EE430A03F0DFF91E4890ED173A31
:102F7000F0EE432A90ED163AB0EE432A90ED153A62
:102F8000F0EE431A90ED113AB0EE431A90ED103A7C
:102F9000F0EE430A90ED0F3AB0EE430A07F07EFDE3
:102FA00007F0A6F907F026FA07F0FEF90A4991EDB5
:102FB0001A0ABCEEC00A10EE101A88B204F00AFD1C
:102FC000054991ED1A0ABCEEC00A10EE101A88B23B
:102FD00004F00AFD10BD0000B804002081000020AC
:102FE00084000020A00500200CB500200190009076
:102FF0004148006840F480303F49086000BF3E48C7
:10300000006800F4003000900198401C0190009886
:1030100018B90198B0F5A04FF1D13748006800F415
:10302000003010B10120009001E0002000900098D5
:10303000012860D130484030006840F080502E496F
:10304000403108602D48006840F440402B4908603A
:103050002948083000682849083108600846006897
:1030600040F4004008600846006840F4A050086042
:103070002348091F0860081F006840F08070091F7E
:10308000086000BF1C48006800F000700028F9D0FC
:103090001A48006840F480301849086000BF17489B
:1030A000406800F480300028F9D01448006840F4EB
:1030B00000301249086000BF1048406800F400303A
:1030C0000028F9D040F205700E4908600A4808301F
:1030D000006820F0030008490831086008460068CD
:1030E00040F00200086000BF03480830006800F0AC
:1030F0000C000828F8D10CBD0038024000700040D8
:103100000C5A4007003C0240F0B504460D461646F6
:103110001F461448006840F0010012490860002072
:103120001049083108600F4800680F4908400D49F0
:1031300008600E48091D0860081F006820F4802000
:10314000091F0860002007490C3108603B463246E1
:103150002946204600F00CF800210846FFF732F916
:10316000F0BD000000380240FFFFF6FE10300024E2
:10317000F0B504460D46002100203D4E366846F469
:1031800080363B4F3E6001E04E1CB1B2384E36688F
:1031900006F400361EB941F6FF76B142F4DB41F683
:1031A000FF76B14201D1012060E0314E40363668F1
:1031B00046F080562E4F40373E602E4E366846F41D
:1031C00040462C4F3E602A4E0836366846F4144678
:1031D000274F08373E60264E366826F08076244F0B
:1031E0003E6045EA84160127C7EB520746EA0746C8
:1031F00046EA036646F480061D4F3F1D3E603E1FB3
:10320000366846F080763F1F3E6000BF184E366835
:1032100006F00076002EF9D0174E366846F4807618
:10322000154F3E603E46366846F400763E603E46A8
:10323000366846F480663E603E46366846F00506CF
:103240003E600B4E0836366826F00306084F0837F6
:103250003E603E46366846F002063E6000BF044EC1
:103260000836366806F00C06082EF8D1F0BD0000CE
:103270000038024000700040003C024010B5154884
:10328000006840F47000134908601348006840F07B
:1032900001001149086000200F49083108600E48FC
:1032A00000680E4908400C4908600D48091D086077
:1032B000081F006820F48020091F086000200649CC
:1032C0000C310860FFF790FE4FF000600149803933
:1032D000086010BD88ED00E000380240FFFFF6FEF8
:1032E0001030002400B58BB001210846FFF7BCF870
:1032F00001210846FFF7E8F8012208213948FEF7C6
:1033000019FF4FF48070099002208DF828000320E7
:103310008DF8290000208DF82A0001208DF82B005F
:1033200009A93048FEF7BEFE012209212D48FEF70B
:1033300001FF4FF40070099002208DF8280003204F
:103340008DF8290000208DF82A0001208DF82B002F
:1033500009A92448FEF7A6FE44F61F600790B32093
:10336000ADF818000020ADF82000ADF81A008DF877
:10337000220006A91C4800F0D5FA6020ADF8040030
:103380000120ADF806000420ADF808000020ADF8DB
:1033900010000820ADF812000020ADF81400ADF8C0
:1033A000160040F2DC50039001A90F4800F06AF9C2
:1033B00008210D4800F0A4F901A90B4800F0AAF972
:1033C0000821094800F0F8F90121074800F016F932
:1033D0000121054800F021F90121034800F029F9F5
:1033E0000BB000BD000002400000014010B50121FB
:1033F0005D4800F02DF901287DD15C480068401C33
:103400005A4908605A48007A032813D1594800687D
:1034100001280BD10020574908609FED570A5748F3
:1034200080ED220A9FED540A80ED1E0A01205449C6
:1034300008700EE04E48007A022805D101204D495F
:10344000086003F0F1FD04E000204D49087003F02E
:10345000EBFD4B480078012801D1FFF779FA484885
:103460000078002839D147480078012804D106F0B7
:1034700029FB00204349087043480078012804D103
:1034800006F06AFC00204049087040480078012896
:1034900006D106F0ABFC06F025FC00203B49087085
:1034A0003B480078012806D106F056FC03F05EF98F
:1034B00000203749087037480078012804D106F009
:1034C000E7FB00203349087033480078012804D115
:1034D00006F042FC002030490870244800680721AB
:1034E00090FBF1F201FB120008B9FFF7CBFC1F487B
:1034F00000681F2100E031E090FBF1F201FB1200B7
:1035000008B9FEF7B1FC194800684FF4FA7190FB56
:10351000F1F201FB120050B92048006808B90120FF
:1035200000E000201D4908600020104908600F4994
:103530000868C11700EB91718910A0EB810109B9EE
:10354000FEF720FEFEF750FEFEF79CFE07480068DF
:10355000B0F57A7F02DB01200449086001210248AE
:1035600000F058F810BD00000004004014000020D6
:10357000B02500204801002000000000B804002011
:1035800083000020190000201A0000201B000020EA
:103590001C0000201D0000201E0000208802434265
:1035A0007FB505460C4601210220FEF76DFF02950E
:1035B000ADF804400020ADF80600ADF80C0001A9FC
:1035C0000D4800F0AFF9012211460B4800F051F808
:1035D0000121094800F021F81D208DF8000002208B
:1035E0008DF8010001208DF802008DF80300684677
:1035F000FEF7F4FE7FBD00000004004021B1028808
:1036000042F08002028004E002884FF67F731A4085
:1036100002807047CA430282704721B1028842F09B
:103620000102028004E002884FF6FE731A40028015
:10363000704731B1B0F8442042F40042A0F8442071
:1036400005E0B0F84420C2F30E02A0F84420704711
:1036500030B50246002000230024158A05EA010344
:10366000958905EA010413B10CB1012000E00020A6
:1036700030BD1AB183890B43838102E083898B4378
:103680008381704770B5002400220023058C4FF61B
:10369000FE7635400584028C8388048B4FF68F7547
:1036A0002C40B51E2C400D882C43751E2A408D8958
:1036B0002A434D882A43104DA84202D00F4DA842FC
:1036C00013D14FF6F7752A40CD892A434FF6FB7583
:1036D0002A408D882A434FF6FF652B404FF6FF5551
:1036E0002B400D8A2B434D8A2B43838004838D68A6
:1036F0004563028470BD00000000014000040140E9
:103700000A460021018B4FF6F773194011430183DC
:103710007047000070B5002400220023058C4FF68E
:10372000EF7635400584028C8388048B48F6FF755C
:103730002C404FF6FF452C400D884FF6FF7606EAE9
:1037400005252C434FF6DF752A408D8906EA0515BD
:103750002A434D8806EA05152A43154DA84202D092
:10376000144DA8421DD14FF67F752A40CD894FF6E2
:10377000FF7606EA05152A434FF6BF752A408D8865
:1037800006EA05152A434FF6FF352B404FF2FF7529
:103790002B400D8A06EA85052B434D8A06EA8505EE
:1037A0002B43838004838D688563028470BD000091
:1037B00000000140000401400A460021018B4FF245
:1037C000FF7319404FF6FF7303EA02231943018385
:1037D0007047000070B5002400220023058C4FF6CE
:1037E000FF6635400584028C8388848B4FF68F7585
:1037F0002C404FF6FC752C400D882C434FF6FF559E
:103800002A408D894FF6FF7606EA05252A434D8822
:1038100006EA05252A43154DA84202D0144DA842B8
:103820001DD14FF2FF752A40CD894FF6FF7606EA8B
:1038300005252A434FF6FF352A408D8806EA0525DF
:103840002A434EF6FF752B404DF6FF752B400D8A2F
:1038500006EA05152B434D8A06EA05152B4383809E
:1038600084838D68C563028470BD00000000014040
:10387000000401400A460021818B4FF6F77319407E
:10388000114381837047000070B50022002300249B
:10389000058C4EF6FF7635400584038C8488828B38
:1038A00048F6FF752A404FF6FF452A400D884FF62F
:1038B000FF7606EA05252A434DF6FF752B408D89D4
:1038C00006EA05352B434D8806EA05352B430A4D9C
:1038D000A84202D0094DA84208D14BF6FF752C40F2
:1038E0000D8A4FF6FF7606EA85152C438480828385
:1038F0008D680564038470BD000001400004014030
:103900000A460021818B4FF2FF7319404FF6FF7377
:1039100003EA0223194381837047C163704701643E
:103920007047000000220288184B98420ED0184BB6
:1039300098420BD0B0F1804F08D0164B984205D07A
:10394000154B984202D0154B984204D14FF68F7315
:103950001A404B881A43124B984207D0114B984299
:1039600004D04FF6FF431A400B891A4302804B687C
:10397000C3620B880385054B984202D0044B9842E2
:1039800001D18B7A038601238382704700000140B6
:10399000000401400004004000080040000C00400A
:1039A000001000400014004010B540F224410F48C0
:1039B00000F081FBC8B10D4800880D4908600B4834
:1039C0008088086000210B48FEF742F90948FEF79D
:1039D0000EFAC0F1C80006490860C8210648FCF785
:1039E0008CFC01210348FEF733F910BD0050004064
:1039F000B8000020106002407006002010B540F2B0
:103A000025517B4800F057FB002817D0784800F07C
:103A10000BFCC4B22A2C12D196217648FCF76DFC1F
:103A20000020754908707548007840F0010073491E
:103A300008700846007800F0FD000870CCE03B2CD0
:103A40001DD100206C49087001206D4908706B4839
:103A5000007840F00200694908700846007800F0DC
:103A6000FE00087096216748FCF747FC61496548ED
:103A7000FCF777FC96215F48FCF73FFCACE03C2C60
:103A80001DD100205C49087001205F4908705B4827
:103A9000007840F00200594908700846007800F0AC
:103AA000FE00087096215748FCF727FC51495548FD
:103AB000FCF757FC96214F48FCF71FFC8CE03F2C8D
:103AC0001DD100204C4908700120504908704B4816
:103AD000007840F00200494908700846007800F07C
:103AE000FE00087096214748FCF707FC414945480D
:103AF000FCF737FC96213F48FCF7FFFB6CE02E2CCF
:103B00001DD100203C4908700120414908703B4804
:103B1000007840F00200394908700846007800F04B
:103B2000FE00087096213748FCF7E7FB314935481D
:103B3000FCF717FC96212F48FCF7DFFB4CE03E2CEE
:103B40001DD100202C4908700120324908702B48F3
:103B5000007840F00200294908700846007800F01B
:103B6000FE00087096212748FCF7C7FB214925482D
:103B7000FCF7F7FB96211F48FCF7BFFB2CE02B2C32
:103B80001DD100201C4908700120234908701B48E2
:103B9000007840F00200194908700846007800F0EB
:103BA000FE00087096211748FCF7A7FB114915483D
:103BB000FCF7D7FB96210F48FCF79FFB0CE00F4862
:103BC000007800F0010038B10B4801780078401C03
:103BD000094A10700748445440F22771044800F025
:103BE0006AFA4FF45871024800F0BCF910BD0000A9
:103BF00000780040880100202200002018000020EA
:103C0000190000201E0200201A0000201B000020C6
:103C10001C0000201D0000201E00002000B587B001
:103C200001211020FEF720FC0121C807FEF72CFC23
:103C300000208DF81A0001208DF81B0002208DF85D
:103C400019008DF81800059005A92148FEF72AFAF9
:103C500002208DF818000120059005A91C48FEF7E8
:103C600021FA082201211A48FEF764FA08220021ED
:103C70001748FEF75FFA4FF4E13001900020ADF8ED
:103C80000800ADF80A00ADF80C00ADF810000C20EB
:103C9000ADF80E0001A90F4800F05CFA01210D48B3
:103CA00000F06FF9012240F225510A4800F02DFA88
:103CB00053208DF8000000208DF801008DF80200DF
:103CC00001208DF803006846FEF788FB07B000BDB1
:103CD00000100240007C004010B5164800F0A4FA25
:103CE000C4B2154801780078401C134A107013487C
:103CF00044540078592803D000201146087010BDA4
:103D00000D480078092800DAF9E70C48407859286E
:103D10000BD10A48C07809498978084300EE100A97
:103D2000B8EEC00A064880ED000A0020024908707B
:103D300000BFE4E7007C004024000020AE03002028
:103D40004401002010B540F22551254800F0B3F998
:103D500050B140F22551224800F004F9002240F20F
:103D600025511F4800F0D1F940F224411C4800F0D1
:103D7000A2F998B31A480088194880881948FEF7B4
:103D80003AF8A8B900211748FDF762FF122015493B
:103D9000091D0860081F006840F40020091F086022
:103DA00001211048FDF754FF0F48FEF79DFD15E077
:103DB00000210C48FDF74CFF12200A49091D08603C
:103DC000081F006820F40020091F08600121054831
:103DD000FDF73EFF04481238FEF786FD10BD0000D7
:103DE0000010014088640240CC25002010B540F24C
:103DF00025513B4800F05FF950B140F22551384859
:103E000000F0B0F8002240F22551354800F07DF96D
:103E100040F22441324800F04EF900285ED030488C
:103E200000882F48001D00882E48FDF7E4FFE8B900
:103E300000212C48FDF70CFF2A48FDF7D8FFC0F100
:103E4000800029490880802026492839C862084610
:103E5000806A40F40020886201212248FDF7F8FEC4
:103E6000214801882148FEF7C3FB37E000211D48A7
:103E7000FDF7EEFE1B48FDF7BAFFC0F180001A49BE
:103E80000880802017492839C8620846806A20F4D3
:103E90000020886201211348FDF7DAFE12480188EC
:103EA00012488038FEF7A4FB11480068B0F5FA7F8D
:103EB00014DA00200BE00D498039095C0C4A1268C5
:103EC00002EB82020B4B03EB42021154401C0A2806
:103ED000F1DB07480068401C0549086010BD000080
:103EE0000048004028600240C4000020F407002081
:103EF000BC0000207408002010B5164800F094F9AA
:103F0000C4B2154801780078401C134A1070134859
:103F100044540078592803D000201146087010BD81
:103F20000D480078092800DAF9E70C48407859284C
:103F30000BD10A48C07809498978084300EE100A75
:103F4000B8EEC00A064880ED000A00200249087059
:103F500000BFE4E70014014023000020B402002069
:103F60004001002010B50022002340F66A14A1424F
:103F700000D100BF0A1201249440A3B2DC430480A4
:103F800010BD21B1828942F40052828104E082890D
:103F90004DF6FF731A40828170471AB1838A0B4332
:103FA000838202E0838A8B438382704710B5044684
:103FB0003248844208D101211020FEF795FA0021F1
:103FC0001020FEF791FA57E02D48844209D10121D3
:103FD0004804FEF769FA00214FF40030FEF764FA56
:103FE0004AE02848844209D101218804FEF75CFA9E
:103FF00000214FF48020FEF757FA3DE0224884422A
:1040000009D10121C804FEF74FFA00214FF4002026
:10401000FEF74AFA30E01D48844209D10121080523
:10402000FEF742FA00214FF48010FEF73DFA23E03C
:104030001748844208D101212020FEF755FA0021BB
:104040002020FEF751FA17E01248844209D10121DD
:104050008807FEF729FA00214FF08040FEF724FA86
:104060000AE00D48844207D101214005FEF71CFA01
:1040700000216005FEF718FA10BD00000010014095
:104080000044004000480040004C00400050004008
:104090000014014000780040007C004002460020EF
:1040A000B1F5007F00D100BF13880B400BB1012098
:1040B00000E00020704770B5024600240023002570
:1040C000002040F66A16B14200D100BFC1F342158C
:1040D00001F01F03012606FA03F3012D02D1968990
:1040E000334006E0022D02D1168A334001E0968A61
:1040F00033400C12012606FA04F41688344013B13A
:104100000CB1012000E0002070BDF0B50346002492
:1041100000260025002040F66A17B94200D100BFF2
:104120001846C1F3421401F01F06012707FA06F5ED
:10413000012C01D10C3004E0022C01D1103000E040
:1041400014301AB107682F43076002E00768AF43D5
:104150000760F0BD2DE9FF4705460E460024A14645
:1041600000BFA046B08900B100BF2C8A24F440549F
:10417000F08804432C82AC8941F20C608443B088FF
:1041800031890843718908430443AC81AC8A24F423
:104190004074B0890443AC826846FEF7B5F9204804
:1041A000854202D01F48854202D1DDF80C9001E023
:1041B000DDF80890A88900F4004040B109EBC9007F
:1041C00000EB091031684900B0FBF1F707E009EB9B
:1041D000C90000EB091031688900B0FBF1F76420D9
:1041E000B7FBF0F004012009642101FB1078A889D5
:1041F00000F4004040B1322000EBC800B0FBF1F009
:1042000000F00700044308E0322000EB08106421AE
:10421000B0FBF1F000F00F0004432C81BDE8FF87F4
:10422000001001400014014001468888C0F30800D6
:104230007047C1F308028280704700BFFEE70000AC
:104240000021C16001610160416081604161816163
:10425000C161016241629FED040A80ED0A0A9FED8F
:10426000020A80ED0B0A70470000000000B50B4801
:10427000FFF7E6FF0A48FFF7E3FF0A48FFF7E0FF12
:104280000948FFF7DDFF0948FFF7DAFF0848FFF7A5
:10429000D7FF0848FFF7D4FF00BD000044200020EE
:1042A000F4200020A4210020542200200423002018
:1042B00014250020642400200FB4054B10B503A979
:1042C000044A029801F088FC10BC5DF814FB000061
:1042D000617900087C0100200FB41CB50A46521E0B
:1042E000CDE9000207A9054B6A46069801F074FC67
:1042F000009A002111701CBC5DF814FB07630008D4
:104300000FB4084B10B504A902AA039801F064FC8D
:10431000044602A9002002F001F8204610BC5DF816
:1043200014FB00001D6300087CB5491E1C461546A1
:10433000CDE90001044B6A462146284601F04CFCB9
:10434000009A002111707CBD0763000830B47446E8
:10435000641E2578641CAB4200D21D46635D5B0081
:10436000E31830BC184703B401984100009850EAA4
:10437000C12018BF04204A0D18BF40F0010040F2D0
:10438000FF72B2EB515F08BF40F00200012808BF86
:10439000052002B07047012249005205D14201D1E7
:1043A000002801D00020704701207047002800D06D
:1043B00001200143480002494008081AC00F704715
:1043C0000000F07F004870477801002000000000E6
:1043D00010B52F499FED2C1B2DED020B84B00598D5
:1043E00020F000408842D8BF9DED040B2DDD294907
:1043F000884209D1049840B94FF0010001F02CFB2C
:1044000001F0EAFA06B010BD05DB9DED040B01F0EA
:10441000CFFA06B010BD68469DED040B00F0C8FE53
:1044200010F0030004BF9DED021B9DED000B0CD0AE
:1044300001280ED09DED021B9DED000B022817D028
:10444000012001F005FA06B010BD01F0CDF806B06C
:1044500010BD9DED021B9DED000B012001F0F8F950
:1044600051EC100B81F0004106B041EC100B10BD77
:1044700001F0BAF851EC100B81F0004106B041ECAC
:10448000100B10BD00000000000000000000000044
:10449000FB21E93F0000F07F2DE9F04D2DED040BED
:1044A0002DED0E8B96B0DDE92550279CDDF890A010
:1044B00025F0004624F00048BAF1000F14BF012196
:1044C000002101EB4502FC4953184A1093422AD3BC
:1044D000002814BF0123002303EB44030B44F749D6
:1044E0008B4220D358EA00019FEDF59B76D0DFF890
:1044F000D8B35D4503D1BAF1000F05D188E0BAF118
:10450000000F08BF002100D0012101EB450111F58A
:10451000001F08D8002814BF0121002101EB44012D
:1045200011F5001F0BD99DED261B9DED240B16B038
:10453000BDEC0E8B04B0BDE8F04D01F043BA00278E
:10454000002DBCBFE149884521DAE1498845A8BF73
:1045500002271CDAC3451ADCDE4901EB2851142975
:1045600008DDC1F1340220FA02F101FA02F28242BE
:104570000DD108E058B9C1F1140228FA02F101FA8C
:1045800002F2424503D101F00101C1F1020756EAEE
:104590000A0124D1002C22DA002D18BF022F01D0ED
:1045A000012F0AD0022001F057FA16B0BDEC0E8B95
:1045B00004B0BDE8F04D01F0E3B9022001F04CFA7F
:1045C00001F0DEF951EC100B81F0004141EC100BD1
:1045D00016B0BDEC0E8B04B0BDE8F08D18E09FED79
:1045E000BEAB9FEDBF8B002871D1B848804522D16A
:1045F00005F1804010F5801008BFBAF1000F07D018
:10460000B3450ADC002CA8BF9DED260BE0DA0DE0D7
:10461000B0EE490AF0EE690ADAE7002C06DA9DED01
:10462000260B51EC100B81F000416FE0AE4878444E
:1046300090ED000BCCE7D8454DD1002C48DA2EB1D7
:1046400086423AD1BAF1000F42D126E0BAF1000F0A
:1046500013D0022001F000FA01F0CEF98DED020B2B
:104660009DED240B8DED000B10EE900A039961F384
:104670001E0003909DED020BAAE78DED02AB9DEDB0
:10468000240B1AEE901A10EE900A8DED000B61F3D8
:104690001E0003909DED020B9AE78DED028B9DEDC0
:1046A000240B18EE901A10EE900A8DED000B61F3BA
:1046B0001E0003909DED020B8AE709DA9DED240BA5
:1046C00051EC190B53EC102BFBF76FFF1EE020E0B1
:1046D0009DED240B7CE786421BDAB4F1804F0DD0B0
:1046E000A4F10050B0F1FF5013D1002D11DB9DED6E
:1046F000240B51EC100B05F093FE07E09DED240B0D
:1047000053EC102B51EC100B00F0C2BC41EC100B21
:104710005EE79DED240B51EC100B03F0CFF8BAF1DE
:10472000000FCDE90E0142D19FED710B46B3A6F10A
:10473000E040B0F17F600CD05E4538D1002D00DA4A
:10474000A7B3022F0CBF01204FF0FF30FBF7B2FFE1
:10475000DCE7002D01DD002C0DDA002D01DD002C41
:104760001FDB002D16DA002C14DB012F08BF9FED94
:10477000620B3FF42DAFB0EE4A0AF0EE6A0A27E76B
:10478000022F18BF002D0CD0012F0AD1002DFFF6EB
:104790001FAF06E0002DB8BF002C08DA012F3FF450
:1047A00017AFB0EE480AF0EE680A11E71BE00120EF
:1047B00000EBE57050EA070115D0791EB0EE498A8A
:1047C000F0EE698A084308BF9FED4D8B4E480025E7
:1047D000804570DD4D494E48884514DDB0420DDB03
:1047E000002C19DB2FE0012001F036F916B0BDECEA
:1047F0000E8B04B0BDE8F04D01F0EEB8B34502DC1D
:10480000002C09DC1FE0864202DA002C1BDA03E0F0
:104810005E452BDD002C16DD022001F01DF901F0B4
:10482000EBF88DED020B53EC1A2B51EC180BFBF748
:104830004AFECDE900010399019861F31E0003903F
:104840009DED020BC4E6022001F006F901F0E4F848
:1048500010EE901A18EE900A8DED020B8DED008B84
:1048600061F31E0003909DED020BB1E69DED0E0B72
:1048700053EC192B51EC100BFBF71FFE9FED260B91
:10488000CDE9080153EC102B9DED080B51EC100BFA
:10489000FBF719FE9FED221B53EC112BFBF710FECB
:1048A0009DED081B53EC112BFBF70DFE9FED1E1B1E
:1048B00053EC112B3CE08CE0FFFF1F00FFFF0F00CB
:1048C000000000000000F03F0000F03F0000F07F1B
:1048D0000000404301FCFFFF000000000000F07FEB
:1048E00000000000000000004E6A00000000000010
:1048F0000000000000000080000000000000F0FF49
:10490000000000000000F0BF0000E0410000F043A4
:10491000FFFFEF3F00000000000000000000D03F5C
:10492000555555555555D53F000000000000E03F56
:10493000FBF7C6FD9DED080B41EC1A0B53EC102B59
:1049400051EC100BFBF7BFFD53EC1A2BFBF7BBFD33
:1049500041EC1A0B9FEDFE0B53EC102B9DED080B59
:1049600051EC100BFBF7AFFD41EC1B0B9FEDFA0B6D
:1049700051EC1A0B53EC102BFBF7A5FD41EC1A0B75
:104980009FEDF70B53EC102B9DED080B51EC100B2A
:10499000FBF799FD53EC1A2BFBF78FFD41EC1A0B3B
:1049A00051EC1B0B53EC1A2BFBF7E6FC0690CDE900
:1049B00006519DED060B53EC1B2B51EC100BFBF736
:1049C0007CFD53EC1A2BFBF77BFD41EC100B00F048
:1049D000A1B90020B6F5801F0EDA9FEDE30B53EC72
:1049E000102B9DED0E0B51EC100BFBF76CFDCDE980
:1049F0000E016FF034000E4600EB2650A0F2FF3798
:104A0000C6F31300DA4940F07F6646F0405688420C
:104A1000D8BF002408DDD7498142C8BF012403DC88
:104A20000024A6F580167F1CD348784400EBC40010
:104A30000F9690ED00CB9DED0E0B53EC1C2B51EC23
:104A4000100BFBF73AFD9DED0E0B41EC1B0B53ECED
:104A50001C2B51EC100BFBF78FFC41EC100B51ECB5
:104A6000190B53EC102BFBF7A0FD41EC1D0B51EC87
:104A70001B0B53EC1D2BFBF726FD41EC1A0BBF481B
:104A80008DED10AB7844109590ED000B4FF0005079
:104A900040EA660000EB84408DED080B00F5002035
:104AA00009909DED080B53EC1C2B51EC100BFBF700
:104AB00004FD9DED0E1B53EC112BFBF701FD41ECAA
:104AC000100B53EC102B9DED100B51EC100BFBF762
:104AD000FAFC9DED080B41EC1C0B53EC102B9DEDEB
:104AE000100B51EC100BFBF7EEFC53EC1B2BFBF700
:104AF000E7FC53EC1C2BFBF7E0FC53EC1D2BFBF706
:104B0000E2FC41EC1C0B53EC1A2B51EC1A0BFBF79B
:104B1000DAFC41EC1B0B9A480621B0EE4B0AF0EE92
:104B20006B0A784400F018FEB0EE401AF0EE601AFE
:104B3000B0EE41DAF0EE61DA53EC1B2B51EC1B0BBB
:104B4000FBF7C1FC53EC1D2BFBF7BDFC9DED100BDF
:104B500041EC1B0B53EC1A2B51EC100BFBF70CFC2C
:104B600053EC1C2BFBF7AFFC53EC1B2BFBF704FCAB
:104B70009DED100B41EC1B0B53EC102B51EC100B6B
:104B8000FBF7A1FC41EC1D0B9FED7FEB53EC1E2BC3
:104B9000FBF7F2FB53EC1B2BFBF7EEFB0890CDE988
:104BA00008519DED080B53EC1E2B51EC100BFBF73D
:104BB00084FC53EC1D2BFBF780FC53EC1B2BFBF709
:104BC0007FFC9DED080B41EC1D0B53EC102B9DED74
:104BD000100B51EC100BFBF776FC41EC1B0B53EC6C
:104BE0001A2B51EC1D0BFBF76EFC9DED080B41ECF5
:104BF0001A0B53EC102B51EC1C0BFBF764FC53EC21
:104C00001A2BFBF7B9FB41EC1A0B51EC1B0B53ECC5
:104C10001A2BFBF7B1FB0C90CDE90C519DED0C0B61
:104C200053EC1B2B51EC100BFBF747FC53EC1A2BEE
:104C3000FBF746FC41EC1B0B9FED550B53EC102B87
:104C40009DED0C0B51EC100BFBF73DFC41EC1A0BEE
:104C50009FED510B51EC1B0B53EC102BFBF733FC6E
:104C600041EC1B0B9FED4E0B53EC102B9DED0C0BF1
:104C700051EC100BFBF727FC53EC1B2BFBF77CFBD9
:104C800041EC100B4848784400EBC40090ED001B49
:104C900051EC100B53EC112BFBF76EFB41EC1B0B93
:104CA0003846FBF707FDCDE9080153EC1B2B51EC0F
:104CB0001A0BFBF761FB41EC100B3C48784400EB0E
:104CC000C40090ED00CB51EC100B53EC1C2BFBF708
:104CD00053FB9DED081B53EC112BFBF74DFB06908E
:104CE000CDE906519DED080B53EC102B9DED060B05
:104CF00051EC100BFBF7E1FB53EC1C2BFBF7DDFB3E
:104D000053EC1A2BFBF7D9FB53EC1B2BFBF7D8FB0F
:104D100041EC100B9DED261B53EC102B8DED001B71
:104D200000959DED260B51EC100BFBF7CCFB9DED98
:104D3000000B41EC1A0B53EC102B9DED260B51ECA4
:104D4000100BFBF7BAFB9DED061B53EC112B2FE06C
:104D5000000000604715F73FFE822B654715F73FBF
:104D600044DF5DF80BAE543E0000000000004043FD
:104D70008E9803007AB60B009A650000F865000073
:104D8000D2640000000000000000000000000840A5
:104D9000000000E009C7EE3FFD033ADC09C7EE3F23
:104DA000F5015B14E02F3EBE5E6300001863000057
:104DB000FBF789FB53EC1A2BFBF7DEFA9DED060B94
:104DC00041EC1A0B53EC102B9DED000B51EC100B2A
:104DD000FBF779FBCDE90C019DED0C0B51EC1A0BA7
:104DE00053EC102BFBF7C8FACDE902010C46AA4997
:104DF0008C422FDB611A084318D19DED0C0B53EC4C
:104E0000102B9DED020B51EC100BFBF756FB41EC08
:104E10001B0B9FEDA30B51EC1A0B53EC102BFBF764
:104E2000ABFA53EC1B2BFBF7A1FC2DD2022000F0B8
:104E300013FE00F0E1FD10EE901A18EE900A8DEDD1
:104E4000020B8DED008B61F31E0003909DED020BB4
:104E5000FFF7BEBB944A24F00041914214D393491A
:104E6000214408437FF4EFAC9DED0C0B53EC102B69
:104E70009DED020B51EC100BFBF71FFB53EC1A2BB3
:104E8000FBF774FC7FF6DFAC24F000408849894AC8
:104E9000002601EB205182422BDA481C4FF480118E
:104EA00021FA00F02044844AC0F30A517A44A1F266
:104EB000FF3192ED000B814A8DED080BCA4020EACC
:104EC0000202C0F3130040F48010C1F1140120FA73
:104ED00001F60992002CB8BF76429DED080B53EC09
:104EE000102B9DED0C0B51EC100BFBF7E6FACDE906
:104EF0000C019DED0C0B51EC1A0B53EC102BFBF736
:104F00003BFA9FED6F0B0890CDE9085153EC102B45
:104F10009DED080B51EC100BFBF7D5FA41EC1B0B88
:104F20009FED690B53EC102B9DED080B51EC100B12
:104F3000FBF7C9FA9DED0C0B41EC1C0B53EC102B4D
:104F40009DED080B51EC100BFBF7B7FA53EC1A2B45
:104F5000FBF7B6FA9FED5E1B53EC112BFBF7B3FA90
:104F600053EC1C2BFBF708FA41EC1A0B51EC1B0B12
:104F700053EC1A2BFBF700FACDE902019DED020B71
:104F800053EC1B2B51EC100BFBF797FA53EC1A2B3D
:104F9000FBF796FA9DED020B41EC1A0B53EC102B2C
:104FA00051EC100BFBF78FFACDE908014A489DED53
:104FB000080B0521784400F0CFFB9DED081B51EC58
:104FC000100B53EC112BFBF77EFA9DED021B53ECFB
:104FD000112BFBF775FACDE906019DED020B53ECA1
:104FE0001A2B51EC100BFBF76EFA53EC1A2BFBF754
:104FF000C3F99FED3B0B41EC1A0B53EC102B9DEDCD
:10500000060B51EC100BFBF758FA9DED060B41EC2B
:105010001B0B53EC102B9DED020B51EC100BFBF70F
:1050200052FA53EC1B2BFBF7C0FA53EC1A2BFBF78D
:1050300044FA9DED021B53EC112BFBF73EFA53ECA7
:10504000192BFBF73DFACDE9020101EB06500115E2
:105050000029C8BF039015DC9DED020B324651ECD0
:10506000100BFBF743FDFFF77EF9042808BF00F0A3
:10507000D3FC32469DED020B51EC100BFBF736FDD5
:10508000CDE902019DED020B51EC180B53EC102BF6
:10509000FBF719FAFFF73ABB000090400000000050
:1050A000FE822B654715973C00CC904000346F3F43
:1050B00001FCFFFF0000E03FD0610000FFFF0F0098
:1050C00000000000432EE63F396CA80C615C20BE56
:1050D000EF39FAFE422EE63F70600000000000004B
:1050E000000000000000004010B52F499FED2C1B70
:1050F0002DED020B84B0059820F000408842DCBF03
:1051000000209DED040B32DD2849884209D1049826
:1051100040B94FF0010000F09FFC00F05DFC06B0CC
:1051200010BD05DB9DED040B00F042FC06B010BD88
:1051300068469DED040B00F03BF810F0030011D021
:10514000012818D09DED021B9DED000B02281AD0FE
:1051500000F04AFA51EC100B81F0004106B041EC2E
:10516000100B10BD9DED021B9DED000B012000F00A
:105170006FFB06B010BD9DED021B9DED000B00F016
:1051800033FA06B010BD012000F062FB51EC100BA9
:1051900081F0004106B041EC100B10BD0000000092
:1051A0000000000000000000FB21E93F0000F07F4C
:1051B0002DE9F14F04462DED020B2DED088B8AB041
:1051C0009FEDE70B80ED020B139EE74826F00045AC
:1051D00085420ADC9DED120B002084ED000B0AB025
:1051E000BDEC088B03B0BDE8F08FE0489FEDE0AB6D
:1051F0009FEDE1BBA84247DDE14F9FEDE39B9FEDB3
:10520000E48B9DED120B53EC1A2B51EC100B002E7E
:105210001CDDFBF752F941EC100BBD4208D053ECFA
:105220001B2B51EC100BFBF748F9C4E900010BE014
:1052300053EC192B51EC100BFBF73FF953EC182BE7
:10524000FBF73BF9C4E900010120C8E7FBF794F83C
:1052500041EC100BBD4208D053EC1B2B51EC100B52
:10526000FBF78AF8C4E900010BE053EC192B51EC71
:10527000100BFBF781F853EC182BFBF77DF8C4E912
:1052800000014FF0FF30AAE7C348A84279DB9DED4B
:10529000120B51EC100B02F011FB41EC180B9FEDBF
:1052A000C00B53EC102BFBF70EF99FEDBF1B53EC1B
:1052B000112BFBF761F8FBF70EFA0746FBF7FAF93B
:1052C00041EC190B53EC1A2BFBF7FDF853EC182BA0
:1052D000FBF7F6F841EC180B53EC1B2B51EC190BB8
:1052E000FBF7F1F8DFF8C8A241EC100B4FEA1558B4
:1052F0000125FA4453EC102B51EC180BFBF7DDF8A9
:10530000032DC4E900013DD0C1F30A5005EB45115E
:10531000A8EB00001139814234DA0AEB051BB0EE2C
:1053200048AA9BED000BF0EE68AA53EC102B51EC51
:10533000190BFBF7C8F841EC1B0B51EC1A0B53ECA3
:105340001B2BFBF7BAF841EC180B51EC1A0B53EC82
:10535000182BFBF7B2F853EC1B2BFBF7AEF89BEDC9
:10536000020B41EC1A0B53EC102B51EC190BFBF711
:10537000AAF853EC1A2BFBF7A0F841EC100B6D1CAC
:10538000B8E70EE0002EA8BF3846BFF628AF94ED70
:10539000000B51EC100B81F00041C4E90001784290
:1053A0001DE7C6F3130040F4801EC6F30A50A0F2B6
:1053B000F530471100F01F05C5F12000DDF848B0B9
:1053C00008900020069007900520EC467949002DB2
:1053D00007EB0002794408BF51F8221009D051F8B8
:1053E000223001EB8201AB404A68089922FA01F1B0
:1053F0001943A1FB0E26A1FB0B131A449A4234BF9A
:105400000123002303EB06080CEB8003D3E901A67C
:105410000E448E4234BF0121002192448A4411B1CE
:10542000924502D903E0924501D2012100E000211A
:10543000C3E901A641444CF82010011EA0F101006F
:10544000C4DC029800F10050850F0298DDE9036783
:105450008000DDF81480FBF72DF941EC1A0B304683
:10546000FBF702FE9FED541B53EC112BFBF72BF8BF
:1054700041EC1B0B3846FBF7F7FD9FED511B53EC3E
:10548000112BFBF720F841EC180B4046FBF7ECFD25
:105490009FED4D1B53EC112BFBF715F841EC190B4D
:1054A00051EC180B53EC192BFAF766FF53EC1B2B3E
:1054B000FAF762FF53EC1A2BFAF75EFFCDE9080109
:1054C000002008909DED080B53EC1A2B51EC100BAB
:1054D000FAF7F3FF53EC1B2BFAF7EFFF53EC182B03
:1054E000FAF7EBFF53EC192BFAF7EAFF9FED381BA5
:1054F00053EC112BFAF7E7FF9FED370B41EC180B3C
:1055000053EC102B9DED080B51EC100BFAF7DBFF61
:1055100053EC182BFAF730FF9FED310B41EC180BD1
:1055200053EC102B9DED080B51EC100BFAF7CBFF51
:1055300053EC182BFAF720FF41EC100B139810F0E6
:10554000004F06D06D4251EC100B81F0004141EC50
:10555000100B284684ED000B41E60000000000001F
:105560000000000000000000FB21E93F7CD9024060
:1055700000004054FB21F93F3163621A61B4D03D11
:10558000FB21F93F000000000000601A61B4D03D2B
:105590007370032E8A19A33BFB21394100000000E0
:1055A00083C8C96D305FE43F000000000000E03FA9
:1055B000925D0000E05C0000000000000000103E72
:1055C000000000000000103C000000000000103A45
:1055D000182D4454FB21F93D3326A611460B113CEE
:1055E00000000054FB21F93D10B52DED040B2DED0D
:1055F000088B82B0B0EE419AF0EE619A0B9820F0E1
:1056000000449FED4BABB4F1795F11DA9DED0A0BCD
:1056100051EC100BFBF75FF8002801BFB0EE4A0A0F
:10562000F0EE6A0A02B0BDEC088B04BF04B010BDF6
:105630009DED0A0B53EC102B51EC100BFAF743FFC6
:1056400041EC180B3C480621B0EE480AF0EE680A1F
:10565000784400F081F853EC182B51EC100BFAF75A
:1056600032FF9DED0A0B41EC1B0B53EC192B51EC57
:10567000100BFAF728FF41EC190B53EC1B2B51ECE4
:10568000180BFAF720FF53EC192BFAF716FF9FEDD2
:105690002C0B41EC190B53EC102B51EC180BFAF7B7
:1056A00012FF41EC100B2848844210DA53EC192BFE
:1056B00051EC100BFAF701FF53EC1A2BFAF700FF2D
:1056C00041EC100B02B0BDEC088B04B010BD1F48BC
:1056D000A042BCBF9FED1E1B8DED001B06DBA4F599
:1056E00000100190002000909DED001B51EC100B6C
:1056F00053EC112BFAF7E1FE9DED000B41EC180B7A
:1057000053EC102B51EC1A0BFAF7D7FE41EC1A0BA5
:1057100053EC192B51EC180BFAF7CFFE53EC1A2B64
:10572000FAF7CEFE41EC100BCCE7000000000000C1
:10573000000000000000F03FFC59000000000000E5
:10574000000000000000E03F3333D33F0000E93F9A
:10575000000000000000D23F70B504462DED028B22
:105760004D1E00EBC500B0EE408AF0EE608A90ED71
:10577000000B35F0060017D053EC182B51EC100B32
:10578000FAF7A1FE41EC100B6D1E04EBC50090ED85
:10579000001B51EC100B53EC112BFAF7EDFD41EC13
:1057A000100B35F00600E7D1022D36D0042D1CD0A9
:1057B000062D1CBFBDEC028B70BD53EC182B51ECB9
:1057C000100BFAF780FE94ED0A1B53EC112BFAF73D
:1057D000D3FD53EC182BFAF776FE94ED081B53EC2F
:1057E000112BFAF7C9FD41EC100B53EC182B51ECBF
:1057F000100BFAF768FE94ED061B53EC112BFAF729
:10580000BBFD53EC182BFAF75EFE94ED040B53EC42
:10581000102BFAF7B1FD41EC100B53EC182B51ECA7
:10582000100BFAF750FE94ED021B53EC112BFAF714
:10583000A3FD53EC182BFAF746FE94ED001B53EC36
:10584000112BFAF799FDBDEC028B41EC100B70BDEA
:1058500031B504462DED040B2DED0A8BB0EE41BAA7
:10586000F0EE61BA0B989DED0A0B20F00040B0F10C
:10587000795F0DDA51EC100BFEF775FD042808BFB7
:1058800000F0CAF89DED0A0BBDEC0A8B05B030BDE7
:1058900053EC102B51EC100BFAF715FE41EC180BE2
:1058A0009DED0A0B53EC182B51EC100BFAF70BFE85
:1058B00041EC190B2C48B0EE480AF0EE680A0521BD
:1058C0007844FFF749FF9FED2ACBB0EE40AAF0EEF7
:1058D00060AA9CB353EC1C2B51EC190BFAF7F3FDA7
:1058E00041EC1C0B53EC1A2B51EC190BFAF7EBFDA6
:1058F0009FED210B41EC190B53EC102B51EC1B0BC2
:10590000FAF7E1FD53EC192BFAF7D7FD53EC182BFE
:10591000FAF7D9FD53EC1B2BFAF7CFFD53EC1C2BF8
:10592000FAF7CBFD9DED0A1B53EC112BFAF7C8FDDE
:10593000BDEC0A8B05B041EC100B30BDFFE753EC1A
:105940001A2B51EC180BFAF7BEFD53EC1C2BFAF78F
:1059500013FD53EC192BFAF7B6FD9DED0A1B53EC22
:10596000112BFAF709FDE3E78C5800000000000056
:10597000495555555555C5BF000000000000E03F92
:105980009FED070B10B553EC102B9FED070B51EC5F
:10599000100BFAF70AFE41EC100B10BD00000000DE
:1059A0000000000000000000000000000000F03FC8
:1059B00010B553EC102B51EC100BFAF7DDFC41EC59
:1059C000100B10BD10B553EC112B51EC100BFAF766
:1059D000D3FC41EC100B10BD9FED050B10B553EC43
:1059E000102B51EC100BFAF7E0FD41EC100B10BD41
:1059F00000000000000000009FED050B10B553EC07
:105A0000102B51EC100BFAF75EFD41EC100B10BDA2
:105A100000000000000000709FED050B10B553EC76
:105A2000102B51EC100BFAF74EFD41EC100B10BD92
:105A3000000000000000001002E008C8121F08C1AA
:105A4000002AFAD170477047002001E001C1121FFF
:105A5000002AFBD170470000014908607047000030
:105A6000780100202DE9FF5FDDE90220010DDDF85E
:105A700038B0024318D044F61050A1F2FF31414330
:105A80000D140F98012820D0A5EB0B00401C5FEAF5
:105A9000000A4FF00004474EDFF81C91A046504624
:105AA00016D5CAF1000728E00F98012443A2012867
:105AB00008D0002100980F9BC0E90021C0E90243F3
:105AC000BDE8FF9F6FEA0B01F4E7CBF10000DEE7D2
:105AD000074612E0F80707D02246334640464946BB
