:020000040800F2
:1000000068340020C1010008A5280008CD27000899
:10001000A128000881120008F34400080000000035
:10002000000000000000000000000000D3010008F4
:100030006D1F000800000000D7010008D90100086A
:10004000DB010008DB010008DB010008DB01000820
:10005000DB010008DB010008DB010008DB01000810
:10006000DB010008DB010008DB010008DB01000800
:10007000DB010008DB010008DB010008DB010008F0
:10008000DB010008DB010008DB010008DB010008E0
:1000900085130008DB010008DB010008DB01000814
:1000A000DB010008DB010008DB010008DB010008C0
:1000B000053500082D35000819370008DB01000858
:1000C000DB010008DB010008DB010008DB010008A0
:1000D000DB010008DB010008DB010008DB01000890
:1000E000DB010008DB010008DB010008DB01000880
:1000F000DB010008DB010008DB010008DB01000870
:10010000DB010008DB01000845370008DB010008BF
:10011000DB010008853C0008DB010008DB0100086A
:10012000DB010008DB010008DB010008DB0100083F
:10013000DB010008DB010008DB010008DB0100082F
:10014000DB010008DB010008DB010008DB0100081F
:100150003D1B0008DB010008DB01000849410008E5
:10016000DB010008DB010008DB010008DB010008FF
:10017000DB010008DB010008DB010008DB010008EF
:10018000DB010008DB010008D93C0008F93E00084B
:10019000DB010008DB010008DB010008DB010008CF
:1001A0000000000000000000DB010008DFF80CD0B8
:1001B00000F0B4FC004800473D830008683400208C
:1001C0000648804706480047FEE7FEE7FEE7FEE7F1
:1001D000FEE7FEE7FEE7FEE7FEE7FEE77132000816
:1001E000AD01000830B50B46014600202022012455
:1001F00009E021FA02F59D4205D303FA02F5491BF5
:1002000004FA02F52844151EA2F10102F1DC30BD0A
:100210002DE9FE43994615468846074601AC02295A
:1002200042D3002D40D000200290A8F101004FF0F1
:10023000FF36009022E000FB057201FB05701146BD
:100240004A469047002805DC54F82600304444F81C
:10025000260013E060682A4600FB057154F8040C80
:1002600000FB057007E00B7890F800C001F801CBA7
:1002700000F8013B521E002AF5D1764254F8040CD6
:1002800061688842D7DC4B462A463846FFF7C0FFF4
:1002900054F8040C4B46A8EB0001401C00FB057011
:1002A0002A46491EFFF7B4FFBDE8FE8310B5431A86
:1002B000934209D28318881803E010F8011D03F84F
:1002C000011D521EF9D210BD40EA01039B0703D065
:1002D00009E008C9121F08C0042AFAD203E011F885
:1002E000013B00F8013B521EF9D210BDD2B201E031
:1002F00000F8012B491EFBD270470022F6E710B52B
:1003000013460A4604461946FFF7F0FF204610BD83
:10031000CAB2401E10F8011F8A4202D00029F9D14A
:1003200000207047421C10F8011B0029FBD1801AE5
:10033000704710B5002200E0521C835C8C5CA34225
:1003400001D1002BF8D1D8B2E1B2401A10BDCBB226
:1003500003E00178994203D0401C521EF9D20020DC
:100360007047034611F8012B00F8012B002AF9D140
:100370001846704700F0DEBA2DE9FE4F804681EA4C
:100380000300C00F0C46009021F0004123F000450F
:10039000B8EB0200A94105D24046214690461C46D2
:1003A0000B46024623F00040104347D0270DC7F309
:1003B0000A00C3F30A510290401A019040286BDAF8
:1003C000C3F3130040F4801B0098924620B1002331
:1003D000D2EB030A63EB0B0B01985946C0F14002C4
:1003E000504600F028FA06460D4650465946019AF6
:1003F00000F040FA10EB08006141002487EA115236
:1004000084EAE7731A4340D0009A62B3019A012A42
:100410004FEA075215DC001B61EB02014FF000426E
:1004200002EA0752CDE90042001C41F58011324634
:100430002B4600F00DFB03B0BDE8F08F404621468F
:10044000F9E7001B61EB0201001C41F58013001865
:100450005B412018A2F5001747EB030140EAD57075
:10046000B6196D4111E06D084FEA360645EAC075D0
:100470004FEA0752001B61EB0201001C41F580119D
:1004800049084FEA30000019514132462B4603B06B
:10049000BDE8F04F00F0CDBA0098012240000023E3
:1004A000D0EB020263EBE073009821464FEAE07460
:1004B000B8EB000061EB0401E9E783F000435BE780
:1004C00081F0004158E72DE9FE4F81EA030404F072
:1004D000004421F0004100944FF0000B23F0004352
:1004E00050EA01045ED052EA03045BD0C3F30A541D
:1004F000C1F30A552C44A4F2F3340194A0FB025436
:10050000C1F3130141F48011C3F3130343F48013C7
:1005100001FB024400FB034E840A970A44EA81541B
:1005200047EA8357A4FB076802958D0A05FB0785F8
:100530004FEA932C04FB0C542705029D4FEA065802
:1005400047EA1637B5EB08056EEB070C870E920EDF
:1005500047EA811742EA8312A7FB0201B6EB0B01BF
:1005600064EB00042B0D43EA0C335E1844EB1C5083
:10057000DA465146E7FB0201C5F313044FEA0B3399
:1005800043EA14534FEA0432019C43EA0603A4F100
:100590000C040294009CCDE900B400F059FA03B0B9
:1005A000BDE8F08F00200146F9E72DE9F04D81EA22
:1005B000030404F0004B21F0004514464FF0000AFC
:1005C00023F0004150EA050220D054EA01021DD078
:1005D000C5F30A570246C5F31303C1F31300C1F371
:1005E0000A5640F4801543F48013A7EB0608101B4D
:1005F000D64608F2FD3873EB050002D308F1010876
:1006000001E092185B41B8F1000F03DA00200146C7
:10061000BDE8F08D00204FF48011064684460EE0C0
:10062000171B73EB050705D3121B63EB050306438A
:100630004CEA010C49084FEA300092185B4150EA3D
:100640000107EDD152EA030012D082EA040083EAE6
:100650000501084305D0101BAB4106D2012200233F
:1006600006E000224FF0004302E06FF00102531059
:100670001AEB06004CEB085110EB0A0041EB0B01A2
:10068000BDE8F04D00F0D5B9F0B4CA17CB0F50401B
:100690005140C61841F100054FEAC37231462800A7
:1006A0004FF0960303D0B623F0BC00F094B9304667
:1006B0000021F9E70EB5C10F80EAE0700844CA07CF
:1006C000002140F233438DE80E000A460B4600F04D
:1006D000BFF903B000BD70B5C1F30A5201F0004587
:1006E0000024C1F3130140F2FF3341F480119A4218
:1006F00001DA002070BD40F233439A42A2F2334245
:1007000003DC524200F0A6F800E090402C43F1D008
:10071000404270BD00F0004230F000400AD0C10DF0
:1007200001F56071C0F3160042EA0151C2084007AA
:1007300011437047002001467047000030B5041E89
:1007400071F1000404DB4FF00044404264EB01010E
:10075000141E73F1000405DB1C464FF000435242A7
:1007600063EB04038B4208BF824230BD30B5041EE8
:1007700071F1000404DB4FF00044404264EB0101DE
:10078000141E73F1000405DB1C464FF00043524277
:1007900063EB0403994208BF904230BD01F000436F
:1007A00030B421F0004150EA010206D00A0DA2F552
:1007B0006072C1F31301002A02DC30BC00207047D4
:1007C000440F44EAC104C100E01830BC00EBC25041
:1007D00000F0F8B82DE9F05F0546002092469B46F0
:1007E00088460646814640241BE028464146474647
:1007F000224600F02FF853465A46C01A914110D3B2
:1008000011461846224600F016F82D1A67EB01082B
:100810004F4622460120002100F00DF817EB000999
:100820004E41201EA4F10104DFDC484631462A4631
:100830004346BDE8F09F202A04DB203A00FA02F18B
:10084000002070479140C2F1200320FA03F31943BE
:1008500090407047202A04DB203A21FA02F0002160
:10086000704721FA02F3D040C2F1200291400843C0
:1008700019467047202A06DBCB17203A41FA02F0CE
:1008800043EAE07306E041FA02F3D040C2F12002ED
:1008900091400843194670470FB4002300B589B052
:1008A0000CA900910B996FF00042CB601E4B069390
:1008B0001E4B07930423CDE901321D4A08920246DC
:1008C0006B46002000F0CAF909B05DF814FB70B562
:1008D00086B006464FF0FF300091CDE901010020BF
:1008E00015460C4604903246694604A8FFF7D4FF2B
:1008F00003460498211825B108B10A4600E02246B3
:100900002A6000280DD0002B02DD0098884208D014
:10091000081B0094CDE901043246694604A8FFF79C
:10092000BBFF06B070BD0000950E0008B30E0008B6
:10093000490B00082DE9F04791460E4680460446D3
:10094000002514F8017B2FB100F0FAF80068C05DB3
:10095000C007F6D12B2F02D02D2F1ED0641E4A4681
:100960003146204600F0B6FA26B13268A24201D1E3
:10097000C6F800806A054FF0020418D50023D0EBBA
:10098000030563EB01025D1B934109DB0023D0EB00
:10099000030063EB0101BDE8F08745F48065DEE705
:1009A00003F06CFE046000204FF00041F3E7021EEC
:1009B00071F10002EFDA03F061FE04604FF0FF30E6
:1009C0004108E8E70029A8BF7047401C490008BF5C
:1009D00020F00100704710B4B0FA80FC00FA0CF06F
:1009E00050EA010404BF10BC704749B1CCF12004A7
:1009F00021FA04F411FA0CF118BF01212143084334
:100A0000A3EB0C01CB1D4FEA00614FEA102042BF5F
:100A1000002010BC704700EBC35010440029A4BF55
:100A200010BC7047401C490008BF20F0010010BCFA
:100A3000704710B5141E73F1000408DA401C41F130
:100A4000000192185B411A4301D120F0010010BD52
:100A50002DE9F04D92469B4611B1B1FA81F202E0C8
:100A6000B0FA80F220329046FFF7E5FE04460F46CA
:100A700040EA0A0041EA0B0153465A46084313D0A4
:100A8000114653EA010019D0C8F140025046FFF761
:100A9000E1FE05460E46504659464246FFF7CBFE5C
:100AA000084305D0012004E020463946BDE8F08D1A
:100AB0000020054346EAE0762C4337430A98630555
:100AC000E40AA0EB08000022FD0A44EA47540A3079
:100AD00002D500200146E9E7010510196941DDE969
:100AE000084500196941BDE8F04DA2E7C1F30A527B
:100AF000C1F3130140F2FF3341F480119A4202DA4C
:100B000000200146704740F233439A42A2F233423A
:100B100002DC5242FFF79EBEFFF78DBE064C074D2A
:100B200006E0E06840F0010394E8070098471034BD
:100B3000AC42F6D3FFF73EFB50AF000870AF0008A1
:100B4000004870474CAF000810B50446FFF7F8FFA7
:100B50000068005D00F0010010BD00002DE9FF4FAE
:100B6000087881B09946FF2805D0491C2D2804D06B
:100B70000024002308E000230BE00124F9E703EB45
:100B8000830300EB4303491C0878FF28F7D104B125
:100B90005B4200200090147801462D2C01D02B2CB4
:100BA00004D1521C2D2C12D000240094002516785C
:100BB000FF2E0ED00A24A0FB04C801FB04810027ED
:100BC00000FB0711521C16EB0C006941EFE70124F2
:100BD000EBE7994450EA01020ED00024AA4D2646C4
:100BE000DFF8A88200F0F2F982468B46B9F10000E6
:100BF00009DAC9F100071BE001980021C0E90011E2
:100C000005B0BDE8F08F074612E0F80707D022468E
:100C10002B4630464146FFF756FC0646884622469C
:100C20002B4610461946FFF74EFC04460D467F1032
:100C3000002FEAD1B9F1000F3246434650465946DB
:100C400002DAFFF7B2FC01E0FFF73DFC009A0AB1BF
:100C500081F00041019AC2E90001D1E72DE9FF4F7F
:100C60001F468DB0D7E901464FF0FF382E2045468C
:100C70004FF000090B90B9696D1C0E988847396ACE
:100C8000824688470028F6D1BAF1FF3F0AD024F403
:100C9000D064002E11DDBAF12B0F08D0BAF12D0F60
:100CA0000BD102E0404611B0ABE744F48064B9696F
:100CB0006D1C0E9888478246761E6946600501D5F0
:100CC0002D2000E02B208DF8000001F1010B0DF12B
:100CD000200809E0B9696D1C0E98884782460F9874
:100CE00044F40074761E0560002E02DDBAF1300F68
:100CF000F0D00B998A453ED144F0800406E00F996C
:100D0000681CA9F1010944F400740860B9696D1CFC
:100D1000761E0E98884782463028F0D02BE00B993B
:100D20008A4505D1200603D444F08004761E18E0DD
:100D3000504604F04DFA08B30DF11301761E44F449
:100D400000748B4508D2AAF130000BF8010B200685
:100D500007D5A9F1010003E0200602D409F1010042
:100D60008146A00502D50F99681C0860B9696D1C01
:100D70000E9888478246002ED1DC53E0002E51DDCC
:100D8000BAF1650F02D0BAF1450F4BD1A00549D594
:100D9000B9696D1C24F44074761E0E98884782460B
:100DA000002E0CDD2B2804D0BAF12D0F07D144F40E
:100DB0008074B9696D1C0E9888478246761EE005DE
:100DC00001D52D2100E02B2108F8011BCDF82C8046
:100DD00021E00DF12901761E44F4007488450CD2FF
:100DE000AAF1300010F0FF0088F8000002D10B9942
:100DF000884509D908F1010806E0E00501D5244835
:100E000001E042F20F708146B9696D1C0E98884767
:100E100082460F980560002E04DD504604F0D8F994
:100E20000028D6D1F9690E988847FF208BF800007A
:100E300088F800000020069007904B466A4608A9F3
:100E400006A8FFF78BFEA00502D46FF001002AE789
:100E500014F0240F0AD0E00714D1DDE90612386837
:100E6000031D3B600068C0E900120BE0DDE90601EC
:100E7000FFF794FC0146E00704D13868021D3A6090
:100E80000068016028460EE7000024400000F03FA3
:100E9000F1D8FFFF426842B1016811F8013B23B16C
:100EA000521EC0E90012184670470121C160881E19
:100EB000704742685AB1C368016843B983688B427E
:100EC00005D0491E521CC0E90012002070474FF0A7
:100ED000FF3070472DE9F74F4FF00009009C154691
:100EE000CA4614F8010B302801D0ADB115E014F852
:100EF000010B4FF00109782803D0582801D04DB1DB
:100F00000BE00DB1102D08D14FF00009102514F899
:100F1000010B02E0082500E00A2500273E46B846FE
:100F20004FEAE57B16E0A5FB07230BFB073105FB2A
:100F3000080005FB0616030CD71846F100061FFA39
:100F400080F8381E4FF0010976F5803000D3CA468C
:100F500014F8010B294600F02BF80028E3DA019879
:100F600038B1B9F1000F01D0641E00E0009C019877
:100F70000460BAF1000F08D003F080FB0221016089
:100F8000C81E014603B0BDE8F08F310441EA1741A5
:100F900048EA0740F6E70EB540F2334102910021DE
:100FA000CDE900110A460B46FFF752FD03B000BD24
:100FB0003A2800D2303820F02002412A01D3A2F191
:100FC0003700884201D34FF0FF3070470EB540F232
:100FD000334202920022CDE900221346FFF738FD8A
:100FE00003B000BD70B58C1810F8015B15F0070355
:100FF00001D110F8013B2A1106D110F8012B03E0B2
:1010000010F8016B01F8016B5B1EF9D12B0705D4B9
:101010000023521E0DD401F8013BFAE710F8013B02
:10102000CB1A921C03E013F8015B01F8015B521E1E
:10103000F9D5A142D8D3002070BD00009FED120A5F
:1010400080ED030A9FED100A80ED040A9FED0E0A61
:1010500080ED000A9FED0C0A80ED010A9FED0A0A5F
:1010600080ED020A9FED080A80ED050A9FED060A51
:1010700080ED060A9FED040A80ED070A9FED020A43
:1010800080ED080A704700000000000000B50B4822
:10109000FFF7D4FF0A48FFF7D1FF0A48FFF7CEFF5A
:1010A0000948FFF7CBFF0948FFF7C8FF0848FFF7DB
:1010B000C5FF0848FFF7C2FF00BD00005C0C002020
:1010C0001C0D0020DC0D00209C0E00205C0F002079
:1010D000DC1000209C11002008B5082302220C21FE
:1010E0004FF4B47002F00AF84FF4A06001F018FC5D
:1010F000B42005F073FAB42005F070FA07F05AFE38
:1011000007F0C4FE00F054FF06F0DAFD06F09EFD85
:101110000020052303221146009000F0B3F804F0EC
:1011200013FF01F055FB01F0DDFD07F007FA05F0B4
:101130005FFE02F063F944F24F6140F2E73002F0E3
:1011400011FB03F0EFF9FFF7A1FF09F01BF800F026
:10115000BBFF42F22731092002F0B0FA014801F04A
:1011600039FC08BD04040020F1EE401A71EEE01ACB
:101170009FED3C2A41EE021A3B48C0ED001AF1EE09
:10118000401A71EEA01A9FED372A41EE421AC0EDC7
:10119000041AF1EE401A71EEA01A9FED322A41EEC8
:1011A000021AC0ED081AF1EE401A71EEE01A9FED36
:1011B0002D2A41EE421AC0ED0C1AD0ED001A9FED17
:1011C0002B2A61EE821AC0ED011AD0ED041A9FEDB0
:1011D000272A61EE821AC0ED051AD0ED081A9FED9C
:1011E000232A61EE821AC0ED091AD0ED0C1A9FED88
:1011F0001F2A61EE821AC0ED0D1AD0ED011AB3EE6E
:10120000032A61EE821AFDEEE11A11EE900A4042C5
:10121000174988621448D0ED051AB3EE032A61EE2F
:10122000821AFDEEE11A1348C0ED0A1A0E48D0EDFD
:10123000091AB3EE032A61EE821AFDEEE11A11EEED
:10124000900A40420C4988620748D0ED0D1AB3EE6F
:10125000032A61EE821AFDEEE11A0848C0ED0A1A6F
:101260007047000000007042BC1300204276F43F3B
:10127000C80B0020880C0020480D0020080E00201C
:1012800000BFFEE72DE9F0418AB004460D46164640
:101290001F46DDF840800121082001F04BFB0121B1
:1012A000480601F057FB0320089002208DF8240027
:1012B00000208DF8260002208DF8250001208DF8F1
:1012C000270008A92D4801F00BF8092200212B481E
:1012D00001F04EF809220121284801F049F80020C8
:1012E0008DF81A0001208DF81B0000208DF81C00DD
:1012F0008DF81D008DF81E008DF81F008DF81680EA
:101300008DF817408DF818608DF81950ADF81470ED
:1013100005A91B4800F02DFA00208DF80E008DF86D
:101320000F0001208DF810000020ADF80400ADF88A
:101330000600ADF80800ADF80A00ADF80C00012079
:101340008DF8110001A800F087F9012202210C4854
:1013500000F006FA14208DF8000001208DF801003D
:1013600000208DF8020001208DF80300684601F08E
:101370009BFA00200AB0BDE8F0810000000C02409A
:101380000064004070B586B001AA0021544800F006
:101390007AFA9DF81000534908709DF80F004870C4
:1013A000084604889DF8120008709DF811004870E6
:1013B0000846B0F900509DF814109DF8130041EA5A
:1013C000002006B20198A0F5007008287ED2DFE860
:1013D00000F035040B1219272E2033462A462146E9
:1013E000414807F025FE78E033462A4621463F482B
:1013F00007F01EFE71E033462A4621463C4807F0BE
:1014000017FE6AE033462A4621463A4807F010FEA6
:1014100063E033462A462146374807F009FE5CE080
:1014200033462A462146354807F002FE55E033464A
:101430002A462146324807F0FBFD4EE09DF8100099
:101440009DF80F1040EA01202E4908609DF8121007
:101450009DF8110041EA00202A4948609DF81410C7
:101460009DF8130041EA0020264988609DF8161077
:101470009DF8150041EA00202249C860084600682E
:10148000B0F5804F04DD08460068A0F580300860A4
:101490001C484068B0F5804F05DD1A484068A0F54B
:1014A00080301849486017488068B0F5804F05DDE6
:1014B00014488068A0F58030124988601148C068DF
:1014C000B0F5804F07DD0F48C06800E004E0A0F5EC
:1014D00080300C49C86000E000BF00BF06B070BD9E
:1014E0000064004024000020C80B0020880C00206D
:1014F000480D0020080E0020C80E002048100020D3
:10150000081100204813002070B586B0064600245C
:101510004FF400700190002002908DF80C008DF8BF
:101520000D0008208DF80E0000BF05E0315D0DF1C3
:101530000F000155601C84B2082CF7DB01A90D488F
:1015400000F019FA0546002401E0601C84B2294627
:10155000084800F0A3FA18B940F6FF708442F4DBA3
:1015600040F6FF70844202DB012006B070BD00200F
:10157000FBE700000064004070B586B0064600241A
:1015800040F2FF100190002002908DF80C008DF8C1
:101590000D0008208DF80E0000BF05E0315D0DF153
:1015A0000F000155601C84B2082CF7DB01A90D481F
:1015B00000F0E1F90546002401E0601C84B22946F0
:1015C000084800F06BFA18B940F6FF708442F4DB6B
:1015D00040F6FF70844202DB012006B070BD00209F
:1015E000FBE700000064004070B586B006460024AA
:1015F00040F2FF100190002002908DF80C008DF851
:101600000D0008208DF80E0000BF05E0315D0DF1E2
:101610000F000155601C84B2082CF7DB01A90D48AE
:1016200000F0A9F90546002401E0601C84B22946B7
:10163000084800F033FA18B940F6FF708442F4DB32
:1016400040F6FF70844202DB012006B070BD00202E
:10165000FBE700000064004010B50021837A0122FE
:1016600002FA03F13D4A126842F001023B4B1A6054
:101670003A4A1C3212688A43384B1C331A60027B88
:10168000CAB9364A0C3212688A43344B0C331A609A
:101690004288C38842EA0343304A4032847A42F89F
:1016A00034300288838842EA03432C4A4032847AE9
:1016B00002EBC4025360027B012A19D1274A0C3283
:1016C00012680A43254B0C331A604288038842EAA9
:1016D0000343224A4032847A42F83430C2888388F5
:1016E00042EA03431D4A4032847A02EBC40253604B
:1016F000C27A3AB9194A121D12688A43174B1B1D48
:101700001A6006E0154A121D12680A43134B1B1D8E
:101710001A60028932B9114A143212688A430F4B97
:1017200014331A600289012A06D10C4A1432126855
:101730000A430A4B14331A60427B012A06D1074A36
:101740001C3212680A43054B1C331A60034A1268A4
:1017500022F00102014B1A6010BD0000006600403B
:101760001AB143690B43436102E043698B43436110
:10177000704730B5024600200023146824F00204AC
:101780001460146844F00104146000E05B1C5468A9
:1017900004F001041CB94FF6FF74A342F6D154685B
:1017A00004F001040CB900206CE08C79012C04D108
:1017B000146844F08004146003E0146824F080048A
:1017C0001460CC79012C04D1146844F040041460F6
:1017D00003E0146824F0400414600C7A012C04D156
:1017E000146844F02004146003E0146824F020041A
:1017F00014604C7A012C04D1146844F01004146075
:1018000003E0146824F0100414608C7A012C04D1D5
:10181000146844F00804146003E0146824F0080419
:101820001460CC7A012C04D1146844F004041460D0
:1018300003E0146824F0040414608C78A407CD78C5
:1018400044EA05640D7944EA05444D7944EA0554B7
:101850000D886D1E2C43D461146824F001041460BB
:10186000002300E05B1C546804F001041CB14FF637
:10187000FF74A342F6D1546804F001040CB10020B7
:1018800000E0012030BD10B500F5D87303EB011363
:101890001B6803F004031372137A53B900F5D8736D
:1018A00003EB01131B6840F2FF7404EA5353136007
:1018B00009E000F5D87303EB01131B686FF0604477
:1018C00004EAD303536000F5D87303EB01131B68DC
:1018D00003F00203537200F5D87303EB01135B6846
:1018E00003F00F03937200F5D87303EB01135B68E9
:1018F0001B0AD37400F5D87303EB01139B68D372F2
:1019000000F5D87303EB01139B681C0A147300F5F0
:10191000D87303EB01139B681C0C547300F5D87348
:1019200003EB01139B681B0E937300F5D87303EB55
:101930000113DB68D37300F5D87303EB0113DB6885
:101940001C0A147400F5D87303EB0113DB681C0C3C
:10195000547400F5D87303EB0113DB681B0E93740A
:1019600021B9C36843F02003C36003E0036943F077
:101970002003036110BD10B502460020936803F0F8
:101980008063B3F1806F00D110E0936803F00063CF
:10199000B3F1006F01D1012008E0936803F0805398
:1019A000B3F1805F01D1022000E00420042874D04C
:1019B00002F5C07303EB00131B6803F0010402F58A
:1019C000C07303EB00131C600B7A7BB94B7A0C8855
:1019D00043EA445302F5C07404EB00142468234323
:1019E00002F5C07404EB0014236010E00B7A4C681D
:1019F00043EAC4034C7A234302F5C07404EB001499
:101A00002468234302F5C07404EB001423608B7A2E
:101A100003F00F038B7202F5C07303EB00135B68D6
:101A200023F00F0402F5C07303EB00135C6002F5B2
:101A3000C07303EB00135B688C7A234302F5C07418
:101A400004EB001463608B7B1C064B7B44EA03446D
:101A50000B7B44EA0323CC7A234302F5C07404EBE6
:101A60000014A3608B7C1C064B7C44EA03440B7C73
:101A700044EA0323CC7B234302F5C07404EB001437
:101A8000E36002F5C07303EB00131B6843F001042D
:101A900002F5C07303EB00131C6010BD10B50246C5
:101AA000002321B1012907D002290FD109E0906854
:101AB0001D4C00EA04030BE090681C4C00EA040390
:101AC00006E090681A4C00EA040301E0002300BF1E
:101AD00000BF184C181BA34216D007DC83B16FF06F
:101AE0008060184470B1022818D111E0B0F5007F71
:101AF00010D0114C204448B1B0F5003F0ED10BE09E
:101B000002230DE000230BE0002309E0002307E09F
:101B1000012305E0012303E0012301E0002300BFCE
:101B200000BFD8B210BD000003000004000300088D
:101B300000000310000100080001FFF710B54A493A
:101B40004A4800F097F900287ED04949474800F0FC
:101B500097F84549454800F0ADF8464800784549B2
:101B6000497840EA0120C0F30A004349088041480F
:101B70004078C0103F49897840EA4110C0F30A001C
:101B80003D4948803B48807880113A49C97840EA0D
:101B900081003849097940EA8120C0F30A003649BA
:101BA00088803448007940103249497940EAC110B0
:101BB000C0F30A003049C8802E48407900118008DF
:101BC00008722C484079C0F3011048722948007C03
:101BD0002849497C40EA0120C0F30A00264948818F
:101BE000244880792349C97940EA012000B222497A
:101BF00088812048007A1F49497A40EA012001B2D1
:101C00001D48C1811B48807A1A49C97A40EA0120DF
:101C100001B2194801821748017B174881741548A1
:101C2000417B1548C1741348807B1249C97B40EA47
:101C300001201149888208460088104908800E4812
:101C4000408848800C4800E00DE0808888800A4881
:101C5000C088C8800848007A08720748407A4872ED
:101C600005484089488110BD0088002088640240F2
:101C7000000800203C05002092000020A800002061
:101C80000246094B9A4201D2084801E00648103842
:101C900001F000531BB1064B0B40C36002E0044B44
:101CA0000B408360704700001064024000600240F7
:101CB0007D0F7D0F0246094B9A4201D2084801E090
:101CC0000648103801F000531BB1064B0B40C360AF
:101CD00002E0044B0B408360704700001064024038
:101CE000006002407D0F7D0F21B1026842F00102C9
:101CF000026003E0026822F0010202607047000007
:101D0000016821F0010101600021016041608160F2
:101D1000C1600161212141614A49884204D13D21CC
:101D2000484A103A91608CE046491831884205D102
:101D30004FF47461434A103A916082E04149303176
:101D4000884205D14FF474113E4A103A916078E010
:101D50003C494831884205D14FF07461394A103A04
:101D600091606EE037496031884204D13649354A86
:101D7000103AD16065E033497831884204D1334963
:101D8000304A103AD1605CE02E499031884204D14B
:101D90002F492C4A103AD16053E02A49A831884291
:101DA00005D14FF03D51274A103AD16049E0294909
:101DB000884204D13D21274A083A116041E0254973
:101DC0001831884205D14FF47461224A083A1160F3
:101DD00037E020493031884205D14FF474111D4A53
:101DE000083A11602DE01B494831884205D14FF077
:101DF0007461184A083A116023E01649603188423C
:101E000004D11149134A121F11601AE011497831A7
:101E1000884204D10D490F4A121F116011E00D498B
:101E20009031884204D10A490A4A121F116008E021
:101E30000849A831884204D14FF03D51054A121F8C
:101E400011607047106002403D000020400F0020EC
:101E500000003D20106402400146486880B270478F
:101E6000014600200A6802F400220AB1012000E0C5
:101E70000020704770B50246002000240025124E55
:101E8000B24201D2114B01E00F4B103B104E0E40FD
:101E900036B11E2606EAD124166806EA040502E0D9
:101EA000566906F0800501F000560EB15C6800E04E
:101EB0001C68084E344004EA010616B10DB1012039
:101EC00000E0002070BD000010640240006002408D
:101ED0003C0F3C0F7D0F7D0F10B501F080034BB11F
:101EE00022B1436943F08003436103E0436923F077
:101EF0008003436180290BD02AB1036801F01E04DE
:101F00002343036004E0036801F01E04A34303605D
:101F100010BD000010B500220268134B1A40CC68B7
:101F20000B6823434C6923438C692343CC692343C7
:101F30000C6A23434C6A23438C6A23434C6B234330
:101F40008C6B23431A430260426922F00702D1E9F5
:101F50000B3423431A4342610B6943604B6883602F
:101F60008B68C36010BD00003F801CF0704700000C
:101F700010B505F083FE78B10B48006801280BD13D
:101F80000A48006808B9012000E0002007490860FD
:101F900000200549086005E005F070FE10B9012039
:101FA0000149086010BD00008001002094024342F6
:101FB00000B58FB001213E4800F0BCFC012110208B
:101FC00000F0E8FC072211463A4800F0D1F98020E1
:101FD0000D9002208DF8380000208DF83A00032083
:101FE0008DF8390000208DF83B000DA9314800F034
:101FF00077F9314802F036F9304809900020ADF801
:102000002800ADF82A004FF48060ADF82C000420C1
:10201000ADF82E000020ADF8300009A9264802F0E6
:10202000F5F90121244802F008F901224021224853
:1020300002F00FF944208DF8380001208DF83900A6
:102040008DF83A008DF83B000EA800F02DFC1C48DE
:10205000FFF756FE4FF0006000901748001D0190FA
:102060001848029000200390122004900020059050
:102070004FF4806006900020079008904FF4807025
:1020800009904FF440300A9000200B900C900D9076
:102090000E9069460A48FFF73DFF012210210848CB
:1020A000FFF71AFF01210648FFF71EFE0FB000BD23
:1020B000020040000004024000100140A086010020
:1020C000886402403C05002010B504F085FD10BD79
:1020D00030B589B005460C460121084600F03AFCAF
:1020E0000121084600F026FC0320079002208DF80D
:1020F000200003208DF8210000208DF823008DF8AA
:10210000220007A9334800F0EBF8012200213148F2
:1021100000F02EF9012211462E4800F029F904950D
:10212000ADF80C400020ADF80E00ADF8140003A986
:102130004FF0804001F064FD0020ADF80000ADF8E4
:1021400002000120ADF804000020ADF806000A20CE
:10215000ADF808006946400701F08FFB0420ADF898
:1021600000000020ADF802000120ADF804000020BE
:10217000ADF806000A20ADF808006946400701F0F6
:102180007CFB00231A4603214FF0804001F040FB06
:102190001C208DF8180001208DF81B008DF8190007
:1021A00002208DF81A0006A800F07EFB01218807A6
:1021B00001F010FB00214FF0804001F0F2FC012201
:1021C0001146900701F090FB0121880701F005FB03
:1021D00009B030BD0000024030B589B005460C465C
:1021E0000121042000F0B6FB0121082000F0A2FB31
:1021F0004FF44050079002208DF8200003208DF806
:10220000210000208DF823008DF8220007A9324814
:1022100000F066F802220C212F4800F0A9F80222F3
:102220000D212D4800F0A4F80495ADF80C400020D5
:10223000ADF80E00ADF8140003A9284801F0E0FC49
:102240000020ADF80000ADF802000120ADF8040058
:102250000020ADF806000A20ADF8080069461F48C6
:1022600001F00BFB0420ADF800000020ADF80200E7
:102270000120ADF804000020ADF806000A20ADF8FA
:1022800008006946154801F0F8FA00231A460321B0
:10229000124801F0BDFA1E208DF8180001208DF8BB
:1022A0001B008DF8190002208DF81A0006A800F016
:1022B000FBFA0121094801F08DFA0021074801F0DD
:1022C00070FC01221146054801F00EFB0121034874
:1022D00001F083FA09B030BD000C02400008004054
:1022E000F0B50A4600210023002400BF3DE001258F
:1022F00005FA01F3156805EA03049C4234D1056828
:102300004F000326BE40B543056015794E00B54029
:102310000668354305601579012D02D01579022D27
:1023200016D185684F000326BE40B54385605579B8
:102330004E00B540866835438560456801268E406D
:10234000B5434560456896798E40B6B235434560E1
:10235000C5684F000326BE40B543C560D5794E0021
:10236000B540C6683543C560491C1029BFD3F0BDD0
:10237000F0B5002300244D07ED0E02FA05F3CE1050
:1023800000F1200555F826504E07F70E0F26BE40E7
:10239000B543CF1000F1200646F82750CE1000F1CB
:1023A000200555F8265045EA0304CE1000F120051B
:1023B00045F82640F0BD4183704701837047000017
:1023C000454890ED090AB1EE400AF3EE030A80EEAB
:1023D000201A424880ED031A414890ED090AF3EEB5
:1023E000030A80EE201A3D4880ED071A3D4890ED23
:1023F000090AF3EE030A80EE201A384880ED0B1A22
:10240000394890ED090AB1EE400AF3EE030A80EE76
:10241000201A324880ED0F1A90ED030ADFED330ADF
:1024200020EE200A80ED020A90ED070ADFED2F0A68
:1024300020EE200A80ED060A90ED0B0ADFED2B0A54
:1024400020EE200A80ED0A0A90ED0F0ADFED270A40
:1024500020EE200A80ED0E0A90ED020AD0ED060A69
:1024600030EE600AD0ED0A0A30EE600AD0ED0E0AB6
:1024700030EE200ADFED1E0A80EE201A80ED151ADC
:1024800090ED020AB1EE400AD0ED060A30EE200AC5
:10249000D0ED0A0A30EE600AD0ED0E0A30EE200AC6
:1024A000F1EE000A80EE201A80ED131A90ED020A78
:1024B000D0ED060A30EE200AD0ED0A0A30EE200AEE
:1024C000D0ED0E0A30EE200AF1EE000A80EE201A5E
:1024D00080ED141A70470000C80B0020BC130020C8
:1024E000880C0020480D0020080E0020960A063FA8
:1024F00000007043394890ED040AB5EEC00AF1EED1
:1025000010FA10DB90ED040ADFED350AB4EEE00AB4
:10251000F1EE10FA07D890ED040ADFED320A30EE42
:10252000200A80ED040A2D4890ED040ADFED2E0A02
:10253000B4EEE00AF1EE10FA19D290ED040ADFEDE4
:10254000280A30EE600A9FED291AC0EE010AB0EEAB
:10255000000A20EE800ADFED260A20EE200AF0EEC7
:10256000000A80EE201A234880ED291A26E01B4835
:1025700090ED040ADFED1C0AB4EEE00AF1EE10FA69
:102580001CDB90ED040ADFED160A30EE600ADFED89
:10259000170A80EE201AB0EE000A61EE000A9FEDE5
:1025A000141A9FED150A00EEC10ADFED130AB0EE12
:1025B000001A40EE410A0F48C0ED290A0F4890ED7D
:1025C000040ADFED0F0A30EE600ADFED0E0A20EE9E
:1025D000200A084880ED250A7047000048100020B6
:1025E00000808E4400F8FF4500A0A345000000468F
:1025F000DC0F4940BC130020DC0FC940081100204B
:102600000010A9450000343D0148008970470000D2
:102610008C0B00200C4890ED001AD0ED0A1AB4EE95
:10262000E11AF1EE10FA06D290ED001ADFED071A6A
:1026300071EE210A02E00448D0ED000A024890ED54
:102640000A1A30EEC10A704790130020DC0FC9400F
:1026500010B504F0B7FC00EE100AB8EE400A2748A7
:1026600080ED090A04F0B5FC00EE100AB8EE400A4D
:10267000234880ED090A2148D0ED090A214890ED50
:10268000000AB8EEC00A30EEC00ADFED1F0AB4EE51
:10269000E00AF1EE10FA07DB90ED000AB8EEC00A8E
:1026A000164880ED090A07E0144890ED090ABDEECE
:1026B000C00A144880ED000A1148D0ED090A1348F9
:1026C00090ED000AB8EEC00A30EEC00ADFED0E0A47
:1026D000B4EEE00AF1EE10FA07DB90ED000AB8EE76
:1026E000C00A074880ED090A07E0054890ED090A8D
:1026F000BDEEC00A054880ED000A10BD881200201A
:10270000C8110020900100200000C8438C01002067
:10271000284890ED041ADFED281AB4EEE11AF1EE24
:1027200010FA06D290ED041ADFED241A71EE210A98
:1027300002E02048D0ED040A9FED211AF4EEC10A10
:10274000F1EE10FA14D89FED1C1A30EEC11A9FED6D
:102750001B2AC1EE021AB0EE001A21EE811ADFED3B
:10276000191A21EE211AF0EE001A81EE210A20E05A
:102770009FED131AF4EEC10AF1EE10FA19DD9FED88
:10278000101A30EEC11ADFED0D1A81EE212AB0EEDB
:10279000001A62EE011A9FED0B2A9FED0A1A01EE54
:1027A000C21AB0EE002AC1EE021A9FED071A31EEEE
:1027B000610A70474810002000808E4400F8FF45F1
:1027C00000A0A345DC0F4940DC0FC94000BFFEE775
:1027D00000B587B00121102000F0ACF80121880776
:1027E00000F0B8F800208DF81A0001208DF81B00C9
:1027F00002208DF819008DF81800C001059005A978
:102800002148FFF76DFD02208DF81800802005900B
:1028100005A91D48FFF764FD082207211A48FFF7A4
:10282000A7FD082211461848FFF7A2FD4FF4E1303A
:1028300001900020ADF80800ADF80A00ADF80C00DA
:10284000ADF810000C20ADF80E0001A90F4801F002
:10285000DDFD01210D4801F0F0FC012240F225517F
:102860000A4801F0AEFD52208DF8000000208DF8DE
:1028700001008DF8020001208DF80300684600F089
:1028800013F807B000BD00000010024000780040BF
:102890004A0A52020243014B1A60704708ED00E0F9
:1028A00000BFFEE77047000070B5002100230F2233
:1028B000C4781CB3174C246804F4E064C4F5E064E5
:1028C000C4F30721C1F10404E3B20A4144789C40F7
:1028D000E1B28478144021430C07210E0E4C057898
:1028E0006155047804F01F050124AC4005786D1192
:1028F000AD0005F1E025C5F8004109E0047804F0D9
:102900001F050124AC40054D0678761145F8264098
:1029100070BD00000CED00E000E400E080E100E0AC
:1029200002490143024A1160704700000000FA05A5
:102930000CED00E029B1064A12680243044B1A600C
:1029400004E0034A12688243014B1A60704700009A
:102950003038024029B1064A12680243044B1A601B
:1029600004E0034A12688243014B1A60704700007A
:102970004038024029B1064A12680243044B1A60EB
:1029800004E0034A12688243014B1A60704700005A
:102990002038024029B1064A12680243044B1A60EB
:1029A00004E0034A12688243014B1A60704700003A
:1029B0004438024029B1064A12680243044B1A60A7
:1029C00004E0034A12688243014B1A60704700001A
:1029D00024380240F0B50021002200240225002600
:1029E0000223324F3F6807F00C0121B1042905D0C2
:1029F000082937D105E02E4F076036E02D4F0760DC
:102A000033E02A4F3F1F3F68C7F38056274F3F1FD1
:102A10003F6807F03F036EB1264FB7FBF3F7DFF8CF
:102A20008CC0ACF1040CDCF800C0CCF3881C07FBB4
:102A30000CF40CE01E4FB7FBF3F7DFF870C0ACF1FD
:102A4000040CDCF800C0CCF3881C07FB0CF4174F17
:102A50003F1F3F68C7F301477F1C7D00B4FBF5F7BC
:102A6000076002E0124F076000BF00BF0F4F3F68D2
:102A700007F0F0010909104F7A5C0768D7404760FA
:102A80000A4F3F6807F4E051890A0B4F7A5C4768A8
:102A9000D7408760054F3F6807F46041490B064FF8
:102AA0007A5C4768D740C760F0BD00000838024034
:102AB0000024F400001BB700000000202DE9F041C5
:102AC0000746022F02D0042F25D112E014480088B7
:102AD00086B24FF0804000F0BCFE85B200204FF07F
:102AE000804148620E490860C6EB062005EB800471
:102AF00011E00C48008886B20B4800F0AAFE85B2AF
:102B0000002009492431086006490860C6EB062008
:102B100005EB800400BF00BFA4082046BDE8F0819B
:102B20008800002084000020000800402DE9F041CA
:102B300005460E46B046404605F0A0FC07462878FC
:102B4000A5280AD1002403E0285D3855601CC4B2D2
:102B5000B442F9DB384600F005F8384604F00CF9C9
:102B6000BDE8F08138B504460020009000254C48AF
:102B700021680160217901716D1D60190088009044
:102B8000AD1CBDF8000040F20222811A904256D0DE
:102B900016DCB0F5817F3AD00ADC012821D002286A
:102BA00026D0032828D0A0F20110002875D129E0F2
:102BB000A0F2031080B3012836D0FE286DD138E092
:102BC000042951D006DC01293FD0022943D0032932
:102BD00063D144E005294BD0062950D0FF295CD1B0
:102BE00051E060192F4902880A808078887055E08A
:102BF0002D48615D017051E061191C222B48FDF7E1
:102C000055FB4BE061192A480968016046E06119EB
:102C100028480968016041E0FFE7601926490288F9
:102C20000A808078887039E0611924480988018019
:102C300034E061190F222248FDF738FB2EE06119BC
:102C40000E222048FDF732FB28E0611910221E48B1
:102C5000FDF72CFB22E01D48615D01701EE061194B
:102C60001B480988018019E01A48615D017015E070
:102C70006019194902680A60808888800EE0174848
:102C8000615D01700AE06019154902680A604268D6
:102C90004A608068886001E0FFE700BF00BF38BD80
:102CA000BE000020C3000020C6000020700B0020E2
:102CB000C7000020CB000020CF000020D200002061
:102CC0008C0B00209B0B0020A90B0020D4000020BF
:102CD000D5000020D7000020D8000020DE00002012
:102CE000B90B002000B58FB001214FF04010FFF765
:102CF00021FE01212020FFF74DFE08220921464830
:102D0000FFF736FB4FF400700D9002208DF838006D
:102D100000208DF83A0003208DF8390000208DF84E
:102D20003B000DA93C48FFF7DBFA3C4801F09AFA5A
:102D30004FF4E13009900020ADF82800ADF82A00EA
:102D40004FF48060ADF82C000420ADF82E00002078
:102D5000ADF8300009A9314801F058FB01212F4896
:102D600001F06BFA012240212C4801F072FA472051
:102D70008DF8380001208DF839008DF83A008DF873
:102D80003B000EA8FFF790FD39208DF83800012098
:102D90008DF8390002208DF83A0001208DF83B00B3
:102DA0000EA8FFF781FD1E48FEF7AAFF4FF0206036
:102DB00000901A48001D01901A48029000200390CC
:102DC00080200490002005904FF480600690002041
:102DD000079008904FF4807009904FF440300A90AB
:102DE00000200B900C900D900E9069460C48FFF758
:102DF00091F8012240F22441084801F0E2FA012250
:102E000040F22551054801F0DCFA01210448FEF7A3
:102E10006BFF0FB000BD000000180240001401401D
:102E2000286402405C06002010B56548D0ED121AF7
:102E3000B0EE611AD0ED111AF0EE610AD0ED101A61
:102E4000B0EE610A03F0D0FA5D4991ED180ABDEECB
:102E5000C00A10EE100A07F01BFB5A48007805283C
:102E600019D15948007858B9554890ED241AF0EE18
:102E7000410A90ED281AB0EE410A04F0B1F80AE0D8
:102E80004F4890ED221AF0EE410A90ED261AB0EE6E
:102E9000410A04F015F94D48D0ED051AB0EE611A5B
:102EA000D0ED041AF0EE610AD0ED031AB0EE610A1B
:102EB00007F00EFC4548D0ED081AB0EE611AD0EDCF
:102EC000071AF0EE610AD0ED061AB0EE610A02F0C0
:102ED000F3FF3E48D0ED0B1AB0EE611AD0ED0A1A9E
:102EE000F0EE610AD0ED091AB0EE610A07F026FF94
:102EF00035480078D0B9354890ED143AF0EE432AC1
:102F000090ED133AB0EE432A90ED123AF0EE431AE8
:102F100090ED0E3AB0EE431A90ED0D3AF0EE430A02
:102F200090ED0C3AB0EE430A02F002FD274890ED16
:102F3000173AF0EE432A90ED163AB0EE432A90EDA0
:102F4000153AF0EE431A90ED113AB0EE431A90EDB7
:102F5000103AF0EE430A90ED0F3AB0EE430A07F054
:102F6000FDFC07F02FF807F0C7F807F087F81548C1
:102F70000078042813D1164890ED000ABCEEC00A70
:102F800010EE101A134800F004FE134890ED000AEA
:102F9000BCEEC00A10EE101A0E4800F0FCFD084A04
:102FA00092ED1E0ABDEEC00A10EE101A92ED1A0A3A
:102FB000BDEEC00A10EE100A03F0B4FF10BD000011
:102FC000BC1300206D00002070000020640400206D
:102FD0008401002000000140880100200CB5002081
:102FE000019000904148006840F480303F490860FB
:102FF00000BF3E48006800F4003000900198401C7B
:103000000190009818B90198B0F5A04FF1D1374858
:10301000006800F4003010B10120009001E00020B1
:1030200000900098012860D130484030006840F09E
:1030300080502E49403108602D48006840F44040DF
:103040002B49086029480830006828490831086081
:103050000846006840F4004008600846006840F4F4
:10306000A05008602348091F0860081F006840F04E
:103070008070091F086000BF1C48006800F00070E5
:103080000028F9D01A48006840F4803018490860D8
:1030900000BF1748406800F480300028F9D0144879
:1030A000006840F400301249086000BF10484068D2
:1030B00000F400300028F9D040F205700E49086095
:1030C0000A480830006820F0030008490831086009
:1030D0000846006840F00200086000BF034808305E
:1030E000006800F00C000828F8D10CBD0038024040
:1030F000007000400C5A4007003C0240F0B5044606
:103100000D4616461F461448006840F0010012495B
:10311000086000201049083108600F4800680F4916
:1031200008400D4908600E48091D0860081F006826
:1031300020F48020091F0860002007490C31086036
:103140003B4632462946204600F00CF8002108464E
:10315000FFF79EFBF0BD000000380240FFFFF6FEC7
:1031600010300024F0B504460D46002100203D4EED
:10317000366846F480363B4F3E6001E04E1CB1B2EB
:10318000384E366806F400361EB941F6FF76B14275
:10319000F4DB41F6FF76B14201D1012060E0314E0F
:1031A0004036366846F080562E4F40373E602E4EF1
:1031B000366846F440462C4F3E602A4E0836366844
:1031C00046F41446274F08373E60264E366826F0F0
:1031D0008076244F3E6045EA84160127C7EB5207EC
:1031E00046EA074646EA036646F480061D4F3F1D41
:1031F0003E603E1F366846F080763F1F3E6000BF4F
:10320000184E366806F00076002EF9D0174E366854
:1032100046F48076154F3E603E46366846F40076AA
:103220003E603E46366846F480663E603E463668FE
:1032300046F005063E600B4E0836366826F003065B
:10324000084F08373E603E46366846F002063E604C
:1032500000BF044E0836366806F00C06082EF8D17A
:10326000F0BD00000038024000700040003C024009
:1032700010B51548006840F4700013490860134801
:10328000006840F001001149086000200F49083132
:1032900008600E4800680E4908400C4908600D4857
:1032A000091D0860081F006820F48020091F0860BD
:1032B000002006490C310860FFF790FE4FF00060D7
:1032C00001498039086010BD88ED00E000380240F7
:1032D000FFFFF6FE10300024F0B50C461546002125
:1032E0000022068C4FF6FE773E400684018B028C4E
:1032F0004FF60C7631407E1C06EA03162E4331430E
:103300004FF6F576324044F00106324301830284E1
:10331000F0BDF0B50C461546002100220026078CB2
:103320004FF6EF7C07EA0C070784018B028C4FF6FF
:10333000FF7707EA041640F6FF4739404FF6FF775C
:1033400007EA033739434FF6FF7707EA0527394382
:103350004FF65F773A4046F010073A430183028404
:10336000F0BDF0B50C461546002100220026078C62
:103370004FF6FF6C07EA0C070784818B028C4FF62F
:10338000FF7707EA04264FF60C7739404FF6FF77B0
:1033900007EA03172F4339434FF2FF573A4046F4E9
:1033A00080773A4381830284F0BDF0B50C46154620
:1033B000002100220026078C4EF6FF7C07EA0C074E
:1033C0000784818B028C4FF6FF7707EA043640F6BC
:1033D000FF4739404FF6FF7707EA052739434FF695
:1033E000FF7707EA0337394345F6FF773A4046F45B
:1033F00080573A4381830284F0BD000000B58BB052
:1034000001210846FFF796FA01210846FFF7C2FAA4
:10341000012208213948FEF7ABFF4FF48070099074
:1034200002208DF8280003208DF8290000208DF857
:103430002A0001208DF82B0009A93048FEF750FF23
:10344000012209212D48FEF793FF4FF400700990E7
:1034500002208DF8280003208DF8290000208DF827
:103460002A0001208DF82B0009A92448FEF738FF17
:1034700044F61F600790B320ADF818000020ADF8A7
:103480002000ADF81A008DF8220006A91C4800F0B3
:10349000B7FB6020ADF804000120ADF80600042061
:1034A000ADF808000020ADF810000820ADF81200BB
:1034B0000020ADF81400ADF8160040F2DC50039087
:1034C00001A90F4800F01AFA08210D4800F054FA3B
:1034D00001A90B4800F05AFA0821094800F0A8FA9F
:1034E0000121074800F06AF90121054800F075F94B
:1034F0000121034800F07DF90BB000BD000002403F
:103500000000014010B50121880700F0A5F901284D
:1035100004D105480068401C034908600121880760
:1035200000F058F910BD00008800002010B50121FE
:10353000564800F091F9012871D155480068401CA7
:103540005349086053480078012801D105F0DCFD9B
:1035500051480078002840D150480078012804D113
:1035600006F032FA00204D4908704D4800780128D5
:1035700004D106F0C5FA002049490870494800788E
:10358000012806D106F04EFB06F07CFA00204549E2
:10359000087045480078012806D106F00DFB02F0BE
:1035A0003DFD00204049087040480078012802D1C4
:1035B00000203E4908703E480078012804D106F0FA
:1035C000FBFA00203A4908703A480078012804D1F3
:1035D00006F062FB0020374908702D48006807217B
:1035E00090FBF1F201FB120008B9FFF71DFC28481F
:1035F00000681F2190FBF1F201FB120008B9FEF7F1
:10360000B7FC234800684FF4FA7190FBF1F201FB1C
:10361000120058B92848006810B9012001E030E0D4
:1036200000202549086000201949086018490868E9
:10363000C11700EB91718910A0EB810109B9FEF768
:10364000BFFEFEF757FF05F033FC11480068052167
:1036500090FBF1F201FB120058B90D4800681421EB
:1036600090FBF1F201FB120018B906F069FB06F0BD
:103670003DFC07480068B0F57A7F02DB0120044971
:1036800008600121014800F0A5F810BD00040040C9
:10369000180000206F000020710000201D00002095
:1036A0001E0000201F00002020000020210000201C
:1036B0002200002023000020880243427FB50546F7
:1036C0000C4601210220FFF745F90295ADF80440B0
:1036D0000020ADF80600ADF80C0001A90D4800F07F
:1036E0008FFA012211460B4800F0FEF8012109482B
:1036F00000F073F81D208DF8000002208DF8010005
:1037000001208DF802008DF803006846FFF7CCF821
:103710007FBD00000004004010B50121074800F003
:103720009BF8012804D106480068401C0449086041
:103730000121024800F04EF810BD000000080040D2
:103740008400002010B50121054800F085F801280B
:1037500001D1FEF77DFF0121014800F03BF810BDCB
:10376000000C00407FB505460C4601210820FFF7FC
:10377000F1F80295ADF804400020ADF80600ADF870
:103780000C0001A90C4800F03BFA012211460A483E
:1037900000F0AAF80121084800F01FF832208DF847
:1037A000000001208DF801008DF802008DF8030063
:1037B0006846FFF779F87FBD000C004021B1028810
:1037C00042F08002028004E002884FF67F731A40C4
:1037D00002807047CA430282704721B1028842F0DA
:1037E0000102028004E002884FF6FE731A40028054
:1037F000704731B1B0F8442042F40042A0F84420B0
:1038000005E0B0F84420C2F30E02A0F8442070474F
:10381000F0B50C4615461E46002100220023018902
:10382000028B038C4FF6F877394021434FF6FC4763
:103830003A4040F201173A434FF6DD773B404FF6EE
:10384000FF7707EA06172F433B4301810283038476
:10385000F0BD0146486A704730B50246002000239B
:103860000024158A05EA0103958905EA010413B1CC
:103870000CB1012000E0002030BD70B505460C46BB
:10388000208850B92389A28861882846FFF724FD43
:10389000E188284600F087F925E0208804280AD12D
:1038A0002389A28861882846FFF733FDE1882846EE
:1038B00000F082F917E0208808280AD12389A2881D
:1038C00061882846FFF74DFDE188284600F081F920
:1038D00009E02389A28861882846FFF766FDE18810
:1038E000284600F07FF970BD1AB183890B438381AC
:1038F00002E083898B4383817047000070B5002408
:1039000000220023058C4FF6FE7635400584028C9C
:103910008388048B4FF68F752C40B51E2C400D8884
:103920002C43751E2A408D892A434D882A43104D09
:10393000A84202D00F4DA84213D14FF6F7752A4086
:10394000CD892A434FF6FB752A408D882A434FF6CE
:10395000FF652B404FF6FF552B400D8A2B434D8AB8
:103960002B43838004838D684563028470BD00000F
:1039700000000140000401400A460021018B4FF67F
:10398000F7731940114301837047000070B500249C
:1039900000220023058C4FF6EF7635400584028C1B
:1039A0008388048B48F6FF752C404FF6FF452C406A
:1039B0000D884FF6FF7606EA05252C434FF6DF7596
:1039C0002A408D8906EA05152A434D8806EA051521
:1039D0002A43154DA84202D0144DA8421DD14FF6DE
:1039E0007F752A40CD894FF6FF7606EA05152A43F2
:1039F0004FF6BF752A408D8806EA05152A434FF613
:103A0000FF352B404FF2FF752B400D8A06EA8505E6
:103A10002B434D8A06EA85052B43838004838D68FA
:103A20008563028470BD0000000001400004014075
:103A30000A460021018B4FF2FF7319404FF6FF73C6
:103A400003EA0223194301837047000070B5002484
:103A500000220023058C4FF6FF6635400584028C5A
:103A60008388848B4FF68F752C404FF6FC752C4065
:103A70000D882C434FF6FF552A408D894FF6FF766F
:103A800006EA05252A434D8806EA05252A43154DF1
:103A9000A84202D0144DA8421DD14FF2FF752A4012
:103AA000CD894FF6FF7606EA05252A434FF6FF3506
:103AB0002A408D8806EA05252A434EF6FF752B40DD
:103AC0004DF6FF752B400D8A06EA05152B434D8AEE
:103AD00006EA05152B43838084838D68C5630284C1
:103AE00070BD000000000140000401400A460021B2
:103AF000818B4FF6F77319401143818370470000A3
:103B000070B5002200230024058C4EF6FF76354068
:103B10000584038C8488828B48F6FF752A404FF613
:103B2000FF452A400D884FF6FF7606EA05252A4311
:103B30004DF6FF752B408D8906EA05352B434D88E0
:103B400006EA05352B430A4DA84202D0094DA8428A
:103B500008D14BF6FF752C400D8A4FF6FF7606EA2A
:103B600085152C43848082838D680564038470BD31
:103B700000000140000401400A460021818B4FF201
:103B8000FF7319404FF6FF7303EA02231943818341
:103B900070474163704781637047C1637047016438
:103BA000704741627047028B4FF6F3731A400283ED
:103BB000028B0A4302837047028B4FF2FF331A4095
:103BC0000283028B4FF6FF7303EA01231A43028339
:103BD0007047828B4FF6F3731A408283828B0A43BD
:103BE00082837047828B4FF2FF331A408283828B2D
:103BF0004FF6FF7303EA01231A43828370470000E4
:103C000000220288184B98420ED0184B98420BD0D5
:103C1000B0F1804F08D0164B984205D0154B984212
:103C200002D0154B984204D14FF68F731A404B883F
:103C30001A43124B984207D0114B984204D04FF6CA
:103C4000FF431A400B891A4302804B68C3620B88FA
:103C50000385054B984202D0044B984201D18B7AE0
:103C60000386012383827047000001400004014065
:103C70000004004000080040000C0040001000401C
:103C80000014004010B540F224410F4800F06FFBD3
:103C9000C8B10D4800880D4908600B48808808604D
:103CA00000210B48FEF720F80948FEF7D5F8C0F1CF
:103CB000C80006490860C8210648FCF71EFB012120
:103CC0000348FEF711F810BD00500040B40000207A
:103CD000106002405805002010B540F225517B4885
:103CE00000F045FB002817D0784800F0F9FBC4B27B
:103CF0002A2C12D196217648FCF7FFFA002075494C
:103D000008707548007840F0010073490870084653
:103D1000007800F0FD000870CCE03B2C1DD10020A5
:103D20006C49087001206D4908706B48007840F0BC
:103D30000200694908700846007800F0FE0008702B
:103D400096216748FCF7D9FA61496548FCF709FBF9
:103D500096215F48FCF7D1FAACE03F2C1DD1002042
:103D60005C49087001205F4908705B48007840F0AA
:103D70000200594908700846007800F0FE000870FB
:103D800096215748FCF7B9FA51495548FCF7E9FA2A
:103D900096214F48FCF7B1FA8CE0212C1DD1002070
:103DA0004C4908700120504908704B48007840F099
:103DB0000200494908700846007800F0FE000870CB
:103DC00096214748FCF799FA41494548FCF7C9FA5A
:103DD00096213F48FCF791FA6CE02E2C1DD1002073
:103DE0003C4908700120414908703B48007840F088
:103DF0000200394908700846007800F0FE0008709B
:103E000096213748FCF779FA31493548FCF7A9FA89
:103E100096212F48FCF771FA4CE03E2C1DD1002072
:103E20002C4908700120324908702B48007840F076
:103E30000200294908700846007800F0FE0008706A
:103E400096212748FCF759FA21492548FCF789FAB9
:103E500096211F48FCF751FA2CE02B2C1DD1002095
:103E60001C4908700120234908701B48007840F065
:103E70000200194908700846007800F0FE0008703A
:103E800096211748FCF739FA11491548FCF769FAE9
:103E900096210F48FCF731FA0CE00F48007800F04B
:103EA000010038B10B4801780078401C094A1070B5
:103EB0000748445440F22771044800F058FA4FF480
:103EC0005871024800F0AAF910BD000000780040C7
:103ED000DC010020260000201C0000201D00002026
:103EE000720200201E0000201F0000202000002081
:103EF000210000202200002010B52DED088B40F29B
:103F00002551834800F033FA00287BD0804800F028
:103F1000E7FAC4B27F4801780078401C7D4A1070EF
:103F20007D4844540078552805D00020114608707B
:103F3000BDEC088B10BD774800780B2800DAF7E756
:103F400075484078502806D051285CD052281AD0A5
:103F500053287CD100E0CFE06F4989796E4AD2794D
:103F600041EA0220FCF7A6FB41EC190B9FED6B0B1D
:103F700053EC102BFCF7A7FA41EC180BFCF70EFCE6
:103F800068490860B8E064498979634AD27941EAAE
:103F9000022108B2FCF78EFB41EC1A0B9FED620B7D
:103FA00053EC102BFCF78FFA41EC190B9FED600BD3
:103FB00053EC102BFCF787FA41EC180BFCF7EEFBE7
:103FC0005849886054490979534A527941EA022193
:103FD00008B2FCF76FFB41EC1A0B9FED530B53EC4F
:103FE000102BFCF770FA41EC190B9FED510B53ECC1
:103FF000102BFCF768FA41EC180BFCF7CFFB494992
:10400000C86079E082E044498978434AD27841EA3D
:10401000022108B2FCF74EFB41EC1B0B9FED420B5B
:1040200053EC102BFCF74FFA41EC1A0B9FED420BAF
:1040300053EC102BFCF747FA41EC190B9FED400BAA
:1040400053EC102BFCF73FFA41EC180B00E052E068
:10405000FCF7A4FB334908612F4909792E4A5279AC
:1040600041EA022108B2FCF725FB41EC1B0B9FED56
:104070002E0B53EC102BFCF726FA41EC1A0B9FED9C
:104080002E0B53EC102BFCF71EFA41EC190B9FED95
:104090002C0B53EC102BFCF716FA41EC180BFCF729
:1040A0007DFB204948611C4989791B4AD27941EA44
:1040B000022108B2FCF7FEFA41EC1B0B9FED1A0B34
:1040C00053EC102BFCF7FFF941EC1A0B9FED1A0B88
:1040D00053EC102BFCF7F7F941EC190B9FED180B83
:1040E00053EC102BFCF7EFF941EC180BFCF756FBE7
:1040F0000C49886100E000BF00BF0020054908703E
:104100004FF45871024800F089F800BF00BF0FE774
:10411000007C00402700002008030020F11D4454CB
:10412000FB21193F90130020000000000000003F19
:104130000000000000409F400000000000003040F0
:104140009A9999999999234010B540F225512F4891
:1041500000F00DF950B140F225512C4800F05EF806
:10416000002240F22551294800F02BF940F2244169
:10417000264800F0FCF8002846D024480088234850
:10418000001D00882248FDF76BFEF0B90021204891
:10419000FDF7AAFD1E48FDF75FFEC0F180001D4936
:1041A000088080201A49091D0860081F006840F433
:1041B0000020091F086001211548FDF795FD1548ED
:1041C00001881548FEF7B2FC1EE000211048FDF7FB
:1041D0008BFD0F48FDF740FEC0F180000D490880BF
:1041E00080200B49091D0860081F006820F400208A
:1041F000091F086001210648FDF776FD0548018882
:1042000005488038FEF792FC10BD00000014014004
:1042100028640240BC000020DC06002010B500220B
:10422000002340F66A14A14200D100BF0A12012403
:104230009440A3B2DC43048010BD21B1828942F4D2
:104240000052828104E082894DF6FF731A40828118
:1042500070471AB1838A0B43838202E0838A8B43BF
:104260008382704710B504463248844208D1012148
:104270001020FEF79FFB00211020FEF79BFB57E06C
:104280002D48844209D101214804FEF773FB002127
:104290004FF40030FEF76EFB4AE02848844209D113
:1042A00001218804FEF766FB00214FF48020FEF711
:1042B00061FB3DE02248844209D10121C804FEF798
:1042C00059FB00214FF40020FEF754FB30E01D485D
:1042D000844209D101210805FEF74CFB00214FF46F
:1042E0008010FEF747FB23E01748844208D10121E4
:1042F0002020FEF75FFB00212020FEF75BFB17E08C
:104300001248844209D101218807FEF733FB0021BE
:104310004FF08040FEF72EFB0AE00D48844207D1A3
:1043200001214005FEF726FB00216005FEF722FB78
:1043300010BD000000100140004400400048004053
:10434000004C004000500040001401400078004044
:10435000007C004002460020B1F5007F00D100BF84
:1043600013880B400BB1012000E00020704770B5AE
:104370000246002400230025002040F66A16B142C0
:1043800000D100BFC1F3421501F01F03012606FA58
:1043900003F3012D02D19689334006E0022D02D1AC
:1043A000168A334001E0968A33400C12012606FA41
:1043B00004F41688344013B10CB1012000E0002051
:1043C00070BDF0B50346002400260025002040F60D
:1043D0006A17B94200D100BF1846C1F3421401F078
:1043E0001F06012707FA06F5012C01D10C3004E065
:1043F000022C01D1103000E014301AB107682F43AD
:10440000076002E00768AF430760F0BD2DE9FF4792
:1044100005460E460024A14600BFA046B08900B163
:1044200000BF2C8A24F44054F08804432C82AC89C9
:1044300041F20C608443B088318908437189084394
:104440000443AC81AC8A24F44074B0890443AC8248
:104450006846FEF7BFFA2048854202D01F488542D1
:1044600002D1DDF80C9001E0DDF80890A88900F495
:10447000004040B109EBC90000EB09103168490068
:10448000B0FBF1F707E009EBC90000EB0910316858
:104490008900B0FBF1F76420B7FBF0F004012009BC
:1044A000642101FB1078A88900F4004040B132205B
:1044B00000EBC800B0FBF1F000F00700044308E097
:1044C000322000EB08106421B0FBF1F000F00F0087
:1044D00004432C81BDE8FF87001001400014014017
:1044E00001468888C0F308007047C1F30802828043
:1044F000704700BFFEE700000021C160016101605C
:104500004160816041618161C161016241629FEDF1
:10451000040A80ED0A0A9FED020A80ED0B0A70473B
:104520000000000000B50B48FFF7E6FF0A48FFF760
:10453000E3FF0A48FFF7E0FF0948FFF7DDFF0948FE
:10454000FFF7DAFF0848FFF7D7FF0848FFF7D4FF67
:1045500000BD0000040C0020C40C0020840D0020CD
:10456000440E0020040F002044110020841000207D
:104570000FB4054B10B503A9044A029800F030FEB1
:1045800010BC5DF814FB0000556D0008D001002040
:104590000FB41CB50A46521ECDE9000207A9054B0F
:1045A0006A46069800F01CFE009A002111701CBC9F
:1045B0005DF814FB0F5900080FB4084B10B504A99F
:1045C00002AA039800F00CFE044602A9002001F0A4
:1045D000A9F9204610BC5DF814FB0000255900081D
:1045E0007CB5491E1C461546CDE90001044B6A46C0
:1045F0002146284600F0F4FD009A002111707CBD90
:104600000F59000830B47446641E2578641CAB4210
:1046100000D21D46635D5B00E31830BC184703B44D
:1046200001984100009850EAC12018BF04204A0DAB
:1046300018BF40F0010040F2FF72B2EB515F08BFBB
:1046400040F00200012808BF052002B07047012297
:1046500049005205D14201D1002801D00020704705
:1046600001207047002800D0012001434800024982
:104670004008081AC00F70470000F07F00487047DC
:10468000CC0100200000000010B52F499FED2C1B2D
:104690002DED020B84B0059820F000408842D8BF71
:1046A0009DED040B2DDD2949884209D1049840B9BC
:1046B0004FF0010000F0D4FC00F0A2FC06B010BDE9
:1046C00005DB9DED040B00F08FFC06B010BD6846C5
:1046D0009DED040B00F0A0F810F0030004BF9DED69
:1046E000021B9DED000B0CD001280ED09DED021B8E
:1046F0009DED000B022817D0012000F0DDFB06B075
:1047000010BD00F0A5FA06B010BD9DED021B9DED99
:10471000000B012000F0D0FB51EC100B81F00041A8
:1047200006B041EC100B10BD00F092FA51EC100BEA
:1047300081F0004106B041EC100B10BD00000000FC
:104740000000000000000000FB21E93F0000F07FB6
:1047500010B52F499FED2C1B2DED020B84B0059851
:1047600020F000408842DCBF00209DED040B32DDCC
:104770002849884209D1049840B94FF0010000F05F
:104780006FFC00F03DFC06B010BD05DB9DED040B99
:1047900000F02AFC06B010BD68469DED040B00F049
:1047A0003BF810F0030011D0012818D09DED021B3A
:1047B0009DED000B02281AD000F04AFA51EC100BC4
:1047C00081F0004106B041EC100B10BD9DED021BC5
:1047D0009DED000B012000F06FFB06B010BD9DEDBC
:1047E000021B9DED000B00F033FA06B010BD012056
:1047F00000F062FB51EC100B81F0004106B041EC7F
:10480000100B10BD000000000000000000000000C0
:10481000FB21E93F0000F07F2DE9F14F04462DED2B
:10482000020B2DED088B8AB09FEDE70B80ED020B9C
:10483000139EE74826F0004585420ADC9DED120BE9
:10484000002084ED000B0AB0BDEC088B03B0BDE87E
:10485000F08FE0489FEDE0AB9FEDE1BBA84247DD64
:10486000E14F9FEDE39B9FEDE48B9DED120B53EC2D
:104870001A2B51EC100B002E1CDDFBF71EFE41EC39
:10488000100BBD4208D053EC1B2B51EC100BFBF767
:1048900014FEC4E900010BE053EC192B51EC100B92
:1048A000FBF70BFE53EC182BFBF707FEC4E90001E6
:1048B0000120C8E7FBF760FD41EC100BBD4208D0BA
:1048C00053EC1B2B51EC100BFBF756FDC4E9000118
:1048D0000BE053EC192B51EC100BFBF74DFD53EC97
:1048E000182BFBF749FDC4E900014FF0FF30AAE7A0
:1048F000C348A84279DB9DED120B51EC100B02F07E
:10490000D7F941EC180B9FEDC00B53EC102BFBF7C4
:10491000DAFD9FEDBF1B53EC112BFBF72DFDFBF7D1
:10492000DAFE0746FBF7C6FE41EC190B53EC1A2BD7
:10493000FBF7C9FD53EC182BFBF7C2FD41EC180B3C
:1049400053EC1B2B51EC190BFBF7BDFDDFF8C8A294
:1049500041EC100B4FEA15580125FA4453EC102B8B
:1049600051EC180BFBF7A9FD032DC4E900013DD064
:10497000C1F30A5005EB4511A8EB00001139814243
:1049800034DA0AEB051BB0EE48AA9BED000BF0EE03
:1049900068AA53EC102B51EC190BFBF794FD41EC7A
:1049A0001B0B51EC1A0B53EC1B2BFBF786FD41EC58
:1049B000180B51EC1A0B53EC182BFBF77EFD53EC44
:1049C0001B2BFBF77AFD9BED020B41EC1A0B53EC12
:1049D000102B51EC190BFBF776FD53EC1A2BFBF760
:1049E0006CFD41EC100B6D1CB8E70EE0002EA8BF6B
:1049F0003846BFF628AF94ED000B51EC100B81F058
:104A00000041C4E9000178421DE7C6F3130040F4F9
:104A1000801EC6F30A50A0F2F530471100F01F05C2
:104A2000C5F12000DDF848B00890002006900790FE
:104A30000520EC467949002D07EB0002794408BFB8
:104A400051F8221009D051F8223001EB8201AB401D
:104A50004A68089922FA01F11943A1FB0E26A1FB2D
:104A60000B131A449A4234BF0123002303EB0608B8
:104A70000CEB8003D3E901A60E448E4234BF012122
:104A8000002192448A4411B1924502D903E0924533
:104A900001D2012100E00021C3E901A641444CF804
:104AA0002010011EA0F10100C4DC029800F10050AA
:104AB000850F0298DDE903678000DDF81480FBF7BD
:104AC000F9FD41EC1A0B3046FCF765FA9FED541BDB
:104AD00053EC112BFBF7F7FC41EC1B0B3846FCF7B2
:104AE0005AFA9FED511B53EC112BFBF7ECFC41ECF8
:104AF000180B4046FCF74FFA9FED4D1B53EC112B62
:104B0000FBF7E1FC41EC190B51EC180B53EC192BA2
:104B1000FBF732FC53EC1B2BFBF72EFC53EC1A2B50
:104B2000FBF72AFCCDE90801002008909DED080B59
:104B300053EC1A2B51EC100BFBF7BFFC53EC1B2B67
:104B4000FBF7BBFC53EC182BFBF7B7FC53EC192B12
:104B5000FBF7B6FC9FED381B53EC112BFBF7B3FCB6
:104B60009FED370B41EC180B53EC102B9DED080B10
:104B700051EC100BFBF7A7FC53EC182BFBF7FCFBDD
:104B80009FED310B41EC180B53EC102B9DED080BF6
:104B900051EC100BFBF797FC53EC182BFBF7ECFBDD
:104BA00041EC100B139810F0004F06D06D4251EC01
:104BB000100B81F0004141EC100B284684ED000BF6
:104BC00041E60000000000000000000000000000BE
:104BD000FB21E93F7CD9024000004054FB21F93F12
:104BE0003163621A61B4D03DFB21F93F000000003F
:104BF0000000601A61B4D03D7370032E8A19A33B84
:104C0000FB2139410000000083C8C96D305FE43FDB
:104C1000000000000000E03F7A640000C86300006C
:104C2000000000000000103E000000000000103CEA
:104C3000000000000000103A182D4454FB21F93DFB
:104C40003326A611460B113C00000054FB21F93D10
:104C500010B52DED040B2DED088B82B0B0EE419A0E
:104C6000F0EE619A0B9820F000449FED4BABB4F14D
:104C7000795F11DA9DED0A0B51EC100BFBF72BFD60
:104C8000002801BFB0EE4A0AF0EE6A0A02B0BDEC9D
:104C9000088B04BF04B010BD9DED0A0B53EC102B24
:104CA00051EC100BFBF70FFC41EC180B3C480621B4
:104CB000B0EE480AF0EE680A784400F081F853EC50
:104CC000182B51EC100BFBF7FEFB9DED0A0B41EC92
:104CD0001B0B53EC192B51EC100BFBF7F4FB41ECC5
:104CE000190B53EC1B2B51EC180BFBF7ECFB53ECA3
:104CF000192BFBF7E2FB9FED2C0B41EC190B53EC4E
:104D0000102B51EC180BFBF7DEFB41EC100B284885
:104D1000844210DA53EC192B51EC100BFBF7CDFB4E
:104D200053EC1A2BFBF7CCFB41EC100B02B0BDECA3
:104D3000088B04B010BD1F48A042BCBF9FED1E1BD6
:104D40008DED001B06DBA4F5001001900020009003
:104D50009DED001B51EC100B53EC112BFBF7ADFB41
:104D60009DED000B41EC180B53EC102B51EC1A0B82
:104D7000FBF7A3FB41EC1A0B53EC192B51EC180B6E
:104D8000FBF79BFB53EC1A2BFBF79AFB41EC100B48
:104D9000CCE7000000000000000000000000F03F31
:104DA000EC60000000000000000000000000E03F98
:104DB0003333D33F0000E93F000000000000D23F42
:104DC00070B504462DED028B4D1E00EBC500B0EE14
:104DD000408AF0EE608A90ED000B35F0060017D0A7
:104DE00053EC182B51EC100BFBF76DFB41EC100B47
:104DF0006D1E04EBC50090ED001B51EC100B53EC45
:104E0000112BFBF7B9FA41EC100B35F00600E7D196
:104E1000022D36D0042D1CD0062D1CBFBDEC028BFC
:104E200070BD53EC182B51EC100BFBF74CFB94EDC1
:104E30000A1B53EC112BFBF79FFA53EC182BFBF7D3
:104E400042FB94ED081B53EC112BFBF795FA41EC58
:104E5000100B53EC182B51EC100BFBF734FB94EDBB
:104E6000061B53EC112BFBF787FA53EC182BFBF7BF
:104E70002AFB94ED040B53EC102BFBF77DFA41EC6D
:104E8000100B53EC182B51EC100BFBF71CFB94EDA3
:104E9000021B53EC112BFBF76FFA53EC182BFBF7AB
:104EA00012FB94ED001B53EC112BFBF765FABDECE4
:104EB000028B41EC100B70BD31B504462DED040B97
:104EC0002DED0A8BB0EE41BAF0EE61BA0B989DED74
:104ED0000A0B20F00040B0F1795F0DDA51EC100BB5
:104EE000FFF79DFB042808BF00F09AF89DED0A0B20
:104EF000BDEC0A8B05B030BD53EC102B51EC100B00
:104F0000FBF7E1FA41EC180B9DED0A0B53EC182B63
:104F100051EC100BFBF7D7FA41EC190B2C48B0EE13
:104F2000480AF0EE680A05217844FFF749FF9FED33
:104F30002ACBB0EE40AAF0EE60AA9CB353EC1C2B37
:104F400051EC190BFBF7BFFA41EC1C0B53EC1A2B7D
:104F500051EC190BFBF7B7FA9FED210B41EC190B44
:104F600053EC102B51EC1B0BFBF7ADFA53EC192B48
:104F7000FBF7A3FA53EC182BFBF7A5FA53EC1B2B0A
:104F8000FBF79BFA53EC1C2BFBF797FA9DED0A1BE2
:104F900053EC112BFBF794FABDEC0A8B05B041ECF6
:104FA000100B30BDFFE753EC1A2B51EC180BFBF73D
:104FB0008AFA53EC1C2BFBF7DFF953EC192BFBF7A8
:104FC00082FA9DED0A1B53EC112BFBF7D5F9E3E7B1
:104FD000745F000000000000495555555555C5BF88
:104FE000000000000000E03F10B553EC102B51EC26
:104FF000100BFBF7C1F941EC100B10BD00000000D5
:105000009FED050B10B553EC102B51EC100BFBF77B
:10501000CCFA41EC100B10BD0000000000000000B5
:105020009FED050B10B553EC102B51EC100BFBF75B
:105030004AFA41EC100B10BD000000000000001007
:1050400002E008C8121F08C1002AFAD17047704751
:10505000002001E001C1121F002AFBD170470000AF
:105060000149086070470000CC0100202DE9FF5F76
:10507000DDE90220010DDDF838B0024318D044F616
:105080001050A1F2FF3141430D140F98012820D098
:10509000A5EB0B00401C5FEA000A4FF00004474EEE
:1050A000DFF81C91A046504616D5CAF1000728E04B
:1050B0000F98012443A2012808D0002100980F9BDB
:1050C000C0E90021C0E90243BDE8FF9F6FEA0B0180
:1050D000F4E7CBF10000DEE7074612E0F80707D05F
:1050E0002246334640464946FBF7EDF9804689465D
:1050F0002246334610461946FBF7E5F904460E46AC
:105100007F10002FEAD1DDE90201BAF1000F42461B
:105110004B4602DAFBF7D7F901E0FBF746FA044603
:105120000E460022284BFBF721FB03D84FF0FF303F
:10513000014607E00022254B20463146FBF71CF9CB
:10514000FBF7D4FC102409E0002C0ADB0A22002320
:10515000FBF740FB019B30321A55641E50EA0102F6
:10516000F2D1641C019AC4F1110314440F9A012A6C
:1051700003D0012208430DD10AE0084304D00020E7
:105180004FF0110B0F9080E7A3EB0B056D1E0DE0A8
:105190005B4504DD4FF0000205F1010504E003DA90
:1051A0004FF00002A5F10105002AECD000980F99FC
:1051B000C0E90231C0E9004586E700000000244054
:1051C0000000F03F300000000000F0430000E03F2E
:1051D00030380A2801D201207047002070470000B3
:1051E0002DE9FF4F95B09B468946064600250FE204
:1051F000252877D100242746F84A0121059400E0AC
:10520000044316F8013F203B01FA03F01042F7D1A6
:1052100030782A2811D06FF02F033078A0F13002B7
:10522000092A16D8059A44F0020402EB820203EB25
:1052300042021044761C0590EFE759F8042B0592C2
:10524000002A03DA504244F40054059044F002046A
:10525000761C30782E2816D116F8010F44F004047D
:105260002A280DD06FF02F023078A0F13003092BDF
:1052700009D807EB870302EB4303C718761CF3E753
:1052800059F8047B761C30786C280FD006DC4C284B
:1052900017D068280DD06A2814D104E0742810D0E3
:1052A0007A280FD10DE044F400140AE044F480148D
:1052B00001E044F440147278824202D104F5801473
:1052C000761C761C307866280BD013DC582877D0F3
:1052D00009DC002875D04528F6D04628F4D04728A8
:1052E0001AD19DE118E0632835D0642879D065286B
:1052F00012D195E1702873D008DC6728F1D06928B5
:105300006FD06E280DD06F2806D1B5E073282CD051
:10531000752875D0782874D05A46179990476D1C17
:1053200075E1C4F30250022809D003280DD0D9F842
:10533000001004280DD00D6009F1040967E1D9F8C7
:105340000010EA17C1E90052F6E7D9F800100D8005
:10535000F2E70D70F0E719F8041B8DF8001000203B
:105360008DF80100EA46012003E059F804AB4FF044
:10537000FF3061074FF0000102D40DE008F1010198
:105380008846B9420FDA8045F8DB1AF80810002980
:10539000F4D108E008F1010188468142FADB1AF8ED
:1053A00008100029F6D105985B46A0EB08072146B6
:1053B0003846179A00F094FA284400EB080507E0F5
:1053C0004DE029E10DE01AF8010B5A461799904774
:1053D000B8F10108F7D25B4621463846179A13E127
:1053E00042E00A220092C4F302524FF0000A022A5D
:1053F00008D059F804CB032A4FEAEC710AD00DE02B
:1054000029E02AE009F1070121F00702F2E802C1D0
:10541000914609E00FFA8CFC4FEAEC71042A03D1A3
:105420004FFA8CFC4FEAEC71002907DA0A4600219A
:10543000DCF1000C61EB02012D2202E0220504D513
:105440002B228DF80420012203E0E20701D0202264
:10545000F7E7904659E00A2102E010220DE0102102
:105460004FF0000A00910BE010224FF0000A44F0C8
:1054700004040827009203E008224FF0000A00927B
:10548000C4F30252022A05D059F804CB0021032AA2
:1054900008D009E009F1070121F00702F2E802C192
:1054A000914605E01FFA8CFC042A01D10CF0FF0C98
:1054B0004FF00008220728D5702806D0009B83F003
:1054C000100353EA0A0305D00EE040228DF80420B1
:1054D000012208E05CEA010206D030228DF80420A7
:1054E0008DF8050002229046009B83F0080353EAE2
:1054F0000A030AD15CEA010201D1620705D5302214
:105500008DF804204FF001087F1E582804D034A0E5
:1055100003900EA802900DE036A0F9E753466046CE
:10552000009AFBF757F984460398825C0298401E64
:10553000029002705CEA0100F0D1029806A9081AF4
:1055400000F1200A600702D524F4803400E001272E
:10555000574502DDA7EB0A0000E0002000EB0A013E
:10556000009005984144401A0590E00306D45B463C
:105570002146179A059800F0B3F90544002706E084
:1055800001A85A46C05D179990476D1C7F1C47457E
:10559000F6DBE0030CD55B462146179A059800F030
:1055A0009FF9054404E030205A46179990476D1C36
:1055B0000099481E00900029F5DC08E00298029945
:1055C0005A460078491C0291179990476D1CBAF110
:1055D0000001AAF1010AF1DC65E1000009280100DF
:1055E0003031323334353637383961626364656659
:1055F000000000003031323334353637383941421B
:10560000434445460000000000F058F90544761C6C
:10561000307800287FF4ECAD19B02846BDE8F08F53
:10562000620700D4062709F1070222F0070CFCE804
:105630000223E14603F000485FEA080C02D00FF2B3
:10564000702C0DE05FEA045C02D50FF2682C07E0D5
:105650005FEAC47C02D00FF2602C01E0AFF2700C64
:105660004FF0FF3823F00043CDF850C065280CD030
:1056700006DC452809D046281DD047283DD13DE00D
:10568000662818D067287ED138E00021112F01DB71
:10569000112000E0781CCDE9000106A90EA8FFF753
:1056A000E5FCDDE90F010E9A03910021009207F15C
:1056B000010A04914DE04FF000400097CDE9011040
:1056C00006A90EA8FFF7D2FCDDE90F0203920E9B9C
:1056D00011990022DDF80CA00093049211B9791CF5
:1056E00000EB010AB7EB0A0004D4C0F1FF3007F168
:1056F000010A0490AAEB0700019044E0012F00DAB0
:1057000001270021112F01DD112000E03846CDE9ED
:10571000000106A90EA8FFF7A9FCDDE90F010E9A0A
:105720000391002104910092BA4621070CD40399F9
:10573000514500DA8A46BAF1010F05DD009AAAF157
:105740000101515C302908D0B84202DA10F1040F8F
:1057500006DA0121CDE9011015E0AAF10101E9E71E
:10576000002805DC049901440491AAEB000102E041
:10577000411C514500DD8A460499401A401C0190A5
:105780004FF000400290200704D40198504501DBFF
:10579000CDF8048000208DF84F0002980DF14F07DE
:1057A000B0F1004F25D02B200E9002984FF0020848
:1057B00000280CDA404202902D200E9007E00A21CA
:1057C0000298FAF70FFD3031029007F8011DB8F189
:1057D0000001A8F10108F2DC02980028EFD1791E3F
:1057E0000E980870307800F0200040F0450007F86F
:1057F000020D12A8C01B00F107081498007800B130
:10580000012000EB0A01019801EBE0710598414489
:10581000401A401E0590E00306D45B462146179AC5
:10582000059800F05DF805441498007818B15A46C0
:10583000179990476D1CE00324D55B462146179AC3
:10584000059800F04DF805441CE00498002807DB9B
:10585000DDE90301884203DD0098405C179901E00F
:10586000179930205A469047049805F10105401CCD
:1058700004900198401E019004D12E205A46179999
:1058800090476D1CBAF10001AAF1010ADDDC05E0C8
:1058900017F8010B5A46179990476D1CB8F1000193
:1058A000A8F10108F4DC5B462146179A0598ABE69F
:1058B0002D0000002B000000200000002DE9F04129
:1058C000044600251E461746880404D405E03946E0
:1058D0002020B0476D1C641EF9D52846BDE8F08134
:1058E0002DE9F041044600251E469046C80301D527
:1058F000302700E02027880404D505E041463846DB
:10590000B0476D1C641EF9D52846BDE8F0814A6891
:10591000002A06D00A68531C0B6010704868401EAD
:10592000486070470A68531C0B6010707047000095
:1059300010B52DED068BF0EE409AB0EE60AAF0EEB9
:1059400041AAB0EE618AF0EE428AB0EE629A324825
:1059500090ED000A3148D0ED000A30EE200A3048C0
:1059600080ED280A90ED280ADFED2E0AB4EEE00A59
:10597000F1EE10FA07DB90ED280ADFED2A0A30EE8F
:10598000600A80ED280A284890ED040A80ED280A74
:10599000042026490870B0EE6A1AF0EE4A0AB0EE0A
:1059A000690A1F48943000F043F805201F49087029
:1059B000B0EE491AF0EE680AB0EE480A1A48943080
:1059C00000F036F800201949087000BF144890ED27
:1059D0002D0AF0EE000A20EE200ABDEEC00A80ED8E
:1059E000120A90ED2D0AF0EE000A20EE200ABDEE1C
:1059F000C00A80ED0A0A0C4890ED2D0ABDEEC00ADF
:105A000080ED120A90ED2D0ABDEEC00A80ED0A0A63
:105A100000BFBDEC068B10BD34010020300100201A
:105A200048100020DC0FC940081100203000002081
:105A300010B52DED068B0446B0EE408AB0EE609AAC
:105A4000F0EE418A94ED040AD4ED030A30EE600AC8
:105A500084ED000AFE48007801287CD002287BD023
:105A6000042802D0052878D1D7E094ED000A10EE82
:105A7000101A0846FAF74EFE41EC1A0B9FEDF50B93
:105A800053EC102BFAF75AFE17D894ED000A10EEDB
:105A9000101A0846FAF73EFE41EC1A0B9FEDEF0B89
:105AA00053EC102BFAF762FE07D894ED020AD4EDFE
:105AB000000A30EE200A84ED020A94ED020AF0EEAC
:105AC000080AB4EEE00AF1EE10FA04DDB0EE080ABE
:105AD00084ED020A0CE094ED020AF8EE080AB4EE36
