:020000040800F2
:10000000F83C0020C1010008DF3A0008152700086D
:10001000BD2F0008AB0800081759000800000000B9
:1000200000000000000000000000000099470008E8
:10003000D92300080000000015400008354C0008D6
:10004000DB010008DB010008DB010008DB01000820
:10005000DB010008DB010008DB010008DB01000810
:10006000DB010008DB010008DB010008DB01000800
:10007000DB010008DB010008DB010008DB010008F0
:10008000DB010008DB010008DB010008DB010008E0
:10009000E9090008DB010008DB010008DB010008BA
:1000A000DB010008DB010008DB010008DB010008C0
:1000B000DB010008DB010008DB010008DB010008B0
:1000C000DB010008DB010008DB010008DB010008A0
:1000D000DB010008DB01000885540008A954000872
:1000E000DB010008DB010008DB010008DB01000880
:1000F000DB010008DB010008DB010008DB01000870
:10010000DB010008DB010008DB010008DB0100085F
:10011000DB010008DB010008714E0008DB0100086C
:10012000DB010008DB010008DB010008DB0100083F
:10013000DB010008DB010008DB010008DB0100082F
:10014000150C0008DB010008DB010008DB010008DA
:10015000751F0008DB010008DB0100081D550008C1
:10016000DB010008DB010008DB010008DB010008FF
:10017000DB010008DB010008DB010008DB010008EF
:10018000DB010008DB010008295400086154000865
:10019000DB010008DB010008DB010008DB010008CF
:1001A0000000000000000000DB010008DFF80CD0B8
:1001B00000F00EFB0048004791640008F83C002066
:1001C0000648804706480047FEE7FEE7FEE7FEE7F1
:1001D000FEE7FEE7FEE7FEE7FEE7FEE7A54C0008C8
:1001E000AD01000810B5431A934209D2831888184C
:1001F00003E010F8011D03F8011D521EF9D210BDD5
:1002000040EA01039B0703D009E008C9121F08C098
:10021000042AFAD203E011F8013B00F8013B521E18
:10022000F9D210BDD2B201E000F8012B491EFBD279
:1002300070470022F6E710B513460A4604461946F1
:10024000FFF7F0FF204610BD034611F8012B00F820
:10025000012B002AF9D1184670472DE9FE4F804640
:1002600081EA0300C00F0C46009021F0004123F00A
:100270000045B8EB0200A94105D240462146904610
:100280001C460B46024623F00040104347D0270D82
:10029000C7F30A00C3F30A510290401A01904028A4
:1002A0006BDAC3F3130040F4801B0098924620B130
:1002B0000023D2EB030A63EB0B0B01985946C0F104
:1002C0004002504600F050F906460D465046594649
:1002D000019A00F068F910EB08006141002487EAF8
:1002E000115284EAE7731A4340D0009A62B3019A2C
:1002F000012A4FEA075215DC001B61EB02014FF0A7
:10030000004202EA0752CDE90042001C41F580118B
:1003100032462B4600F09FF903B0BDE8F08F40460F
:100320002146F9E7001B61EB0201001C41F5801337
:1003300000185B412018A2F5001747EB030140EAC3
:10034000D570B6196D4111E06D084FEA360645EAE1
:10035000C0754FEA0752001B61EB0201001C41F51A
:10036000801149084FEA30000019514132462B46AE
:1003700003B0BDE8F04F00F05FB9009801224000E3
:100380000023D0EB020263EBE073009821464FEAB2
:10039000E074B8EB000061EB0401E9E783F000438F
:1003A0005BE781F0004158E72DE9FE4F81EA030445
:1003B00004F0004421F0004100944FF0000B23F0C2
:1003C000004350EA01045ED052EA03045BD0C3F359
:1003D0000A54C1F30A552C44A4F2F3340194A0FB4F
:1003E0000254C1F3130141F48011C3F3130343F426
:1003F000801301FB024400FB034E840A970A44EA7F
:10040000815447EA8357A4FB076802958D0A05FBD0
:1004100007854FEA932C04FB0C542705029D4FEAF5
:10042000065847EA1637B5EB08056EEB070C870E42
:10043000920E47EA811742EA8312A7FB0201B6EB4C
:100440000B0164EB00042B0D43EA0C335E1844EB04
:100450001C50DA465146E7FB0201C5F313044FEA8C
:100460000B3343EA14534FEA0432019C43EA060378
:10047000A4F10C040294009CCDE900B400F0EBF868
:1004800003B0BDE8F08F00200146F9E70EB540F259
:10049000334102910021CDE900110A460B4600F0DC
:1004A000DAF803B000BDC1F30A5210B5C1F313016D
:1004B00040F2FF3341F480119A4201DA002010BD6E
:1004C00040F233439A42A2F2334203DC524200F03C
:1004D0005AF810BD904010BD00F0004230F00040CE
:1004E0000AD0C10D01F56071C0F3160042EA015156
:1004F000C2084007114370470020014670470000C2
:1005000030B5041E71F1000404DB4FF0004440429A
:1005100064EB0101141E73F1000405DB1C464FF06F
:100520000043524263EB0403994208BF904230BD3E
:1005300001F0004330B421F0004150EA010206D03E
:100540000A0DA2F56072C1F31301002A02DC30BC6F
:1005500000207047440F44EAC104C100E01830BCD9
:1005600000EBC25000F031B8202A04DB203A00FA38
:1005700002F1002070479140C2F1200320FA03F3FA
:10058000194390407047202A04DB203A21FA02F0F8
:100590000021704721FA02F3D040C2F120029140BD
:1005A000084319467047202A06DBCB17203A41FA48
:1005B00002F043EAE07306E041FA02F3D040C2F1F0
:1005C000200291400843194670470029A8BF704790
:1005D000401C490008BF20F00100704710B4B0FA79
:1005E00080FC00FA0CF050EA010404BF10BC704714
:1005F00049B1CCF1200421FA04F411FA0CF118BF2E
:10060000012121430843A3EB0C01CB1D4FEA0061FC
:100610004FEA102042BF002010BC704700EBC350CF
:1006200010440029A4BF10BC7047401C490008BFFB
:1006300020F0010010BC704710B5141E73F10004C7
:1006400008DA401C41F1000192185B411A4301D1C4
:1006500020F0010010BD2DE9F04D92469B4611B1EE
:10066000B1FA81F202E0B0FA80F220329046FFF750
:100670007BFF04460F4640EA0A0041EA0B0153465D
:100680005A46084313D0114653EA010019D0C8F165
:1006900040025046FFF777FF05460E465046594642
:1006A0004246FFF761FF084305D0012004E02046E1
:1006B0003946BDE8F08D0020054346EAE0762C433C
:1006C00037430A986305E40AA0EB08000022FD0AFC
:1006D00044EA47540A3002D500200146E9E7010503
:1006E00010196941DDE9084500196941BDE8F04D7F
:1006F000A2E72DE9F04D81EA030404F0004B21F05C
:10070000004514464FF0000A23F0004150EA05026C
:1007100020D054EA01021DD0C5F30A570246C5F3A2
:100720001303C1F31300C1F30A5640F4801543F4D8
:100730008013A7EB0608101BD64608F2FD3873EBB2
:10074000050002D308F1010801E092185B41B8F1FD
:10075000000F03DA00200146BDE8F08D00204FF4C1
:100760008011064684460EE0171B73EB050705D380
:10077000121B63EB050306434CEA010C49084FEAE0
:10078000300092185B4150EA0107EDD152EA0300B4
:1007900012D082EA040083EA0501084305D0101B49
:1007A000AB4106D20122002306E000224FF00043B5
:1007B00002E06FF0010253101AEB06004CEB0851F7
:1007C00010EB0A0041EB0B01BDE8F04DFFF734BF21
:1007D000064C074D06E0E06840F0010394E807008E
:1007E00098471034AC42F6D3FFF7E4FC786C00086D
:1007F000986C00080EB5C10F80EAE0700844CA0783
:10080000002140F233438DE80E000A460B46FFF705
:1008100022FF03B000BD70B5C1F30A5201F00045DC
:100820000024C1F3130140F2FF3341F480119A42D6
:1008300001DA002070BD40F233439A42A2F2334203
:1008400003DC5242FFF79FFE00E090402C43F1D0C2
:10085000404270BD70B58C1810F8015B15F00703AD
:1008600001D110F8013B2A1106D110F8012B03E049
:1008700010F8016B01F8016B5B1EF9D12B0705D451
:100880000023521E0DD401F8013BFAE710F8013B9A
:10089000CB1A921C03E013F8015B01F8015B521EB6
:1008A000F9D5A142D8D3002070BD00BFFEE710B536
:1008B00000F02AF800F054F800F004F800F07EF898
:1008C00010BD00001FB500208DF80A008DF80B0048
:1008D00001208DF80C000020ADF80000ADF80200FA
:1008E000ADF80400ADF80600ADF8080001208DF861
:1008F0000D00684600F0B6F901220221014800F01F
:1009000035FA1FBD006400401CB50121082003F02A
:1009100083FB022000908DF8040003208DF8050071
:1009200000208DF806008DF8070069460B4801F09D
:100930004DFE0120009002208DF804006946074812
:1009400001F044FE09220021044801F087FE09223B
:100950000121024801F082FE1CBD0000000C024093
:100960000EB50121480603F067FB134800F05EF95D
:10097000684600F003FC00208DF8060001208DF889
:10098000070000208DF808008DF809008DF80A0096
:100990008DF80B008DF802008DF8030003208DF810
:1009A00004008DF805000520ADF8000069460248F6
:1009B00000F0E5F90EBD00000064004008B54FF4FA
:1009C000C06003F0C9F814208DF8000001208DF8F4
:1009D000010000208DF8020001208DF80300684618
:1009E00003F07EF808BD00002DE9F047314A0021F0
:1009F000314800F04EFA2F4800881FFA80FA2D483F
:100A0000C47A057B45EA04202C4908802948467BA6
:100A1000877B47EA062000B24880264890F80F807E
:100A200090F8109049EA082000B288802148407C64
:100A300040B28871AAF20120082836D2DFE800F01F
:100A4000040B121935272E201D481C490A68026024
:100A5000496841602AE01B4818490A6802604968F1
:100A6000416023E0184815490A68026049684160FE
:100A70001CE0164811490A6802604968416015E0A7
:100A800013480E490A680260496841600EE0114847
:100A90000A490A6802604968416007E00E48074950
:100AA0000A6802604968416000E000BF00BFBDE81D
:100AB000F08700002804002000640040A800002007
:100AC000B0000020B8000020C0000020C8000020B6
:100AD000D0000020D8000020E000002010B500F079
:100AE00029F800F055F800F003F800F07FF810BD89
:100AF0001FB500208DF80A008DF80B0001208DF83D
:100B00000C000020ADF80000ADF80200ADF80400C4
:100B1000ADF80600ADF8080001208DF80D0068461C
:100B200000F0A0F801220221014800F01FF91FBDCA
:100B3000006800401CB50121022003F06DFA4FF45B
:100B40000050009002208DF8040003208DF805006D
:100B500000208DF806008DF8070069460B4801F06B
:100B600035FD4FF48050009002208DF80400694656
:100B7000064801F02BFD09220C21044801F06EFD0E
:100B800009220D21014801F069FD1CBD000402404D
:100B90000EB50121880603F04FFA134800F046F81D
:100BA000684600F0EBFA00208DF8060001208DF871
:100BB000070000208DF808008DF809008DF80A0064
:100BC0008DF80B008DF802008DF8030003208DF8DE
:100BD00004008DF805000520ADF8000069460248C4
:100BE00000F0CDF80EBD00000068004008B54FF4DD
:100BF000C06002F0B1FF40208DF8000001208DF8A8
:100C000001008DF802008DF80300684602F068FFCD
:100C100008BD000010B5034A0021034800F039F96F
:100C200010BD0000280400200068004010B50446F4
:100C30000B48844209D10121480603F00DFA002136
:100C40004FF0007003F008FA08E00121880603F075
:100C500003FA00214FF0806003F0FEF910BD0000A0
:100C60000064004010B50021837A012202FA03F1EA
:100C70003D4A126842F001023B4B1A603A4A1C326C
:100C800012688A43384B1C331A60027BCAB9364A51
:100C90000C3212688A43344B0C331A604288C38882
:100CA00042EA0343304A4032847A42F834300288C0
:100CB000838842EA03432C4A4032847A02EBC4021E
:100CC0005360027B012A19D1274A0C3212680A4369
:100CD000254B0C331A604288038842EA0343224AB8
:100CE0004032847A42F83430C288838842EA03432F
:100CF0001D4A4032847A02EBC4025360C27A3AB988
:100D0000194A121D12688A43174B1B1D1A6006E010
:100D1000154A121D12680A43134B1B1D1A600289E3
:100D200032B9114A143212688A430F4B14331A60D5
:100D30000289012A06D10C4A143212680A430A4B6E
:100D400014331A60427B012A06D1074A1C3212680A
:100D50000A43054B1C331A60034A126822F0010251
:100D6000014B1A6010BD0000006600401AB14369D3
:100D70000B43436102E043698B434361704730B5E5
:100D8000024600200023146824F002041460146852
:100D900044F00104146000E05B1C546804F001049A
:100DA0001CB94FF6FF74A342F6D1546804F0010455
:100DB0000CB900206CE08C79012C04D1146844F04B
:100DC0008004146003E0146824F080041460CC797B
:100DD000012C04D1146844F04004146003E014684A
:100DE00024F0400414600C7A012C04D1146844F0FF
:100DF0002004146003E0146824F0200414604C7A8A
:100E0000012C04D1146844F01004146003E0146849
:100E100024F0100414608C7A012C04D1146844F07E
:100E20000804146003E0146824F008041460CC7A09
:100E3000012C04D1146844F00404146003E0146825
:100E400024F0040414608C78A407CD7844EA056487
:100E50000D7944EA05444D7944EA05540D886D1E28
:100E60002C43D461146824F001041460002300E0D2
:100E70005B1C546804F001041CB14FF6FF74A342DC
:100E8000F6D1546804F001040CB1002000E0012008
:100E900030BD10B500F5D87303EB01131B6803F0E8
:100EA00004031372137A53B900F5D87303EB0113DB
:100EB0001B6840F2FF7404EA5353136009E000F525
:100EC000D87303EB01131B686FF0604404EAD3038B
:100ED000536000F5D87303EB01131B6803F00203A2
:100EE000537200F5D87303EB01135B6803F00F0333
:100EF000937200F5D87303EB01135B681B0AD3747C
:100F000000F5D87303EB01139B68D37200F5D87317
:100F100003EB01139B681C0A147300F5D87303EBF1
:100F200001139B681C0C547300F5D87303EB011379
:100F30009B681B0E937300F5D87303EB0113DB68FA
:100F4000D37300F5D87303EB0113DB681C0A147428
:100F500000F5D87303EB0113DB681C0C547400F527
:100F6000D87303EB0113DB681B0E937421B9C368BC
:100F700043F02003C36003E0036943F020030361EF
:100F800010BD00002DE9F04385B004460D4616461D
:100F90001F464FF000084FF40070009000200190B1
:100FA0008DF808008DF8090008208DF80A00200A45
:100FB0008DF80B00E1B28DF80C10290A8DF80D1098
:100FC000E9B28DF80E10310A8DF80F10F1B28DF8DC
:100FD0001010390A8DF81110F9B28DF81210142280
:100FE00069461048FFF7FEF869460F4800F0D6F84A
:100FF000814600BF03E008F101001FFA80F849466E
:10100000094800F05FF918B940F6FF708045F2DB3F
:1010100040F6FF70804503DB002005B0BDE8F0839B
:101020000120FAE73C040020006400402DE9F04371
:1010300085B004460D4616461F464FF0000840F2A4
:10104000FF200090002001908DF808008DF8090025
:1010500008208DF80A00200A8DF80B00E1B28DF807
:101060000C10290A8DF80D10E9B28DF80E10310A16
:101070008DF80F10F1B28DF81010390A8DF811109B
:10108000F9B28DF81210142269461048FFF7AAF839
:1010900069460F4800F082F8814600BF03E008F17E
:1010A00001001FFA80F84946094800F00BF918B909
:1010B00040F6FF708045F2DB40F6FF70804503DBB1
:1010C000002005B0BDE8F0830120FAE73C040020D1
:1010D000006400402DE9F04385B004460D461646F5
:1010E0001F464FF0000840F2FF10009000200190D2
:1010F0008DF808008DF8090008208DF80A00200AF4
:101100008DF80B00E1B28DF80C10290A8DF80D1046
:10111000E9B28DF80E10310A8DF80F10F1B28DF88A
:101120001010390A8DF81110F9B28DF8121014222E
:1011300069461048FFF756F869460F4800F02EF848
:10114000814600BF03E008F101001FFA80F849461C
:10115000094800F0B7F818B940F6FF708045F2DB97
:1011600040F6FF70804503DB002005B0BDE8F0834A
:101170000120FAE73C040020006400400021817156
:10118000C171017241728172C1728170C17003219B
:1011900001710221417101210180704710B50246A1
:1011A0000020936803F08063B3F1806F00D110E0FA
:1011B000936803F00063B3F1006F01D1012008E0F0
:1011C000936803F08053B3F1805F01D1022000E007
:1011D0000420042874D002F5C07303EB00131B68CD
:1011E00003F0010402F5C07303EB00131C600B7ADB
:1011F0007BB94B7A0C8843EA445302F5C07404EB84
:1012000000142468234302F5C07404EB0014236027
:1012100010E00B7A4C6843EAC4034C7A234302F58E
:10122000C07404EB00142468234302F5C07404EB7B
:10123000001423608B7A03F00F038B7202F5C073E6
:1012400003EB00135B6823F00F0402F5C07303EB9C
:1012500000135C6002F5C07303EB00135B688C7ACB
:10126000234302F5C07404EB001463608B7B1C06FF
:101270004B7B44EA03440B7B44EA0323CC7A2343AD
:1012800002F5C07404EB0014A3608B7C1C064B7C3D
:1012900044EA03440B7C44EA0323CC7B234302F55A
:1012A000C07404EB0014E36002F5C07303EB001399
:1012B0001B6843F0010402F5C07303EB00131C60CC
:1012C00010BD000010B50246002321B1012907D04E
:1012D00002290FD109E090681D4C00EA04030BE0DD
:1012E00090681C4C00EA040306E090681A4C00EA7F
:1012F000040301E0002300BF00BF184C181BA342E9
:1013000016D007DC83B16FF08060184470B10228FA
:1013100018D111E0B0F5007F10D0114C204448B135
:10132000B0F5003F0ED10BE002230DE000230BE0EF
:10133000002309E0002307E0012305E0012303E087
:10134000012301E0002300BF00BFD8B210BD0000A0
:10135000030000040003000800000310000100085F
:101360000001FFF710B504462146054804F0CFFA06
:1013700000BF8021024804F0FFF90028F9D010BD19
:101380000048004000B587B00121082002F044FE6B
:101390000121880402F050FE00208DF81A0001207F
:1013A0008DF81B0002208DF819008DF81800C0017F
:1013B000059005A9204801F009F902208DF81800D0
:1013C0000002059005A91C4801F000F90722092137
:1013D000194801F043F907220821174801F03EF9A6
:1013E0004FF4E13001900020ADF80800ADF80A009C
:1013F000ADF80C00ADF810000C20ADF80E0001A9FE
:101400000E4804F015FA01210C4804F028F90122D5
:1014100040F22551094804F0E6F927208DF8000034
:1014200001208DF801008DF802008DF80300684658
:1014300002F056FB07B000BD000C0240004800401F
:101440000246032107E0481E144B33F8100023F82E
:101450001100481EC1B20029F5DC10480280C08886
:10146000B0F5805F18DD0D488088B0F5805F13DD32
:101470000A484088B0F5805F0EDA08480088B0F569
:10148000805F09DA05488088044B5B88C01AB0F594
:10149000805F01DD012070470020FCE7DC010020B7
:1014A0002DE9FE4306460027B8460024AA2221461D
:1014B000641C0DF80120FF222146641C0DF8012058
:1014C00000222146641C0DF8012003222146641CE1
:1014D0000DF8012032782146641C0DF80120727845
:1014E0002146641C0DF80120B2782146641C0DF8D9
:1014F0000120002509E01DF805003844C7B208EBBB
:10150000070000F0FF08681CC5B29DF80300001D2D
:10151000A842F0DC2046611CCCB20DF800702046D9
:10152000611CCCB20DF80080002505E01DF8050017
:1015300000F030FA681CC5B2A542F7DBBDE8FE83B7
:10154000F8B5064600250027F84801780078401CC9
:10155000F64A1070F64846540078AA2803D00020B6
:1015600011460870F8BDF14800780C2800DAF9E758
:10157000002407E0EE48005D2844C5B27819C7B2E0
:10158000601CC4B2EA48C078001DA042F2DCE84802
:10159000807AA8421AD1E648C07AB84216D1E54806
:1015A000E3494A68026009898180E148807A8DF8C0
:1015B0000100DF48C07A8DF80200E2208DF80000BB
:1015C0006846FFF76DFF0020D8490870D9480088A9
:1015D0000F287DD2DFE800F0081C30446A92B8DEA4
:1015E000FEFDFCFBFAF9F800D248D0F8020000EE4C
:1015F000100AB8EEC00ADFEDD00A80EE201ACF48FC
:1016000080ED001A90ED000ACD4880ED000ABEE1A1
:10161000C848D0F8020000EE100AB8EEC00ADFEDAC
:10162000C60A80EE201AC74880ED001A90ED000A25
:10163000C34880ED010AAAE1BE48D0F8020000EEDE
:10164000100AB8EEC00ADFEDBC0A80EE201ABE48D0
:1016500080ED001A90ED000AB94880ED020A96E18B
:10166000B448D0F8020000EE100AB8EEC00ADFED70
:10167000B20A80EE201AB54880ED001A90ED000AFB
:10168000B34880ED000AB14890ED000AB04880ED03
:101690000F0AAE4890ED000AAD4880ED1E0AAB4837
:1016A00090ED000AAA4880ED2D0A70E1A148D0F81B
:1016B000020000EE100AB8EEC00ADFED9F0A80EECD
:1016C000201AA44880ED001A90ED000AA04800E01E
:1016D0005CE180ED010A9F4890ED000A9C4880ED96
:1016E000100A9C4890ED000A994880ED1F0A99481D
:1016F00090ED000A964880ED2E0A48E18D48D0F81A
:10170000020000EE100AB8EEC00ADFED8B0A80EE90
:10171000201A914880ED001A90ED000A8C4880ED67
:10172000020A8D4890ED000A894880ED110A8A4826
:1017300090ED000A864880ED200A874890ED000A67
:10174000834880ED2F0A22E17A48D0F8020000EEAB
:10175000100AB8EEC00ADFED780A80EE201A7F4842
:1017600080ED001A90ED000A7D4880ED000A7B486C
:1017700090ED000A7A4880ED0F0A784890ED000A53
:10178000774880ED1E0A754890ED000A744880ED98
:101790002D0AFCE06748D0F8020000EE100AB8EE0F
:1017A000C00ADFED650A80EE201A6E4880ED001A4F
:1017B00090ED000A6A4880ED010A6A4890ED000A3F
:1017C000674880ED100A06E09CE087E072E05DE08B
:1017D00048E033E00CE0634890ED000A604880ED9B
:1017E0001F0A604890ED000A5D4880ED2E0ACEE0A9
:1017F0005048D0F8020000EE100AB8EEC00ADFED43
:101800004E0A80EE201A584880ED001A90ED000A2A
:10181000534880ED020A544890ED000A504880ED8C
:10182000110A514890ED000A4D4880ED200A4E48BB
:1018300090ED000A4A4880ED2F0AA8E03D48D0F814
:10184000020000EE100AB8EEC00ADFED480A80EE92
:10185000201A474880ED001A90ED000A384880EDC4
:10186000000A94E03348D0F8020000EE100AB8EE07
:10187000C00ADFED3E0A80EE201A3E4880ED001AD5
:1018800090ED000A2E4880ED010A80E02948D0F84A
:10189000020000EE100AB8EEC00ADFED340A80EE56
:1018A000201A354880ED001A90ED000A244880ED9A
:1018B000020A6CE01F48D0F8020000EE100AB8EEF1
:1018C000C00ADFED2A0A80EE201A2C4880ED001AAB
:1018D00090ED000A2A4880ED000A58E01548D0F83B
:1018E000020000EE100AB8EEC00ADFED200A80EE1A
:1018F000201A244880ED001A90ED000A204880ED5F
:10190000010A44E00B48D0F8020000EE100AB8EEDD
:10191000C00ADFED160A80EE201A1B4880ED001A7F
:1019200090ED000A164880ED020A30E0DA0100204E
:10193000D40F0020D40100200000C84298010020EC
:10194000C80400209C010020A0010020A401002068
:1019500040050020A8010020AC010020B0010020BB
:1019600030060020B4010020B801002000007A44B5
:10197000BC010020C0010020C4010020C8010020DB
:1019800050040020CC010020D001002000BF00BF87
:1019900000BFE7E510B504462146054803F0B7FF50
:1019A00000BF8021024803F0E7FE0028F9D010BDF7
:1019B0000044004070B52DED068B9FEDAF0AF0EEB0
:1019C000408A9FEDAE0AB0EE409A9FEDAB0AF0EE72
:1019D000409A9FEDA90AB0EE408A9FEDA70AB0EEAB
:1019E00040AA4FF47A75F020A54908700F20A54948
:1019F0000870A548407AA449097A40EA01102228D3
:101A000045D008DC11287CD0122829D013281BD0FF
:101A1000212877D142E0232846D0322873D03328BA
:101A2000F7D10020994908729FED930AF0EE409A91
:101A30009FED920AB0EE409A012001F0E5F94FF4D3
:101A4000005093490880E0E09248008800EE100AB8
:101A5000B8EE400AB0EE409A022001F0D5F9D4E089
:101A60008C48008800EE100AB8EE400AB0EE409AAA
:101A70008848408800EE100AB8EE400AF0EE409A1E
:101A8000002082490872042001F0BEF9BDE00F2059
:101A90007B490870082001F0B7F9B6E040F2DC5548
:101AA000032001F0B1F9B0E0052001F0ADF9F0201C
:101AB000744908707848007870B9784890ED020A47
:101AC000774880ED000A012073490870744890ED52
:101AD000000A744880ED000A9FED670AB0EE408A64
:101AE00069484089A0F5806000EE100AB8EEC00A8F
:101AF000DFED6D0A20EE200ADFED6C0A80EE201A81
:101B000002E048E080E07BE0B0EE418A03240CE094
:101B1000601E674901EB800090ED000A084600EB6B
:101B2000840080ED000A601EC4B2002CF0DC614825
:101B300090ED020A5E4880ED000A90ED000AD0EDBB
:101B4000010A30EE200AD0ED020A30EE200AD0ED74
:101B5000030A30EE200AF1EE000A80EE201A564801
:101B600080ED001A90ED000ADFED540A60EE200AC5
:101B70009FED531A80EE810A38EE400AB0EE408A9B
:101B8000474890ED000A02F017FF4FF4005040491B
:101B9000891E088039E03F48008800EE100AB8EE40
:101BA000400AB0EE409A4748007808BB46480078A3
:101BB000401C45490870454890ED020ADFED440A93
:101BC00030EE200A80ED020A9FED3D0AB4EEC0AA75
:101BD000F1EE10FA07DB90ED020ADFED390A30EE84
:101BE000600A80ED020A02F0B7FE01203549087054
:101BF000092001F009F94FF400502549088004E05C
:101C0000062001F001F900E000BF00BF1E48407A45
:101C10001D49097A40EA01102E4908701A48407A95
:101C20001949097A40EA0110232802D000201A49F4
:101C300008701548407A1449097A40EA01101128C1
:101C400002D000201F490870204880ED019AC0EDA5
:101C5000009A214890ED020A30EE280A80ED020A2F
:101C60001E4890ED000A30EE080A80ED000A1C487C
:101C70000580BDEC068B70BD000000000000C8436D
:101C80003800002039000020040200206C020020EF
:101C90001A180240A400002041000020280800205B
:101CA000480000203C0000200000204200002544A5
:101CB0005C0200201C08002044000020000070424C
:101CC0000000B44342000020400000203C020020FD
:101CD00073E8024243000020300200202800002068
:101CE000EC010020DFED1E1AB0EE610ADFED1C1AD8
:101CF000F0EE610ADFED1A1AB0EE611A1948408859
:101D0000A0F5806001EE900AF8EEE11AB0EE082A24
:101D1000C1EE822AB0EE620A12480088A0F5806007
:101D200001EE900AF8EEE11AB0EE082AC1EE822A1E
:101D3000F0EE620A0B488088A0F5806001EE900A00
:101D4000F8EEE11AB1EE002AC1EE822AB0EE621A74
:101D5000054880ED000AC0ED010A80ED021A7047C7
:101D600000000000040200203002002010B53848B6
:101D7000407A3749097A40EA0110312806D0FFF746
:101D8000B1FF00F073F8FFF715FE05E04FF40050C7
:101D90003049088002F04CF82F4890ED000ABDEE63
:101DA000C00A10EE100A00B22C4908802A4890EDB3
:101DB000010ABDEEC00A10EE100A00B248802648A3
:101DC00090ED020ABDEEC00A10EE100A00B2888043
:101DD000234890ED010ABDEEC00A10EE100A00B2D1
:101DE000C8801F4890ED000ABDEEC00A10EE100A30
:101DF00000B208811B4890ED010ABDEEC00A10EE4A
:101E0000100A00B24881174890ED000ABDEEC00AE2
:101E100010EE100A00B28881134890ED010ABDEE61
:101E2000C00A10EE100A00B2C8810F4890ED020AF5
:101E3000BDEEC00A10EE100A00B208820A4890ED0A
:101E4000000ABDEEC00A10EE100A00B2488210BDB2
:101E5000040200201818024030020020480200202E
:101E600028000020300000203C0200209FED352A91
:101E7000B0EE420A9FED342AF0EE420A9FED332A7B
:101E8000B0EE421A9FED312AF0EE421A30484089F6
:101E9000A0F5B67002EE100AB8EEC22ADFED2D2AC8
:101EA00022EE222A9FED2C3AC2EE032A9FED2B2A26
:101EB00032EE822AB0EE420A2548C088A0F5B670FC
:101EC00002EE100AB8EEC22ADFED252A62EE222ABF
:101ED0009FED213A82EE832AFBEE0E2A32EE222A71
:101EE000F0EE420A1A484089A0F5806002EE100A1E
:101EF000B8EEC22ADFED1B2A22EE222ADFED1A2AD3
:101F000082EE223AB0EE431A1148C088A0F58060F4
:101F100002EE100AB8EEC22AF2EE042A22EE222ABB
:101F2000DFED112A82EE223AF0EE431A0F4880EDDF
:101F3000010A80ED001A0E48C0ED010AC0ED001A3A
:101F4000704700000078A8450060EA4500000000E6
:101F500004020020000016430000A544000096C2C1
:101F600000007042000020420000254428000020AC
:101F70003000002010B54A494A4800F0AFF9002867
:101F80007ED04949474800F097F84549454800F058
:101F9000ADF8464800784549497840EA0120C0F349
:101FA0000A004349088041484078C0103F49897879
:101FB00040EA4110C0F30A003D4948803B48807820
:101FC00080113A49C97840EA81003849097940EAE4
:101FD0008120C0F30A0036498880344800794010D7
:101FE0003249497940EAC110C0F30A003049C8803B
:101FF0002E4840790011800808722C484079C0F3BF
:10200000011048722948007C2849497C40EA012097
:10201000C0F30A0026494881244880792349C979B8
:1020200040EA012000B2224988812048007A1F49F5
:10203000497A40EA012001B21D48C1811B48807ADB
:102040001A49C97A40EA012001B2194801821748A9
:10205000017B174881741548417B1548C1741348AA
:10206000807B1249C97B40EA0120114988820846D9
:102070000088104908800E48408848800C4800E0DD
:102080000DE0808888800A48C088C8800848007AA7
:1020900008720748407A487205484089488110BD57
:1020A000008800208864024000080020F80F00200B
:1020B000EE010020040200200246094B9A4201D2A0
:1020C000084801E00648103801F000531BB1064BE8
:1020D0000B40C36002E0044B0B408360704700007C
:1020E00010640240006002407D0F7D0F0246094BE4
:1020F0009A4201D2084801E00648103801F0005326
:102100001BB1064B0B40C36002E0044B0B408360E5
:102110007047000010640240006002407D0F7D0F98
:1021200021B1026842F00102026003E0026822F07D
:102130000102026070470000016821F001010160A6
:102140000021016041608160C16001612121416124
:102150004A49884204D13D21484A103A91608CE0B6
:1021600046491831884205D14FF47461434A103A08
:10217000916082E041493031884205D14FF47411B9
:102180003E4A103A916078E03C494831884205D196
:102190004FF07461394A103A91606EE0374960310E
:1021A000884204D13649354A103AD16065E0334956
:1021B0007831884204D13349304A103AD1605CE02A
:1021C0002E499031884204D12F492C4A103AD160CF
:1021D00053E02A49A831884205D14FF03D51274AA2
:1021E000103AD16049E02949884204D13D21274A6B
:1021F000083A116041E025491831884205D14FF471
:102200007461224A083A116037E02049303188422F
:1022100005D14FF474111D4A083A11602DE01B4995
:102220004831884205D14FF07461184A083A11606C
:1022300023E016496031884204D11149134A121F24
:1022400011601AE011497831884204D10D490F4AD2
:10225000121F116011E00D499031884204D10A49E2
:102260000A4A121F116008E00849A831884204D1C7
:102270004FF03D51054A121F116070471060024037
:102280003D000020400F002000003D20106402406F
:1022900021B1026842F48022026003E0026822F465
:1022A00080220260704722B1036843F40023036078
:1022B00003E0036823F400230360016170470146D3
:1022C000486880B27047014600200A6802F4002284
:1022D0000AB1012000E000207047000070B50246FE
:1022E000002000240025124EB24201D2114B01E021
:1022F0000F4B103B104E0E4036B11E2606EAD1247D
:10230000166806EA040502E0566906F0800501F049
:1023100000560EB15C6800E01C68084E344004EAC8
:10232000010616B10DB1012000E0002070BD0000D3
:1023300010640240006002403C0F3C0F7D0F7D0F97
:1023400010B501F080034BB122B1436943F0800323
:10235000436103E0436923F08003436180290BD08C
:102360002AB1036801F01E042343036004E00368FC
:1023700001F01E04A343036010BD000010B500224D
:102380000268134B1A40CC680B6823434C69234303
:102390008C692343CC6923430C6A23434C6A23434F
:1023A0008C6A23434C6B23438C6B23431A43026098
:1023B000426922F00702D1E90B3423431A434261F8
:1023C0000B6943604B6883608B68C36010BD00007D
:1023D0003F801CF0416070477047000000B587B037
:1023E0000121082001F018FE0121480401F024FE1B
:1023F00000208DF81A0001208DF81B0002208DF8B6
:1024000019008DF818002020059005A9204800F03B
:10241000DDF802208DF818004020059005A91C4821
:1024200000F0D4F807220621194800F017F9072216
:102430000521174800F012F9164801900020ADF868
:102440000800ADF80A00ADF80C00ADF810000C2043
:10245000ADF80E0001A9104803F0EAF901210E4879
:1024600003F0FDF8012240F225510B4803F0BBF9BF
:1024700026208DF8000001208DF801008DF8020063
:102480008DF80300684601F02BFB07B000BD00008B
:10249000000C024020A107000044004001B504499F
:1024A0000098086000BF024800680028FBD108BD02
:1024B0001002002000B58FB001213E4801F0ACFDB4
:1024C0000121102001F0D8FD072211463A4800F002
:1024D000C5F880200D9002208DF8380000208DF87E
:1024E0003A0003208DF8390000208DF83B000DA93B
:1024F000314800F06BF8314803F0C6F830480990D5
:102500000020ADF82800ADF82A004FF48060ADF847
:102510002C000420ADF82E000020ADF8300009A9F1
:10252000264803F085F90121244803F098F8012298
:102530004021224803F09FF844208DF83800012004
:102540008DF839008DF83A008DF83B000EA801F0A7
:10255000C7FA1C48FFF7F0FD4FF0006000901748E5
:10256000001D019018480290002003901220049052
:10257000002005904FF4806006900020079008909E
:102580004FF4807009904FF440300A9000200B9077
:102590000C900D900E9069460A48FFF7EFFE01225D
:1025A00010210848FFF7CCFE01210648FFF7B8FDCF
:1025B0000FB000BD020040000004024000100140C6
:1025C000A086010088640240F80F0020F0B50A469A
:1025D00000210023002400BF3DE0012505FA01F39E
:1025E000156805EA03049C4234D105684F000326B0
:1025F000BE40B543056015794E00B54006683543C9
:1026000005601579012D02D01579022D16D1856846
:102610004F000326BE40B543856055794E00B54056
:10262000866835438560456801268E40B543456020
:10263000456896798E40B6B235434560C5684F000F
:102640000326BE40B543C560D5794E00B540C66887
:102650003543C560491C1029BFD3F0BDF0B5002338
:1026600000244D07ED0E02FA05F3CE1000F120050F
:1026700055F826504E07F70E0F26BE40B543CF1033
:1026800000F1200646F82750CE1000F1200555F83D
:10269000265045EA0304CE1000F1200545F82640F7
:1026A000F0BD4183704701837047000003484088B4
:1026B00000EE100AB8EE400A70470000B008002093
:1026C000014890ED010A7047B008002001480089D8
:1026D00070470000B00800200148008B70470000E0
:1026E000940800200148C08870470000940800202A
:1026F0000148408970470000B00800200148008967
:10270000704700009408002001484089704700008D
:102710009408002000BFFEE7DFED9A0AB0EE600AE1
:1027200099490A780978491C974B19709749885438
:102730000978552903D000211A4611707047924933
:1027400009780B2900DAF9E79049497850390A29C4
:102750000DD2DFE801F0050D4A9FDCE4F0F8EDEC66
:102760008B498A4A921C13680B6052684A6002E1E6
:102770008849864A921C13680B6052684A60B1F916
:10278000001000EE901AF8EEE00A9FED831AC0EEFA
:10279000811AF3EE000A61EEA00A8049C1ED000A39
:1027A0007C49B1F9021000EE901AF8EEE00A9FEDB4
:1027B0007A1AC0EE811AF3EE000A61EEA00A774998
:1027C000C1ED010A7349B1F9041000EE901AF8EE58
:1027D000E00A9FED711AC0EE811AF3EE000A61EE75
:1027E000A00A6E49C1ED020AC5E06D49674A921C14
:1027F00013680B6052684A60B1F9001000EE901A3D
:10280000B8EEE01ADFED641AC1EE210A9FED651AF9
:1028100060EE810A6449C1ED000A6149B1F9021014
:1028200000EE901AF8EEE00A9FED5B1AC0EE811AF6
:10283000DFED5C0A61EEA00A5B49C1ED010A58496F
:10284000B1F9041000EE901AB8EEE01ADFED521A5A
:10285000C1EE210A9FED531A60EE810AB0EE600AC4
:102860005149D1ED020A70EE600A9FED501AF4EE64
:10287000C10AF1EE10FA0CDCD1ED020A70EE600A2A
:102880009FED4B1AF4EEC10AF1EE10FA01D381ED7F
:10289000020A70E047493D4A921C13680B60526877
:1028A0004A60B1F9001000EE901AF8EEE00A9FEDD0
:1028B0003A1AC0EE811ADFED400A61EEA00A3F49E4
:1028C000C1ED000A3B49B1F9021000EE901AF8EE92
:1028D000E00A9FED311AC0EE811ADFED370A61EE92
:1028E000A00A3649C1ED010A3249B1F9041000EEDF
:1028F000901AF8EEE00ADFED281A80EEA11ADFED5B
:102900002E0A61EE200A2D49C1ED020A33E02C495E
:102910001E4A921C13680B6052684A602BE02949DA
:102920001A4A921C13680B6052684A6023E01AE04E
:1029300011E008E0FFE72449144A921C13680B6079
:1029400052684A6017E02149104A921C13680B60D4
:1029500052684A600FE01E490C4A921C13680B60D3
:1029600052684A6007E01B49084A921C13680B60D2
:1029700052684A6000BF00BF0021034A117000BFC7
:10298000DCE60000000000004201002034080020C6
:10299000E8000020F00000200000004710080020A0
:1029A000F80000200000FA441C0800200000484203
:1029B000000048C200010020000034432808002025
:1029C0000801002010010020180100202001002033
:1029D000280100203001002010B50446214605489A
:1029E00002F095FF00BF8021024802F0C5FE0028DA
:1029F000F9D010BD007C004070B5054600240026CB
:102A0000042600BF285DFFF7E7FF641CB442F9D33A
:102A100000BF4021024802F0AFFE0028F9D070BD8F
:102A2000007C004000B587B00121102001F0F4FACD
:102A30000121C80701F000FB00208DF81A000120D9
:102A40008DF81B0002208DF819008DF818000590F4
:102A500005A92148FFF7BAFD02208DF818000120D2
:102A6000059005A91C48FFF7B1FD082200211A486E
:102A7000FFF7F4FD082201211748FFF7EFFD4FF49F
:102A8000612001900020ADF80800ADF80A00ADF813
:102A90000C00ADF810000C20ADF80E0001A90F4895
:102AA00002F0C6FE01210D4802F0D9FD012240F2DC
:102AB00025510A4802F097FE53208DF800000020AF
:102AC0008DF8010001208DF802008DF803006846A2
:102AD00001F006F807B000BD00100240007C004085
:102AE0000F480021016041600E48016041600E48BE
:102AF000016041600D48016041600D480160416026
:102B00000C48016041600C48016041600B48016065
:102B100041600B48016041600A48016041607047B4
:102B2000E8000020F0000020F80000200001002054
:102B300008010020100100201801002020010020C1
:102B4000280100203001002010B536480021016026
:102B500001713548016041608160C1603348017096
:102B600020213348FDF765FB3248002101604160B8
:102B700081603148016031480160314801808170D5
:102B800030480180304801701C213048FDF751FB6E
:102B90002F480021016041608160C1602D480160C3
:102BA00041608160C1602C4801702C4801702C4844
:102BB00001702C48016041602B48016081802B48E6
:102BC00001602B48016081802A480160416081607A
:102BD000C160294B40F24E224FF42571274801F085
:102BE000D9FB274B40F235224FF42571254801F0DF
:102BF000D1FB254B4FF407724FF42571234801F0A8
:102C0000C9FB234B40F203224FF42571214801F008
:102C1000C1FB214B4FF4F5724FF425711F4801F0B1
:102C2000B9FB10BD44010020580800204E010020CF
:102C3000680800208808002050010020540100206E
:102C4000580100205B0100205D0100209408002055
:102C5000B0080020C00800205E0100205F010020B5
:102C600060010020640100206C010020740100203C
:102C700078010020D008002084010020A80900204D
:102C800087010020B80900208A010020C80900201F
:102C90008D010020D809002090010020E8090020C3
:102CA00010B504462A2C0AD196213B48FDF7C1FAFB
:102CB00000203A4908700F20394908706BE03B2C1E
:102CC00015D1002035490870012036490870F020E0
:102CD0003349087096213448FDF7ABFA2E49324843
:102CE000FDF7B2FA96212C48FDF7A3FA53E03F2CEA
:102CF00015D100202949087002202A490870F020C7
:102D00002749087096212848FDF793FA224926485A
:102D1000FDF79AFA96212048FDF78BFA3BE0212C2B
:102D200015D100201D49087004201E490870F020AC
:102D30001B49087096211C48FDF77BFA16491A4872
:102D4000FDF782FA96211448FDF773FA23E02E2C42
:102D500015D1002011490870802012490870F02018
:102D60000F49087096211048FDF763FA0A490E488A
:102D7000FDF76AFA96210848FDF75BFA0BE0084870
:102D800000780F2807D1054801780078401C034AD5
:102D900010700148445410BD920300209E00002092
:102DA0009C0000209D000020FC0200201CB5012199
:102DB000022001F031F90420009000208DF8040079
:102DC0008DF8070069460548FFF700FC04200090D5
:102DD00069460248FFF7FAFB1CBD000000040240F0
:102DE000022008490880042008800820088010205C
:102DF0000880202008804020088080200880400033
:102E0000088070471818024010B504460120A043FE
:102E100020B102212F48FFF746FC03E002212D4894
:102E2000FFF73FFC0220A04320B104212948FFF70F
:102E30003AFC03E004212748FFF733FC0420A043B9
:102E400020B108212348FFF72EFC03E00821214888
:102E5000FFF727FC0820A04320B110211D48FFF7F1
:102E600022FC03E010211B48FFF71BFC1020A043AD
:102E700020B120211748FFF716FC03E02021154858
:102E8000FFF70FFC2020A04320B140211148FFF79D
:102E90000AFC03E040210F48FFF703FC4020A04359
:102EA00020B180210B48FFF7FEFB03E08021094899
:102EB000FFF7F7FB8020A04328B14FF4807105484D
:102EC000FFF7F1FB04E04FF480710248FFF7E9FBE4
:102ED00010BD0000001802401CB50121702001F057
:102EE0009BF80220009001208DF8040000208DF84E
:102EF000060001208DF8070000208DF805006946C6
:102F00002848FFF763FB0420009069462548FFF737
:102F10005DFB0820009069462248FFF757FB102010
:102F2000009069461F48FFF751FB2020009069463A
:102F30001C48FFF74BFB4020009069461948FFF7FB
:102F400045FB8020009069461648FFF73FFB4FF491
:102F50008070009069461348FFF738FB4FF48040BB
:102F6000009069461048FFF731FB4FF40060009075
:102F700069460E48FFF72AFB4FF40050009069465F
:102F80000848FFF723FBFFF72BFF4FF4804006496B
:102F90001A310880C01005490883800001491A31A0
:102FA00008801CBD001802400014024000100240BE
:102FB00010B501F0DDFD01F081FC10BD00BFFEE7A2
:102FC00010B52DED068B86B0002002900390049082
:102FD00005909FED900A8DED010AB7EE000A8DED88
:102FE000000A00248C4890ED000ADFED8C0A20EEE8
:102FF000200A8B4880ED000A874890ED010ADFED3A
:10300000870A20EE200A864880ED010A824890ED6A
:10301000020ADFED820A20EE200A814880ED020AD2
:1030200090ED020ADFED7F0A60EE200A9FED7E1A26
:1030300080EE810AD0ED000A90ED011A70EE810A4F
:1030400030EE200A8DED020A90ED020ADFED750ADE
:1030500060EE200A9FED741A80EE810AD0ED000A1E
:10306000F1EE600A90ED011A70EE810A30EE200A4E
:103070008DED030A90ED020ADFED6A0A60EE200A88
:103080009FED691A80EE810AD0ED000A90ED011AD9
:1030900070EEC10A30EE200A8DED040A90ED020AAE
:1030A000DFED600A60EE200A9FED5F1A80EE810A74
:1030B000D0ED000AF1EE600A90ED011A70EEC10A3F
:1030C00030EE200A8DED050A9DED020A10EE101A71
:1030D0000846FDF701FA41EC190BB0EE490AF0EE93
:1030E000690A02F099FCB0EE408AF0EE608A51EC79
:1030F000180BFDF71DFA019000BF4FE00198FDF796
:10310000EBF941EC180B02A800EB840090ED000AEB
:1031100010EE101A0846FDF7DFF941EC1A0BB0EE7D
:103120004A0AF0EE6A0A02F077FCB0EE409AF0EE3E
:10313000609A53EC182B51EC190BFDF7E1F91AD2F8
:1031400002A800EB840090ED000A10EE101A084669
:10315000FDF7C2F941EC190BB0EE490AF0EE690A2D
:1031600002F05AFCB0EE408AF0EE608A51EC180B87
:10317000FDF7DEF901909DED010ADFED2C0AB4EEBA
:10318000E00AF1EE10FA07DD9DED010ADFED270AF6
:1031900080EE801A8DED001A601CC4B2042CADDBE9
:1031A00000240FE002A800EB840090ED000ADDEDA2
:1031B000000A20EE200A02A800EB840080ED000A3D
:1031C000601CC4B2042CEDDB9DED020ABDEEC00A0A
:1031D00010EE100A00B2164908809DED030ABDEEFC
:1031E000C00A10EE100A00B248809DED040ABDEE40
:1031F000C00A10EE100A00B288809DED050ABDEEEF
:10320000C00A10EE100A00B2C88006B0BDEC068BF2
:1032100010BD000000000000300200209A99994182
:10322000B002002000405844000096430100D245FF
:103230006000002010B500F02BF8FFF7C1FE00F091
:1032400001F90F4800880F4908800D4840884880E0
:103250000B48808888800A48C088C8800A4800884F
:1032600008810948408800B248814FF4FA508881AB
:103270000648008808820548408800B2488210BD90
:1032800060000020DC020020680000206C020020AA
:103290009FED5A2AB0EE421A9FED582AF0EE421ADC
:1032A0009FED562AF0EE420A9FED542AB0EE420AF4
:1032B000534800780F280DD1524800780F2809D1C3
:1032C000514890ED012AF0EE420A504890ED012A53
:1032D000B0EE420A4A480078F0280DD149480078FB
:1032E0000F2809D14A4890ED012AF0EE420A4948D8
:1032F00090ED012AB0EE420A42480078F02811D140
:103300009FED452AF0EE420A9FED432AB0EE420AB5
:103310003F4890ED002AB0EE421A3E4890ED002A58
:10332000F0EE421A3D48C0ED010A80ED001A3C481B
:1033300080ED010AC0ED001A9FED372AF4EE420A33
:10334000F1EE10FA3ED0B5EEC00AF1EE10FA12DD41
:103350009FED342A20EE022AF3EE0E2A82EE223A64
:103360009FED312A33EE022ABCEEC22A12EE100A79
:103370002E49488013E0B1EE402ADFED2D2A62EE9F
:10338000222AB3EE0E3A82EE832ADFED272A32EEAE
:10339000222ABCEEC22A12EE100A244948809FED70
:1033A000252A60EE822A9FED243A82EE832ADFED01
:1033B000232A32EE222ABCEEC22A12EE100A20493B
:1033C00048800BE0BCEEC02A12EE100A1749488074
:1033D000BCEEE02A12EE100A19494880BDEEE12A3F
:1033E00012EE100A00B211490880BDEEC12A12EE99
:1033F000100A00B212490880704700000000000067
:1034000038000020390000208C00002094000020AB
:103410002800002030000020000000467C00002032
:1034200084000020004027C40060EA456C000020B2
:1034300000C02BC400403144000096420078A845EB
:1034400068000020002100EE101A4FF4C8701149E6
:10345000D1ED000AFDEEE00A10EE901A09B200EE7E
:10346000101A0C49D1ED010AFCEEE00A10EE901A98
:1034700088B2F8EEC00A9FED081A60EE810AFDEEF0
:10348000E00A10EE901A09B2044A118011464880F1
:10349000704700003C020020000010426C02002037
:1034A00010B5002400BF23E0C4EB04113D4A02EB39
:1034B00081009FED3D1ADFED3D0AB2EE010A4FF4A7
:1034C000FA7243F6982103F01DF9C4EB0411384A4F
:1034D00002EB81009FED341AF7EE000AB7EE000A06
:1034E0004FF4FA7243F6982103F00CF9601CC4B251
:1034F000042CD9DB9FED2F1ADFED2F0A9FED2F0A49
:103500004FF4FA7242F210712D4803F0FBF89FED70
:10351000261ADFED2C0A9FED2C0A4FF4B4724FF4FB
:1035200007612A4803F0EEF8B1EE041ADFED280A2D
:103530009FED280A41F6844247F23051264803F0B5
:10354000E1F89FED191ADFED250A9FED250A1422F7
:103550003C21244803F0D6F8B2EE021AF2EE040A37
:103560009FED210A4FF4FA729101204803F0CAF846
:103570009FED0D1ADFED0C0A9FED1D0A32224FF46C
:10358000AF711C4803F0BEF89FED071ADFED1A0A71
:103590009FED1A0A4FF4FA7242F21071184803F0C4
:1035A000B1F810BD40050020000000009A99193FB5
:1035B00030060020CDCC4C3E8FC2753DCDCC3C407A
:1035C0005C0700200AD7233C0AD7233B20070020B2
:1035D0000000344200009B43040500203480373A49
:1035E000AE47613D8C04002000005C43C80400200D
:1035F0000AD7233D5004002017B7D1386F12833A01
:10360000D40700202DE9F0472DED048B90B04FF446
:10361000C8700F9000200D900E9080468146824623
:1036200000BF08EE100A08EE900A09EE100A00BF6B
:1036300000BF002500BF00BF00BF00BF00BF0B9050
:103640000C9009900A90059006900790089000BF92
:103650000027FE48B0F9000000EE100AB8EEC00ADC
:103660008DED050AF948B0F9020000EE100AB8EE37
:10367000C00A8DED060AF548B0F9040000EE100A04
:10368000B8EEC00A8DED070AF048B0F9060000EE6A
:10369000100AB8EEC00A8DED080AED484088ADF872
:1036A0002C00EC484088ADF82E00EB484088ADF87F
:1036B0003000EA484088ADF83200E5488088ADF82F
:1036C0002400E4488088ADF82600E3488088ADF8FF
:1036D0002800E2488088ADF82A00002450E0E04845
:1036E0004089A0F58060C0EB0010400000EE100A99
:1036F000B8EEC00A01A800EB840080ED000A01A822
:1037000000EB840090ED000ABDEEC00A10EE100A36
:1037100000B2D44921F8140005A901EB840191ED10
:10372000001AF0EE410A0BA931F9141001EE101A3B
:10373000B8EEC11AB0EE410AC4EB0411CA4A02EB5A
:10374000810002F073FFBDEEC00A10EE100A00B255
:103750000DA921F814000DA830F81410C14A201D3D
:1037600022F810100DA830F9140000EE100AB8EE7F
:10377000C00ABE4800EB840080ED000A601CC4B2A1
:10378000042CACDBBA484088B0F5005F1AD0B848CA
:10379000408801EE100AB8EE411AF0EE410AB54831
:1037A000008801EE100AB8EE411AB0EE410AB248A4
:1037B00002F03CFFBDEEC00A10EE100A00B208EEA7
:1037C000100A04E0AA48B0F9000008EE100AA9485F
:1037D000B0F9020000EE900AF8EEE00AB0EE600ADE
:1037E000F8EEC80AA54802F021FFBDEEC00A10EEAF
:1037F000100A0FFA80F9A2484088B0F5005F1AD08D
:103800009F48408801EE100AB8EE411AF0EE410AD6
:103810009C48008801EE100AB8EE411AB0EE410A49
:10382000994802F087FFBDEEC00A10EE100A00B200
:1038300008EE900A04E09248B0F9000008EE900A01
:103840009048B0F9020000EE900AF8EEE00AB0EEFF
:10385000600AF8EEE80A8D4802F06CFFBDEEC00A7F
:1038600010EE100A0FFA80FA8948007AF0B90020A9
:10387000884908808648B0F9000001EE100AB8EEC9
:10388000C11AF0EE410A8448B0F9020001EE100AB4
:10389000B8EEC11AB0EE410A804802F0C7FEBDEE94
:1038A000C00A10EE100A0FFA80F858E07A4908882A
:1038B000FDF7C6FD074677480088384400B27549D1
:1038C00008807348007AC01B714908727148B0F9CA
:1038D000000073490880704801886E48B0F9000004
:1038E00001EB40356A4890ED010AB8EE400AF0EE6F
:1038F000400A00EE105AB8EE400A6A4802F096FEFE
:10390000BDEEC00A10EE100A00B209EE100A6248BD
:10391000B0F9020000EE900AF8EEE00AB0EE600A9C
:10392000F0EE490AF8EEE00A5C4802F07FFEBDEED8
:10393000C00A10EE100A0FFA80F855484068401B84
:103940000A2804D352484068281A0A2807D20020BF
:10395000504908804E4908724F48008848604C48DA
:1039600040880F90BDF83C604F4890ED030ADFEDB2
:103970004F0A20EE200ABDEEC00A10EE100A00B277
:103980004B4908804B4890ED020ADFED480A20EED3
:10399000200ADFED490A20EE200ADFED480A80EE1A
:1039A000201ABDEEC10A10EE100A00B2488030485D
:1039B0000088642110FB01F000B23D498880404836
:1039C00090ED020ADFED390A20EE200ABDEEC00AB2
:1039D00010EE100A00B2C88031463A4801F0CDFC22
:1039E0003146384801F0CBFC3146364801F0C9FC7D
:1039F0003146344801F0C7FC33480188334801F0B0
:103A0000BCFC31480188314801F0B9FC2E480188DE
:103A10002E4801F0B6FC2C4801882C4801F0B3FC7C
:103A2000BDF93A30BDF93820BDF93610BDF9340082
:103A3000FDF7A8FA4B46424651460020FDF74AFBE7
:103A400000231A461946184642E000006000002094
:103A5000B0000020B8000020C0000020C8000020F6
:103A60000402002088020020400500207802002087
:103A700068000020D000002050040020C80400206E
:103A80006C000020D80000208C04002004050020D9
:103A90006C0200207A000020E00000205C0700207B
:103AA0007800002020070020C80200200000C84243
:103AB0009C0200201C080020000070420000B4435B
:103AC0002808002000000140EC0100200004014013
:103AD000FDF7ACFA10B0BDEC048BBDE8F087704781
:103AE00070B5002100230F22C4781CB3174C246842
:103AF00004F4E064C4F5E064C4F30721C1F10404F4
:103B0000E3B20A4144789C40E1B2847814402143F6
:103B10000C07210E0E4C05786155047804F01F0542
:103B20000124AC4005786D11AD0005F1E025C5F824
:103B3000004109E0047804F01F050124AC40054D64
:103B40000678761145F8264070BD00000CED00E0C7
:103B500000E400E080E100E002490143024A116014
:103B6000704700000000FA050CED00E010B52DEDE7
:103B7000068B9FED5A0AF0EE409A9FED590AB0EE7F
:103B8000408A9FED560AF0EE408A9FED540AB0EE4F
:103B900040AA9FED520AB0EE409AF02051490870B9
:103BA0000F20514908705148007D00F02000A8B155
:103BB0004E48007D00F0020080B14D48007868B9A1
:103BC00001204B4908704B480078401C4949087057
:103BD00008460078642801D100200870454908781B
:103BE00000EBD0714910A0EB410141B1424800887F
:103BF00000EE100AB8EE400AB0EE408A03E09FEDF6
:103C0000380AB0EE408A3948007D00F0200038B90B
:103C10003648007D00F0020010B9002034490870D9
:103C20003248807C88B33148C07CC04368B3324896
:103C3000008800EE100AB8EE400AB0EE408A2F4825
:103C4000007808BB2E480078401C2D4908702D488C
:103C500090ED020ADFED2C0A30EE200A80ED020A18
:103C60009FED2A0AB4EEC09AF1EE10FA07DB90ED50
:103C7000020ADFED260A30EE600A80ED020A00F04B
:103C80006BFE01201D49087020E0FFE71748C07C4B
:103C9000C8B11648807CC043A8B11748008800EE20
:103CA000100AB8EE400AB0EE408A1348408800EE91
:103CB000100AB8EE400AF0EE408A00200F49087062
:103CC0001349087202E000200C4908700D4880ED8D
:103CD000018AC0ED008ABDEC068B10BD000000001B
:103CE0000000C8433800002039000020EE01002009
:103CF0005E0000205F000020A40000205D00002086
:103D0000400000203C02002073E802420000B4435F
:103D10006C0200200020002200EE102A00213F4A01
:103D2000928A122A35D00CDC042A19D004DC012A2C
:103D300010D0022A52D110E0082A15D0112A4DD1F4
:103D40001CE0402A17D0502A3BD0802A11D0902A5C
:103D500044D12BE0642000BF4CE06FF0630049E0E9
:103D6000642200EE102A45E06FF0630200EE102A94
:103D700040E064213EE06FF063013BE0284A128896
:103D8000521C12B2264B1A801A461288024410B2F4
:103D900030E0234A1288521C12B2214B1A801A4674
:103DA0001288024410B2424210B223E01D4A128827
:103DB000521C12B21B4B1A801A4612880A4411B2C6
:103DC00018E0184A1288521C12B2164B1A801A4672
:103DD00012880A4411B24A4211B20BE000200022BC
:103DE00000EE102A00210E4B1A800F4B1A800D4B4B
:103DF0001A8000BF00BF00EE900AF8EEE00A0B4AFE
:103E0000C2ED000AF8EEC00AC2ED010A00EE901AF7
:103E1000F8EEE00AC2ED020A70470000EE01002051
:103E20004C000020500000204E00002030020020F6
:103E300010B5FFF76FFF00F003F8FFF797FE10BD16
:103E40009FED581AB0EE410A9FED561AF0EE410A66
:103E50005548B0F90C0001EE100AB8EEC11ADFEDBA
:103E6000531A81EE212A524890ED001A32EE011ABF
:103E700080ED001A90ED001ADFED4E1AB4EEE11A53
:103E8000F1EE10FA03DD9FED4B1A80ED001A484861
:103E900090ED001ADFED481AB4EEE11AF1EE10FAD7
:103EA00003D29FED451A80ED001A3F48B0F90E008D
:103EB00001EE100AB8EEC11ADFED401A81EE212A98
:103EC0003F4890ED001A32EE011A80ED001A90ED95
:103ED000001AF3EE0E1AB4EEE11AF1EE10FA03DD59
:103EE000B3EE0E1A80ED001A354890ED001AFBEE85
:103EF0000E1AB4EEE11AF1EE10FA03D2BBEE0E1A6E
:103F000080ED001A2848B0F90C0001EE100AB8EE56
:103F1000C11ADFED261A81EE212AB0EE420A2248AC
:103F2000B0F90E0001EE100AB8EEC11ADFED231A47
:103F300081EE212AF0EE420A1B48007D00F02000AD
:103F4000B0B11948007D00F0100088B19FED151A3E
:103F5000174880ED001A9FED131A194880ED001ADA
:103F60009FED101AB0EE410A9FED0E1AF0EE410AD5
:103F70000F4890ED001AB1EE411A124880ED011A77
:103F8000B1EE401A80ED001A0D4890ED001AB1EE26
:103F9000411A0D4880ED011AB1EE601A80ED001A49
:103FA0007047000000000000EE01002000C82F470D
:103FB0005400002000009642000096C2007C924708
:103FC0005800002028000020300000201CB50121EE
:103FD000802000F021F83C20009001208DF80400A2
:103FE00000208DF8060002208DF8070000208DF8D3
:103FF000050069460648FEF7E9FA0420044918312D
:1040000008800820088010200880202008801CBD1F
:10401000001C02407047000029B1064A12680243A2
:10402000044B1A6004E0034A12688243014B1A6091
:10403000704700003038024029B1064A1268024336
:10404000044B1A6004E0034A12688243014B1A6071
:10405000704700004038024029B1064A1268024306
:10406000044B1A6004E0034A12688243014B1A6051
:10407000704700002038024029B1064A1268024306
:10408000044B1A6004E0034A12688243014B1A6031
:10409000704700004438024029B1064A12680243C2
:1040A000044B1A6004E0034A12688243014B1A6011
:1040B0007047000024380240F0B50021002200249F
:1040C000022500260223324F3F6807F00C0121B180
:1040D000042905D0082937D105E02E4F076036E0C6
:1040E0002D4F076033E02A4F3F1F3F68C7F38056CC
:1040F000274F3F1F3F6807F03F036EB1264FB7FBC6
:10410000F3F7DFF88CC0ACF1040CDCF800C0CCF3A2
:10411000881C07FB0CF40CE01E4FB7FBF3F7DFF82D
:1041200070C0ACF1040CDCF800C0CCF3881C07FBB9
:104130000CF4174F3F1F3F68C7F301477F1C7D00FA
:10414000B4FBF5F7076002E0124F076000BF00BF45
:104150000F4F3F6807F0F0010909104F7A5C0768BC
:10416000D74047600A4F3F6807F4E051890A0B4F78
:104170007A5C4768D7408760054F3F6807F4604125
:10418000490B064F7A5C4768D740C760F0BD000016
:10419000083802400024F400001BB700140000207F
:1041A00010B504462146054801F0B1FB00BF80214F
:1041B000024801F0E1FA0028F9D010BD00140140D6
:1041C0002DE9F04105460E46B046404602F0F8F9AA
:1041D00007462878A5280AD1002403E0285D385531
:1041E000601CC4B2B442F9DB384600F009F9384625
:1041F00002F0FAF8BDE8F081F0B5A1B0074600BFC3
:1042000000BFA520594908705620A1F80100584860
:104210000078C87056480078401C55490870084618
:104220000078FF2801D10020087000204F49087154
:1042300008460168019100798DF80800052101A860
:1042400002F0B4F89DF808004849087140F20130C6
:10425000C88008460781474801784448418145485D
:10426000007800F5807041498881FEF72FFA0546F5
:104270004FF47A7068434049C8603C480A4692E867
:104280000A10D268C0E9053CC2610161FEF730FA4C
:1042900005464FF47A7068433849C86033480B4686
:1042A000D3E901C21968DB68C0E909C2C3620162CF
:1042B000334890ED010ABCEEC00A10EE105A4FF4DC
:1042C0007A7068432F49C8602849DFF8B8C09CE875
:1042D0000D103031A1E80D10294890ED010ABCEE17
:1042E000C00A10EE105A4FF47A7068432649C8602D
:1042F0001E4A8C46DCE90031DCE9020CC2E9120CF2
:10430000C2E91031214805784FF47A7015FB00F0AE
:104310001F49C8608C469CE80B105032A2E80B1075
:1043200064242246114901A8FBF75CFF214601A83D
:1043300002F024F800BFA01E01A9085C4FF47F41E1
:1043400001EA0020611E01AA515C08430749A1F857
:104350006000002605E001A9885DFFF721FF701CC1
:10436000C6B2A642F7DB21B0F0BD0000E008002095
:104370009601002094080020A8090020B809002018
:1043800084000020C8090020D80900201E02002057
:10439000E809002030B51C7804705C7844709C7883
:1043A0008470046824F0E06404F10074046004681C
:1043B00024F0605404F120540460446824F00F0495
:1043C0004460446824F0F00444601E25446865F3AA
:1043D000102444600325446865F3594444608468AC
:1043E0006FF30904E41C8460846861F3942484609E
:1043F000846862F35F5484600024C46030BD0000B0
:10440000F8B5044600200090002600257A48008870
:1044100040F22B11884202D1002077490880207891
:10442000A52871D1754821680160217901710521A4
:10443000204602F0F7F90128F3D1681DC5B26F4894
:10444000B0F8010000F109063146204602F0CAF931
:104450000128E6D16019008800906848C178684852
:10446000654A12888154BDF800006649624A128884
:1044700021F812006148B0F801105F4802880088F6
:10448000401C5D4B1880604820F81210A81CC5B273
:10449000BDF8000040F20222811A904270D01CDC6C
:1044A000B0F5817F50D00EDC032838D004DC012821
:1044B0002BD0022870D12EE0052837D0A0F20110B1
:1044C0000028F7D13BE0A0F2031070B3012847D0D9
:1044D00002284AD0FE28EDD14BE0052969D008DC3E
:1044E000012953D0022958D003295AD00429E1D1F7
:1044F0005BE0062964D0072969D008296CD0A1F2B5
:104500000111002975D16EE075E0611910223F4854
:10451000FBF768FE6EE03E48615D01706AE061197C
:1045200020223C48FBF75EFE64E012E061193A4845
:104530000A6802604A684260896881605AE06119CD
:1045400036480968016055E061193548096801601D
:1045500050E0611933480A8802808978817049E007
:10456000611931480988018044E03048615D01707B
:1045700040E061191C222E48FBF734FE3AE0FFE7C9
:10458000611910222B48FBF72DFE33E06119102230
:104590002948FBF727FE2DE02BE02848615D0170DC
:1045A00028E02748615D017024E02648615D0170C4
:1045B00020E0611924480A6802604968416019E0F6
:1045C0006019224902680A608088888012E06119B7
:1045D0001F48096801600DE061191E480A68026001
:1045E0008988818006E0611910221B48FBF7FAFDDB
:1045F00000E000BF00BFF8BD94010020440100208E
:10460000500C00207C0D0020F809002058080020E4
:104610004E0100206808002088080020500100207A
:1046200054010020580100205B0100205D010020A2
:1046300094080020B0080020C00800205E0100207F
:104640005F01002060010020640100206C01002057
:104650007401002078010020D008002000B58FB040
:1046600001214FF04010FFF7D7FC01212020FFF778
:1046700003FD082209214348FDF7F0FF4FF40070C5
:104680000D9002208DF8380000208DF83A000320AC
:104690008DF8390000208DF83B000DA93948FDF751
:1046A00095FF394800F0F0FF4FF4E1300990002009
:1046B000ADF82800ADF82A004FF48060ADF82C006A
:1046C0000C20ADF82E000020ADF8300009A92E48CE
:1046D00001F0AEF8012240212B4800F0CCFF01226E
:1046E0008021294800F0C7FF012240F224412648DA
:1046F00001F079F80121244800F0B1FF47208DF83E
:10470000380000208DF8390001208DF83A008DF82E
:104710003B000EA8FFF7E4F91C48FDF70DFD4FF034
:10472000206000901848001D019019480290002058
:10473000039080200490002005904FF48060069044
:104740000020079008904FF4807009904FF440309B
:104750000A9000200B900C900D900E9000220D49B5
:104760000A48FDF7A0FD01210848FDF791FD6946C3
:104770000648FDF703FE01210448FDF7D1FC0FB008
:1047800000BD0000001802400014014028640240EF
:104790001210002092100020704700000CB500207D
:1047A000019000904148006840F480303F49086023
:1047B00000BF3E48006800F4003000900198401CA3
:1047C0000190009818B90198B0F5A04FF1D1374881
:1047D000006800F4003010B10120009001E00020DA
:1047E00000900098012860D130484030006840F0C7
:1047F00080502E49403108602D48006840F4404008
:104800002B490860294808300068284908310860A9
:104810000846006840F4004008600846006840F41C
:10482000A05008602348091F0860081F006840F076
:104830008070091F086000BF1C48006800F000700D
:104840000028F9D01A48006840F480301849086000
:1048500000BF1748406800F480300028F9D01448A1
:10486000006840F400301249086000BF10484068FA
:1048700000F400300028F9D040F205700E490860BD
:104880000A480830006820F0030008490831086031
:104890000846006840F00200086000BF0348083086
:1048A000006800F00C000828F8D10CBD0038024068
:1048B000007000400C5A4007003C02402DE9F041D6
:1048C0000A260F250F243227FDF71EFF0546FDF7A8
:1048D00009FF0446FDF712FF07460F2D04D140F2F1
:1048E000F6401B4908800CE0122D04D140F23C50E8
:1048F0001749088005E01E2D03D14FF4C860144904
:1049000008800A2C01D10A261AE00F2C01D10F26AB
:1049100016E0142C01D1142612E0192C01D119260D
:104920000EE01E2C01D11E260AE0232C01D12326E5
:1049300006E0282C01D1282602E03C2C00D13C26A0
:10494000034800880349088008464680BDE8F08196
:10495000A2000020A400002070B52DED048B0024DF
:1049600000251148007A10B91048048801E00E486B
:1049700044682046FBF78AFD41EC190B9FED0C0BB8
:1049800053EC102BFBF769FC41EC180BFBF78BFD8C
:104990000446C4F3473504484460681CC5B2024865
:1049A0000572BDEC048B70BD6C020020E00000209D
:1049B0005C8F6A82532EDA4010B52DED108BB0EE6D
:1049C000408A9FED610AF0EE408A9FED600BB0EEE9
:1049D000409AF0EE609A9FED5D0BB0EE40AAF0EECB
:1049E00060AA9FED5A0BB0EE40BAF0EE60BA9FEDB0
:1049F000570BB0EE40CAF0EE60CA564890ED020A7E
:104A0000B4EEC80AF1EE10FA06DD90ED020A30EEBF
:104A1000480AF0EE408A0AE04E4890ED020A30EE75
:104A2000480ADFED4D0A30EE200AF0EE408ADFED55
:104A30004B0A88EEA00ADFED4A0A20EE200A10EEAB
:104A4000104A2046FBF748FD41EC1D0BB0EE4D0A25
:104A5000F0EE6D0A00F0ECFFB0EE40BAF0EE60BA96
:104A6000DFED3E0A88EEA00ADFED3D0A20EE200AC7
:104A700010EE104A2046FBF72FFD41EC1D0BB0EE67
:104A80004D0AF0EE6D0A00F063FFB0EE40CAF0EEA2
:104A900060CA344890ED000A10EE101A0846FBF781
:104AA0001BFD41EC190B2F4890ED010A10EE101A76
:104AB0000846FBF711FD41EC1A0B53EC192B51EC96
:104AC0001C0BFBF771FC41EC1E0B53EC1A2B51EC49
:104AD0001B0BFBF769FC41EC1F0B53EC1E2BFBF788
:104AE000BCFB41EC1D0BFBF723FD1F49086053EC99
:104AF000192B51EC1B0BFBF757FC41EC1D0B53EC36
:104B00001A2B51EC1C0BFBF74FFC41EC1E0B53EC2A
:104B10001D2BFBF743FC41EC1F0BFBF709FD124972
:104B20004860084680ED048AC0ED038A90ED000AD3
:104B30000E4880ED000A084690ED010A0B4880ED12
:104B4000010ABDEC108B10BD000000000000000049
:104B500000000000280800200000B4430000344397
:104B6000DA0F494030020020C8020020B0020020C5
:104B700010B50024FDF7B0FD0446282C03D14920D0
:104B80002B49087052E02D2C03D14A202849087087
:104B90004CE0322C03D14B202549087046E0372CDD
:104BA00003D14C202249087040E03C2C03D14D2019
:104BB0001F4908703AE0412C03D14E201C4908706F
:104BC00034E0462C03D14F20194908702EE04B2CBD
:104BD00003D150201649087028E0502C03D15120F1
:104BE0001349087022E0552C03D152201049087057
:104BF0001CE05A2C03D153200D49087016E05F2C9D
:104C000003D154200A49087010E0642C03D15520C8
:104C1000074908700AE0692C03D15620044908703E
:104C200004E06E2C02D157200149087010BD00002D
:104C3000A000002010B500F0EBFB10BD30B515480A
:104C40000068154AB0FBF2F1481EB0F1807F01D335
:104C500001201BE0481E4FF0E022506150170F2248
:104C6000002807DA13071D0E0C4B00F00F04241F59
:104C70001D5503E013071C0E094B1C5400BF0020F8
:104C80004FF0E022906107201061002008B100BFC2
:104C9000FEE730BD00000020A086010018ED00E016
:104CA00000E400E010B51548006840F470001349B6
:104CB00008601348006840F00100114908600020B6
:104CC0000F49083108600E4800680E4908400C4939
:104CD00008600D48091D0860081F006820F4802046
:104CE000091F0860002006490C310860FFF756FDD7
:104CF0004FF0006001498039086010BD88ED00E088
:104D000000380240FFFFF6FE1030002410B500F01E
:104D100003F800F047F810BD1CB501210846FFF765
:104D20007BF901211020FFF777F94FF440700090D4
:104D300002208DF8040000208DF806008DF8070091
:104D400003208DF8050069461448FDF73FFC4FF439
:104D5000C040009002208DF8040000208DF806006D
:104D60008DF8070003208DF8050069460C48FDF713
:104D70002DFC012208210948FDF770FC01220921C0
:104D80000648FDF76BFC01220D210548FDF766FC86
:104D900001220E210248FDF761FC1CBD000002400B
:104DA0000010024000B589B001210846FFF764F900
:104DB00044F61F600790B320ADF818000020ADF84E
:104DC0002000ADF81A008DF8220006A9224800F054
:104DD000DDFA6020ADF804000120ADF806000020E7
:104DE000ADF810004FF48070ADF814001B48008837
:104DF000039001A9184800F075F90821164800F041
:104E0000AFF916480088039001A9134800F0B2F9E1
:104E10000821114800F000FA11480088039001A908
:104E20000D4800F007FA08210B4800F053FA0C482F
:104E30000088039001A9084800F056FA08210648A6
:104E400000F08EFA0121044800F016F90121024811
:104E500000F01EF909B000BD00000140E80100208B
:104E6000EA01002010B500F057F800F035F810BD49
:104E700010B50121144800F01AF918B3134800883E
:104E8000401C124908800846008864280DD110484B
:104E9000006880F480400E4908600E480088401C7D
:104EA0000C4908800020094908800A4800886428C5
:104EB00002D1002007490880FEF7A4FB0121024827
:104EC00000F0D7F810BD00000010004024000020C2
:104ED00014140240260000200EB501211020FFF717
:104EE000ABF840F2F310019040F24730ADF800000B
:104EF0006946084800F04AFA0121064800F0B6F871
:104F000001221146034800F0E3F80121014800F0B6
:104F1000B3F80EBD0010004008B54FF4E060FEF796
:104F20001BFE36208DF8000000208DF801000320C4
:104F30008DF8020001208DF803006846FEF7D0FDD1
:104F400008BD10B500F004F800F030F810BD000006
:104F50001CB501210802FFF75FF8E4200090022051
:104F60008DF8040000208DF806008DF8070003205E
:104F70008DF8050069460C48FDF728FB0322052142
:104F80000948FDF76BFB032206210748FDF766FB86
:104F9000032207210448FDF761FB03220221024896
:104FA000FDF75CFB1CBD00000020024000B589B08D
:104FB00001210220FFF760F844F61F600790B3203C
:104FC000ADF818004FF40070ADF820000020ADF8E7
:104FD0001A008DF8220006A9224800F0D7F96020B7
:104FE000ADF804000120ADF806000020ADF8100077
:104FF0004FF48070ADF814001B480088039001A99D
:10500000184800F06FF80821164800F0A9F8164873
:105010000088039001A9134800F0ACF8082111485A
:1050200000F0FAF810480088039001A90D4800F03C
:1050300001F908210B4800F04DF90B480088039056
:1050400001A9084800F050F90821064800F088F945
:105050000121044800F010F80121024800F018F87E
:1050600009B000BD00040140E6010020CA430282ED
:105070007047CA430282704721B1028842F00102A0
:10508000028004E002884FF6FE731A4002807047E7
:1050900031B1B0F8442042F40042A0F8442005E0C9
:1050A000B0F84420C2F30E02A0F84420704730B597
:1050B0000246002000230024158A05EA0103958991
:1050C00005EA010413B10CB1012000E0002030BD5D
:1050D0001AB183890B43838102E083898B438381E7
:1050E0007047000070B5002400220023058C4FF6A5
:1050F000FE7635400584028C8388048B4FF68F75CD
:105100002C40B51E2C400D882C43751E2A408D89DD
:105110002A434D882A43104DA84202D00F4DA84281
:1051200013D14FF6F7752A40CD892A434FF6FB7508
:105130002A408D882A434FF6FF652B404FF6FF55D6
:105140002B400D8A2B434D8A2B43838004838D682B
:105150004563028470BD000000000140000401406E
:105160000A460021018B4FF6F77319401143018362
:105170007047000070B5002400220023058C4FF614
:10518000EF7635400584028C8388048B48F6FF75E2
:105190002C404FF6FF452C400D884FF6FF7606EA6F
:1051A00005252C434FF6DF752A408D8906EA051543
:1051B0002A434D8806EA05152A43154DA84202D018
:1051C000144DA8421DD14FF67F752A40CD894FF668
:1051D000FF7606EA05152A434FF6BF752A408D88EB
:1051E00006EA05152A434FF6FF352B404FF2FF75AF
:1051F0002B400D8A06EA85052B434D8A06EA850574
:105200002B43838004838D688563028470BD000016
:1052100000000140000401400A460021018B4FF2CA
:10522000FF7319404FF6FF7303EA0223194301830A
:105230007047000070B5002400220023058C4FF653
:10524000FF6635400584028C8388848B4FF68F750A
:105250002C404FF6FC752C400D882C434FF6FF5523
:105260002A408D894FF6FF7606EA05252A434D88A8
:1052700006EA05252A43154DA84202D0144DA8423E
:105280001DD14FF2FF752A40CD894FF6FF7606EA11
:1052900005252A434FF6FF352A408D8806EA052565
:1052A0002A434EF6FF752B404DF6FF752B400D8AB5
:1052B00006EA05152B434D8A06EA05152B43838024
:1052C00084838D68C563028470BD000000000140C6
:1052D000000401400A460021818B4FF6F773194004
:1052E000114381837047000070B500220023002421
:1052F000058C4EF6FF7635400584038C8488828BBE
:1053000048F6FF752A404FF6FF452A400D884FF6B4
:10531000FF7606EA05252A434DF6FF752B408D8959
:1053200006EA05352B434D8806EA05352B430A4D21
:10533000A84202D0094DA84208D14BF6FF752C4077
:105340000D8A4FF6FF7606EA85152C43848082830A
:105350008D680564038470BD0000014000040140B5
:105360000A460021818B4FF2FF7319404FF6FF73FD
:1053700003EA0223194381837047416370478163C5
:105380007047C163704701647047000000220288C3
:10539000184B98420ED0184B98420BD0B0F1804F6A
:1053A00008D0164B984205D0154B984202D0154BA9
:1053B000984204D14FF68F731A404B881A43124B10
:1053C000984207D0114B984204D04FF6FF431A4041
:1053D0000B891A4302804B68C3620B880385054B17
:1053E000984202D0044B984201D18B7A0386012364
:1053F0008382704700000140000401400004004027
:1054000000080040000C0040001000400014004064
:105410000448006820B103480068401E0149086044
:10542000704700001002002010B540F225510B48D3
:1054300000F0AFF930B1094800F064FAC4B2204678
:10544000FDF72EFC40F22771044800F0A2F94FF45A
:105450005871024800F0F4F810BD000000780040D8
:1054600010B5002440F22551054800F092F930B102
:10547000034800F047FAC4B22046FDF74DF910BDCD
:10548000007C004010B5002440F22551054800F092
:1054900080F930B1034800F035FA04B2E0B2FCF70D
:1054A0004FF810BD0044004010B540F22551174898
:1054B00000F06FF948B3154800F024FA1449154A72
:1054C0001278885413480078401C12490870084626
:1054D0000078042819D10E48007840280DD10C48D6
:1054E000C078232809D10A4880780949497801EB16
:1054F000810100EB4100084908700020054908704F
:105500000349087048708870C87010BD004800409A
:105510001F020020230200201E02002010B540F2CE
:105520002551404800F035F950B140F225513D4831
:1055300000F086F8002240F225513A4800F053F975
:1055400040F22441374800F024F9002869D00024B3
:10555000344800883348001D00883348FCF7B3FE08
:1055600030BB00213048FCF7DBFD2F48FCF7A7FEDD
:10557000C0F180002D49088080202B49091D08605A
:10558000081F006840F40020091F08608021264899
:10559000FCF720FF01212448FCF7C2FD23480188C5
:1055A0002348FEF70DFE80212148FAF742FE25E050
:1055B00000211D48FCF7B4FD1B48FCF780FEC0F13C
:1055C00080001A49088080201749091D0860081FBB
:1055D000006820F40020091F086080211248FCF7B1
:1055E000F9FE01211048FCF79BFD10480188114885
:1055F000FEF7E6FD80210F48FAF71BFE0E480088F3
:1056000040F22B11884202D100200B4908800B4840
:10561000008840F22B11884202D1002007490880FF
:1056200000BF10BD00140140286402401802002091
:1056300012100020921000201A0200201C020020EC
:1056400010B50022002340F66A14A14200D100BF29
:105650000A1201249440A3B2DC43048010BD21B19E
:10566000828942F40052828104E082894DF6FF7300
:105670001A40828170471AB1838A0B43838202E009
:10568000838A8B438382704710B504463248844234
:1056900008D101211020FEF7FFFC00211020FEF7A9
:1056A000FBFC57E02D48844209D101214804FEF754
:1056B000D3FC00214FF40030FEF7CEFC4AE028482E
:1056C000844209D101218804FEF7C6FC00214FF471
:1056D0008020FEF7C1FC3DE02248844209D101212F
:1056E000C804FEF7B9FC00214FF40020FEF7B4FC1B
:1056F00030E01D48844209D101210805FEF7ACFCC9
:1057000000214FF48010FEF7A7FC23E017488442E5
:1057100008D101212020FEF7BFFC00212020FEF748
:10572000BBFC17E01248844209D101218807FEF72B
:1057300093FC00214FF08040FEF78EFC0AE00D48FC
:10574000844207D101214005FEF786FC0021600557
:10575000FEF782FC10BD0000001001400044004034
:1057600000480040004C0040005000400014014040
:1057700000780040007C004002460020B1F5007F28
:1057800000D100BF13880B400BB1012000E00020C6
:10579000704770B50246002400230025002040F623
:1057A0006A16B14200D100BFC1F3421501F01F03D8
:1057B000012606FA03F3012D02D19689334006E053
:1057C000022D02D1168A334001E0968A33400C1232
:1057D000012606FA04F41688344013B10CB10120F6
:1057E00000E0002070BDF0B503460024002600252F
:1057F000002040F66A17B94200D100BF1846C1F335
:10580000421401F01F06012707FA06F5012C01D109
:105810000C3004E0022C01D1103000E014301AB139
:1058200007682F43076002E00768AF430760F0BDD9
:105830002DE9FF4705460E460024A14600BFA046BD
:10584000B08900B100BF2C8A24F44054F08804438E
:105850002C82AC8941F20C608443B08831890843C2
:10586000718908430443AC81AC8A24F44074B08944
:105870000443AC826846FEF71FFC2048854202D0F4
:105880001F48854202D1DDF80C9001E0DDF8089058
:10589000A88900F4004040B109EBC90000EB0910F1
:1058A00031684900B0FBF1F707E009EBC90000EBF4
:1058B000091031688900B0FBF1F76420B7FBF0F004
:1058C00004012009642101FB1078A88900F400403C
:1058D00040B1322000EBC800B0FBF1F000F007004F
:1058E000044308E0322000EB08106421B0FBF1F023
:1058F00000F00F0004432C81BDE8FF870010014039
:105900000014014001468888C0F308007047C1F3C5
:1059100008028280704700BFFEE703B4019841008F
:10592000009850EAC12018BF04204A0D18BF40F06B
:10593000010040F2FF72B2EB515F08BF40F002007D
:10594000012808BF052002B07047000000000000D9
:1059500010B52F499FED2C1B2DED020B84B005983F
:1059600020F000408842D8BF9DED040B2DDD294971
:10597000884209D1049840B94FF0010000F0E0FCE2
:1059800000F0AEFC06B010BD05DB9DED040B00F091
:105990009BFC06B010BD68469DED040B00F0ACF812
:1059A00010F0030004BF9DED021B9DED000B0CD019
:1059B00001280ED09DED021B9DED000B022817D093
:1059C000012000F0E9FB06B010BD00F0B1FA06B00E
:1059D00010BD9DED021B9DED000B012000F0DCFBD6
:1059E00051EC100B81F0004106B041EC100B10BDE2
:1059F00000F09EFA51EC100B81F0004106B041EC32
:105A0000100B10BD000000000000000000000000AE
:105A1000FB21E93F0000F07F2DED020B019820F003
:105A2000004001909DED000B02B0704700000000A7
:105A300010B52F499FED2C1B2DED020B84B005985E
:105A400020F000408842DCBF00209DED040B32DDD9
:105A50002849884209D1049840B94FF0010000F06C
:105A60006FFC00F03DFC06B010BD05DB9DED040BA6
:105A700000F02AFC06B010BD68469DED040B00F056
:105A80003BF810F0030011D0012818D09DED021B47
:105A90009DED000B02281AD000F04AFA51EC100BD1
:105AA00081F0004106B041EC100B10BD9DED021BD2
:105AB0009DED000B012000F06FFB06B010BD9DEDC9
:105AC000021B9DED000B00F033FA06B010BD012063
:105AD00000F062FB51EC100B81F0004106B041EC8C
