:020000040800F2
:10000000C02D0020C101000885220008AD21000894
:100010008122000831120008B73E000800000000ED
:10002000000000000000000000000000D3010008F4
:10003000051D000800000000D7010008D9010008D4
:10004000DB010008DB010008DB010008DB01000820
:10005000DB010008DB010008DB010008DB01000810
:10006000DB010008DB010008DB010008DB01000800
:10007000DB010008DB010008DB010008DB010008F0
:10008000DB010008DB010008DB010008DB010008E0
:1000900035130008DB010008DB010008DB01000864
:1000A000DB010008DB010008DB010008DB010008C0
:1000B000DB010008912F0008DB010008DB010008CC
:1000C000DB010008DB010008DB010008DB010008A0
:1000D000DB01000825390008DB010008DB0100080E
:1000E000DB010008DB010008DB010008DB01000880
:1000F000DB010008DB010008DB010008DB01000870
:10010000DB010008DB010008DB010008DB0100085F
:10011000DB01000829360008DB010008DB010008CC
:10012000DB010008DB010008DB010008DB0100083F
:10013000DB010008DB010008DB010008DB0100082F
:10014000DB010008DB010008DB010008DB0100081F
:10015000DB010008DB010008DB010008CD390008E5
:10016000DB010008DB010008DB010008DB010008FF
:10017000DB010008DB010008DB010008DB010008EF
:10018000DB010008DB0100087D360008DB01000808
:10019000DB010008DB010008DB010008DB010008CF
:1001A0000000000000000000DB010008DFF80CD0B8
:1001B00000F074FC0048004745800008C02D002076
:1001C0000648804706480047FEE7FEE7FEE7FEE7F1
:1001D000FEE7FEE7FEE7FEE7FEE7FEE7212E00086A
:1001E000AD01000830B50B46014600202022012455
:1001F00009E021FA02F59D4205D303FA02F5491BF5
:1002000004FA02F52844151EA2F10102F1DC30BD0A
:1002100010B5431A934209D28318881803E010F8E6
:10022000011D03F8011D521EF9D210BD40EA010361
:100230009B0703D009E008C9121F08C0042AFAD29C
:1002400003E011F8013B00F8013B521EF9D210BD4A
:10025000D2B201E000F8012B491EFBD27047002208
:10026000F6E710B513460A4604461946FFF7F0FFB5
:10027000204610BD421C10F8011B0029FBD1801A3A
:10028000704710B5002200E0521C835C8C5CA342D6
:1002900001D1002BF8D1D8B2E1B2401A10BDCBB2D7
:1002A00003E00178994203D0401C521EF9D200208D
:1002B0007047034611F8012B00F8012B002AF9D1F1
:1002C0001846704700F0DEBA2DE9FE4F804681EAFD
:1002D0000300C00F0C46009021F0004123F00045C0
:1002E000B8EB0200A94105D24046214690461C4683
:1002F0000B46024623F00040104347D0270DC7F3BA
:100300000A00C3F30A510290401A019040286BDAA8
:10031000C3F3130040F4801B0098924620B10023E1
:10032000D2EB030A63EB0B0B01985946C0F1400274
:10033000504600F028FA06460D4650465946019AA6
:1003400000F040FA10EB08006141002487EA1152E6
:1003500084EAE7731A4340D0009A62B3019A012AF3
:100360004FEA075215DC001B61EB02014FF000421F
:1003700002EA0752CDE90042001C41F580113246E5
:100380002B4600F00DFB03B0BDE8F08F4046214640
:10039000F9E7001B61EB0201001C41F58013001816
:1003A0005B412018A2F5001747EB030140EAD57026
:1003B000B6196D4111E06D084FEA360645EAC07581
:1003C0004FEA0752001B61EB0201001C41F580114E
:1003D00049084FEA30000019514132462B4603B01C
:1003E000BDE8F04F00F0CDBA009801224000002394
:1003F000D0EB020263EBE073009821464FEAE07411
:10040000B8EB000061EB0401E9E783F000435BE730
:1004100081F0004158E72DE9FE4F81EA030404F022
:10042000004421F0004100944FF0000B23F0004302
:1004300050EA01045ED052EA03045BD0C3F30A54CD
:10044000C1F30A552C44A4F2F3340194A0FB0254E6
:10045000C1F3130141F48011C3F3130343F4801378
:1004600001FB024400FB034E840A970A44EA8154CC
:1004700047EA8357A4FB076802958D0A05FB0785A9
:100480004FEA932C04FB0C542705029D4FEA0658B3
:1004900047EA1637B5EB08056EEB070C870E920E90
:1004A00047EA811742EA8312A7FB0201B6EB0B0170
:1004B00064EB00042B0D43EA0C335E1844EB1C5034
:1004C000DA465146E7FB0201C5F313044FEA0B334A
:1004D00043EA14534FEA0432019C43EA0603A4F1B1
:1004E0000C040294009CCDE900B400F059FA03B06A
:1004F000BDE8F08F00200146F9E72DE9F04D81EAD3
:10050000030404F0004B21F0004514464FF0000AAC
:1005100023F0004150EA050220D054EA01021DD028
:10052000C5F30A570246C5F31303C1F31300C1F321
:100530000A5640F4801543F48013A7EB0608101BFD
:10054000D64608F2FD3873EB050002D308F1010826
:1005500001E092185B41B8F1000F03DA0020014678
:10056000BDE8F08D00204FF48011064684460EE071
:10057000171B73EB050705D3121B63EB050306433B
:100580004CEA010C49084FEA300092185B4150EAEE
:100590000107EDD152EA030012D082EA040083EA97
:1005A0000501084305D0101BAB4106D201220023F0
:1005B00006E000224FF0004302E06FF0010253100A
:1005C0001AEB06004CEB085110EB0A0041EB0B0153
:1005D000BDE8F04D00F0D5B9F0B4CA17CB0F5040CC
:1005E0005140C61841F100054FEAC3723146280058
:1005F0004FF0960303D0B623F0BC00F094B9304618
:100600000021F9E70EB5C10F80EAE0700844CA077F
:10061000002140F233438DE80E000A460B4600F0FD
:10062000BFF903B000BD70B5C1F30A5201F0004537
:100630000024C1F3130140F2FF3341F480119A42C8
:1006400001DA002070BD40F233439A42A2F23342F5
:1006500003DC524200F0A6F800E090402C43F1D0B9
:10066000404270BD00F0004230F000400AD0C10DA1
:1006700001F56071C0F3160042EA0151C20840075B
:1006800011437047002001467047000030B5041E3A
:1006900071F1000404DB4FF00044404264EB0101BF
:1006A000141E73F1000405DB1C464FF00043524258
:1006B00063EB04038B4208BF824230BD30B5041E99
:1006C00071F1000404DB4FF00044404264EB01018F
:1006D000141E73F1000405DB1C464FF00043524228
:1006E00063EB0403994208BF904230BD01F0004320
:1006F00030B421F0004150EA010206D00A0DA2F503
:100700006072C1F31301002A02DC30BC0020704784
:10071000440F44EAC104C100E01830BC00EBC250F1
:1007200000F0F8B82DE9F05F0546002092469B46A0
:1007300088460646814640241BE0284641464746F7
:10074000224600F02FF853465A46C01A914110D362
:1007500011461846224600F016F82D1A67EB0108DC
:100760004F4622460120002100F00DF817EB00094A
:100770004E41201EA4F10104DFDC484631462A46E2
:100780004346BDE8F09F202A04DB203A00FA02F13C
:10079000002070479140C2F1200320FA03F319436F
:1007A00090407047202A04DB203A21FA02F0002111
:1007B000704721FA02F3D040C2F120029140084371
:1007C00019467047202A06DBCB17203A41FA02F07F
:1007D00043EAE07306E041FA02F3D040C2F120029E
:1007E00091400843194670470FB4002300B589B003
:1007F0000CA900910B996FF00042CB601E4B069341
:100800001E4B07930423CDE901321D4A089202468C
:100810006B46002000F0F6F909B05DF814FB70B5E6
:1008200086B006464FF0FF300091CDE9010100206F
:1008300015460C4604903246694604A8FFF7D4FFDB
:1008400002460498211825B108B1084600E0204668
:100850002860049800280DD0002A02DD0098884204
:1008600008D0081B0094CDE901043246694604A86B
:10087000FFF7BAFF06B070BD3D0E00085B0E000822
:10088000C90A00082DE9F04791460E468046044605
:10089000002514F8017B2FB100F012F90068C05D4B
:1008A000C007F6D12B2F02D02D2F1ED0641E4A4632
:1008B0003146204600F0E2FA26B13268A24201D168
:1008C000C6F800806A054FF0020418D50023D0EB6B
:1008D000030563EB01025D1B934109DB0023D0EBB1
:1008E000030063EB0101BDE8F08745F48065DEE7B6
:1008F00003F08AFB046000204FF00041F3E7021E82
:1009000071F10002EFDA03F07FFB04604FF0FF307B
:100910004108E8E70029A8BF7047401C490008BF0C
:1009200020F00100704710B4B0FA80FC00FA0CF01F
:1009300050EA010404BF10BC704749B1CCF1200457
:1009400021FA04F411FA0CF118BF012121430843E4
:10095000A3EB0C01CB1D4FEA00614FEA102042BF10
:10096000002010BC704700EBC35010440029A4BF06
:1009700010BC7047401C490008BF20F0010010BCAB
:10098000704710B5141E73F1000408DA401C41F1E1
:10099000000192185B411A4301D120F0010010BD03
:1009A0002DE9F04D92469B4611B1B1FA81F202E079
:1009B000B0FA80F220329046FFF7E5FE04460F467B
:1009C00040EA0A0041EA0B0153465A46084313D055
:1009D000114653EA010019D0C8F140025046FFF712
:1009E000E1FE05460E46504659464246FFF7CBFE0D
:1009F000084305D0012004E020463946BDE8F08DCB
:100A00000020054346EAE0762C4337430A98630505
:100A1000E40AA0EB08000022FD0A44EA47540A3029
:100A200002D500200146E9E7010510196941DDE919
:100A3000084500196941BDE8F04DA2E770B521F005
:100A4000004303430CD0C1F30A550024D5EB040541
:100A500064EB0403D617AD1AB34102DB0020014654
:100A600070BD201841EB025170BDC1F30A52C1F3B1
:100A7000130140F2FF3341F480119A4202DA002060
:100A80000146704740F233439A42A2F2334202DCFD
:100A90005242FFF787BEFFF776BE0000064C074DB7
:100AA00006E0E06840F0010394E80700984710343E
:100AB000AC42F6D3FFF77EFB409E0008609E000824
:100AC000004870473C9E000810B50446FFF7F8FF49
:100AD0000068005D00F0010010BD00002DE9FF4F2F
:100AE000087883B09946FF2805D0491C2D2804D0EA
:100AF0000024002008E000200BE00124F9E700EBCF
:100B0000800003EB4000491C0B78FF2BF7D104B1A8
:100B1000404200230293147819461D462D2C01D023
:100B20002B2C04D1521C2D2C13D000240294AA4645
:100B30001478FF2C0FD00A25A3FB057801FB058153
:100B40004FF0000C03FB0C11521CE3194AEB01019E
:100B5000EEE70124EAE7814453EA010002D019F5E7
:100B6000C87F06DA03980021C0E9001107B0BDE88C
:100B7000F08F0025AE4E2F46DFF8B882184600F001
:100B80004AFACDE90001B9F1000002DAC9F1000426
:100B900000E004460023A74A1AEB030B42EB045A79
:100BA00012E0E00707D02A46334638464146FFF7B1
:100BB00032FC074688462A46334610461946FFF758
:100BC0002AFC05460E466410002CEAD1DDE900013E
:100BD000B9F1000F5A46534606DAFFF78EFC3A4643
:100BE0004346FFF78AFC05E0FFF715FC3A4643460B
:100BF000FFF711FC029A0AB181F00041039AC2E9A1
:100C00000001B3E72DE9FF4F1F468DB0D7E901463C
:100C10004FF0FF382E2045464FF000090B90B96980
:100C20006D1C0E988847396A824688470028F6D19D
:100C3000BAF1FF3F0AD024F4D064002E11DDBAF1DE
:100C40002B0F08D0BAF12D0F0BD102E0404611B0A6
:100C50008DE744F48064B9696D1C0E98884782461C
:100C6000761E6946600501D52D2000E02B208DF809
:100C7000000001F1010B0DF1200809E0B9696D1CBC
:100C80000E98884782460F9844F40074761E0560DB
:100C9000002E02DDBAF1300FF0D00B998A453ED11B
:100CA00044F0800406E00F99681CA9F1010944F49E
:100CB00000740860B9696D1C761E0E9888478246DC
:100CC0003028F0D02BE00B998A4505D1200603D4BB
:100CD00044F08004761E18E0504604F0A5FD08B3E9
:100CE0000DF11301761E44F400748B4508D2AAF16D
:100CF00030000BF8010B200607D5A9F1010003E035
:100D0000200602D409F101008146A00502D50F9901
:100D1000681C0860B9696D1C0E9888478246002ED1
:100D2000D1DC53E0002E51DDBAF1650F02D0BAF1EB
:100D3000450F4BD1A00549D5B9696D1C24F4407409
:100D4000761E0E9888478246002E0CDD2B2804D094
:100D5000BAF12D0F07D144F48074B9696D1C0E9857
:100D600088478246761EE00501D52D2100E02B2123
:100D700008F8011BCDF82C8021E00DF12901761E29
:100D800044F4007488450CD2AAF1300010F0FF0042
:100D900088F8000002D10B99884509D908F10108AB
:100DA00006E0E00501D5244801E042F20F708146DB
:100DB000B9696D1C0E98884782460F980560002E11
:100DC00004DD504604F030FD0028D6D1F9690E98B4
:100DD0008847FF208BF8000088F80000002006906C
:100DE00007904B466A4608A906A8FFF777FEA005BC
:100DF00002D46FF001002AE714F0240F0AD0E007B4
:100E000014D1DDE906123868031D3B600068C0E9B3
:100E100000120BE0DDE90601FFF768FC0146E00780
:100E200004D13868021D3A600068016028460EE768
:100E3000000014400000F03FF1D8FFFF426842B1CB
:100E4000016811F8013B23B1521EC0E90012184697
:100E500070470121C160881E704742685AB1C3685B
:100E6000016843B983688B4205D0491E521CC0E912
:100E70000012002070474FF0FF3070472DE9F74F08
:100E80004FF00009009C1546CA4614F8010B3028A3
:100E900001D0ADB115E014F8010B4FF0010978282D
:100EA00003D0582801D04DB10BE00DB1102D08D161
:100EB0004FF00009102514F8010B02E0082500E0AE
:100EC0000A2500273E46B8464FEAE57B16E0A5FB1B
:100ED00007230BFB073105FB080005FB0616030C77
:100EE000D71846F100061FFA80F8381E4FF00109A6
:100EF00076F5803000D3CA4614F8010B294600F07D
:100F00007CF80028E3DA019838B1B9F1000F01D07C
:100F1000641E00E0009C01980460BAF1000F08D044
:100F200003F072F802210160C81E014603B0BDE85B
:100F3000F08F310441EA174148EA0740F6E72DE90E
:100F4000F04D00231A461B1A8A4103DB002001469C
:100F5000BDE8F08DC1F30A52C1F3130141F48015CD
:100F60004FF0000BD10702D100186D41521E00272F
:100F7000044640F2FF11384601EB620A3E468046C5
:100F8000024600204FF48011FFF70CFCC21971419A
:100F9000BB1846EB0100B4EB030C75EB000C04D35B
:100FA000E41A65EB000517460E46241908F1010006
:100FB0006D4180463428E3DDF91946EB0600091B34
:100FC000A84103D24FF0FF32134601E0002213463E
:100FD0001BEB070046EB0A51BDE8F04DFFF7D1BC13
:100FE0000EB540F2334102910021CDE900110A46CD
:100FF0000B46FFF7D5FC03B000BD3A2800D23038CD
:1010000020F02002412A01D3A2F13700884201D307
:101010004FF0FF3070470EB540F23342029200228B
:10102000CDE900221346FFF7BBFC03B000BD002151
:10103000C1600161016041608160C1610162416222
:101040008162704700B50B48FFF7F1FF0A48FFF7D0
:10105000EEFF0A48FFF7EBFF0948FFF7E8FF0948F2
:10106000FFF7E5FF0848FFF7E2FF0848FFF7DFFF5B
:1010700000BD00005806002018070020D8070020F7
:101080009808002058090020D80A0020980B00205A
:1010900008B500201F498861082302220C214FF463
:1010A000B47001F003FE4FF4A06001F029F9B42000
:1010B00005F036FE07F002FB07F03CFB00F0A4FE53
:1010C00006F098FC06F05CFC002005230322114684
:1010D000009000F0AFF800F037FE01F069F805F07D
:1010E0002FF907F083F805F025FF01F0CDFE42F25D
:1010F0002731092002F00AF802F0F6FEFFF7A2FFFE
:1011000007F046FF02F0F8F9034801F053F905F043
:10111000C1FF08BDC80800203C03002070EE601A23
:101120009FED392A41EE021A3848C0ED001A70EEE0
:10113000201A9FED352A41EE421AC0ED041A70EED6
:10114000201A9FED312A41EE021AC0ED081A70EE06
:10115000601A9FED2D2A41EE421AC0ED0C1AD0ED17
:10116000001A9FED2B2A61EE821AC0ED011AD0ED14
:10117000041A9FED272A61EE821AC0ED051AD0ED00
:10118000081A9FED232A61EE821AC0ED091AD0EDEC
:101190000C1A9FED1F2A61EE821AC0ED0D1AD0EDD8
:1011A000011AB3EE032A61EE821AFDEEE11A11EE86
:1011B000900A4042174988621448D0ED051AB3EEF0
:1011C000032A61EE821AFDEEE11A1348C0ED0A1AF5
:1011D0000E48D0ED091AB3EE032A61EE821AFDEE35
:1011E000E11A11EE900A40420C4988620748D0ED9E
:1011F0000D1AB3EE032A61EE821AFDEEE11A0848D9
:10120000C0ED0A1A70470000000070424C03002035
:101210004276F43FC80500208806002048070020D9
:101220000808002010B501F09FFF01F0B5FF10BDC8
:1012300000BFFEE72DE9F0418AB004460D46164690
:101240001F46DDF840800121082001F063F80121EC
:10125000480601F06FF80320089002208DF8240062
:1012600000208DF8260002208DF8250001208DF841
:10127000270008A92D4800F065FE092200212B480F
:1012800000F0A8FE09220121284800F0A3FE00205A
:101290008DF81A0001208DF81B0000208DF81C002D
:1012A0008DF81D008DF81E008DF81F008DF816803A
:1012B0008DF817408DF818608DF81950ADF814703E
:1012C00005A91B4800F02FFA00208DF80E008DF8BC
:1012D0000F0001208DF810000020ADF80400ADF8DB
:1012E0000600ADF80800ADF80A00ADF80C000120CA
:1012F0008DF8110001A800F089F9012202210C48A3
:1013000000F008FA14208DF8000001208DF801008B
:1013100000208DF8020001208DF80300684600F0DF
:10132000B3FF00200AB0BDE8F0810000000C0240CD
:101330000064004070B586B001AA0021554800F055
:101340007CFA9DF81000544908709DF80F00487011
:10135000084604889DF8120008709DF81100487036
:101360000846B0F900509DF814109DF8130041EAAA
:10137000002006B20198A0F500700B287ED2DFE8AD
:1013800000F037060D141B22858585293000334671
:101390002A462146414807F0D5F978E033462A46E7
:1013A00021463F4807F0CEF971E033462A462146F0
:1013B0003C4807F0C7F96AE033462A4621463A48D6
:1013C00007F0C0F963E033462A462146374807F064
:1013D00033FA5CE033462A462146354807F0B2F935
:1013E00055E033462A462146324807F0ABF94EE035
:1013F0009DF810009DF80F1040EA01202E4908606A
:101400009DF812109DF8110041EA00202A49486019
:101410009DF814109DF8130041EA002026498860C9
:101420009DF816109DF8150041EA00202249C86079
:1014300008460068B0F5804F04DD08460068A0F556
:10144000803008601C484068B0F5804F05DD1A48C0
:101450004068A0F580301849486017488068B0F5AA
:10146000804F05DD14488068A0F5803012498860FF
:101470001148C068B0F5804F07DD00E006E00E4877
:10148000C068A0F580300C49C86000E000BF00BF14
:1014900006B070BD006400401E000020C80500209A
:1014A000880600204807002008080020C8080020FF
:1014B000480A0020080B0020480D002070B586B0B7
:1014C000064600244FF400700190002002908DF831
:1014D0000C008DF80D0008208DF80E0000BF05E00F
:1014E000315D0DF10F000155601C84B2082CF7DB53
:1014F00001A90D4800F019FA0546002401E0601C1E
:1015000084B22946084800F0A3FA18B940F6FF70E3
:101510008442F4DB40F6FF70844202DB012006B017
:1015200070BD0020FBE700000064004070B586B08D
:101530000646002440F2FF200190002002908DF822
:101540000C008DF80D0008208DF80E0000BF05E09E
:10155000315D0DF10F000155601C84B2082CF7DBE2
:1015600001A90D4800F0E1F90546002401E0601CE6
:1015700084B22946084800F06BFA18B940F6FF70AB
:101580008442F4DB40F6FF70844202DB012006B0A7
:1015900070BD0020FBE700000064004070B586B01D
:1015A0000646002440F2FF100190002002908DF8C2
:1015B0000C008DF80D0008208DF80E0000BF05E02E
:1015C000315D0DF10F000155601C84B2082CF7DB72
:1015D00001A90D4800F0A9F90546002401E0601CAE
:1015E00084B22946084800F033FA18B940F6FF7073
:1015F0008442F4DB40F6FF70844202DB012006B037
:1016000070BD0020FBE700000064004010B5002121
:10161000837A012202FA03F13D4A126842F0010284
:101620003B4B1A603A4A1C3212688A43384B1C33CF
:101630001A60027BCAB9364A0C3212688A43344BAC
:101640000C331A604288C38842EA0343304A40326E
:10165000847A42F834300288838842EA03432C4A71
:101660004032847A02EBC4025360027B012A19D112
:10167000274A0C3212680A43254B0C331A60428801
:10168000038842EA0343224A4032847A42F83430E3
:10169000C288838842EA03431D4A4032847A02EBBF
:1016A000C4025360C27A3AB9194A121D12688A43B9
:1016B000174B1B1D1A6006E0154A121D12680A43DB
:1016C000134B1B1D1A60028932B9114A1432126879
:1016D0008A430F4B14331A600289012A06D10C4A3F
:1016E000143212680A430A4B14331A60427B012AEF
:1016F00006D1074A1C3212680A43054B1C331A6094
:10170000034A126822F00102014B1A6010BD00006A
:10171000006600401AB143690B43436102E043692C
:101720008B434361704730B50246002000231468A4
:1017300024F002041460146844F00104146000E012
:101740005B1C546804F001041CB94FF6FF74A342FB
:10175000F6D1546804F001040CB900206CE08C79D7
:10176000012C04D1146844F08004146003E0146870
:1017700024F080041460CC79012C04D1146844F066
:101780004004146003E0146824F0400414600C7AF0
:10179000012C04D1146844F02004146003E01468A0
:1017A00024F0200414604C7A012C04D1146844F015
:1017B0001004146003E0146824F0100414608C7AA0
:1017C000012C04D1146844F00804146003E0146888
:1017D00024F008041460CC7A012C04D1146844F07D
:1017E0000404146003E0146824F0040414608C788A
:1017F000A407CD7844EA05640D7944EA05444D799F
:1018000044EA05540D886D1E2C43D461146824F0FD
:1018100001041460002300E05B1C546804F0010420
:101820001CB14FF6FF74A342F6D1546804F00104D2
:101830000CB1002000E0012030BD10B500F5D873D8
:1018400003EB01131B6803F004031372137A53B9FB
:1018500000F5D87303EB01131B6840F2FF7404EA30
:101860005353136009E000F5D87303EB01131B68B1
:101870006FF0604404EAD303536000F5D87303EBC0
:1018800001131B6803F00203537200F5D87303EBD6
:1018900001135B6803F00F03937200F5D87303EB39
:1018A00001135B681B0AD37400F5D87303EB0113B3
:1018B0009B68D37200F5D87303EB01139B681C0A75
:1018C000147300F5D87303EB01139B681C0C54735D
:1018D00000F5D87303EB01139B681B0E937300F59F
:1018E000D87303EB0113DB68D37300F5D87303EBF4
:1018F0000113DB681C0A147400F5D87303EB0113A1
:10190000DB681C0C547400F5D87303EB0113DB681F
:101910001B0E937421B9C36843F02003C36003E036
:10192000036943F02003036110BD10B50246002097
:10193000936803F08063B3F1806F00D110E0936887
:1019400003F00063B3F1006F01D1012008E0936858
:1019500003F08053B3F1805F01D1022000E0042046
:10196000042874D002F5C07303EB00131B6803F066
:10197000010402F5C07303EB00131C600B7A7BB902
:101980004B7A0C8843EA445302F5C07404EB00140C
:101990002468234302F5C07404EB0014236010E0B4
:1019A0000B7A4C6843EAC4034C7A234302F5C074B3
:1019B00004EB00142468234302F5C07404EB001404
:1019C00023608B7A03F00F038B7202F5C07303EB75
:1019D00000135B6823F00F0402F5C07303EB0013E0
:1019E0005C6002F5C07303EB00135B688C7A2343E1
:1019F00002F5C07404EB001463608B7B1C064B7B08
:101A000044EA03440B7B44EA0323CC7A234302F5E4
:101A1000C07404EB0014A3608B7C1C064B7C44EA6E
:101A200003440B7C44EA0323CC7B234302F5C074BC
:101A300004EB0014E36002F5C07303EB00131B68B2
:101A400043F0010402F5C07303EB00131C6010BDEA
:101A500010B50246002321B1012907D002290FD178
:101A600009E090681D4C00EA04030BE090681C4CF0
:101A700000EA040306E090681A4C00EA040301E05F
:101A8000002300BF00BF184C181BA34216D007DC70
:101A900083B16FF08060184470B1022818D111E052
:101AA000B0F5007F10D0114C204448B1B0F5003F94
:101AB0000ED10BE002230DE000230BE0002309E030
:101AC000002307E0012305E0012303E0012301E0F7
:101AD000002300BF00BFD8B210BD00000300000407
:101AE0000003000800000310000100080001FFF7D8
:101AF00021B1026842F00102026003E0026822F0B4
:101B00000102026070470000016821F001010160DC
:101B10000021016041608160C1600161212141615A
:101B20004A49884204D13D21484A103A91608CE0EC
:101B300046491831884205D14FF47461434A103A3E
:101B4000916082E041493031884205D14FF47411EF
:101B50003E4A103A916078E03C494831884205D1CC
:101B60004FF07461394A103A91606EE03749603144
:101B7000884204D13649354A103AD16065E033498C
:101B80007831884204D13349304A103AD1605CE060
:101B90002E499031884204D12F492C4A103AD16005
:101BA00053E02A49A831884205D14FF03D51274AD8
:101BB000103AD16049E02949884204D13D21274AA1
:101BC000083A116041E025491831884205D14FF4A7
:101BD0007461224A083A116037E020493031884266
:101BE00005D14FF474111D4A083A11602DE01B49CC
:101BF0004831884205D14FF07461184A083A1160A3
:101C000023E016496031884204D11149134A121F5A
:101C100011601AE011497831884204D10D490F4A08
:101C2000121F116011E00D499031884204D10A4918
:101C30000A4A121F116008E00849A831884204D1FD
:101C40004FF03D51054A121F11607047106002406D
:101C50003D000020400F002000003D2010640240A5
:101C600021B1026842F48022026003E0026822F49B
:101C700080220260704722B1036843F400230360AE
:101C800003E0036823F40023036001617047014609
:101C9000486880B27047014600200A6802F40022BA
:101CA0000AB1012000E000207047000010B50022BA
:101CB0000268134B1A40CC680B6823434C692343DA
:101CC0008C692343CC6923430C6A23434C6A234326
:101CD0008C6A23434C6B23438C6B23431A4302606F
:101CE000426922F00702D1E90B3423431A434261CF
:101CF0000B6943604B6883608B68C36010BD000054
:101D00003F801CF07047000010B505F051FE78B11F
:101D10000B48006801280BD10A48006808B9012067
:101D200000E000200749086000200549086005E040
:101D300005F03EFE10B901200149086010BD000009
:101D4000D80000209402434200B587B0012108204A
:101D500000F0E0FA0121480400F0ECFA00208DF8D0
:101D60001A0001208DF81B0002208DF819008DF853
:101D700018002020059005A9214800F0E3F8022072
:101D80008DF818004020059005A91D4800F0DAF8EC
:101D9000072206211A4800F01DF9072205211848DC
:101DA00000F018F94FF4E13001900020ADF8080080
:101DB000ADF80A00ADF80C00ADF810000C20ADF83D
:101DC0000E0001A90F4802F007F801210D4801F0AB
:101DD00026FF012240F225510A4801F0D7FF2620B4
:101DE0008DF8000000208DF8010001208DF8020020
:101DF0008DF80300684600F047FA07B000BD000008
:101E0000000C02400044004000B58FB0012147485B
:101E100000F080FA0121102000F0ACFA07221146F0
:101E2000434800F0D7F880200D9002208DF838004C
:101E300000208DF83A0003208DF8390001208DF83C
:101E40003B000DA93A4800F07DF83A4801F0FCFE4D
:101E5000394809900020ADF82800ADF82A004FF469
:101E60008060ADF82C000420ADF82E000020ADF805
:101E7000300009A92F4801F0AFFF01212D4801F0E2
:101E8000CEFE012240212B4801F0D5FE25208DF801
:101E9000380001208DF8390000208DF83A0001202B
:101EA0008DF83B000EA800F0EFF92448FFF72CFE58
:101EB0004FF0006000901F48001D019020480290E4
:101EC0000020039012200490002005904FF48060C1
:101ED00006900020079008904FF4807009904FF40E
:101EE00040300A9000200B900C900D900E90002234
:101EF00013491248FFF7BFFE01211048FFF7B0FE5B
:101F000069460E48FFF7D2FE012240F224410948FB
:101F100001F03CFF012240F22551064801F036FF56
:101F200001210648FFF7E4FD0FB000BD02004000AC
:101F30000004024000100140A086010088640240B5
:101F4000720D0020F0B50A4600210023002400BFD6
:101F50003DE0012505FA01F3156805EA03049C42FA
:101F600034D105684F000326BE40B543056015799E
:101F70004E00B5400668354305601579012D02D045
:101F80001579022D16D185684F000326BE40B54352
:101F9000856055794E00B540866835438560456853
:101FA00001268E40B5434560456896798E40B6B2AD
:101FB00035434560C5684F000326BE40B543C56044
:101FC000D5794E00B540C6683543C560491C102917
:101FD000BFD3F0BDF0B5002300244D07ED0E02FA8B
:101FE00005F3CE1000F1200555F826504E07F70EE8
:101FF0000F26BE40B543CF1000F1200646F827500B
:10200000CE1000F1200555F8265045EA0304CE1005
:1020100000F1200545F82640F0BD4183704701835B
:1020200070470000454890ED090AB1EE400AF3EE12
:10203000030A80EE201A424880ED031A414890EDD1
:10204000090AF3EE030A80EE201A3D4880ED071AD4
:102050003D4890ED090AF3EE030A80EE201A384855
:1020600080ED0B1A394890ED090AB1EE400AF3EE03
:10207000030A80EE201A324880ED0F1A90ED030A11
:10208000DFED330A20EE200A80ED020A90ED070A08
:10209000DFED2F0A20EE200A80ED060A90ED0B0AF4
:1020A000DFED2B0A20EE200A80ED0A0A90ED0F0AE0
:1020B000DFED270A20EE200A80ED0E0A90ED020ADD
:1020C000D0ED060A30EE600AD0ED0A0A30EE600A62
:1020D000D0ED0E0A30EE200ADFED1E0A80EE201A47
:1020E00080ED151A90ED020AB1EE400AD0ED060A15
:1020F00030EE200AD0ED0A0A30EE600AD0ED0E0A6A
:1021000030EE200AF1EE000A80EE201A80ED131A5C
:1021100090ED020AD0ED060A30EE200AD0ED0A0A50
:1021200030EE200AD0ED0E0A30EE200AF1EE000A61
:1021300080EE201A80ED141A70470000C8050020B8
:102140004C030020880600204807002008080020D3
:10215000960A063F000070430E4890ED040ADFED3A
:102160000E0A30EE600ADFED0D0A20EE200A0C4860
:1021700080ED250A0B4890ED040ADFED0B0A30EEE6
:10218000600ADFED060A20EE200A054880ED210AEC
:1021900070470000480A0020008009450000343DD7
:1021A0004C030020080B00200020CB4500BFFEE7B9
:1021B00000B587B00121102000F0ACF8012188079C
:1021C00000F0B8F800208DF81A0001208DF81B00EF
:1021D00002208DF819008DF81800C001059005A99E
:1021E0002148FFF7AFFE02208DF8180080200590EF
:1021F00005A91D48FFF7A6FE082207211A48FFF788
:10220000E9FE082211461848FFF7E4FE4FF4E130DA
:1022100001900020ADF80800ADF80A00ADF80C0000
:10222000ADF810000C20ADF80E0001A90F4801F028
:10223000D3FD01210D4801F0F2FC012240F22551AD
:102240000A4801F0A3FD52208DF8000000208DF80F
:1022500001008DF8020001208DF80300684600F0AF
:1022600013F807B000BD00000010024000780040E5
:102270004A0A52020243014B1A60704708ED00E01F
:1022800000BFFEE77047000070B5002100230F2259
:10229000C4781CB3174C246804F4E064C4F5E0640B
:1022A000C4F30721C1F10404E3B20A4144789C401D
:1022B000E1B28478144021430C07210E0E4C0578BE
:1022C0006155047804F01F050124AC4005786D11B8
:1022D000AD0005F1E025C5F8004109E0047804F0FF
:1022E0001F050124AC40054D0678761145F82640BF
:1022F00070BD00000CED00E000E400E080E100E0D3
:1023000002490143024A1160704700000000FA05CB
:102310000CED00E029B1064A12680243044B1A6032
:1023200004E0034A12688243014B1A6070470000C0
:102330003038024029B1064A12680243044B1A6041
:1023400004E0034A12688243014B1A6070470000A0
:102350004038024029B1064A12680243044B1A6011
:1023600004E0034A12688243014B1A607047000080
:102370002038024029B1064A12680243044B1A6011
:1023800004E0034A12688243014B1A607047000060
:102390004438024029B1064A12680243044B1A60CD
:1023A00004E0034A12688243014B1A607047000040
:1023B00024380240F0B50021002200240225002626
:1023C0000223324F3F6807F00C0121B1042905D0E8
:1023D000082937D105E02E4F076036E02D4F076002
:1023E00033E02A4F3F1F3F68C7F38056274F3F1FF8
:1023F0003F6807F03F036EB1264FB7FBF3F7DFF8F6
:102400008CC0ACF1040CDCF800C0CCF3881C07FBDA
:102410000CF40CE01E4FB7FBF3F7DFF870C0ACF123
:10242000040CDCF800C0CCF3881C07FB0CF4174F3D
:102430003F1F3F68C7F301477F1C7D00B4FBF5F7E2
:10244000076002E0124F076000BF00BF0F4F3F68F8
:1024500007F0F0010909104F7A5C0768D740476020
:102460000A4F3F6807F4E051890A0B4F7A5C4768CE
:10247000D7408760054F3F6807F46041490B064F1E
:102480007A5C4768D740C760F0BD0000083802405A
:102490000024F400001BB7000000002000B97047C2
:1024A0000178427841EA0221C1F30A01144A1180FD
:1024B0004178C910827841EA4211C1F30A01104AF9
:1024C000518081788911C27841EA8201027941EA1A
:1024D0008221C1F30A010A4A9180017949104279A7
:1024E00041EAC211C1F30A01054AD18041790911BB
:1024F000890811724179C1F30111517200BFCEE711
:10250000680D002010B52DED0C8BFA48007A0328D9
:1025100026D1F849488840F294634FF4B6724FF4DC
:10252000806104F0E9F9F44880ED000AF149088877
:1025300040F294634FF4B6724FF4806104F0DCF91A
:10254000EE4880ED000AEB49888840F294634FF42E
:10255000B6724FF4806104F049FAE94880ED000A50
:10256000E448007A01283ED1E6480078042802D0E9
:10257000052836D11AE0DF49C88840F294634FF449
:10258000B6724FF4806103F09BFFDF4880ED000AD4
:10259000D849088840F294634FF4B6724FF48061D2
:1025A00004F0A0F8D94880ED000A1BE0D149C888A2
:1025B00040F294634FF4B6724FF4806103F080FFF1
:1025C000D34880ED200ACB49088840F294634FF449
:1025D000B6724FF4806104F085F8CD4880ED240A8E
:1025E00000E000BF00BFC348007A02287DD1C14986
:1025F000488840F294634FF4B6724FF4806104F05F
:102600007BF9BD4880ED000ABA49088840F294631E
:102610004FF4B6724FF4806104F06EF9B74880ED64
:10262000000AB449888840F294634FF4B6724FF4BC
:10263000806104F0DBF9B24880ED000AB448D0EDC7
:10264000150AB44890ED000A9FEDB31A00EE810A16
:1026500080ED000A07F0CAFAAE4880ED000A006873
:10266000FEF700F841EC1D0BB0EE4D0AF0EE6D0ADE
:1026700002F05AFBB0EE40BAF0EE60BA9F48006834
:10268000FDF7F0FF41EC1C0B53EC1B2BFDF7C3FED9
:1026900041EC190B9F480068FDF7E4FF41EC1D0B6E
:1026A000B0EE4D0AF0EE6D0A01F0B2FCB0EE40BAA9
:1026B000F0EE60BA90480068FDF7D4FF41EC1C0BC7
:1026C00053EC1B2BFDF7A7FE41EC1A0B53EC192B17
:1026D000FDF7FAFD41EC180BFEF708F88F4908608A
:1026E0008C480068FDF7BEFF00E058E041EC1D0B90
:1026F000B0EE4D0AF0EE6D0A02F016FBB0EE40BAF5
:10270000F0EE60BA7C480068FDF7ACFF41EC1C0BB2
:1027100053EC1B2BFDF77FFE41EC190B7D48006845
:10272000FDF7A0FF41EC1D0BB0EE4D0AF0EE6D0A77
:1027300001F06EFCB0EE40BAF0EE60BA6F4800688F
:10274000FDF790FF41EC1C0B53EC1B2BFDF763FED8
:1027500041EC1A0B53EC192BFDF757FE41EC180B0B
:10276000FDF7C4FF6E4908606C4890ED000A6248AE
:1027700080ED000A084690ED000A604880ED000AEE
:1027800007F03AFAB0EE408A614890ED1E0AF0EE8A
:10279000400AB0EE480A04F0B5FC06F0EBFA5548E2
:1027A000407A012804D0022857D003287ED1D5E0F2
:1027B0009FED5C0A5C4880ED000A5C480068401CA4
:1027C0005A49086008460068642806DD9FED580AEB
:1027D000584880ED000A01200860574890ED090A2A
:1027E000F3EE040AB4EEE00AF1EE10FA34D290ED02
:1027F000090AFBEE040AB4EEE00AF1EE10FA2BDD52
:102800004E480068401C4D49086008460068FDF7C6
:10281000F9FE41EC1A0BB0EE4A1AF0EE6A1A9FED7F
:10282000480B01F059FCB0EE409AF0EE609A9FED33
:10283000460B53EC102B51EC190BFDF7ECFD41EC62
:10284000180BFDF753FF3B4908603C4800686428BB
:1028500002DD0120394908608CE09FED3D0A3548D2
:1028600080ED000A9FED3B0A2F4880ED000A3248B8
:1028700090ED090AF3EE040AB4EEE00AF1EE10FA64
:1028800036D290ED090AFBEE040AB4EEE00AF1EE4E
:1028900010FA2DDD30480068401C2F4908600846BA
:1028A0000068FDF7AFFE41EC1A0B00E061E0B0EE0E
:1028B0004A1AF0EE6A1A9FED220B01F00DFCB0EE01
:1028C000409AF0EE609A9FED200B53EC102B51ECE8
:1028D000190BFDF7A0FD41EC180BFDF707FF15499B
:1028E00008601D480068642802DD01201A4908605C
:1028F00040E00000680D0020A8000020AC0000208F
:10290000B00000205D000020DC000020E00000207E
:102910004C030020B80000206F12833BBC00002055
:10292000C00000200080BB44C4000020CC00002078
:102930000000C842B4000020C8080020D0000020D9
:10294000000000000000F0BF00000000000049404F
:10295000000048C200007A44D40000209FED1F0A06
:102960001F4880ED000A1FED050A1E4880ED000A91
:1029700000E000BF00BF1C48007801280BD11B48B5
:1029800090ED000A80ED000A194890ED000AB1EEC2
:10299000400A80ED000A00BF164890ED000A164874
:1029A00080ED100A114890ED000A134880ED110ADD
:1029B0000F4890ED000A104880ED120A084890ED8B
:1029C000000A0D4880ED160A064890ED000A0A48F4
:1029D00080ED1A0A00BFBDEC0C8B10BD000000009A
:1029E000B4000020C40000205F000020AC000020E4
:1029F000B0000020A80000204C03002010B55D4866
:102A0000D0ED121AB0EE611AD0ED111AF0EE610A93
:102A1000D0ED101AB0EE610A04F062F85548D0ED1E
:102A2000180AB0EE600A06F037FC53480078052813
:102A30000AD1504890ED201AF0EE410A90ED241A88
:102A4000B0EE410A04F02CFB4C48D0ED051AB0EE74
:102A5000611AD0ED041AF0EE610AD0ED031AB0EE5F
:102A6000610A06F03DFD454890ED143AF0EE432A28
:102A700090ED133AB0EE432A90ED123AF0EE431A7D
:102A800090ED0E3AB0EE431A90ED0D3AF0EE430A97
:102A900090ED0C3AB0EE430A03F070FA374890ED2F
:102AA000173AF0EE432A90ED163AB0EE432A90ED35
:102AB000153AF0EE431A90ED113AB0EE431A90ED4C
:102AC000103AF0EE430A90ED0F3AB0EE430A06F0EA
:102AD00067FD2A48D0ED081AB0EE611AD0ED071A4A
:102AE000F0EE610AD0ED061AB0EE610A03F0EAFBDF
:102AF0002248D0ED0B1AB0EE611AD0ED0A1AF0EEB2
:102B0000610AD0ED091AB0EE610A07F047F806F045
:102B1000EBF806F055F906F02DF91748007804286F
:102B200013D1174890ED000ABCEEC00A10EE101A3F
:102B3000144800F0D8FC144890ED000ABCEEC00A1E
:102B400010EE101A0F4800F0D0FC0A4991ED1A0A55
:102B5000BCEEC00A10EE101A88B204F0D7F905498D
:102B600091ED1A0ABCEEC00A10EE101A88B204F0F9
:102B7000D7F910BD4C0300205D0000203404002074
:102B8000DC00002000000140E00000200CB5002027
:102B9000019000904148006840F480303F4908604F
:102BA00000BF3E48006800F4003000900198401CCF
:102BB0000190009818B90198B0F5A04FF1D13748AD
:102BC000006800F4003010B10120009001E0002006
:102BD00000900098012860D130484030006840F0F3
:102BE00080502E49403108602D48006840F4404034
:102BF0002B490860294808300068284908310860D6
:102C00000846006840F4004008600846006840F448
:102C1000A05008602348091F0860081F006840F0A2
:102C20008070091F086000BF1C48006800F0007039
:102C30000028F9D01A48006840F48030184908602C
:102C400000BF1748406800F480300028F9D01448CD
:102C5000006840F400301249086000BF1048406826
:102C600000F400300028F9D040F205700E490860E9
:102C70000A480830006820F003000849083108605D
:102C80000846006840F00200086000BF03480830B2
:102C9000006800F00C000828F8D10CBD0038024094
:102CA000007000400C5A4007003C0240F0B504465A
:102CB0000D4616461F461448006840F001001249B0
:102CC000086000201049083108600F4800680F496B
:102CD00008400D4908600E48091D0860081F00687B
:102CE00020F48020091F0860002007490C3108608B
:102CF0003B4632462946204600F00CF800210846A3
:102D0000FFF7B6FAF0BD000000380240FFFFF6FE04
:102D100010300024F0B504460D46002100203D4E41
:102D2000366846F480363B4F3E6001E04E1CB1B23F
:102D3000384E366806F400361EB941F6FF76B142C9
:102D4000F4DB41F6FF76B14201D1012060E0314E63
:102D50004036366846F080562E4F40373E602E4E45
:102D6000366846F440462C4F3E602A4E0836366898
:102D700046F41446274F08373E60264E366826F044
:102D80008076244F3E6045EA84160127C7EB520740
:102D900046EA074646EA036646F480061D4F3F1D95
:102DA0003E603E1F366846F080763F1F3E6000BFA3
:102DB000184E366806F00076002EF9D0174E3668A9
:102DC00046F48076154F3E603E46366846F40076FF
:102DD0003E603E46366846F480663E603E46366853
:102DE00046F005063E600B4E0836366826F00306B0
:102DF000084F08373E603E46366846F002063E60A1
:102E000000BF044E0836366806F00C06082EF8D1CE
:102E1000F0BD00000038024000700040003C02405D
:102E200010B51548006840F4700013490860134855
:102E3000006840F001001149086000200F49083186
:102E400008600E4800680E4908400C4908600D48AB
:102E5000091D0860081F006820F48020091F086011
:102E6000002006490C310860FFF790FE4FF000602B
:102E700001498039086010BD88ED00E0003802404B
:102E8000FFFFF6FE1030002400B58BB0012108468C
:102E9000FFF740FA01210846FFF76CFA01220821EA
:102EA0003948FFF797F84FF48070099002208DF8A9
:102EB000280003208DF8290000208DF82A00012029
:102EC0008DF82B0009A93048FFF73CF801220921B1
:102ED0002D48FFF77FF84FF40070099002208DF81D
:102EE000280003208DF8290000208DF82A000120F9
:102EF0008DF82B0009A92448FFF724F844F61F6039
:102F00000790B320ADF818000020ADF82000ADF810
:102F10001A008DF8220006A91C4800F043FB60202F
:102F2000ADF804000120ADF806000420ADF808005B
:102F30000020ADF810000820ADF812000020ADF818
:102F40001400ADF8160040F2DC50039001A90F48C0
:102F500000F07EF908210D4800F0B8F901A90B48EE
:102F600000F0BEF90821094800F00CFA01210748D9
:102F700000F02AF90121054800F035F90121034844
:102F800000F03DF90BB000BD000002400000014020
:102F900010B50121514800F041F901287CD1504879
:102FA0000068401C4E4908604E480078012801D155
:102FB000FFF7A8FA4B480078002849D14A48007822
:102FC000012804D105F0A6FC0020474908704748B5
:102FD0000078012804D105F035FD00204349087030
:102FE00043480078012806D105F006FE05F0F0FC04
:102FF00000203F4908703F480078012806D105F0BD
:103000006BFD03F007FA00203A4908703A4800784F
:10301000012802D10020384908703848007801287A
:1030200004D105F059FD0020344908703448007877
:10303000012804D105F01AFE0020314908703148FA
:103040000078012804D105F091FD00202D49087079
:1030500023480068072190FBF1F201FB120018B928
:1030600004F018F8FFF7CAFC1D4800681F2190FB08
:10307000F1F201FB120008B9FEF746FE184800689D
:103080004FF4FA7190FBF1F201FB120058B91E489F
:10309000006810B9012001E01AE000201A49086018
:1030A00000200F4908600E490868C11700EB9171B4
:1030B0008910A0EB810119B9FEF7B4FFFFF74CF8B6
:1030C00007480068B0F57A7F02DB012004490860F8
:1030D0000121024800F084F810BD00000004004007
:1030E000100000205F0000201500002016000020C6
:1030F0001700002018000020190000201A000020EE
:103100001B0000201C000020880243427FB50546BA
:103110000C4601210220FFF70DF90295ADF804409D
:103120000020ADF80600ADF80C0001A90D4800F034
:1031300039FA012211460B4800F081F801210948B3
:1031400000F051F81D208DF8000002208DF80100DC
:1031500001208DF802008DF803006846FFF794F80F
:103160007FBD0000000400400EB501211020FFF7D4
:10317000E1F842F22730019040F2E730ADF800006C
:103180006946044800F00EFA0121024800F02BF8CD
:103190000EBD0000001000400EB501212020FFF7F9
:1031A000C9F842F22730019040F2E730ADF8000054
:1031B0006946044800F0F6F90121024800F013F8CE
:1031C0000EBD00000014004021B1028842F08002D0
:1031D000028004E002884FF67F731A400280704735
:1031E000CA430282704721B1028842F00102028084
:1031F00004E002884FF6FE731A400280704731B136
:10320000B0F8442042F40042A0F8442005E0B0F8B1
:103210004420C2F30E02A0F84420704730B50246A5
:10322000002000230024158A05EA0103958905EA98
:10323000010413B10CB1012000E0002030BD1AB12F
:1032400083890B43838102E083898B4383817047A9
:1032500070B5002400220023058C4FF6FE76354021
:103260000584028C8388048B4FF68F752C40B51E25
:103270002C400D882C43751E2A408D892A434D8889
:103280002A43104DA84202D00F4DA84213D14FF649
:10329000F7752A40CD892A434FF6FB752A408D8861
:1032A0002A434FF6FF652B404FF6FF552B400D8A02
:1032B0002B434D8A2B43838004838D6845630284AE
:1032C00070BD000000000140000401400A460021DA
:1032D000018B4FF6F77319401143018370470000CB
:1032E00070B5002400220023058C4FF6EF763540A0
:1032F0000584028C8388048B48F6FF752C404FF6BA
:10330000FF452C400D884FF6FF7606EA05252C4335
:103310004FF6DF752A408D8906EA05152A434D8848
:1033200006EA05152A43154DA84202D0144DA842BD
:103330001DD14FF67F752A40CD894FF6FF7606EAFC
:1033400005152A434FF6BF752A408D8806EA0515F4
:103350002A434FF6FF352B404FF2FF752B400D8A65
:1033600006EA85052B434D8A06EA85052B438380B3
:1033700004838D688563028470BD000000000140F5
:10338000000401400A460021018B4FF2FF731940EF
:103390004FF6FF7303EA02231943018370470000CD
:1033A00070B5002400220023058C4FF6FF663540DF
:1033B0000584028C8388848B4FF68F752C404FF6E2
:1033C000FC752C400D882C434FF6FF552A408D8903
:1033D0004FF6FF7606EA05252A434D8806EA0525BD
:1033E0002A43154DA84202D0144DA8421DD14FF2D8
:1033F000FF752A40CD894FF6FF7606EA05252A4358
:103400004FF6FF352A408D8806EA05252A434EF6F9
:10341000FF752B404DF6FF752B400D8A06EA05150A
:103420002B434D8A06EA05152B43838084838D68E0
:10343000C563028470BD000000000140000401402B
:103440000A460021818B4FF6F7731940114381839F
:103450007047000070B5002200230024058C4EF652
:10346000FF7635400584038C8488828B48F6FF758F
:103470002A404FF6FF452A400D884FF6FF7606EAB0
:1034800005252A434DF6FF752B408D8906EA053543
:103490002B434D8806EA05352B430A4DA84202D03E
:1034A000094DA84208D14BF6FF752C400D8A4FF606
:1034B000FF7606EA85152C43848082838D68056437
:1034C000038470BD00000140000401400A46002151
:1034D000818B4FF2FF7319404FF6FF7303EA02230B
:1034E0001943818370474163704781637047C163AB
:1034F000704701647047000000B58BB00121084699
:10350000FEF718FF01210846FEF714FF01220221F1
:103510002348FEF75FFD0420099002208DF8280063
:1035200000208DF82A0002208DF8290000208DF857
:103530002B0009A91A48FEF705FD40F2CF7007904D
:1035400040F28330ADF818000020ADF82000ADF84F
:103550001A0006A94FF0804000F024F86020ADF872
:1035600004000120ADF8060000200390ADF8100023
:1035700001A94FF08040FFF713FF0821C806FFF7AD
:103580005FFF01218807FFF71FFE01218807FFF772
:1035900036FE01218807FFF726FE0BB000BD0000B4
:1035A0000000024000220288184B98420ED0184BAF
:1035B00098420BD0B0F1804F08D0164B984205D0FE
:1035C000154B984202D0154B984204D14FF68F7399
:1035D0001A404B881A43124B984207D0114B98421D
:1035E00004D04FF6FF431A400B891A4302804B6800
:1035F000C3620B880385054B984202D0044B984266
:1036000001D18B7A03860123838270470000014039
:10361000000401400004004000080040000C00408D
:10362000001000400014004010B540F224410F4843
:1036300000F082FBC8B10D4800880D4908600B48B6
:103640008088086000210B48FEF752FA0948FEF70F
:103650001EFBC0F1C80006490860C8210648FCF7F7
:10366000FEFD01210348FEF743FA10BD0050004063
:103670006000002010600240C404002010B540F239
:1036800025519B4800F058FB002817D0984800F0BF
:103690000DFCC4B22A2C12D196219648FCF7DFFD0E
:1036A0000020954908709548007840F00100934942
:1036B00008700846007800F0FD0008700CE13B2C13
:1036C0001DD100208C49087001208D4908708B485D
:1036D000007840F00200894908700846007800F040
:1036E000FE00087096218748FCF7B9FD814985489E
:1036F000FCF7DFFD96217F48FCF7B1FDECE03F2CA5
:103700001DD100207C49087001207F4908707B484A
:10371000007840F00200794908700846007800F00F
:10372000FE00087096217748FCF799FD71497548AD
:10373000FCF7BFFD96216F48FCF791FDCCE0212CF2
:103740001DD100206C4908700120704908706B4839
:10375000007840F00200694908700846007800F0DF
:10376000FE00087096216748FCF779FD61496548BD
:10377000FCF79FFD96215F48FCF771FDACE02E2C15
:103780001DD100205C4908700120614908705B4828
:10379000007840F00200594908700846007800F0AF
:1037A000FE00087096215748FCF759FD51495548CD
:1037B000FCF77FFD96214F48FCF751FD8CE03E2C35
:1037C0001DD100204C4908700120524908704B4817
:1037D000007840F00200494908700846007800F07F
:1037E000FE00087096214748FCF739FD41494548DD
:1037F000FCF75FFD96213F48FCF731FD6CE02B2C78
:103800001DD100203C4908700120434908703B4805
:10381000007840F00200394908700846007800F04E
:10382000FE00087096213748FCF719FD31493548EC
:10383000FCF73FFD96212F48FCF711FD4CE02D2CA5
:103840001DD100202C4908700120344908702B48F4
:10385000007840F00200294908700846007800F01E
:10386000FE00087096212748FCF7F9FC21492548FD
:10387000FCF71FFD96211F48FCF7F1FC2CE02F2CD4
:103880001DD100201C4908700120254908701B48E3
:10389000007840F00200194908700846007800F0EE
:1038A000FE00087096211748FCF7D9FC114915480D
:1038B000FCF7FFFC96210F48FCF7D1FC0CE00F4809
:1038C000007800F0010038B10B4801780078401C06
:1038D000094A10700748445440F22771044800F028
:1038E0002BFA4FF45871024800F08AF910BD00001D
:1038F0000078004014010020200000201400002067
:1039000015000020AA01002016000020170000204A
:1039100018000020190000201A0000201B000020C1
:103920001C00002010B540F22551254800F004FA93
:1039300050B140F22551224800F062F9002240F2D5
:1039400025511F4800F022FA40F224411C4800F0A3
:10395000F3F998B31A480088194880881948FEF787
:103960009AF9A8B900211748FEF7C2F812201549A4
:10397000091D0860081F006840F40020091F086046
:1039800001211048FEF7B4F80F48FEF787FD15E057
:1039900000210C48FEF7ACF812200A49091D086006
:1039A000081F006820F40020091F08600121054855
:1039B000FEF79EF804481238FEF770FD10BD0000B7
:1039C0000010014088640240840D002010B52DEDE8
:1039D000088B7D4800F06AFAC4B27C480178007810
:1039E000401C7A4A10707A4844540078552805D013
:1039F000002011460870BDEC088B10BD734800789C
:103A00000B2800DAF7E772484078502806D0512892
:103A10005BD052281AD053287ED100E0CEE06C490A
:103A200089796B4AD27941EA0220FCF7EBFD41EC3F
:103A3000190B9FED680B53EC102BFCF7ECFC41ECE1
:103A4000180BFCF753FE65490860B7E060498979B7
:103A50005F4AD27941EA022108B2FCF7D3FD41EC7A
:103A60001A0B9FED5F0B53EC102BFCF7D4FC41ECD1
:103A7000190B9FED5D0B53EC102BFCF7CCFC41ECCC
:103A8000180BFCF733FE5549886051490979504AB3
:103A9000527941EA022108B2FCF7B4FD41EC1A0B5D
:103AA0009FED4F0B53EC102BFCF7B5FC41EC190BC1
:103AB0009FED4D0B53EC102BFCF7ADFC41EC180BBC
:103AC000FCF714FE4549C86078E041498978404ACE
:103AD000D27841EA022108B2FCF794FD41EC1B0BBD
:103AE0009FED3F0B53EC102BFCF795FC41EC1A0BB0
:103AF0009FED3F0B53EC102BFCF78DFC41EC190BA9
:103B00009FED3D0B53EC102BFCF785FC41EC180BA3
:103B1000FCF7ECFD314900E04FE008612C490979E0
:103B20002B4A527941EA022108B2FCF76BFD41ECC5
:103B30001B0B9FED2B0B53EC102BFCF76CFC41EC9B
:103B40001A0B9FED2B0B53EC102BFCF764FC41EC94
:103B5000190B9FED290B53EC102BFCF75CFC41EC8F
:103B6000180BFCF7C3FD1D49486119498979184AAA
:103B7000D27941EA022108B2FCF744FD41EC1B0B6B
:103B80009FED170B53EC102BFCF745FC41EC1A0B87
:103B90009FED170B53EC102BFCF73DFC41EC190B80
:103BA0009FED150B53EC102BFCF735FC41EC180B7B
:103BB000FCF79CFD0949886100E000BF00BF0020C0
:103BC0000249087000BF16E70014014021000020E0
:103BD00040020020F11D4454FB21193F980D0020A4
:103BE000000000000000003F0000000000409F4077
:103BF00000000000000030409A999999999923405B
:103C000010B50022002340F66A14A14200D100BF83
:103C10000A1201249440A3B2DC43048010BD21B1F8
:103C2000828942F40052828104E082894DF6FF735A
:103C30001A40828170471AB1838A0B43838202E063
:103C4000838A8B438382704710B50446324884428E
:103C500008D101211020FEF79DFB00211020FEF766
:103C600099FB57E02D48844209D101214804FEF711
:103C700071FB00214FF40030FEF76CFB4AE028484E
:103C8000844209D101218804FEF764FB00214FF42E
:103C90008020FEF75FFB3DE02248844209D10121EC
:103CA000C804FEF757FB00214FF40020FEF752FB3B
:103CB00030E01D48844209D101210805FEF74AFB86
:103CC00000214FF48010FEF745FB23E017488442A3
:103CD00008D101212020FEF75DFB00212020FEF706
:103CE00059FB17E01248844209D101218807FEF7E9
:103CF00031FB00214FF08040FEF72CFB0AE00D481D
:103D0000844207D101214005FEF724FB0021600514
:103D1000FEF720FB10BD00000010014000440040F1
:103D200000480040004C004000500040001401409A
:103D300000780040007C004070B50246002400235B
:103D40000025002040F66A16B14200D100BFC1F341
:103D5000421501F01F03012606FA03F3012D02D1DB
:103D60009689334006E0022D02D1168A334001E0E5
:103D7000968A33400C12012606FA04F41688344061
:103D800013B10CB1012000E0002070BDF0B5034676
:103D9000002400260025002040F66A17B94200D111
:103DA00000BF1846C1F3421401F01F06012707FAAD
:103DB00006F5012C01D10C3004E0022C01D11030A9
:103DC00000E014301AB107682F43076002E007686B
:103DD000AF430760F0BD00002DE9FF4705460E46E2
:103DE0000024A14600BFA046B08900B100BF2C8AC4
:103DF00024F44054F08804432C82AC8941F20C60D6
:103E00008443B08831890843718908430443AC81F5
:103E1000AC8A24F44074B0890443AC826846FEF74F
:103E2000C9FA2048854202D01F48854202D1DDF8F8
:103E30000C9001E0DDF80890A88900F4004040B142
:103E400009EBC90000EB091031684900B0FBF1F73C
:103E500007E009EBC90000EB091031688900B0FBED
:103E6000F1F76420B7FBF0F004012009642101FBA5
:103E70001078A88900F4004040B1322000EBC8005F
:103E8000B0FBF1F000F00700044308E0322000EB43
:103E900008106421B0FBF1F000F00F0004432C8106
:103EA000BDE8FF87001001400014014001468888EA
:103EB000C0F30800704700BFFEE700000021C160AA
:103EC000016101604160816041618161C1610162A4
:103ED00041629FED040A80ED0A0A9FED020A80ED1F
:103EE0000B0A70470000000000B50B48FFF7E6FF23
:103EF0000A48FFF7E3FF0A48FFF7E0FF0948FFF72A
:103F0000DDFF0948FFF7DAFF0848FFF7D7FF084849
:103F1000FFF7D4FF00BD000000060020C00600200F
:103F2000800700204008002000090020400B0020EE
:103F3000800A00200FB41CB50246002007AC0029FF
:103F40000BD0491ECDE90021054B6A462146069853
:103F500001F072FC009A002111701CBC5DF814FB8A
:103F6000675F00087CB5044600201D461646002900
:103F70000BD0491ECDE90041044B6A462946304624
:103F800001F05AFC009A002111707CBD675F0008A7
:103F900030B47446641E2578641CAB4200D21D46C2
:103FA000635D5B00E31830BC184703B4019841001F
:103FB000009850EAC12018BF04204A0D18BF40F0F5
:103FC000010040F2FF72B2EB515F08BF40F0020007
:103FD000012808BF052002B07047012249005205A0
:103FE000D14201D1002801D0002070470120704744
:103FF000002800D001200143480002494008081A67
:10400000C00F70470000F07F004870470801002093
:1040100010B52F499FED2C1B2DED020B84B0059898
:1040200020F000408842D8BF9DED040B2DDD2949CA
:10403000884209D1049840B94FF0010001F02CFBEF
:1040400001F0EAFA06B010BD05DB9DED040B01F0AE
:10405000CFFA06B010BD68469DED040B00F0C8FE17
:1040600010F0030004BF9DED021B9DED000B0CD072
:1040700001280ED09DED021B9DED000B022817D0EC
:10408000012001F005FA06B010BD01F0CDF806B030
:1040900010BD9DED021B9DED000B012001F0F8F914
:1040A00051EC100B81F0004106B041EC100B10BD3B
:1040B00001F0BAF851EC100B81F0004106B041EC70
:1040C000100B10BD00000000000000000000000008
:1040D000FB21E93F0000F07F2DE9F04D2DED040BB1
:1040E0002DED0E8B96B0DDE92550279CDDF890A0D4
:1040F00025F0004624F00048BAF1000F14BF01215A
:10410000002101EB4502FC4953184A1093422AD37F
:10411000002814BF0123002303EB44030B44F74999
:104120008B4220D358EA00019FEDF59B76D0DFF853
:10413000D8B35D4503D1BAF1000F05D188E0BAF1DB
:10414000000F08BF002100D0012101EB450111F54E
:10415000001F08D8002814BF0121002101EB4401F1
:1041600011F5001F0BD99DED261B9DED240B16B0FC
:10417000BDEC0E8B04B0BDE8F04D01F043BA002752
:10418000002DBCBFE149884521DAE1498845A8BF37
:1041900002271CDAC3451ADCDE4901EB2851142939
:1041A00008DDC1F1340220FA02F101FA02F2824282
:1041B0000DD108E058B9C1F1140228FA02F101FA50
:1041C00002F2424503D101F00101C1F1020756EAB2
:1041D0000A0124D1002C22DA002D18BF022F01D0B1
:1041E000012F0AD0022001F057FA16B0BDEC0E8B59
:1041F00004B0BDE8F04D01F0E3B9022001F04CFA43
:1042000001F0DEF951EC100B81F0004141EC100B94
:1042100016B0BDEC0E8B04B0BDE8F08D18E09FED3C
:10422000BEAB9FEDBF8B002871D1B848804522D12D
:1042300005F1804010F5801008BFBAF1000F07D0DB
:10424000B3450ADC002CA8BF9DED260BE0DA0DE09B
:10425000B0EE490AF0EE690ADAE7002C06DA9DEDC5
:10426000260B51EC100B81F000416FE0AE48784412
:1042700090ED000BCCE7D8454DD1002C48DA2EB19B
:1042800086423AD1BAF1000F42D126E0BAF1000FCE
:1042900013D0022001F000FA01F0CEF98DED020BEF
:1042A0009DED240B8DED000B10EE900A039961F348
:1042B0001E0003909DED020BAAE78DED02AB9DED74
:1042C000240B1AEE901A10EE900A8DED000B61F39C
:1042D0001E0003909DED020B9AE78DED028B9DED84
:1042E000240B18EE901A10EE900A8DED000B61F37E
:1042F0001E0003909DED020B8AE709DA9DED240B69
:1043000051EC190B53EC102BFCF7F7F81EE020E0F2
:104310009DED240B7CE786421BDAB4F1804F0DD073
:10432000A4F10050B0F1FF5013D1002D11DB9DED31
:10433000240B51EC100B04F0F3FD07E09DED240B72
:1043400053EC102B51EC100B00F0C2BC41EC100BE5
:104350005EE79DED240B51EC100B02F05DFDBAF110
:10436000000FCDE90E0142D19FED710B46B3A6F1CE
:10437000E040B0F17F600CD05E4538D1002D00DA0E
:10438000A7B3022F0CBF01204FF0FF30FCF73AF922
:10439000DCE7002D01DD002C0DDA002D01DD002C05
:1043A0001FDB002D16DA002C14DB012F08BF9FED58
:1043B000620B3FF42DAFB0EE4A0AF0EE6A0A27E72F
:1043C000022F18BF002D0CD0012F0AD1002DFFF6AF
:1043D0001FAF06E0002DB8BF002C08DA012F3FF414
:1043E00017AFB0EE480AF0EE680A11E71BE00120B3
:1043F00000EBE57050EA070115D0791EB0EE498A4E
:10440000F0EE698A084308BF9FED4D8B4E480025AA
:10441000804570DD4D494E48884514DDB0420DDBC6
:10442000002C19DB2FE0012001F036F916B0BDECAD
:104430000E8B04B0BDE8F04D01F0EEB8B34502DCE0
:10444000002C09DC1FE0864202DA002C1BDA03E0B4
:104450005E452BDD002C16DD022001F01DF901F078
:10446000EBF88DED020B53EC1A2B51EC180BFBF70C
:10447000D2FFCDE900010399019861F31E0003907A
:104480009DED020BC4E6022001F006F901F0E4F80C
:1044900010EE901A18EE900A8DED020B8DED008B48
:1044A00061F31E0003909DED020BB1E69DED0E0B36
:1044B00053EC192B51EC100BFBF7A7FF9FED260BCC
:1044C000CDE9080153EC102B9DED080B51EC100BBE
:1044D000FBF7A1FF9FED221B53EC112BFBF798FF7D
:1044E0009DED081B53EC112BFBF795FF9FED1E1B59
:1044F00053EC112B3CE08CE0FFFF1F00FFFF0F008F
:10450000000000000000F03F0000F03F0000F07FDE
:104510000000404301FCFFFF000000000000F07FAE
:1045200000000000000000004E5A000000000000E3
:104530000000000000000080000000000000F0FF0C
:10454000000000000000F0BF0000E0410000F04368
:10455000FFFFEF3F00000000000000000000D03F20
:10456000555555555555D53F000000000000E03F1A
:10457000FBF74EFF9DED080B41EC1A0B53EC102B93
:1045800051EC100BFBF747FF53EC1A2BFBF743FFE3
:1045900041EC1A0B9FEDFE0B53EC102B9DED080B1D
:1045A00051EC100BFBF737FF41EC1B0B9FEDFA0BA7
:1045B00051EC1A0B53EC102BFBF72DFF41EC1A0BAF
:1045C0009FEDF70B53EC102B9DED080B51EC100BEE
:1045D000FBF721FF53EC1A2BFBF717FF41EC1A0BEB
:1045E00051EC1B0B53EC1A2BFBF76EFE0690CDE93A
:1045F00006519DED060B53EC1B2B51EC100BFBF7FA
:1046000004FF53EC1A2BFBF703FF41EC100B00F0F7
:10461000A1B90020B6F5801F0EDA9FEDE30B53EC35
:10462000102B9DED0E0B51EC100BFBF7F4FECDE9BA
:104630000E016FF034000E4600EB2650A0F2FF375B
:10464000C6F31300DA4940F07F6646F040568842D0
:10465000D8BF002408DDD7498142C8BF012403DC4C
:104660000024A6F580167F1CD348784400EBC400D4
:104670000F9690ED00CB9DED0E0B53EC1C2B51ECE7
:10468000100BFBF7C2FE9DED0E0B41EC1B0B53EC28
:104690001C2B51EC100BFBF717FE41EC100B51ECEF
:1046A000190B53EC102BFBF728FF41EC1D0B51ECC1
:1046B0001B0B53EC1D2BFBF7AEFE41EC1A0BBF4856
:1046C0008DED10AB7844109590ED000B4FF000503D
:1046D00040EA660000EB84408DED080B00F50020F9
:1046E00009909DED080B53EC1C2B51EC100BFBF7C4
:1046F0008CFE9DED0E1B53EC112BFBF789FE41EC5C
:10470000100B53EC102B9DED100B51EC100BFBF725
:1047100082FE9DED080B41EC1C0B53EC102B9DED24
:10472000100B51EC100BFBF776FE53EC1B2BFBF739
:104730006FFE53EC1C2BFBF768FE53EC1D2BFBF7B5
:104740006AFE41EC1C0B53EC1A2B51EC1A0BFBF7D5
:1047500062FE41EC1B0B9A480621B0EE4B0AF0EECC
:104760006B0A784400F018FEB0EE401AF0EE601AC2
:10477000B0EE41DAF0EE61DA53EC1B2B51EC1B0B7F
:10478000FBF749FE53EC1D2BFBF745FE9DED100B8F
:1047900041EC1B0B53EC1A2B51EC100BFBF794FD67
:1047A00053EC1C2BFBF737FE53EC1B2BFBF78CFD5C
:1047B0009DED100B41EC1B0B53EC102B51EC100B2F
:1047C000FBF729FE41EC1D0B9FED7FEB53EC1E2BFD
:1047D000FBF77AFD53EC1B2BFBF776FD0890CDE938
:1047E00008519DED080B53EC1E2B51EC100BFBF701
:1047F0000CFE53EC1D2BFBF708FE53EC1B2BFBF7B9
:1048000007FE9DED080B41EC1D0B53EC102B9DEDAD
:10481000100B51EC100BFBF7FEFD41EC1B0B53ECA6
:104820001A2B51EC1D0BFBF7F6FD9DED080B41EC2F
:104830001A0B53EC102B51EC1C0BFBF7ECFD53EC5B
:104840001A2BFBF741FD41EC1A0B51EC1B0B53ECFF
:104850001A2BFBF739FD0C90CDE90C519DED0C0B9B
:1048600053EC1B2B51EC100BFBF7CFFD53EC1A2B29
:10487000FBF7CEFD41EC1B0B9FED550B53EC102BC2
:104880009DED0C0B51EC100BFBF7C5FD41EC1A0B29
:104890009FED510B51EC1B0B53EC102BFBF7BBFDA9
:1048A00041EC1B0B9FED4E0B53EC102B9DED0C0BB5
:1048B00051EC100BFBF7AFFD53EC1B2BFBF704FD8A
:1048C00041EC100B4848784400EBC40090ED001B0D
:1048D00051EC100B53EC112BFBF7F6FC41EC1B0BCE
:1048E0003846FBF78FFECDE9080153EC1B2B51EC4A
:1048F0001A0BFBF7E9FC41EC100B3C48784400EB49
:10490000C40090ED00CB51EC100B53EC1C2BFBF7CB
:10491000DBFC9DED081B53EC112BFBF7D5FC06903F
:10492000CDE906519DED080B53EC102B9DED060BC8
:1049300051EC100BFBF769FD53EC1C2BFBF765FDED
:1049400053EC1A2BFBF761FD53EC1B2BFBF760FDBF
:1049500041EC100B9DED261B53EC102B8DED001B35
:1049600000959DED260B51EC100BFBF754FD9DEDD2
:10497000000B41EC1A0B53EC102B9DED260B51EC68
:10498000100BFBF742FD9DED061B53EC112B2FE0A6
:10499000000000604715F73FFE822B654715F73F83
:1049A00044DF5DF80BAE543E0000000000004043C1
:1049B0008E9803007AB60B009A550000F855000057
:1049C000D254000000000000000000000000084079
:1049D000000000E009C7EE3FFD033ADC09C7EE3FE7
:1049E000F5015B14E02F3EBE5E530000185300003B
:1049F000FBF711FD53EC1A2BFBF766FC9DED060B44
:104A000041EC1A0B53EC102B9DED000B51EC100BED
:104A1000FBF701FDCDE90C019DED0C0B51EC1A0BE0
:104A200053EC102BFBF750FCCDE902010C46AA49D0
:104A30008C422FDB611A084318D19DED0C0B53EC0F
:104A4000102B9DED020B51EC100BFBF7DEFC41EC43
:104A50001B0B9FEDA30B51EC1A0B53EC102BFBF728
:104A600033FC53EC1B2BFBF729FE2DD2022000F068
:104A700013FE00F0E1FD10EE901A18EE900A8DED95
:104A8000020B8DED008B61F31E0003909DED020B78
:104A9000FFF7BEBB944A24F00041914214D39349DE
:104AA000214408437FF4EFAC9DED0C0B53EC102B2D
:104AB0009DED020B51EC100BFBF7A7FC53EC1A2BEE
:104AC000FBF7FCFD7FF6DFAC24F000408849894A03
:104AD000002601EB205182422BDA481C4FF4801152
:104AE00021FA00F02044844AC0F30A517A44A1F22A
:104AF000FF3192ED000B814A8DED080BCA4020EA90
:104B00000202C0F3130040F48010C1F1140120FA36
:104B100001F60992002CB8BF76429DED080B53ECCC
:104B2000102B9DED0C0B51EC100BFBF76EFCCDE93F
:104B30000C019DED0C0B51EC1A0B53EC102BFBF7F9
:104B4000C3FB9FED6F0B0890CDE9085153EC102B80
:104B50009DED080B51EC100BFBF75DFC41EC1B0BC2
:104B60009FED690B53EC102B9DED080B51EC100BD6
:104B7000FBF751FC9DED0C0B41EC1C0B53EC102B87
:104B80009DED080B51EC100BFBF73FFC53EC1A2B7F
:104B9000FBF73EFC9FED5E1B53EC112BFBF73BFC40
:104BA00053EC1C2BFBF790FB41EC1A0B51EC1B0B4D
:104BB00053EC1A2BFBF788FBCDE902019DED020BAC
:104BC00053EC1B2B51EC100BFBF71FFC53EC1A2B77
:104BD000FBF71EFC9DED020B41EC1A0B53EC102B66
:104BE00051EC100BFBF717FCCDE908014A489DED8D
:104BF000080B0521784400F0CFFB9DED081B51EC1C
:104C0000100B53EC112BFBF706FC9DED021B53EC34
:104C1000112BFBF7FDFBCDE906019DED020B53ECDB
:104C20001A2B51EC100BFBF7F6FB53EC1A2BFBF78E
:104C30004BFB9FED3B0B41EC1A0B53EC102B9DED06
:104C4000060B51EC100BFBF7E0FB9DED060B41EC66
:104C50001B0B53EC102B9DED020B51EC100BFBF7D3
:104C6000DAFB53EC1B2BFBF748FC53EC1A2BFBF73E
:104C7000CCFB9DED021B53EC112BFBF7C6FB53EC59
:104C8000192BFBF7C5FBCDE9020101EB065001151D
:104C90000029C8BF039015DC9DED020B324651EC94
:104CA000100BFBF7CBFEFFF780F9042808BF00F0DC
:104CB000D3FC32469DED020B51EC100BFBF7BEFE10
:104CC000CDE902019DED020B51EC180B53EC102BBA
:104CD000FBF7A1FBFFF73ABB00009040000000008B
:104CE000FE822B654715973C00CC904000346F3F07
:104CF00001FCFFFF0000E03FD0510000FFFF0F006C
:104D000000000000432EE63F396CA80C615C20BE19
:104D1000EF39FAFE422EE63F70500000000000001E
:104D2000000000000000004010B52F499FED2C1B33
:104D30002DED020B84B0059820F000408842DCBFC6
:104D400000209DED040B32DD2849884209D10498EA
:104D500040B94FF0010000F09FFC00F05DFC06B090
:104D600010BD05DB9DED040B00F042FC06B010BD4C
:104D700068469DED040B00F03BF810F0030011D0E5
:104D8000012818D09DED021B9DED000B02281AD0C2
:104D900000F04AFA51EC100B81F0004106B041ECF2
:104DA000100B10BD9DED021B9DED000B012000F0CE
:104DB0006FFB06B010BD9DED021B9DED000B00F0DA
:104DC00033FA06B010BD012000F062FB51EC100B6D
:104DD00081F0004106B041EC100B10BD0000000056
:104DE0000000000000000000FB21E93F0000F07F10
:104DF0002DE9F14F04462DED020B2DED088B8AB005
:104E00009FEDE70B80ED020B139EE74826F000456F
:104E100085420ADC9DED120B002084ED000B0AB0E8
:104E2000BDEC088B03B0BDE8F08FE0489FEDE0AB30
:104E30009FEDE1BBA84247DDE14F9FEDE39B9FED76
:104E4000E48B9DED120B53EC1A2B51EC100B002E42
:104E50001CDDFBF7DAFA41EC100BBD4208D053EC35
:104E60001B2B51EC100BFBF7D0FAC4E900010BE04F
:104E700053EC192B51EC100BFBF7C7FA53EC182B22
:104E8000FBF7C3FAC4E900010120C8E7FBF71CFAED
:104E900041EC100BBD4208D053EC1B2B51EC100B16
:104EA000FBF712FAC4E900010BE053EC192B51ECAB
:104EB000100BFBF709FA53EC182BFBF705FAC4E9C2
:104EC00000014FF0FF30AAE7C348A84279DB9DED0F
:104ED000120B51EC100B01F09FFF41EC180B9FEDF2
:104EE000C00B53EC102BFBF796FA9FEDBF1B53EC56
:104EF000112BFBF7E9F9FBF796FB0746FBF782FB63
:104F000041EC190B53EC1A2BFBF785FA53EC182BD9
:104F1000FBF77EFA41EC180B53EC1B2B51EC190BF1
:104F2000FBF779FADFF8C8A241EC100B4FEA1558ED
:104F30000125FA4453EC102B51EC180BFBF765FAE2
:104F4000032DC4E900013DD0C1F30A5005EB451122
:104F5000A8EB00001139814234DA0AEB051BB0EEF0
:104F600048AA9BED000BF0EE68AA53EC102B51EC15
:104F7000190BFBF750FA41EC1B0B51EC1A0B53ECDD
:104F80001B2BFBF742FA41EC180B51EC1A0B53ECBC
:104F9000182BFBF73AFA53EC1B2BFBF736FA9BED79
:104FA000020B41EC1A0B53EC102B51EC190BFBF7D5
:104FB00032FA53EC1A2BFBF728FA41EC100B6D1C5C
:104FC000B8E70EE0002EA8BF3846BFF628AF94ED34
:104FD000000B51EC100B81F00041C4E90001784254
:104FE0001DE7C6F3130040F4801EC6F30A50A0F27A
:104FF000F530471100F01F05C5F12000DDF848B07D
:1050000008900020069007900520EC467949002D75
:1050100007EB0002794408BF51F8221009D051F87B
:10502000223001EB8201AB404A68089922FA01F173
:105030001943A1FB0E26A1FB0B131A449A4234BF5D
:105040000123002303EB06080CEB8003D3E901A640
:105050000E448E4234BF0121002192448A4411B192
:10506000924502D903E0924501D2012100E00021DE
:10507000C3E901A641444CF82010011EA0F1010033
:10508000C4DC029800F10050850F0298DDE9036747
:105090008000DDF81480FBF7B5FA41EC1A0B3046BE
:1050A000FBF79EFF9FED541B53EC112BFBF7B3F95D
:1050B00041EC1B0B3846FBF793FF9FED511B53EC64
:1050C000112BFBF7A8F941EC180B4046FBF788FFC2
:1050D0009FED4D1B53EC112BFBF79DF941EC190B88
:1050E00051EC180B53EC192BFBF7EEF853EC1B2B80
:1050F000FBF7EAF853EC1A2BFBF7E6F8CDE90801C9
:10510000002008909DED080B53EC1A2B51EC100B6E
:10511000FBF77BF953EC1B2BFBF777F953EC182BC0
:10512000FBF773F953EC192BFBF772F99FED381B62
:1051300053EC112BFBF76FF99FED370B41EC180B7C
:1051400053EC102B9DED080B51EC100BFBF763F9A2
:1051500053EC182BFBF7B8F89FED310B41EC180B13
:1051600053EC102B9DED080B51EC100BFBF753F992
:1051700053EC182BFBF7A8F841EC100B139810F028
:10518000004F06D06D4251EC100B81F0004141EC14
:10519000100B284684ED000B41E6000000000000E3
:1051A0000000000000000000FB21E93F7CD9024024
:1051B00000004054FB21F93F3163621A61B4D03DD5
:1051C000FB21F93F000000000000601A61B4D03DEF
:1051D0007370032E8A19A33BFB21394100000000A4
:1051E00083C8C96D305FE43F000000000000E03F6D
:1051F000924D0000E04C0000000000000000103E56
:10520000000000000000103C000000000000103A08
:10521000182D4454FB21F93D3326A611460B113CB1
:1052200000000054FB21F93D10B52DED040B2DEDD0
:10523000088B82B0B0EE419AF0EE619A0B9820F0A4
:1052400000449FED4BABB4F1795F11DA9DED0A0B91
:1052500051EC100BFBF7E7F9002801BFB0EE4A0A4A
:10526000F0EE6A0A02B0BDEC088B04BF04B010BDBA
:105270009DED0A0B53EC102B51EC100BFBF7CBF808
:1052800041EC180B3C480621B0EE480AF0EE680AE3
:10529000784400F081F853EC182B51EC100BFBF71D
:1052A000BAF89DED0A0B41EC1B0B53EC192B51EC9A
:1052B000100BFBF7B0F841EC190B53EC1B2B51EC26
:1052C000180BFBF7A8F853EC192BFBF79EF89FED92
:1052D0002C0B41EC190B53EC102B51EC180BFBF77A
:1052E0009AF841EC100B2848844210DA53EC192B41
:1052F00051EC100BFBF789F853EC1A2BFBF788F8ED
:1053000041EC100B02B0BDEC088B04B010BD1F487F
:10531000A042BCBF9FED1E1B8DED001B06DBA4F55C
:1053200000100190002000909DED001B51EC100B2F
:1053300053EC112BFBF769F89DED000B41EC180BBA
:1053400053EC102B51EC1A0BFBF75FF841EC1A0BE6
:1053500053EC192B51EC180BFBF757F853EC1A2BA5
:10536000FBF756F841EC100BCCE700000000000002
:10537000000000000000F03FFC49000000000000B9
:10538000000000000000E03F3333D33F0000E93F5E
:10539000000000000000D23F70B504462DED028BE6
:1053A0004D1E00EBC500B0EE408AF0EE608A90ED35
:1053B000000B35F0060017D053EC182B51EC100BF6
:1053C000FBF729F841EC100B6D1E04EBC50090EDC6
:1053D000001B51EC100B53EC112BFAF775FF41EC4D
:1053E000100B35F00600E7D1022D36D0042D1CD06D
:1053F000062D1CBFBDEC028B70BD53EC182B51EC7D
:10540000100BFBF708F894ED0A1B53EC112BFAF77D
:105410005BFF53EC182BFAF7FEFF94ED081B53ECDF
:10542000112BFAF751FF41EC100B53EC182B51ECF8
:10543000100BFAF7F0FF94ED061B53EC112BFAF763
:1054400043FF53EC182BFAF7E6FF94ED040B53ECF3
:10545000102BFAF739FF41EC100B53EC182B51ECE1
:10546000100BFAF7D8FF94ED021B53EC112BFAF74F
:105470002BFF53EC182BFAF7CEFF94ED001B53ECE7
:10548000112BFAF721FFBDEC028B41EC100B70BD24
:1054900031B504462DED040B2DED0A8BB0EE41BA6B
:1054A000F0EE61BA0B989DED0A0B20F00040B0F1D0
:1054B000795F0DDA51EC100BFEF777FD042808BF79
:1054C00000F0CAF89DED0A0BBDEC0A8B05B030BDAB
:1054D00053EC102B51EC100BFAF79DFF41EC180B1D
:1054E0009DED0A0B53EC182B51EC100BFAF793FFC0
:1054F00041EC190B2C48B0EE480AF0EE680A052181
:105500007844FFF749FF9FED2ACBB0EE40AAF0EEBA
:1055100060AA9CB353EC1C2B51EC190BFAF77BFFE0
:1055200041EC1C0B53EC1A2B51EC190BFAF773FFDF
:105530009FED210B41EC190B53EC102B51EC1B0B85
:10554000FAF769FF53EC192BFAF75FFF53EC182BAE
:10555000FAF761FF53EC1B2BFAF757FF53EC1C2BA8
:10556000FAF753FF9DED0A1B53EC112BFAF750FF8E
:10557000BDEC0A8B05B041EC100B30BDFFE753ECDE
:105580001A2B51EC180BFAF746FF53EC1C2BFAF7C9
:105590009BFE53EC192BFAF73EFF9DED0A1B53ECD3
:1055A000112BFAF791FEE3E78C48000000000000A1
:1055B000495555555555C5BF000000000000E03F56
:1055C0009FED070B10B553EC102B9FED070B51EC23
:1055D000100BFAF792FF41EC100B10BD0000000019
:1055E0000000000000000000000000000000F03F8C
:1055F00010B553EC102B51EC100BFAF765FE41EC93
:10560000100B10BD10B553EC112B51EC100BFAF729
:105610005BFE41EC100B10BD9FED050B10B553EC7C
:10562000102B51EC100BFAF768FF41EC100B10BD7A
:1056300000000000000000009FED050B10B553ECCA
:10564000102B51EC100BFAF7E6FE41EC100B10BDDD
:1056500000000000000000709FED050B10B553EC3A
:10566000102B51EC100BFAF7D6FE41EC100B10BDCD
:10567000000000000000001002E008C8121F08C16E
:10568000002AFAD170477047002001E001C1121FC3
:10569000002AFBD1704700000149086070470000F4
:1056A000080100202DE9FF5F82B00021DDE9043010
:1056B000020DDDF840B0034318D044F61050A2F2BA
:1056C000FF3242431514119801281FD0A5EB0B009F
:1056D000401C5FEA000A4FF000064E4FDFF8389199
:1056E000B046504615D5CAF1000413E011980124C4
:1056F0004AA3012801D16FEA0B010298119AC0E96F
:105700000031C0E9024206B0BDE8F09FCBF10000D5
:10571000DFE704460021404A491842EB0450CDE936
:10572000001012E0E00707D032463B4640464946AB
:10573000FAF771FE8046894632463B4610461946C6
:10574000FAF769FE06460F466410002CEAD1DDE93F
:105750000401DDE90023BAF1000F06DAFAF75BFE77
:1057600042464B46FAF757FE05E0FAF7C6FE4246B8
:105770004B46FAF7C2FE04460E460022284BFAF7C3
:105780009DFF03D84FF0FF30014607E00022254B74
:1057900020463146FAF798FDFBF767F9102409E037
:1057A000002C0ADB0A220023FAF7BCFF039B3032ED
:1057B0001A55641E50EA0102F2D1641C039AC4F126
:1057C00011031444119A012A03D0012208430DD178
:1057D0000AE0084304D000204FF0110B119072E74B
:1057E000A3EB0B056D1E0DE05B4504DD4FF00002E1
:1057F00005F1010504E003DA4FF00002A5F101050F
:10580000002AECD002981199C0E90231C0E90045A4
:1058100079E70000000014400000F03F3000000075
:105820000000F0430000E03F30380A2801D2012098
:1058300070470020704700002DE9FF4F95B09B4650
:105840008946064600250FE2252877D10024274601
:10585000F84A0121059400E0044316F8013F203B7B
:1058600001FA03F01042F7D130782A2811D06FF0F6
:105870002F033078A0F13002092A16D8059A44F097
:10588000020402EB820203EB42021044761C0590F4
:10589000EFE759F8042B0592002A03DA504244F44A
:1058A0000054059044F00204761C30782E2816D15E
:1058B00016F8010F44F004042A280DD06FF02F02CF
:1058C0003078A0F13003092B09D807EB870302EBEE
:1058D0004303C718761CF3E759F8047B761C30782D
:1058E0006C280FD006DC4C2817D068280DD06A2809
:1058F00014D104E0742810D07A280FD10DE044F4BC
:1059000000140AE044F4801401E044F44014727876
:10591000824202D104F58014761C761C3078662809
:105920000BD013DC582877D009DC002875D0452827
:10593000F6D04628F4D047281AD19DE118E0632814
:1059400035D0642879D0652812D195E1702873D0BC
:1059500008DC6728F1D069286FD06E280DD06F2839
:1059600006D1B5E073282CD0752875D0782874D06E
:105970005A46179990476D1C75E1C4F302500228EE
:1059800009D003280DD0D9F8001004280DD00D60DF
:1059900009F1040967E1D9F80010EA17C1E90052DA
:1059A000F6E7D9F800100D80F2E70D70F0E719F86E
:1059B000041B8DF8001000208DF80100EA4601203C
:1059C00003E059F804AB4FF0FF3061074FF00001DE
:1059D00002D40DE008F101018846B9420FDA804592
:1059E000F8DB1AF808100029F4D108E008F10101E9
:1059F00088468142FADB1AF808100029F6D105988A
:105A00005B46A0EB080721463846179A00F094FA47
:105A1000284400EB080507E04DE029E10DE01AF805
:105A2000010B5A4617999047B8F10108F7D25B4627
:105A300021463846179A13E142E00A220092C4F345
:105A400002524FF0000A022A08D059F804CB032A68
:105A50004FEAEC710AD00DE029E02AE009F10701D4
:105A600021F00702F2E802C1914609E00FFA8CFC2E
:105A70004FEAEC71042A03D14FFA8CFC4FEAEC7127
:105A8000002907DA0A460021DCF1000C61EB020173
:105A90002D2202E0220504D52B228DF804200122BC
:105AA00003E0E20701D02022F7E7904659E00A21FF
:105AB00002E010220DE010214FF0000A00910BE0EF
:105AC00010224FF0000A44F004040827009203E07B
:105AD00008224FF0000A0092C4F30252022A05D0B5
