:020000040800F2
:10000000D0300020C1010008CD240008F5230008ED
:10001000C924000881120008573C000800000000B5
:10002000000000000000000000000000D3010008F4
:10003000711F000800000000D7010008D901000866
:10004000DB010008DB010008DB010008DB01000820
:10005000DB010008DB010008DB010008DB01000810
:10006000DB010008DB010008DB010008DB01000800
:10007000DB010008DB010008DB010008DB010008F0
:10008000DB010008DB010008DB010008DB010008E0
:1000900085130008DB010008DB010008DB01000814
:1000A000DB010008DB010008DB010008DB010008C0
:1000B000E12F000809300008CD310008DB010008FD
:1000C000DB010008DB010008DB010008DB010008A0
:1000D000DB010008DB010008DB010008DB01000890
:1000E000DB010008DB010008DB010008DB01000880
:1000F000DB010008DB010008DB010008DB01000870
:10010000DB010008DB010008DB010008DB0100085F
:10011000DB01000859360008DB010008DB0100089C
:10012000DB010008DB010008DB010008DB0100083F
:10013000DB010008DB010008DB010008DB0100082F
:10014000DB010008DB010008DB010008DB0100081F
:10015000411B0008DB010008DB010008CD38000866
:10016000DB010008DB010008DB010008DB010008FF
:10017000DB010008DB010008DB010008DB010008EF
:10018000DB010008DB010008AD360008DB010008D8
:10019000DB010008DB010008DB010008DB010008CF
:1001A0000000000000000000DB010008DFF80CD0B8
:1001B00000F074FC00480047A9740008D03000200B
:1001C0000648804706480047FEE7FEE7FEE7FEE7F1
:1001D000FEE7FEE7FEE7FEE7FEE7FEE7712E00081A
:1001E000AD01000830B50B46014600202022012455
:1001F00009E021FA02F59D4205D303FA02F5491BF5
:1002000004FA02F52844151EA2F10102F1DC30BD0A
:1002100010B5431A934209D28318881803E010F8E6
:10022000011D03F8011D521EF9D210BD40EA010361
:100230009B0703D009E008C9121F08C0042AFAD29C
:1002400003E011F8013B00F8013B521EF9D210BD4A
:10025000D2B201E000F8012B491EFBD27047002208
:10026000F6E710B513460A4604461946FFF7F0FFB5
:10027000204610BD421C10F8011B0029FBD1801A3A
:10028000704710B5002200E0521C835C8C5CA342D6
:1002900001D1002BF8D1D8B2E1B2401A10BDCBB2D7
:1002A00003E00178994203D0401C521EF9D200208D
:1002B0007047034611F8012B00F8012B002AF9D1F1
:1002C0001846704700F0DEBA2DE9FE4F804681EAFD
:1002D0000300C00F0C46009021F0004123F00045C0
:1002E000B8EB0200A94105D24046214690461C4683
:1002F0000B46024623F00040104347D0270DC7F3BA
:100300000A00C3F30A510290401A019040286BDAA8
:10031000C3F3130040F4801B0098924620B10023E1
:10032000D2EB030A63EB0B0B01985946C0F1400274
:10033000504600F028FA06460D4650465946019AA6
:1003400000F040FA10EB08006141002487EA1152E6
:1003500084EAE7731A4340D0009A62B3019A012AF3
:100360004FEA075215DC001B61EB02014FF000421F
:1003700002EA0752CDE90042001C41F580113246E5
:100380002B4600F00DFB03B0BDE8F08F4046214640
:10039000F9E7001B61EB0201001C41F58013001816
:1003A0005B412018A2F5001747EB030140EAD57026
:1003B000B6196D4111E06D084FEA360645EAC07581
:1003C0004FEA0752001B61EB0201001C41F580114E
:1003D00049084FEA30000019514132462B4603B01C
:1003E000BDE8F04F00F0CDBA009801224000002394
:1003F000D0EB020263EBE073009821464FEAE07411
:10040000B8EB000061EB0401E9E783F000435BE730
:1004100081F0004158E72DE9FE4F81EA030404F022
:10042000004421F0004100944FF0000B23F0004302
:1004300050EA01045ED052EA03045BD0C3F30A54CD
:10044000C1F30A552C44A4F2F3340194A0FB0254E6
:10045000C1F3130141F48011C3F3130343F4801378
:1004600001FB024400FB034E840A970A44EA8154CC
:1004700047EA8357A4FB076802958D0A05FB0785A9
:100480004FEA932C04FB0C542705029D4FEA0658B3
:1004900047EA1637B5EB08056EEB070C870E920E90
:1004A00047EA811742EA8312A7FB0201B6EB0B0170
:1004B00064EB00042B0D43EA0C335E1844EB1C5034
:1004C000DA465146E7FB0201C5F313044FEA0B334A
:1004D00043EA14534FEA0432019C43EA0603A4F1B1
:1004E0000C040294009CCDE900B400F059FA03B06A
:1004F000BDE8F08F00200146F9E72DE9F04D81EAD3
:10050000030404F0004B21F0004514464FF0000AAC
:1005100023F0004150EA050220D054EA01021DD028
:10052000C5F30A570246C5F31303C1F31300C1F321
:100530000A5640F4801543F48013A7EB0608101BFD
:10054000D64608F2FD3873EB050002D308F1010826
:1005500001E092185B41B8F1000F03DA0020014678
:10056000BDE8F08D00204FF48011064684460EE071
:10057000171B73EB050705D3121B63EB050306433B
:100580004CEA010C49084FEA300092185B4150EAEE
:100590000107EDD152EA030012D082EA040083EA97
:1005A0000501084305D0101BAB4106D201220023F0
:1005B00006E000224FF0004302E06FF0010253100A
:1005C0001AEB06004CEB085110EB0A0041EB0B0153
:1005D000BDE8F04D00F0D5B9F0B4CA17CB0F5040CC
:1005E0005140C61841F100054FEAC3723146280058
:1005F0004FF0960303D0B623F0BC00F094B9304618
:100600000021F9E70EB5C10F80EAE0700844CA077F
:10061000002140F233438DE80E000A460B4600F0FD
:10062000BFF903B000BD70B5C1F30A5201F0004537
:100630000024C1F3130140F2FF3341F480119A42C8
:1006400001DA002070BD40F233439A42A2F23342F5
:1006500003DC524200F0A6F800E090402C43F1D0B9
:10066000404270BD00F0004230F000400AD0C10DA1
:1006700001F56071C0F3160042EA0151C20840075B
:1006800011437047002001467047000030B5041E3A
:1006900071F1000404DB4FF00044404264EB0101BF
:1006A000141E73F1000405DB1C464FF00043524258
:1006B00063EB04038B4208BF824230BD30B5041E99
:1006C00071F1000404DB4FF00044404264EB01018F
:1006D000141E73F1000405DB1C464FF00043524228
:1006E00063EB0403994208BF904230BD01F0004320
:1006F00030B421F0004150EA010206D00A0DA2F503
:100700006072C1F31301002A02DC30BC0020704784
:10071000440F44EAC104C100E01830BC00EBC250F1
:1007200000F0F8B82DE9F05F0546002092469B46A0
:1007300088460646814640241BE0284641464746F7
:10074000224600F02FF853465A46C01A914110D362
:1007500011461846224600F016F82D1A67EB0108DC
:100760004F4622460120002100F00DF817EB00094A
:100770004E41201EA4F10104DFDC484631462A46E2
:100780004346BDE8F09F202A04DB203A00FA02F13C
:10079000002070479140C2F1200320FA03F319436F
:1007A00090407047202A04DB203A21FA02F0002111
:1007B000704721FA02F3D040C2F120029140084371
:1007C00019467047202A06DBCB17203A41FA02F07F
:1007D00043EAE07306E041FA02F3D040C2F120029E
:1007E00091400843194670470FB4002300B589B003
:1007F0000CA900910B996FF00042CB601E4B069341
:100800001E4B07930423CDE901321D4A089202468C
:100810006B46002000F0E2F909B05DF814FB70B5FA
:1008200086B006464FF0FF300091CDE9010100206F
:1008300015460C4604903246694604A8FFF7D4FFDB
:1008400003460498211825B108B10A4600E0224663
:100850002A6000280DD0002B02DD0098884208D0C5
:10086000081B0094CDE901043246694604A8FFF74D
:10087000BBFF06B070BD0000150E0008330E000867
:10088000C90A00082DE9F04791460E468046044605
:10089000002514F8017B2FB100F012F90068C05D4B
:1008A000C007F6D12B2F02D02D2F1ED0641E4A4632
:1008B0003146204600F0CEFA26B13268A24201D17C
:1008C000C6F800806A054FF0020418D50023D0EB6B
:1008D000030563EB01025D1B934109DB0023D0EBB1
:1008E000030063EB0101BDE8F08745F48065DEE7B6
:1008F00003F052FA046000204FF00041F3E7021EBB
:1009000071F10002EFDA03F047FA04604FF0FF30B4
:100910004108E8E70029A8BF7047401C490008BF0C
:1009200020F00100704710B4B0FA80FC00FA0CF01F
:1009300050EA010404BF10BC704749B1CCF1200457
:1009400021FA04F411FA0CF118BF012121430843E4
:10095000A3EB0C01CB1D4FEA00614FEA102042BF10
:10096000002010BC704700EBC35010440029A4BF06
:1009700010BC7047401C490008BF20F0010010BCAB
:10098000704710B5141E73F1000408DA401C41F1E1
:10099000000192185B411A4301D120F0010010BD03
:1009A0002DE9F04D92469B4611B1B1FA81F202E079
:1009B000B0FA80F220329046FFF7E5FE04460F467B
:1009C00040EA0A0041EA0B0153465A46084313D055
:1009D000114653EA010019D0C8F140025046FFF712
:1009E000E1FE05460E46504659464246FFF7CBFE0D
:1009F000084305D0012004E020463946BDE8F08DCB
:100A00000020054346EAE0762C4337430A98630505
:100A1000E40AA0EB08000022FD0A44EA47540A3029
:100A200002D500200146E9E7010510196941DDE919
:100A3000084500196941BDE8F04DA2E770B521F005
:100A4000004303430CD0C1F30A550024D5EB040541
:100A500064EB0403D617AD1AB34102DB0020014654
:100A600070BD201841EB025170BDC1F30A52C1F3B1
:100A7000130140F2FF3341F480119A4202DA002060
:100A80000146704740F233439A42A2F2334202DCFD
:100A90005242FFF787BEFFF776BE0000064C074DB7
:100AA00006E0E06840F0010394E80700984710343E
:100AB000AC42F6D3FFF77EFB0896000828960008A4
:100AC000004870470496000810B50446FFF7F8FF89
:100AD0000068005D00F0010010BD00002DE9FF4F2F
:100AE000087881B09946FF2805D0491C2D2804D0EC
:100AF0000024002308E000230BE00124F9E703EBC6
:100B0000830300EB4303491C0878FF28F7D104B1A5
:100B10005B4200200090147801462D2C01D02B2C34
:100B200004D1521C2D2C12D00024009400251678DC
:100B3000FF2E0ED00A24A0FB04C801FB048100276D
:100B400000FB0711521C16EB0C006941EFE7012472
:100B5000EBE7994450EA01020ED00024AA4D264644
:100B6000DFF8A88200F036FA82468B46B9F1000021
:100B700009DAC9F100071BE001980021C0E9001162
:100B800005B0BDE8F08F074612E0F80707D022460F
:100B90002B4630464146FFF73EFC06468846224635
:100BA0002B4610461946FFF736FC04460D467F10CB
:100BB000002FEAD1B9F1000F32464346504659465C
:100BC00002DAFFF79AFC01E0FFF725FC009A0AB170
:100BD00081F00041019AC2E90001D1E72DE9FF4F00
:100BE0001F468DB0D7E901464FF0FF382E2045460D
:100BF0004FF000090B90B9696D1C0E988847396A4F
:100C0000824688470028F6D1BAF1FF3F0AD024F483
:100C1000D064002E11DDBAF12B0F08D0BAF12D0FE0
:100C20000BD102E0404611B0ABE744F48064B969EF
:100C30006D1C0E9888478246761E6946600501D570
:100C40002D2000E02B208DF8000001F1010B0DF1AB
:100C5000200809E0B9696D1C0E98884782460F98F4
:100C600044F40074761E0560002E02DDBAF1300FE8
:100C7000F0D00B998A453ED144F0800406E00F99EC
:100C8000681CA9F1010944F400740860B9696D1C7D
:100C9000761E0E98884782463028F0D02BE00B99BC
:100CA0008A4505D1200603D444F08004761E18E05E
:100CB000504604F035F808B30DF11301761E44F4E4
:100CC00000748B4508D2AAF130000BF8010B200606
:100CD00007D5A9F1010003E0200602D409F10100C3
:100CE0008146A00502D50F99681C0860B9696D1C82
:100CF0000E9888478246002ED1DC53E0002E51DD4D
:100D0000BAF1650F02D0BAF1450F4BD1A00549D514
:100D1000B9696D1C24F44074761E0E98884782468B
:100D2000002E0CDD2B2804D0BAF12D0F07D144F48E
:100D30008074B9696D1C0E9888478246761EE0055E
:100D400001D52D2100E02B2108F8011BCDF82C80C6
:100D500021E00DF12901761E44F4007488450CD27F
:100D6000AAF1300010F0FF0088F8000002D10B99C2
:100D7000884509D908F1010806E0E00501D52448B5
:100D800001E042F20F708146B9696D1C0E988847E8
:100D900082460F980560002E04DD504603F0C0FF28
:100DA0000028D6D1F9690E988847FF208BF80000FB
:100DB00088F800000020069007904B466A4608A974
:100DC00006A8FFF78BFEA00502D46FF001002AE70A
:100DD00014F0240F0AD0E00714D1DDE906123868B8
:100DE000031D3B600068C0E900120BE0DDE906016D
:100DF000FFF77CFC0146E00704D13868021D3A6029
:100E00000068016028460EE7000024400000F03F23
:100E1000F1D8FFFF426842B1016811F8013B23B1EC
:100E2000521EC0E90012184670470121C160881E99
:100E3000704742685AB1C368016843B983688B42FE
:100E400005D0491E521CC0E90012002070474FF027
:100E5000FF3070472DE9F74F4FF00009009C154611
:100E6000CA4614F8010B302801D0ADB115E014F8D2
:100E7000010B4FF00109782803D0582801D04DB15B
:100E80000BE00DB1102D08D14FF00009102514F81A
:100E9000010B02E0082500E00A2500273E46B8467F
:100EA0004FEAE57B16E0A5FB07230BFB073105FBAB
:100EB000080005FB0616030CD71846F100061FFABA
:100EC00080F8381E4FF0010976F5803000D3CA460D
:100ED00014F8010B294600F06FF80028E3DA0198B6
:100EE00038B1B9F1000F01D0641E00E0009C0198F8
:100EF0000460BAF1000F08D002F04EFF0221016039
:100F0000C81E014603B0BDE8F08F310441EA174125
:100F100048EA0740F6E72DE9F04D00231A461B1A70
:100F20008A4103DB00200146BDE8F08DC1F30A527F
:100F3000C1F3130141F480154FF0000BD10702D12A
:100F400000186D41521E0027044640F2FF1138463A
:100F500001EB620A3E468046024600204FF48011B3
:100F6000FFF720FCC2197141BB1846EB0100B4EB3E
:100F7000030C75EB000C04D3E41A65EB000517466F
:100F80000E46241908F101006D4180463428E3DD46
:100F9000F91946EB0600091BA84103D24FF0FF32B6
:100FA000134601E0002213461BEB070046EB0A51F3
:100FB000BDE8F04DFFF7E5BC3A2800D2303820F00C
:100FC0002002412A01D3A2F13700884201D34FF019
:100FD000FF3070470EB540F2334202920022CDE955
:100FE00000221346FFF7DCFC03B000BD70B58C187F
:100FF00010F8015B15F0070301D110F8013B2A112D
:1010000006D110F8012B03E010F8016B01F8016B19
:101010005B1EF9D12B0705D40023521E0DD401F815
:10102000013BFAE710F8013BCB1A921C03E013F8DE
:10103000015B01F8015B521EF9D5A142D8D3002013
:1010400070BD0021C160016101604160816041614A
:101050008161C1610162704700B50B48FFF7F1FF84
:101060000A48FFF7EEFF0A48FFF7EBFF0948FFF7D2
:10107000E8FF0948FFF7E5FF0848FFF7E2FF0848E7
:10108000FFF7DFFF00BD0000540B00200C0C002018
:10109000C40C00207C0D0020340E0020A40F002082
:1010A0005C10002008B500202B498861082302222B
:1010B0000C214FF4B47001F021FE4FF4A06001F058
:1010C00043FAB42005F020F806F044FD06F0D0FD08
:1010D00000F0D0FF05F0C0FE05F084FE00200523DF
:1010E00003221146009000F0CDF800F063FF01F0FC
:1010F00083F904F03FFB01F0D1FB06F0C3FA05F0E1
:1011000047F902F011FA01F0E7FE42F22731092017
:1011100002F02EF802F0B8FDFFF79EFF07F00AFC80
:1011200000BF4FF480600D49088048808880C880E7
:1011300000BF06F04BFD9FED0A0A0A4880ED040A45
:101140009FED090A094880ED040A3C2008490881FE
:10115000084801F053FA08BDA40D0020C600002085
:1011600000E0FF44140F002000C0CB45CC0F00204E
:1011700063040020E002002070EE601A9FED392A1F
:1011800041EE021A3848C0ED001A70EE201A9FEDA9
:10119000352A41EE421AC0ED041A70EE201A9FED76
:1011A000312A41EE021AC0ED081A70EE601A9FED66
:1011B0002D2A41EE421AC0ED0C1AD0ED001A9FED17
:1011C0002B2A61EE821AC0ED011AD0ED041A9FEDB0
:1011D000272A61EE821AC0ED051AD0ED081A9FED9C
:1011E000232A61EE821AC0ED091AD0ED0C1A9FED88
:1011F0001F2A61EE821AC0ED0D1AD0ED011AB3EE6E
:10120000032A61EE821AFDEEE11A11EE900A4042C5
:10121000174988621448D0ED051AB3EE032A61EE2F
:10122000821AFDEEE11A1348C0ED0A1A0E48D0EDFD
:10123000091AB3EE032A61EE821AFDEEE11A11EEED
:10124000900A40420C4988620748D0ED0D1AB3EE6F
:10125000032A61EE821AFDEEE11A0848C0ED0A1A6F
:101260007047000000007042F00200204276F43F18
:10127000C40A00207C0B0020340C0020EC0C002061
:1012800000BFFEE72DE9F0418AB004460D46164640
:101290001F46DDF840800121082001F05FF901219F
:1012A000480601F06BF90320089002208DF8240015
:1012B00000208DF8260002208DF8250001208DF8F1
:1012C000270008A92D4800F061FF092200212B48C2
:1012D00000F0A4FF09220121284800F09FFF002010
:1012E0008DF81A0001208DF81B0000208DF81C00DD
:1012F0008DF81D008DF81E008DF81F008DF81680EA
:101300008DF817408DF818608DF81950ADF81470ED
:1013100005A91B4800F02FFA00208DF80E008DF86B
:101320000F0001208DF810000020ADF80400ADF88A
:101330000600ADF80800ADF80A00ADF80C00012079
:101340008DF8110001A800F089F9012202210C4852
:1013500000F008FA14208DF8000001208DF801003B
:1013600000208DF8020001208DF80300684601F08E
:10137000AFF800200AB0BDE8F0810000000C024088
:101380000064004070B586B001AA0021554800F005
:101390007CFA9DF81000544908709DF80F004870C1
:1013A000084604889DF8120008709DF811004870E6
:1013B0000846B0F900509DF814109DF8130041EA5A
:1013C000002006B20198A0F500700B287ED2DFE85D
:1013D00000F037060D141B85852285293000334621
:1013E0002A462146414806F05DFC78E033462A460D
:1013F00021463F4806F056FC71E033462A46214616
:101400003C4806F04FFC6AE033462A4621463A48FB
:1014100006F048FC63E033462A462146374806F08A
:10142000ADFC5CE033462A462146354806F03AFCDE
:1014300055E033462A462146324806F033FC4EE05A
:101440009DF810009DF80F1040EA01202E49086019
:101450009DF812109DF8110041EA00202A494860C9
:101460009DF814109DF8130041EA00202649886079
:101470009DF816109DF8150041EA00202249C86029
:1014800008460068B0F5804F04DD08460068A0F506
:10149000803008601C484068B0F5804F05DD1A4870
:1014A0004068A0F580301849486017488068B0F55A
:1014B000804F05DD14488068A0F5803012498860AF
:1014C0001148C068B0F5804F07DD00E006E00E4827
:1014D000C068A0F580300C49C86000E000BF00BFC4
:1014E00006B070BD0064004020000020C40A002047
:1014F0007C0B0020340C0020EC0C0020A40D0020FC
:10150000140F0020CC0F00208410002070B586B08E
:10151000064600244FF400700190002002908DF8E0
:101520000C008DF80D0008208DF80E0000BF05E0BE
:10153000315D0DF10F000155601C84B2082CF7DB02
:1015400001A90D4800F019FA0546002401E0601CCD
:1015500084B22946084800F0A3FA18B940F6FF7093
:101560008442F4DB40F6FF70844202DB012006B0C7
:1015700070BD0020FBE700000064004070B586B03D
:101580000646002440F2FF200190002002908DF8D2
:101590000C008DF80D0008208DF80E0000BF05E04E
:1015A000315D0DF10F000155601C84B2082CF7DB92
:1015B00001A90D4800F0E1F90546002401E0601C96
:1015C00084B22946084800F06BFA18B940F6FF705B
:1015D0008442F4DB40F6FF70844202DB012006B057
:1015E00070BD0020FBE700000064004070B586B0CD
:1015F0000646002440F2FF100190002002908DF872
:101600000C008DF80D0008208DF80E0000BF05E0DD
:10161000315D0DF10F000155601C84B2082CF7DB21
:1016200001A90D4800F0A9F90546002401E0601C5D
:1016300084B22946084800F033FA18B940F6FF7022
:101640008442F4DB40F6FF70844202DB012006B0E6
:1016500070BD0020FBE700000064004010B50021D1
:10166000837A012202FA03F13D4A126842F0010234
:101670003B4B1A603A4A1C3212688A43384B1C337F
:101680001A60027BCAB9364A0C3212688A43344B5C
:101690000C331A604288C38842EA0343304A40321E
:1016A000847A42F834300288838842EA03432C4A21
:1016B0004032847A02EBC4025360027B012A19D1C2
:1016C000274A0C3212680A43254B0C331A604288B1
:1016D000038842EA0343224A4032847A42F8343093
:1016E000C288838842EA03431D4A4032847A02EB6F
:1016F000C4025360C27A3AB9194A121D12688A4369
:10170000174B1B1D1A6006E0154A121D12680A438A
:10171000134B1B1D1A60028932B9114A1432126828
:101720008A430F4B14331A600289012A06D10C4AEE
:10173000143212680A430A4B14331A60427B012A9E
:1017400006D1074A1C3212680A43054B1C331A6043
:10175000034A126822F00102014B1A6010BD00001A
:10176000006600401AB143690B43436102E04369DC
:101770008B434361704730B5024600200023146854
:1017800024F002041460146844F00104146000E0C2
:101790005B1C546804F001041CB94FF6FF74A342AB
:1017A000F6D1546804F001040CB900206CE08C7987
:1017B000012C04D1146844F08004146003E0146820
:1017C00024F080041460CC79012C04D1146844F016
:1017D0004004146003E0146824F0400414600C7AA0
:1017E000012C04D1146844F02004146003E0146850
:1017F00024F0200414604C7A012C04D1146844F0C5
:101800001004146003E0146824F0100414608C7A4F
:10181000012C04D1146844F00804146003E0146837
:1018200024F008041460CC7A012C04D1146844F02C
:101830000404146003E0146824F0040414608C7839
:10184000A407CD7844EA05640D7944EA05444D794E
:1018500044EA05540D886D1E2C43D461146824F0AD
:1018600001041460002300E05B1C546804F00104D0
:101870001CB14FF6FF74A342F6D1546804F0010482
:101880000CB1002000E0012030BD10B500F5D87388
:1018900003EB01131B6803F004031372137A53B9AB
:1018A00000F5D87303EB01131B6840F2FF7404EAE0
:1018B0005353136009E000F5D87303EB01131B6861
:1018C0006FF0604404EAD303536000F5D87303EB70
:1018D00001131B6803F00203537200F5D87303EB86
:1018E00001135B6803F00F03937200F5D87303EBE9
:1018F00001135B681B0AD37400F5D87303EB011363
:101900009B68D37200F5D87303EB01139B681C0A24
:10191000147300F5D87303EB01139B681C0C54730C
:1019200000F5D87303EB01139B681B0E937300F54E
:10193000D87303EB0113DB68D37300F5D87303EBA3
:101940000113DB681C0A147400F5D87303EB011350
:10195000DB681C0C547400F5D87303EB0113DB68CF
:101960001B0E937421B9C36843F02003C36003E0E6
:10197000036943F02003036110BD10B50246002047
:10198000936803F08063B3F1806F00D110E0936837
:1019900003F00063B3F1006F01D1012008E0936808
:1019A00003F08053B3F1805F01D1022000E00420F6
:1019B000042874D002F5C07303EB00131B6803F016
:1019C000010402F5C07303EB00131C600B7A7BB9B2
:1019D0004B7A0C8843EA445302F5C07404EB0014BC
:1019E0002468234302F5C07404EB0014236010E064
:1019F0000B7A4C6843EAC4034C7A234302F5C07463
:101A000004EB00142468234302F5C07404EB0014B3
:101A100023608B7A03F00F038B7202F5C07303EB24
:101A200000135B6823F00F0402F5C07303EB00138F
:101A30005C6002F5C07303EB00135B688C7A234390
:101A400002F5C07404EB001463608B7B1C064B7BB7
:101A500044EA03440B7B44EA0323CC7A234302F594
:101A6000C07404EB0014A3608B7C1C064B7C44EA1E
:101A700003440B7C44EA0323CC7B234302F5C0746C
:101A800004EB0014E36002F5C07303EB00131B6862
:101A900043F0010402F5C07303EB00131C6010BD9A
:101AA00010B50246002321B1012907D002290FD128
:101AB00009E090681D4C00EA04030BE090681C4CA0
:101AC00000EA040306E090681A4C00EA040301E00F
:101AD000002300BF00BF184C181BA34216D007DC20
:101AE00083B16FF08060184470B1022818D111E002
:101AF000B0F5007F10D0114C204448B1B0F5003F44
:101B00000ED10BE002230DE000230BE0002309E0DF
:101B1000002307E0012305E0012303E0012301E0A6
:101B2000002300BF00BFD8B210BD000003000004B6
:101B30000003000800000310000100080001FFF787
:101B400010B54A494A4800F097F900287ED0494923
:101B5000474800F097F84549454800F0ADF8464839
:101B600000784549497840EA0120C0F30A0043491A
:101B7000088041484078C0103F49897840EA4110C8
:101B8000C0F30A003D4948803B48807880113A49BB
:101B9000C97840EA81003849097940EA8120C0F3D8
:101BA0000A00364988803448007940103249497922
:101BB00040EAC110C0F30A003049C8802E4840797D
:101BC0000011800808722C484079C0F30110487257
:101BD0002948007C2849497C40EA0120C0F30A00DA
:101BE00026494881244880792349C97940EA01205F
:101BF00000B2224988812048007A1F49497A40EA88
:101C0000012001B21D48C1811B48807A1A49C97A56
:101C100040EA012001B2194801821748017B1748A8
:101C200081741548417B1548C1741348807B124963
:101C3000C97B40EA01201149888208460088104982
:101C400008800E48408848800C4800E00DE08088FD
:101C500088800A48C088C8800848007A0872074807
:101C6000407A487205484089488110BD00880020AC
:101C7000886402400008002094050020B000002085
:101C8000C60000200246094B9A4201D2084801E0F2
:101C90000648103801F000531BB1064B0B40C360DF
:101CA00002E0044B0B408360704700001064024068
:101CB000006002407D0F7D0F0246094B9A4201D21F
:101CC000084801E00648103801F000531BB1064BEC
:101CD0000B40C36002E0044B0B4083607047000080
:101CE00010640240006002407D0F7D0F21B1026848
:101CF00042F00102026003E0026822F00102026089
:101D000070470000016821F00101016000210160BD
:101D100041608160C1600161212141614A4988427D
:101D200004D13D21484A103A91608CE0464918316F
:101D3000884205D14FF47461434A103A916082E0C1
:101D400041493031884205D14FF474113E4A103A6E
:101D5000916078E03C494831884205D14FF0746188
:101D6000394A103A91606EE037496031884204D1B7
:101D70003649354A103AD16065E0334978318842B6
:101D800004D13349304A103AD1605CE02E49903199
:101D9000884204D12F492C4A103AD16053E02A4995
:101DA000A831884205D14FF03D51274A103AD16001
:101DB00049E02949884204D13D21274A083A116067
:101DC00041E025491831884205D14FF47461224A17
:101DD000083A116037E020493031884205D14FF48C
:101DE00074111D4A083A11602DE01B4948318842A0
:101DF00005D14FF07461184A083A116023E0164982
:101E00006031884204D11149134A121F11601AE04F
:101E100011497831884204D10D490F4A121F1160CF
:101E200011E00D499031884204D10A490A4A121F33
:101E3000116008E00849A831884204D14FF03D51B3
:101E4000054A121F11607047106002403D000020DB
:101E5000400F002000003D20106402400146486809
:101E600080B27047014600200A6802F400220AB1DD
:101E7000012000E00020704770B5024600200024D9
:101E80000025124EB24201D2114B01E00F4B103B24
:101E9000104E0E4036B11E2606EAD124166806EA18
:101EA000040502E0566906F0800501F000560EB107
:101EB0005C6800E01C68084E344004EA010616B174
:101EC0000DB1012000E0002070BD00001064024050
:101ED000006002403C0F3C0F7D0F7D0F10B501F0FC
:101EE00080034BB122B1436943F08003436103E0B7
:101EF000436923F08003436180290BD02AB1036832
:101F000001F01E042343036004E0036801F01E0493
:101F1000A343036010BD000010B500220268134BFC
:101F20001A40CC680B6823434C6923438C692343D4
:101F3000CC6923430C6A23434C6A23438C6A2343B2
:101F40004C6B23438C6B23431A430260426922F09B
:101F50000702D1E90B3423431A4342610B69436002
:101F60004B6883608B68C36010BD00003F801CF02D
:101F70007047000010B504F04DFF78B10B480068C1
:101F800001280BD10A48006808B9012000E00020B0
:101F90000749086000200549086005E004F03AFFA1
:101FA00010B901200149086010BD00007001002037
:101FB0009402434200B587B00121082000F0CEFA18
:101FC0000121480400F0DAFA00208DF81A000120FF
:101FD0008DF81B0002208DF819008DF818002020C4
:101FE000059005A9214800F0D1F802208DF81800CD
:101FF0004020059005A91D4800F0C8F807220621D9
:102000001A4800F00BF907220521184800F006F9DC
:102010004FF4E13001900020ADF80800ADF80A005F
:10202000ADF80C00ADF810000C20ADF80E0001A9C1
:102030000F4801F0A1FD01210D4801F0C0FC012273
:1020400040F225510A4801F071FD26208DF800006C
:1020500000208DF8010001208DF802008DF80300AA
:10206000684600F035FA07B000BD0000000C0240E1
:102070000044004000B58FB001213E4800F06EFAE8
:102080000121102000F09AFA072211463A4800F088
:10209000C5F880200D9002208DF8380000208DF8C2
:1020A0003A0003208DF8390000208DF83B000DA97F
:1020B000314800F06BF8314801F096FC3048099047
:1020C0000020ADF82800ADF82A004FF48060ADF88C
:1020D0002C000420ADF82E000020ADF8300009A936
:1020E000264801F049FD0121244801F068FC012245
:1020F0004021224801F06FFC44208DF83800012077
:102100008DF839008DF83A008DF83B000EA800F0EC
:10211000DFF91C48FFF7F6FD4FF00060009017480C
:10212000001D019018480290002003901220049096
:10213000002005904FF480600690002007900890E2
:102140004FF4807009904FF440300A9000200B90BB
:102150000C900D900E9069460A48FFF7DDFE0122B3
:1021600010210848FFF7BAFE01210648FFF7BEFD1F
:102170000FB000BD0200400000040240001001400A
:10218000A08601008864024094050020F0B50A464C
:1021900000210023002400BF3DE0012505FA01F3E2
:1021A000156805EA03049C4234D105684F000326F4
:1021B000BE40B543056015794E00B540066835430D
:1021C00005601579012D02D01579022D16D185688B
:1021D0004F000326BE40B543856055794E00B5409B
:1021E000866835438560456801268E40B543456065
:1021F000456896798E40B6B235434560C5684F0054
:102200000326BE40B543C560D5794E00B540C668CB
:102210003543C560491C1029BFD3F0BDF0B500237C
:1022200000244D07ED0E02FA05F3CE1000F1200553
:1022300055F826504E07F70E0F26BE40B543CF1077
:1022400000F1200646F82750CE1000F1200555F881
:10225000265045EA0304CE1000F1200545F826403B
:10226000F0BD41837047018370470000454890ED01
:10227000090AB1EE400AF3EE030A80EE201A424842
:1022800080ED031A414890ED090AF3EE030A80EE4F
:10229000201A3D4880ED071A3D4890ED090AF3EEFB
:1022A000030A80EE201A384880ED0B1A394890ED69
:1022B000090AB1EE400AF3EE030A80EE201A324812
:1022C00080ED0F1A90ED030ADFED330A20EE200AAD
:1022D00080ED020A90ED070ADFED2F0A20EE200ABA
:1022E00080ED060A90ED0B0ADFED2B0A20EE200AA6
:1022F00080ED0A0A90ED0F0ADFED270A20EE200A92
:1023000080ED0E0A90ED020AD0ED060A30EE600A6A
:10231000D0ED0A0A30EE600AD0ED0E0A30EE200A47
:10232000DFED1E0A80EE201A80ED151A90ED020AEC
:10233000B1EE400AD0ED060A30EE200AD0ED0A0ACE
:1023400030EE600AD0ED0E0A30EE200AF1EE000AFF
:1023500080EE201A80ED131A90ED020AD0ED060AE5
:1023600030EE200AD0ED0A0A30EE200AD0ED0E0A37
:1023700030EE200AF1EE000A80EE201A80ED141AE9
:1023800070470000C40A0020F00200207C0B0020EF
:10239000340C0020EC0C0020960A063F000070432D
:1023A0000E4890ED040ADFED0E0A30EE600ADFED14
:1023B0000D0A20EE200A0C4880ED250A0B4890ED0E
:1023C000040ADFED0B0A30EE600ADFED060A20EEAC
:1023D000200A054880ED210A70470000140F0020F4
:1023E00000E0FF440000343DF0020020CC0F00204C
:1023F00000C0CB4500BFFEE700B587B0012110202B
:1024000000F0ACF80121880700F0B8F800208DF842
:102410001A0001208DF81B0002208DF819008DF89C
:102420001800C001059005A92148FFF7AFFE022062
:102430008DF818008020059005A91D48FFF7A6FE1D
:10244000082207211A48FFF7E9FE0822114618481A
:10245000FFF7E4FE4FF4E13001900020ADF80800F2
:10246000ADF80A00ADF80C00ADF810000C20ADF886
:102470000E0001A90F4801F07FFB01210D4801F07A
:102480009EFA012240F225510A4801F04FFB5220EA
:102490008DF8000000208DF801008DF80200012069
:1024A0008DF80300684600F013F807B000BD000087
:1024B00000100240007800404A0A52020243014BD9
:1024C0001A60704708ED00E000BFFEE770470000AB
:1024D00070B5002100230F22C4781CB3174C246868
:1024E00004F4E064C4F5E064C4F30721C1F104041A
:1024F000E3B20A4144789C40E1B28478144021431D
:102500000C07210E0E4C05786155047804F01F0568
:102510000124AC4005786D11AD0005F1E025C5F84A
:10252000004109E0047804F01F050124AC40054D8A
:102530000678761145F8264070BD00000CED00E0ED
:1025400000E400E080E100E002490143024A11603A
:10255000704700000000FA050CED00E029B1064AC2
:1025600012680243044B1A6004E0034A1268824373
:10257000014B1A60704700003038024029B1064A0A
:1025800012680243044B1A6004E0034A1268824353
:10259000014B1A60704700004038024029B1064ADA
:1025A00012680243044B1A6004E0034A1268824333
:1025B000014B1A60704700002038024029B1064ADA
:1025C00012680243044B1A6004E0034A1268824313
:1025D000014B1A60704700004438024029B1064A96
:1025E00012680243044B1A6004E0034A12688243F3
:1025F000014B1A607047000024380240F0B50021FA
:1026000000220024022500260223324F3F6807F0F3
:102610000C0121B1042905D0082937D105E02E4F3E
:10262000076036E02D4F076033E02A4F3F1F3F68B9
:10263000C7F38056274F3F1F3F6807F03F036EB137
:10264000264FB7FBF3F7DFF88CC0ACF1040CDCF8D5
:1026500000C0CCF3881C07FB0CF40CE01E4FB7FB4A
:10266000F3F7DFF870C0ACF1040CDCF800C0CCF379
:10267000881C07FB0CF4174F3F1F3F68C7F3014747
:102680007F1C7D00B4FBF5F7076002E0124F076086
:1026900000BF00BF0F4F3F6807F0F0010909104F5E
:1026A0007A5C0768D74047600A4F3F6807F4E051FB
:1026B000890A0B4F7A5C4768D7408760054F3F68AF
:1026C00007F46041490B064F7A5C4768D740C76002
:1026D000F0BD0000083802400024F400001BB700E1
:1026E000000000202DE9F04105460E46B046404668
:1026F00004F070FF07462878A5280AD1002403E0DB
:10270000285D3855601CC4B2B442F9DB384600F08D
:1027100005F8384603F000FEBDE8F08138B5044600
:102720000020009000254C4821680160217901714A
:102730006D1D601900880090AD1CBDF8000040F2CE
:102740000222811A904256D016DCB0F5817F3AD031
:102750000ADC012821D0022826D0032828D0A0F2A4
:102760000110002875D129E0A0F2031080B30128E0
:1027700036D0FE286DD138E0042951D006DC01297D
:102780003FD0022943D0032963D144E005294BD02F
:10279000062950D0FF295CD151E060192F490288E9
:1027A0000A808078887055E02D48615D017051E0A5
:1027B00061191C222B48FDF72BFD4BE061192A48BB
:1027C0000968016046E0611928480968016041E034
:1027D000FFE76019264902880A808078887039E00E
:1027E000611924480988018034E061190F222248C8
:1027F000FDF70EFD2EE061190E222048FDF708FDC1
:1028000028E0611910221E48FDF702FD22E01D4854
:10281000615D01701EE061191B480988018019E0A3
:102820001A48615D017015E06019194902680A6073
:10283000808888800EE01748615D01700AE06019A9
:10284000154902680A6042684A608068886001E051
:10285000FFE700BF00BF38BD8A0000208F000020C6
:1028600092000020380400209300002097000020F0
:102870009B0000209E0000205404002063040020E0
:1028800071040020A0000020A1000020A30000206F
:10289000A4000020AA0000208104002000B58FB011
:1028A00001214FF04010FFF759FE01212020FFF7D2
:1028B00085FE082209214648FFF7B0FC4FF400705E
:1028C0000D9002208DF8380000208DF83A0003208A
:1028D0008DF8390000208DF83B000DA93C48FFF72A
:1028E00055FC3C4801F080F84FF4E130099000209D
:1028F000ADF82800ADF82A004FF48060ADF82C0048
:102900000420ADF82E000020ADF8300009A93148B0
:1029100001F032F901212F4801F051F80122402144
:102920002C4801F058F847208DF8380001208DF828
:1029300039008DF83A008DF83B000EA8FFF7C8FD6E
:1029400039208DF8380001208DF8390002208DF8EB
:102950003A0001208DF83B000EA8FFF7B9FD1E4894
:10296000FFF7D0F94FF0206000901A48001D019049
:102970001A480290002003908020049000200590C7
:102980004FF4806006900020079008904FF480700C
:1029900009904FF440300A9000200B900C900D905D
:1029A0000E9069460C48FFF7B7FA012240F2244125
:1029B000084801F0BBF8012240F22551054801F01A
:1029C000B5F801210448FFF791F90FB000BD0000F0
:1029D000001802400014014028640240AE050020A7
:1029E00010B575480068012801D105F09CFF7248B8
:1029F000006808B905F091FF7048D0ED121AB0EEEA
:102A0000611AD0ED111AF0EE610AD0ED101AB0EE95
:102A1000610A03F07FFA6A480078012807D1674805
:102A2000D0ED180AB0EE600A06F00AF906E0634835
:102A3000D0ED160AB0EE600A06F05CF96148007845
:102A400005281AD16048007801280BD15B4890ED29
:102A5000201AF0EE410A90ED241AB0EE410A03F07C
:102A60002DFD0AE0554890ED1E1AF0EE410A90ED5A
:102A7000221AB0EE410A03F077FD5448D0ED051A52
:102A8000B0EE611AD0ED041AF0EE610AD0ED031A2F
:102A9000B0EE610A06F004FA4948007801280ED128
:102AA0004A48D0ED081AB0EE611AD0ED071AF0EEE0
:102AB000610AD0ED061AB0EE610A02F021FE434829
:102AC000D0ED0B1AB0EE611AD0ED0A1AF0EE610AE1
:102AD000D0ED091AB0EE610A06F0E2FC3A4800783F
:102AE00001281AD1394890ED143AF0EE432A90EDBE
:102AF000133AB0EE432A90ED123AF0EE431A90EDFD
:102B00000E3AB0EE431A90ED0D3AF0EE430A90ED16
:102B10000C3AB0EE430A02F0ADFC2C4890ED173AA7
:102B2000F0EE432A90ED163AB0EE432A90ED153AB6
:102B3000F0EE431A90ED113AB0EE431A90ED103AD0
:102B4000F0EE430A90ED0F3AB0EE430A06F008FAB1
:102B500005F0EAFD05F054FE05F02CFE194800785A
:102B6000042813D11A4890ED000ABCEEC00A10EEFA
:102B7000101A184800F0CFFC174890ED000ABCEE80
:102B8000C00A10EE101A134800F0C7FC0B4991ED73
:102B90001A0ABCEEC00A10EE101A88B203F0E4FB69
:102BA000064991ED1A0ABCEEC00A10EE101A88B25E
:102BB00003F0E4FB10BD000080010020F0020020C3
:102BC0006E000020690000206D000020D803002066
:102BD0007401002000000140780100200CB50020A5
:102BE000019000904148006840F480303F490860FF
:102BF00000BF3E48006800F4003000900198401C7F
:102C00000190009818B90198B0F5A04FF1D137485C
:102C1000006800F4003010B10120009001E00020B5
:102C200000900098012860D130484030006840F0A2
:102C300080502E49403108602D48006840F44040E3
:102C40002B49086029480830006828490831086085
:102C50000846006840F4004008600846006840F4F8
:102C6000A05008602348091F0860081F006840F052
:102C70008070091F086000BF1C48006800F00070E9
:102C80000028F9D01A48006840F4803018490860DC
:102C900000BF1748406800F480300028F9D014487D
:102CA000006840F400301249086000BF10484068D6
:102CB00000F400300028F9D040F205700E49086099
:102CC0000A480830006820F003000849083108600D
:102CD0000846006840F00200086000BF0348083062
:102CE000006800F00C000828F8D10CBD0038024044
:102CF000007000400C5A4007003C0240F0B504460A
:102D00000D4616461F461448006840F0010012495F
:102D1000086000201049083108600F4800680F491A
:102D200008400D4908600E48091D0860081F00682A
:102D300020F48020091F0860002007490C3108603A
:102D40003B4632462946204600F00CF80021084652
:102D5000FFF7B2FBF0BD000000380240FFFFF6FEB7
:102D600010300024F0B504460D46002100203D4EF1
:102D7000366846F480363B4F3E6001E04E1CB1B2EF
:102D8000384E366806F400361EB941F6FF76B14279
:102D9000F4DB41F6FF76B14201D1012060E0314E13
:102DA0004036366846F080562E4F40373E602E4EF5
:102DB000366846F440462C4F3E602A4E0836366848
:102DC00046F41446274F08373E60264E366826F0F4
:102DD0008076244F3E6045EA84160127C7EB5207F0
:102DE00046EA074646EA036646F480061D4F3F1D45
:102DF0003E603E1F366846F080763F1F3E6000BF53
:102E0000184E366806F00076002EF9D0174E366858
:102E100046F48076154F3E603E46366846F40076AE
:102E20003E603E46366846F480663E603E46366802
:102E300046F005063E600B4E0836366826F003065F
:102E4000084F08373E603E46366846F002063E6050
:102E500000BF044E0836366806F00C06082EF8D17E
:102E6000F0BD00000038024000700040003C02400D
:102E700010B51548006840F4700013490860134805
:102E8000006840F001001149086000200F49083136
:102E900008600E4800680E4908400C4908600D485B
:102EA000091D0860081F006820F48020091F0860C1
:102EB000002006490C310860FFF790FE4FF00060DB
:102EC00001498039086010BD88ED00E000380240FB
:102ED000FFFFF6FE1030002400B58BB0012108463C
:102EE000FFF73CFB01210846FFF768FB01220821A0
:102EF0003948FFF793F94FF48070099002208DF85C
:102F0000280003208DF8290000208DF82A000120D8
:102F10008DF82B0009A93048FFF738F90122092163
:102F20002D48FFF77BF94FF40070099002208DF8CF
:102F3000280003208DF8290000208DF82A000120A8
:102F40008DF82B0009A92448FFF720F944F61F60EB
:102F50000790B320ADF818000020ADF82000ADF8C0
:102F60001A008DF8220006A91C4800F033FB6020EF
:102F7000ADF804000120ADF806000420ADF808000B
:102F80000020ADF810000820ADF812000020ADF8C8
:102F90001400ADF8160040F2DC50039001A90F4870
:102FA00000F06EF908210D4800F0A8F901A90B48BE
:102FB00000F0AEF90821094800F0FCF901210748AA
:102FC00000F01AF90121054800F025F90121034814
:102FD00000F02DF90BB000BD0000024000000140E0
:102FE00010B50121880700F031F9012804D1054806
:102FF0000068401C034908600121880700F008F9B7
:1030000010BD00008400002010B501214C4800F0E4
:103010001DF9012871D14B480068401C49490860DE
:1030200049480078012801D104F016FF474800788C
:10303000002840D146480078012804D105F0E4F981
:1030400000204349087043480078012804D105F066
:1030500073FA00203F4908703F480078012806D1E4
:1030600005F0EAFA05F02EFA00203B4908703B48CB
:103070000078012806D105F0A9FA02F0E5FB00204E
:103080003649087036480078012802D100203449BA
:10309000087034480078012804D105F097FA002020
:1030A0003049087030480078012804D105F0FEFA54
:1030B00000202D49087023480068072190FBF1F299
:1030C00001FB120008B9FFF78BFC1E4800681F21A6
:1030D00090FBF1F201FB120008B9FEF74BFF194813
:1030E00000684FF4FA7190FBF1F201FB120058B93D
:1030F0001E48006810B9012001E01CE000201B49B7
:10310000086000200F4908600E490868C11700EBED
:1031100091718910A0EB810109B9FFF7A7F8FFF7BA
:103120003FF904F0ADFD07480068B0F57A7F02DB97
:103130000120044908600121014800F069F810BD30
:1031400000040040140000206B0000206C000020F0
:10315000190000201A0000201B0000201C00002085
:103160001D0000201E0000201F0000208802434296
:103170007FB505460C4601210220FFF7FFF90295B5
:10318000ADF804400020ADF80600ADF80C0001A930
:103190000D4800F01FFA012211460B4800F067F8B5
:1031A0000121094800F037F81D208DF800000220A9
:1031B0008DF8010001208DF802008DF803006846AB
:1031C000FFF786F97FBD00000004004010B5012123
:1031D000074800F03BF8012804D106480068401C6D
:1031E000044908600121024800F012F810BD0000F7
:1031F000000800408000002021B1028842F08002D7
:10320000028004E002884FF67F731A400280704704
:10321000CA430282704721B1028842F00102028053
:1032200004E002884FF6FE731A400280704731B105
:10323000B0F8442042F40042A0F8442005E0B0F881
:103240004420C2F30E02A0F84420704730B5024675
:10325000002000230024158A05EA0103958905EA68
:10326000010413B10CB1012000E0002030BD1AB1FF
:1032700083890B43838102E083898B438381704779
:1032800070B5002400220023058C4FF6FE763540F1
:103290000584028C8388048B4FF68F752C40B51EF5
:1032A0002C400D882C43751E2A408D892A434D8859
:1032B0002A43104DA84202D00F4DA84213D14FF619
:1032C000F7752A40CD892A434FF6FB752A408D8831
:1032D0002A434FF6FF652B404FF6FF552B400D8AD2
:1032E0002B434D8A2B43838004838D68456302847E
:1032F00070BD000000000140000401400A460021AA
:10330000018B4FF6F773194011430183704700009A
:1033100070B5002400220023058C4FF6EF7635406F
:103320000584028C8388048B48F6FF752C404FF689
:10333000FF452C400D884FF6FF7606EA05252C4305
:103340004FF6DF752A408D8906EA05152A434D8818
:1033500006EA05152A43154DA84202D0144DA8428D
:103360001DD14FF67F752A40CD894FF6FF7606EACC
:1033700005152A434FF6BF752A408D8806EA0515C4
:103380002A434FF6FF352B404FF2FF752B400D8A35
:1033900006EA85052B434D8A06EA85052B43838083
:1033A00004838D688563028470BD000000000140C5
:1033B000000401400A460021018B4FF2FF731940BF
:1033C0004FF6FF7303EA022319430183704700009D
:1033D00070B5002400220023058C4FF6FF663540AF
:1033E0000584028C8388848B4FF68F752C404FF6B2
:1033F000FC752C400D882C434FF6FF552A408D89D3
:103400004FF6FF7606EA05252A434D8806EA05258C
:103410002A43154DA84202D0144DA8421DD14FF2A7
:10342000FF752A40CD894FF6FF7606EA05252A4327
:103430004FF6FF352A408D8806EA05252A434EF6C9
:10344000FF752B404DF6FF752B400D8A06EA0515DA
:103450002B434D8A06EA05152B43838084838D68B0
:10346000C563028470BD00000000014000040140FB
:103470000A460021818B4FF6F7731940114381836F
:103480007047000070B5002200230024058C4EF622
:10349000FF7635400584038C8488828B48F6FF755F
:1034A0002A404FF6FF452A400D884FF6FF7606EA80
:1034B00005252A434DF6FF752B408D8906EA053513
:1034C0002B434D8806EA05352B430A4DA84202D00E
:1034D000094DA84208D14BF6FF752C400D8A4FF6D6
:1034E000FF7606EA85152C43848082838D68056407
:1034F000038470BD00000140000401400A46002121
:10350000818B4FF2FF7319404FF6FF7303EA0223DA
:103510001943818370474163704781637047C1637A
:10352000704701647047000000B58BB00121084668
:10353000FFF724F801210846FFF720F801220221B5
:103540002348FEF76BFE0420099002208DF8280026
:1035500000208DF82A0002208DF8290000208DF827
:103560002B0009A91A48FEF711FE40F2CF70079010
:1035700040F28330ADF818000020ADF82000ADF81F
:103580001A0006A94FF0804000F024F86020ADF842
:1035900004000120ADF8060000200390ADF81000F3
:1035A00001A94FF08040FFF713FF0821C806FFF77D
:1035B0005FFF01218807FFF71FFE01218807FFF742
:1035C00036FE01218807FFF726FE0BB000BD000084
:1035D0000000024000220288184B98420ED0184B7F
:1035E00098420BD0B0F1804F08D0164B984205D0CE
:1035F000154B984202D0154B984204D14FF68F7369
:103600001A404B881A43124B984207D0114B9842EC
:1036100004D04FF6FF431A400B891A4302804B68CF
:10362000C3620B880385054B984202D0044B984235
:1036300001D18B7A03860123838270470000014009
:10364000000401400004004000080040000C00405D
:10365000001000400014004010B540F224410F4813
:1036600000F03AFAC8B10D4800880D4908600B48CF
:103670008088086000210B48FEF738FB0948FEF7F8
:10368000EDFBC0F1C80006490860C8210648FCF7F8
:10369000E6FD01210348FEF729FB10BD0050004064
:1036A000AC000020106002409004002010B540F2F1
:1036B00025517B4800F010FA002817D0784800F018
:1036C000C5FAC4B22A2C12D196217648FCF7C7FD60
:1036D0000020754908707548007840F00100734972
:1036E00008700846007800F0FD000870CCE03B2C24
:1036F0001DD100206C49087001206D4908706B488D
:10370000007840F00200694908700846007800F02F
:10371000FE00087096216748FCF7A1FD61496548E5
:10372000FCF7C7FD96215F48FCF799FDACE03F2C04
:103730001DD100205C49087001205F4908705B487A
:10374000007840F00200594908700846007800F0FF
:10375000FE00087096215748FCF781FD51495548F5
:10376000FCF7A7FD96214F48FCF779FD8CE0212C52
:103770001DD100204C4908700120504908704B4869
:10378000007840F00200494908700846007800F0CF
:10379000FE00087096214748FCF761FD4149454805
:1037A000FCF787FD96213F48FCF759FD6CE02E2C75
:1037B0001DD100203C4908700120414908703B4858
:1037C000007840F00200394908700846007800F09F
:1037D000FE00087096213748FCF741FD3149354815
:1037E000FCF767FD96212F48FCF739FD4CE03E2C95
:1037F0001DD100202C4908700120324908702B4847
:10380000007840F00200294908700846007800F06E
:10381000FE00087096212748FCF721FD2149254824
:10382000FCF747FD96211F48FCF719FD2CE02B2CD7
:103830001DD100201C4908700120234908701B4835
:10384000007840F00200194908700846007800F03E
:10385000FE00087096211748FCF701FD1149154834
:10386000FCF727FD96210F48FCF7F9FC0CE00F4808
:10387000007800F0010038B10B4801780078401C56
:10388000094A10700748445440F22771044800F078
:1038900023F94FF45871024800F082F810BD00007F
:1038A00000780040B4010020220000201800002011
:1038B000190000204A0200201A0000201B000020EE
:1038C0001C0000201D0000201E00002010B540F24A
:1038D00025512F4800F000F950B140F225512C48F5
:1038E00000F05EF8002240F22551294800F01EF950
:1038F00040F22441264800F0EFF8002846D0244842
:1039000000882348001D00882248FEF7ABFAF0B972
:1039100000212048FEF7EAF91E48FEF79FFAC0F1A1
:1039200080001D49088080201A49091D0860081F71
:10393000006840F40020091F086001211548FEF7C7
:10394000D5F9154801881548FEF7CCFE1EE0002188
:103950001048FEF7CBF90F48FEF780FAC0F180005F
:103960000D49088080200B49091D0860081F006868
:1039700020F40020091F086001210648FEF7B6F96F
:103980000548018805488038FEF7ACFE10BD0000F0
:103990000014014028640240D60000202E060020BA
:1039A00010B50022002340F66A14A14200D100BFE6
:1039B0000A1201249440A3B2DC43048010BD21B15B
:1039C000828942F40052828104E082894DF6FF73BD
:1039D0001A40828170471AB1838A0B43838202E0C6
:1039E000838A8B438382704710B5044632488442F1
:1039F00008D101211020FEF7F1FD00211020FEF773
:103A0000EDFD57E02D48844209D101214804FEF71D
:103A1000C5FD00214FF40030FEF7C0FD4AE0284804
:103A2000844209D101218804FEF7B8FD00214FF43A
:103A30008020FEF7B3FD3DE02248844209D10121F8
:103A4000C804FEF7ABFD00214FF40020FEF7A6FDF1
:103A500030E01D48844209D101210805FEF79EFD92
:103A600000214FF48010FEF799FD23E017488442AF
:103A700008D101212020FEF7B1FD00212020FEF712
:103A8000ADFD17E01248844209D101218807FEF7F5
:103A900085FD00214FF08040FEF780FD0AE00D48D3
:103AA000844207D101214005FEF778FD0021600521
:103AB000FEF774FD10BD00000010014000440040FE
:103AC00000480040004C00400050004000140140FD
:103AD00000780040007C004070B5024600240023BE
:103AE0000025002040F66A16B14200D100BFC1F3A4
:103AF000421501F01F03012606FA03F3012D02D13E
:103B00009689334006E0022D02D1168A334001E047
:103B1000968A33400C12012606FA04F416883440C3
:103B200013B10CB1012000E0002070BDF0B50346D8
:103B3000002400260025002040F66A17B94200D173
:103B400000BF1846C1F3421401F01F06012707FA0F
:103B500006F5012C01D10C3004E0022C01D110300B
:103B600000E014301AB107682F43076002E00768CD
:103B7000AF430760F0BD00002DE9FF4705460E4644
:103B80000024A14600BFA046B08900B100BF2C8A26
:103B900024F44054F08804432C82AC8941F20C6038
:103BA0008443B08831890843718908430443AC8158
:103BB000AC8A24F44074B0890443AC826846FEF7B2
:103BC0001DFD2048854202D01F48854202D1DDF804
:103BD0000C9001E0DDF80890A88900F4004040B1A5
:103BE00009EBC90000EB091031684900B0FBF1F79F
:103BF00007E009EBC90000EB091031688900B0FB50
:103C0000F1F76420B7FBF0F004012009642101FB07
:103C10001078A88900F4004040B1322000EBC800C1
:103C2000B0FBF1F000F00700044308E0322000EBA5
:103C300008106421B0FBF1F000F00F0004432C8168
:103C4000BDE8FF870010014000140140014688884C
:103C5000C0F30800704700BFFEE700000021C1600C
:103C6000016101604160816041618161C161016206
:103C700041629FED040A80ED0A0A9FED020A80ED81
:103C80000B0A70470000000000B50B48FFF7E6FF85
:103C90000A48FFF7E3FF0A48FFF7E0FF0948FFF78C
:103CA000DDFF0948FFF7DAFF0848FFF7D7FF0848AC
:103CB000FFF7D4FF00BD0000FC0A0020B40B002079
:103CC0006C0C0020240D0020DC0D002004100020CE
:103CD0004C0F00200FB41CB50A46521ECDE900025D
:103CE00007A9054B6A46069801F022F8009A0021C0
:103CF00011701CBC5DF814FB5F5400087CB5491EB4
:103D00001C461546CDE90001044B6A46214628466B
:103D100001F00EF8009A002111707CBD5F5400087C
:103D200030B47446641E2578641CAB4200D21D4634
:103D3000635D5B00E31830BC184703B40198410091
:103D4000009850EAC12018BF04204A0D18BF40F067
:103D5000010040F2FF72B2EB515F08BF40F0020079
:103D6000012808BF052002B0704701224900520512
:103D7000D14201D1002801D00020704701207047B6
:103D8000002800D001200143480002494008081AD9
:103D9000C00F70470000F07F00487047A801002066
:103DA0002DE9F04D2DED040B2DED0E8B96B0DDE9D8
:103DB0002550279CDDF890A025F0004624F000480F
:103DC000BAF1000F14BF0121002101EB4502FC49AB
:103DD00053184A1093422AD3002814BF012300230A
:103DE00003EB44030B44F7498B4220D358EA00010C
:103DF0009FEDF59B76D0DFF8D8B35D4503D1BAF1DE
:103E0000000F05D188E0BAF1000F08BF002100D0F3
:103E1000012101EB450111F5001F08D8002814BF4E
:103E20000121002101EB440111F5001F0BD99DED8B
:103E3000261B9DED240B16B0BDEC0E8B04B0BDE827
:103E4000F04D00F069BE0027002DBCBFE149884558
:103E500021DAE1498845A8BF02271CDAC3451ADCEC
:103E6000DE4901EB2851142908DDC1F1340220FAA2
:103E700002F101FA02F282420DD108E058B9C1F113
:103E8000140228FA02F101FA02F2424503D101F0CC
:103E90000101C1F1020756EA0A0124D1002C22DAFD
:103EA000002D18BF022F01D0012F0AD0022000F0F0
:103EB0007FFE16B0BDEC0E8B04B0BDE8F04D00F0F7
:103EC00013BE022000F074FE00F00EFE51EC100B49
:103ED00081F0004141EC100B16B0BDEC0E8B04B02C
:103EE000BDE8F08D18E09FEDBEAB9FEDBF8B0028C5
:103EF00071D1B848804522D105F1804010F580107D
:103F000008BFBAF1000F07D0B3450ADC002CA8BFE8
:103F10009DED260BE0DA0DE0B0EE490AF0EE690AFD
:103F2000DAE7002C06DA9DED260B51EC100B81F040
:103F300000416FE0AE48784490ED000BCCE7D845E7
:103F40004DD1002C48DA2EB186423AD1BAF1000F99
:103F500042D126E0BAF1000F13D0022000F028FE73
:103F600000F0F6FD8DED020B9DED240B8DED000BA9
:103F700010EE900A039961F31E0003909DED020B71
:103F8000AAE78DED02AB9DED240B1AEE901A10EE10
:103F9000900A8DED000B61F31E0003909DED020B66
:103FA0009AE78DED028B9DED240B18EE901A10EE22
:103FB000900A8DED000B61F31E0003909DED020B46
:103FC0008AE709DA9DED240B51EC190B53EC102B09
:103FD000FCF793FA1EE020E09DED240B7CE786427F
:103FE0001BDAB4F1804F0DD0A4F10050B0F1FF50B6
:103FF00013D1002D11DB9DED240B51EC100B04F0BF
:1040000055FC07E09DED240B53EC102B51EC100BED
:1040100000F0C2BC41EC100B5EE79DED240B51ECAF
:10402000100B02F027F9BAF1000FCDE90E0142D1D1
:104030009FED710B46B3A6F1E040B0F17F600CD06C
:104040005E4538D1002D00DAA7B3022F0CBF012046
:104050004FF0FF30FCF7D6FADCE7002D01DD002C35
:104060000DDA002D01DD002C1FDB002D16DA002CEF
:1040700014DB012F08BF9FED620B3FF42DAFB0EEB4
:104080004A0AF0EE6A0A27E7022F18BF002D0CD06B
:10409000012F0AD1002DFFF61FAF06E0002DB8BF9B
:1040A000002C08DA012F3FF417AFB0EE480AF0EE0B
:1040B000680A11E71BE0012000EBE57050EA0701F8
:1040C00015D0791EB0EE498AF0EE698A084308BF20
:1040D0009FED4D8B4E480025804570DD4D494E4883
:1040E000884514DDB0420DDB002C19DB2FE00120E8
:1040F00000F05EFD16B0BDEC0E8B04B0BDE8F04DD7
:1041000000F016BDB34502DC002C09DC1FE086423E
:1041100002DA002C1BDA03E05E452BDD002C16DDF5
:10412000022000F045FD00F013FD8DED020B53EC75
:104130001A2B51EC180BFCF76EF9CDE9000103992D
:10414000019861F31E0003909DED020BC4E602206E
:1041500000F02EFD00F00CFD10EE901A18EE900A03
:104160008DED020B8DED008B61F31E0003909DED34
:10417000020BB1E69DED0E0B53EC192B51EC100B1D
:10418000FCF743F99FED260BCDE9080153EC102B0A
:104190009DED080B51EC100BFCF73DF99FED221B38
:1041A00053EC112BFCF734F99DED081B53EC112B4C
:1041B000FCF731F99FED1E1B53EC112B3CE08CE01A
:1041C000FFFF1F00FFFF0F00000000000000F03F96
:1041D0000000F03F0000F07F0000404301FCFFFFC3
:1041E000000000000000F07F000000000000000060
:1041F0003E560000000000000000000000000080AB
:10420000000000000000F0FF000000000000F0BF10
:104210000000E0410000F043FFFFEF3F000000001E
:10422000000000000000D03F555555555555D53F6D
:10423000000000000000E03FFCF7EAF89DED080BED
:1042400041EC1A0B53EC102B51EC100BFCF7E3F87C
:1042500053EC1A2BFCF7DFF841EC1A0B9FEDFE0B29
:1042600053EC102B9DED080B51EC100BFCF7D3F821
:1042700041EC1B0B9FEDFA0B51EC1A0B53EC102B7E
:10428000FCF7C9F841EC1A0B9FEDF70B53EC102B20
:104290009DED080B51EC100BFCF7BDF853EC1A2BFD
:1042A000FCF7B3F841EC1A0B51EC1B0B53EC1A2B37
:1042B000FCF70AF80690CDE906519DED060B53EC8C
:1042C0001B2B51EC100BFCF7A0F853EC1A2BFCF74E
:1042D0009FF841EC100B00F0A1B90020B6F5801F4B
:1042E0000EDA9FEDE30B53EC102B9DED0E0B51EC12
:1042F000100BFCF790F8CDE90E016FF034000E467C
:1043000000EB2650A0F2FF37C6F31300DA4940F065
:104310007F6646F040568842D8BF002408DDD74962
:104320008142C8BF012403DC0024A6F580167F1C4F
:10433000D348784400EBC4000F9690ED00CB9DED80
:104340000E0B53EC1C2B51EC100BFCF75EF89DEDA3
:104350000E0B41EC1B0B53EC1C2B51EC100BFBF721
:10436000B3FF41EC100B51EC190B53EC102BFCF785
:10437000C4F841EC1D0B51EC1B0B53EC1D2BFCF74F
:104380004AF841EC1A0BBF488DED10AB78441095FC
:1043900090ED000B4FF0005040EA660000EB8440C7
:1043A0008DED080B00F5002009909DED080B53ECF6
:1043B0001C2B51EC100BFCF728F89DED0E1B53EC59
:1043C000112BFCF725F841EC100B53EC102B9DED55
:1043D000100B51EC100BFCF71EF89DED080B41EC97
:1043E0001C0B53EC102B9DED100B51EC100BFCF73C
:1043F00012F853EC1B2BFCF70BF853EC1C2BFCF7BF
:1044000004F853EC1D2BFCF706F841EC1C0B53ECA5
:104410001A2B51EC1A0BFBF7FEFF41EC1B0B9A48D1
:104420000621B0EE4B0AF0EE6B0A784400F0E0FA99
:10443000B0EE401AF0EE601AB0EE41DAF0EE61DA5A
:1044400053EC1B2B51EC1B0BFBF7E5FF53EC1D2B27
:10445000FBF7E1FF9DED100B41EC1B0B53EC1A2B0E
:1044600051EC100BFBF730FF53EC1C2BFBF7D3FF89
:1044700053EC1B2BFBF728FF9DED100B41EC1B0BA6
:1044800053EC102B51EC100BFBF7C5FF41EC1D0B4F
:104490009FED7FEB53EC1E2BFBF716FF53EC1B2B12
:1044A000FBF712FF0890CDE908519DED080B53EC86
:1044B0001E2B51EC100BFBF7A8FF53EC1D2BFBF749
:1044C000A4FF53EC1B2BFBF7A3FF9DED080B41EC66
:1044D0001D0B53EC102B9DED100B51EC100BFBF74B
:1044E0009AFF41EC1B0B53EC1A2B51EC1D0BFBF705
:1044F00092FF9DED080B41EC1A0B53EC102B51EC85
:104500001C0BFBF788FF53EC1A2BFBF7DDFE41EC8D
:104510001A0B51EC1B0B53EC1A2BFBF7D5FE0C902E
:10452000CDE90C519DED0C0B53EC1B2B51EC100BFA
:10453000FBF76BFF53EC1A2BFBF76AFF41EC1B0BED
:104540009FED550B53EC102B9DED0C0B51EC100B0C
:10455000FBF761FF41EC1A0B9FED510B51EC1B0B6C
:1045600053EC102BFBF757FF41EC1B0B9FED4E0B51
:1045700053EC102B9DED0C0B51EC100BFBF74BFF8C
:1045800053EC1B2BFBF7A0FE41EC100B4848784482
:1045900000EBC40090ED001B51EC100B53EC112B01
:1045A000FBF792FE41EC1B0B3846FCF72BF8CDE9EC
:1045B000080153EC1B2B51EC1A0BFBF785FE41EC69
:1045C000100B3C48784400EBC40090ED00CB51EC5C
:1045D000100B53EC1C2BFBF777FE9DED081B53ECE7
:1045E000112BFBF771FE0690CDE906519DED080BEE
:1045F00053EC102B9DED060B51EC100BFBF705FF58
:1046000053EC1C2BFBF701FF53EC1A2BFBF7FDFEC1
:1046100053EC1B2BFBF7FCFE41EC100B9DED261B16
:1046200053EC102B8DED001B00959DED260B51ECEE
:10463000100BFBF7F0FE9DED000B41EC1A0B53EC59
:10464000102B9DED260B51EC100BFBF7DEFE9DEDC4
:10465000061B53EC112B2FE0000000604715F73FBD
:10466000FE822B654715F73F44DF5DF80BAE543EE5
:1046700000000000000040438E9803007AB60B0053
:10468000BA510000E8510000F250000000000000A4
:104690000000000000000840000000E009C7EE3FF5
:1046A000FD033ADC09C7EE3FF5015B14E02F3EBE87
:1046B0007E4F0000384F0000FBF7ADFE53EC1A2B85
:1046C000FBF702FE9DED060B41EC1A0B53EC102B91
:1046D0009DED000B51EC100BFBF79DFECDE90C019D
:1046E0009DED0C0B51EC1A0B53EC102BFBF7ECFD72
:1046F000CDE902010C46AA498C422FDB611A08431E
:1047000018D19DED0C0B53EC102B9DED020B51ECD1
:10471000100BFBF77AFE41EC1B0B9FEDA30B51EC4A
:104720001A0B53EC102BFBF7CFFD53EC1B2BFBF7B5
:10473000C5FF2DD2022000F03BFA00F009FA10EE7E
:10474000901A18EE900A8DED020B8DED008B61F33F
:104750001E0003909DED020BFFF7BEBB944A24F0B0
:104760000041914214D39349214408437FF4EFACB4
:104770009DED0C0B53EC102B9DED020B51EC100B2F
:10478000FBF743FE53EC1A2BFBF798FF7FF6DFACE9
:1047900024F000408849894A002601EB20518242DA
:1047A0002BDA481C4FF4801121FA00F02044844A8F
:1047B000C0F30A517A44A1F2FF3192ED000B814A15
:1047C0008DED080BCA4020EA0202C0F3130040F44A
:1047D0008010C1F1140120FA01F60992002CB8BF33
:1047E00076429DED080B53EC102B9DED0C0B51EC1C
:1047F000100BFBF70AFECDE90C019DED0C0B51EC03
:104800001A0B53EC102BFBF75FFD9FED6F0B08901D
:10481000CDE9085153EC102B9DED080B51EC100B1A
:10482000FBF7F9FD41EC1B0B9FED690B53EC102BD3
:104830009DED080B51EC100BFBF7EDFD9DED0C0B06
:1048400041EC1C0B53EC102B9DED080B51EC100BA5
:10485000FBF7DBFD53EC1A2BFBF7DAFD9FED5E1B3C
:1048600053EC112BFBF7D7FD53EC1C2BFBF72CFD66
:1048700041EC1A0B51EC1B0B53EC1A2BFBF724FDEC
:10488000CDE902019DED020B53EC1B2B51EC100BFB
:10489000FBF7BBFD53EC1A2BFBF7BAFD9DED020BAA
:1048A00041EC1A0B53EC102B51EC100BFBF7B3FD42
:1048B000CDE908014A489DED080B0521784400F038
:1048C00097F89DED081B51EC100B53EC112BFBF7E7
:1048D000A2FD9DED021B53EC112BFBF799FDCDE9D9
:1048E00006019DED020B53EC1A2B51EC100BFBF75C
:1048F00092FD53EC1A2BFBF7E7FC9FED3B0B41ECD1
:104900001A0B53EC102B9DED060B51EC100BFBF723
:104910007CFD9DED060B41EC1B0B53EC102B9DED2C
:10492000020B51EC100BFBF776FD53EC1B2BFBF746
:10493000E4FD53EC1A2BFBF768FD9DED021B53ECD5
:10494000112BFBF762FD53EC192BFBF761FDCDE951
:10495000020101EB065001150029C8BF039015DCC8
:104960009DED020B324651EC100BFCF767F8FFF798
:10497000E4F9042808BF00F0FBF832469DED020B75
:1049800051EC100BFCF75AF8CDE902019DED020B3A
:1049900051EC180B53EC102BFBF73DFDFFF73ABB26
:1049A0000000904000000000FE822B654715973CF8
:1049B00000CC904000346F3F01FCFFFF0000E03F5F
:1049C000C04D0000FFFF0F0000000000432EE63F37
:1049D000396CA80C615C20BEEF39FAFE422EE63F2E
:1049E000904C0000000000000000000000000040AB
:1049F00070B504462DED028B4D1E00EBC500B0EEE8
:104A0000408AF0EE608A90ED000B35F0060017D07A
:104A100053EC182B51EC100BFBF7FDFC41EC100B89
:104A20006D1E04EBC50090ED001B51EC100B53EC18
:104A3000112BFBF749FC41EC100B35F00600E7D1D8
:104A4000022D36D0042D1CD0062D1CBFBDEC028BD0
:104A500070BD53EC182B51EC100BFBF7DCFC94ED04
:104A60000A1B53EC112BFBF72FFC53EC182BFBF715
:104A7000D2FC94ED081B53EC112BFBF725FC41EC09
:104A8000100B53EC182B51EC100BFBF7C4FC94EDFE
:104A9000061B53EC112BFBF717FC53EC182BFBF701
:104AA000BAFC94ED040B53EC102BFBF70DFC41EC1E
:104AB000100B53EC182B51EC100BFBF7ACFC94EDE6
:104AC000021B53EC112BFBF7FFFB53EC182BFBF7EE
:104AD000A2FC94ED001B53EC112BFBF7F5FBBDEC96
:104AE000028B41EC100B70BD9FED070B10B553EC22
:104AF000102B9FED070B51EC100BFBF7FEFC41EC6C
:104B0000100B10BD000000000000000000000000BD
:104B1000000000000000F03F10B553EC112B51ECE9
:104B2000100BFBF7D1FB41EC100B10BD0000000097
:104B30009FED050B10B553EC102B51EC100BFBF750
:104B4000DCFC41EC100B10BD000000000000000078
:104B50009FED050B10B553EC102B51EC100BFBF730
:104B60005AFC41EC100B10BD00000000000000706A
:104B70009FED050B10B553EC102B51EC100BFBF710
:104B80004AFC41EC100B10BD0000000000000010BA
:104B900002E008C8121F08C1002AFAD17047704706
:104BA000002001E001C1121F002AFBD17047000064
:104BB0000149086070470000A80100202DE9FF5F4F
:104BC000DDE90220010DDDF838B0024318D044F6CB
:104BD0001050A1F2FF3141430D140F98012820D04D
:104BE000A5EB0B00401C5FEA000A4FF00004474EA3
:104BF000DFF81C91A046504616D5CAF1000728E000
:104C00000F98012443A2012808D0002100980F9B8F
:104C1000C0E90021C0E90243BDE8FF9F6FEA0B0134
:104C2000F4E7CBF10000DEE7074612E0F80707D013
:104C30002246334640464946FBF7EDFB804689460F
:104C40002246334610461946FBF7E5FB04460E465E
:104C50007F10002FEAD1DDE90201BAF1000F4246D0
:104C60004B4602DAFBF7D7FB01E0FBF746FC0446B4
:104C70000E460022284BFBF721FD03D84FF0FF30F2
:104C8000014607E00022254B20463146FBF71CFB7E
:104C9000FBF7EBFE102409E0002C0ADB0A220023BC
:104CA000FBF740FD019B30321A55641E50EA0102A9
:104CB000F2D1641C019AC4F1110314440F9A012A21
:104CC00003D0012208430DD10AE0084304D000209C
:104CD0004FF0110B0F9080E7A3EB0B056D1E0DE05D
:104CE0005B4504DD4FF0000205F1010504E003DA45
:104CF0004FF00002A5F10105002AECD000980F99B1
:104D0000C0E90231C0E9004586E700000000244008
:104D10000000F03F300000000000F0430000E03FE2
:104D200030380A2801D20120704700207047000067
:104D30002DE9FF4F95B09B468946064600250FE2B8
:104D4000252877D100242746F84A0121059400E060
:104D5000044316F8013F203B01FA03F01042F7D15B
:104D600030782A2811D06FF02F033078A0F130026C
:104D7000092A16D8059A44F0020402EB820203EBDA
:104D800042021044761C0590EFE759F8042B059277
:104D9000002A03DA504244F40054059044F002041F
:104DA000761C30782E2816D116F8010F44F0040432
:104DB0002A280DD06FF02F023078A0F13003092B94
:104DC00009D807EB870302EB4303C718761CF3E708
:104DD00059F8047B761C30786C280FD006DC4C2800
:104DE00017D068280DD06A2814D104E0742810D098
:104DF0007A280FD10DE044F400140AE044F4801442
:104E000001E044F440147278824202D104F5801427
:104E1000761C761C307866280BD013DC582877D0A7
:104E200009DC002875D04528F6D04628F4D047285C
:104E30001AD19DE118E0632835D0642879D065281F
:104E400012D195E1702873D008DC6728F1D0692869
:104E50006FD06E280DD06F2806D1B5E073282CD006
:104E6000752875D0782874D05A46179990476D1CCC
:104E700075E1C4F30250022809D003280DD0D9F8F7
:104E8000001004280DD00D6009F1040967E1D9F87C
:104E90000010EA17C1E90052F6E7D9F800100D80BA
:104EA000F2E70D70F0E719F8041B8DF800100020F0
:104EB0008DF80100EA46012003E059F804AB4FF0F9
:104EC000FF3061074FF0000102D40DE008F101014D
:104ED0008846B9420FDA8045F8DB1AF80810002935
:104EE000F4D108E008F1010188468142FADB1AF8A2
:104EF00008100029F6D105985B46A0EB080721466B
:104F00003846179A00F094FA284400EB080507E0A9
:104F10004DE029E10DE01AF8010B5A461799904728
:104F2000B8F10108F7D25B4621463846179A13E1DB
:104F300042E00A220092C4F302524FF0000A022A11
:104F400008D059F804CB032A4FEAEC710AD00DE0DF
:104F500029E02AE009F1070121F00702F2E802C185
:104F6000914609E00FFA8CFC4FEAEC71042A03D158
:104F70004FFA8CFC4FEAEC71002907DA0A4600214F
:104F8000DCF1000C61EB02012D2202E0220504D5C8
:104F90002B228DF80420012203E0E20701D0202219
:104FA000F7E7904659E00A2102E010220DE01021B7
:104FB0004FF0000A00910BE010224FF0000A44F07D
:104FC00004040827009203E008224FF0000A009230
:104FD000C4F30252022A05D059F804CB0021032A57
:104FE00008D009E009F1070121F00702F2E802C147
:104FF000914605E01FFA8CFC042A01D10CF0FF0C4D
:105000004FF00008220728D5702806D0009B83F0B7
:10501000100353EA0A0305D00EE040228DF8042065
:10502000012208E05CEA010206D030228DF804205B
:105030008DF8050002229046009B83F0080353EA96
:105040000A030AD15CEA010201D1620705D53022C8
:105050008DF804204FF001087F1E582804D034A09A
:1050600003900EA802900DE036A0F9E75346604683
:10507000009AFBF757FB84460398825C0298401E17
:10508000029002705CEA0100F0D1029806A9081AA9
:1050900000F1200A600702D524F4803400E00127E3
:1050A000574502DDA7EB0A0000E0002000EB0A01F3
:1050B000009005984144401A0590E00306D45B46F1
:1050C0002146179A059800F0B3F90544002706E039
:1050D00001A85A46C05D179990476D1C7F1C474533
:1050E000F6DBE0030CD55B462146179A059800F0E5
:1050F0009FF9054404E030205A46179990476D1CEB
:105100000099481E00900029F5DC08E002980299F9
:105110005A460078491C0291179990476D1CBAF1C4
:105120000001AAF1010AF1DC65E100000928010093
:10513000303132333435363738396162636465660D
:1051400000000000303132333435363738394142CF
:10515000434445460000000000F058F90544761C21
:10516000307800287FF4ECAD19B02846BDE8F08F08
:10517000620700D4062709F1070222F0070CFCE8B9
:105180000223E14603F000485FEA080C02D00FF268
:10519000702C0DE05FEA045C02D50FF2682C07E08A
:1051A0005FEAC47C02D00FF2602C01E0AFF2700C19
:1051B0004FF0FF3823F00043CDF850C065280CD0E5
:1051C00006DC452809D046281DD047283DD13DE0C2
:1051D000662818D067287ED138E00021112F01DB26
:1051E000112000E0781CCDE9000106A90EA8FFF708
:1051F000E5FCDDE90F010E9A03910021009207F111
:10520000010A04914DE04FF000400097CDE90110F4
:1052100006A90EA8FFF7D2FCDDE90F0203920E9B50
:1052200011990022DDF80CA00093049211B9791CA9
:1052300000EB010AB7EB0A0004D4C0F1FF3007F11C
:10524000010A0490AAEB0700019044E0012F00DA64
:1052500001270021112F01DD112000E03846CDE9A2
:10526000000106A90EA8FFF7A9FCDDE90F010E9ABF
:105270000391002104910092BA4621070CD40399AE
:10528000514500DA8A46BAF1010F05DD009AAAF10C
:105290000101515C302908D0B84202DA10F1040F44
:1052A00006DA0121CDE9011015E0AAF10101E9E7D3
:1052B000002805DC049901440491AAEB000102E0F6
:1052C000411C514500DD8A460499401A401C01905A
:1052D0004FF000400290200704D40198504501DBB4
:1052E000CDF8048000208DF84F0002980DF14F0793
:1052F000B0F1004F25D02B200E9002984FF00208FD
:1053000000280CDA404202902D200E9007E00A217E
:105310000298FAF767FF3031029007F8011DB8F1E3
:105320000001A8F10108F2DC02980028EFD1791EF3
:105330000E980870307800F0200040F0450007F823
:10534000020D12A8C01B00F107081498007800B1E4
:10535000012000EB0A01019801EBE071059841443E
:10536000401A401E0590E00306D45B462146179A7A
:10537000059800F05DF805441498007818B15A4675
:10538000179990476D1CE00324D55B462146179A78
:10539000059800F04DF805441CE00498002807DB50
:1053A000DDE90301884203DD0098405C179901E0C4
:1053B000179930205A469047049805F10105401C82
:1053C00004900198401E019004D12E205A4617994E
:1053D00090476D1CBAF10001AAF1010ADDDC05E07D
:1053E00017F8010B5A46179990476D1CB8F1000148
:1053F000A8F10108F4DC5B462146179A0598ABE654
:105400002D0000002B000000200000002DE9F041DD
:10541000044600251E461746880404D405E0394694
:105420002020B0476D1C641EF9D52846BDE8F081E8
:105430002DE9F041044600251E469046C80301D5DB
:10544000302700E02027880404D505E0414638468F
:10545000B0476D1C641EF9D52846BDE8F0814A6846
:10546000002A06D00A68531C0B6010704868401E62
:105470004860704700B5F0EE403AB0EE604AF0EE9A
:10548000414AB0EE613A1F4890ED040ABDEEC00AF1
:1054900080ED270A1C4890ED040ABDEEC00A80ED9D
:1054A000270A042019490870B0EE641AF0EE440A85
:1054B000B0EE630A1348903000F02AF80520134933
:1054C0000870B0EE621AF0EE420AB0EE430A0E48DF
:1054D000903000F01DF800200C49087000BF09480A
:1054E000D0F8B0104164D0F8B00006498862064890
:1054F000D0F8B0104164D0F8B0000349886200BF12
:1055000000BD0000140F0020CC0F00204000002040
:1055100010B5D0E90321891A01607749097801297A
:1055200073D0022972D0042902D005296FD14BE033
:10553000D0ED001AF8EEE11A61EE801AFDEEE11AE4
:10554000C0ED051AD0E90012891A01EE901AF8EEA2
:10555000E11A61EE811AFDEEE11AC0ED071A016849
:1055600041604169412901DD41214161416911F1F8
:10557000410F02DA6FF040014161C2694169114493
:10558000412902DD412101620DE0C26941691144F6
:1055900011F1410F03DA6FF04001016203E0C269CB
:1055A000416911440162C2694169002A01DB134665
:1055B00000E05342002901DB0C4600E04C42A342CC
:1055C00001DB0021016294E0D0ED001AF8EEE11A4F
:1055D00061EE801AFDEEE11AC0ED051AD0E9001265
:1055E000891A01EE901AF8EEE11A61EE811AFDEEC9
:1055F000E11AC0ED071A01684160C26941691144AE
:105600001E2905DD1E21016210E041E00FE06FE080
:10561000C2694169114411F11E0F03DA6FF01D01D7
:10562000016203E0C26941691144016261E0D0EDA9
:10563000001AF8EEE11A61EE801AFDEEE11AC0EDF3
:10564000051AD0E90012891A01EE901AF8EEE11A53
:1056500061EE811AFDEEE11AC0ED071A01684160A2
:10566000C269416911444CF25032914202DD114647
:1056700001620CE0C26941691144204A914202DA98
:105680001146016203E0C26941691144016230E0E0
:10569000D0ED001AF8EEE11A61EE801AFDEEE11A83
:1056A000C0ED051AD0E90012891A01EE901AF8EE41
:1056B000E11A61EE811AFDEEE11AC0ED071A0168E8
:1056C0004160C26941691144412902DD4121016201
:1056D0000DE0C2694169114411F1410F03DA6FF025
:1056E0004001016203E0C26941691144016200E0C6
:1056F00000BF00BF10BD000040000020B03CFFFF15
:1057000000B5B0EE402AF0EE602AB0EE413A114802
:10571000C169D0F8B400091A0E48C0F89C100220E4
:105720000D490870B0EE431AF0EE620AB0EE420A7C
:1057300008489030FFF7ECFE00200749087000BFD2
:105740000448D0F8B0104164D0F8B0000149886234
:1057500000BF00BDA40D00204000002070B50D4624
:1057600004998C0099008918AA0010182246FAF7AB
:105770004FFD70BD00B587B04FF4A060FCF7E4FEAC
:1057800001212020FCF71AFF01214020FCF7E6FE52
:105790004FF48440059002208DF818008DF8190010
:1057A00000208DF81A0001208DF81B0005A91E4865
:1057B000FCF7ECFC4FF4E13001900020ADF8100054
:1057C0000C20ADF80E000020ADF80C00ADF80A007A
:1057D000ADF8080008220E211348FCF71FFD08222F
:1057E00009211148FCF71AFD01A91048FEF7C4F978
:1057F000012240F225510D48FEF798F947208DF817
:10580000000001208DF8030000208DF80100022027
:105810008DF802006846FCF75BFE01210348FEF7A5
:10582000CEF807B000BD000000180240001401408F
:105830000A680C30824204D14868824201D10120BA
:105840007047002070470000DFED220AB0EE600ACA
:105850002148D0ED200A9FED211AF4EEC10AF1EEA5
:1058600010FA15D2D0ED200A9FED1D1AF4EEC10AF0
:10587000F1EE10FA0CDD90ED201ADFED1A0A40EE81
:10588000010AB7EE001A60EE810A1748C0ED000A5F
:105890001148D0ED240A9FED111AF4EEC10AF1EE81
:1058A00010FA15D2D0ED240A9FED0D1AF4EEC10ABC
:1058B000F1EE10FA0CDD90ED241ADFED0C0A40EE4B
:1058C000010AB7EE001A60EE810A0948C0ED000A2D
:1058D0007047000055551540F00200200000B4C28A
:1058E0000000B4420080BB44740100200040A14489
:1058F000780100202DE9F0412DED0E8B05460C4678
:1059000016461F4673480078042802D005287DD12A
:105910006AE09FED718AA01C85422EDBA11C781ADB
:10592000FAF770FE41EC1C0BA11C681AFAF76AFE2C
:1059300041EC1E0B9FED690B53EC102BFAF76BFD3E
:1059400041EC1D0B53EC1C2BFAF7D7FD41EC1B0B64
:105950009FED640B53EC102BFAF75DFD41EC1A0B35
:105960009FED620B53EC102BFAF752FD41EC190B33
:10597000FAF7BCFE08EE100A35E0A01EA8422EDBA6
:10598000A11E881BFAF73EFE41EC1C0BA11E481B12
:10599000FAF738FE41EC1E0B9FED500B53EC102B29
:1059A000FAF739FD41EC1D0B53EC1C2BFAF7A5FD62
:1059B00041EC1B0B9FED4F0B53EC102BFAF72BFD1B
:1059C00041EC1A0B9FED490B53EC102BFAF77CFCC2
:1059D00041EC190BFAF78AFE08EE100A03E09FED7E
:1059E0003E0AB0EE408A6DE09FED448AA01C8542DD
:1059F00030DBA11C781AFAF705FE41EC1C0BA11C48
:105A0000681AFAF7FFFD41EC1E0B00E059E09FED2C
:105A1000330B53EC102BFAF7FEFC41EC1D0B53EC4F
:105A20001C2BFAF76AFD41EC1B0B9FED350B53EC79
:105A3000102BFAF7F0FC41EC1A0B9FED330B53ECF3
:105A4000102BFAF7E5FC41EC190BFAF74FFE08EEC4
:105A5000100A35E0A01EA8422EDBA11E881BFAF713
:105A6000D1FD41EC1C0BA11E481BFAF7CBFD41EC0C
:105A70001E0B9FED1A0B53EC102BFAF7CCFC41ECEC
:105A80001D0B53EC1C2BFAF738FD41EC1B0B9FED63
:105A9000200B53EC102BFAF7BEFC41EC1A0B9FEDD8
:105AA0001A0B53EC102BFAF70FFC41EC190BFAF719
:105AB0001DFE08EE100A03E09FED100AB0EE408ACA
:105AC00000E000BF00BFB0EE480ABDEC0E8BBDE8A1
:105AD000F0810000690000200080BB44000000004D
